{
  "contractName": "TabX",
  "abi": [
    {
      "anonymous": false,
      "inputs": [
        {
          "indexed": true,
          "internalType": "uint256",
          "name": "groupId",
          "type": "uint256"
        }
      ],
      "name": "AutoSettlementExecuted",
      "type": "event"
    },
    {
      "anonymous": false,
      "inputs": [
        {
          "indexed": true,
          "internalType": "uint256",
          "name": "groupId",
          "type": "uint256"
        },
        {
          "indexed": false,
          "internalType": "uint256",
          "name": "timestamp",
          "type": "uint256"
        }
      ],
      "name": "AutoSettlementScheduled",
      "type": "event"
    },
    {
      "anonymous": false,
      "inputs": [
        {
          "indexed": true,
          "internalType": "uint256",
          "name": "groupId",
          "type": "uint256"
        },
        {
          "indexed": true,
          "internalType": "address",
          "name": "debtor",
          "type": "address"
        },
        {
          "indexed": true,
          "internalType": "address",
          "name": "creditor",
          "type": "address"
        },
        {
          "indexed": false,
          "internalType": "uint256",
          "name": "amount",
          "type": "uint256"
        }
      ],
      "name": "DebtSettled",
      "type": "event"
    },
    {
      "anonymous": false,
      "inputs": [
        {
          "indexed": true,
          "internalType": "uint256",
          "name": "groupId",
          "type": "uint256"
        },
        {
          "indexed": true,
          "internalType": "address",
          "name": "debtor",
          "type": "address"
        },
        {
          "indexed": true,
          "internalType": "address",
          "name": "creditor",
          "type": "address"
        },
        {
          "indexed": false,
          "internalType": "uint256",
          "name": "amount",
          "type": "uint256"
        }
      ],
      "name": "EscrowUsedForSettlement",
      "type": "event"
    },
    {
      "anonymous": false,
      "inputs": [
        {
          "indexed": true,
          "internalType": "uint256",
          "name": "groupId",
          "type": "uint256"
        },
        {
          "indexed": true,
          "internalType": "address",
          "name": "owner",
          "type": "address"
        },
        {
          "indexed": false,
          "internalType": "string",
          "name": "name",
          "type": "string"
        }
      ],
      "name": "GroupCreated",
      "type": "event"
    },
    {
      "anonymous": false,
      "inputs": [
        {
          "indexed": true,
          "internalType": "uint256",
          "name": "groupId",
          "type": "uint256"
        }
      ],
      "name": "GroupDeleted",
      "type": "event"
    },
    {
      "anonymous": false,
      "inputs": [
        {
          "indexed": true,
          "internalType": "uint256",
          "name": "groupId",
          "type": "uint256"
        },
        {
          "indexed": false,
          "internalType": "address",
          "name": "member",
          "type": "address"
        }
      ],
      "name": "MemberAdded",
      "type": "event"
    },
    {
      "anonymous": false,
      "inputs": [
        {
          "indexed": true,
          "internalType": "uint256",
          "name": "groupId",
          "type": "uint256"
        },
        {
          "indexed": false,
          "internalType": "address",
          "name": "member",
          "type": "address"
        }
      ],
      "name": "MemberRemoved",
      "type": "event"
    },
    {
      "anonymous": false,
      "inputs": [
        {
          "indexed": true,
          "internalType": "uint256",
          "name": "groupId",
          "type": "uint256"
        },
        {
          "indexed": true,
          "internalType": "address",
          "name": "user",
          "type": "address"
        },
        {
          "indexed": false,
          "internalType": "uint256",
          "name": "amount",
          "type": "uint256"
        }
      ],
      "name": "SecurityDeposited",
      "type": "event"
    },
    {
      "anonymous": false,
      "inputs": [
        {
          "indexed": true,
          "internalType": "address",
          "name": "user",
          "type": "address"
        },
        {
          "indexed": false,
          "internalType": "string",
          "name": "username",
          "type": "string"
        }
      ],
      "name": "UserRegistered",
      "type": "event"
    },
    {
      "inputs": [
        {
          "internalType": "uint256",
          "name": "",
          "type": "uint256"
        }
      ],
      "name": "autoSettlementEnabled",
      "outputs": [
        {
          "internalType": "bool",
          "name": "",
          "type": "bool"
        }
      ],
      "stateMutability": "view",
      "type": "function",
      "constant": true
    },
    {
      "inputs": [
        {
          "internalType": "uint256",
          "name": "",
          "type": "uint256"
        }
      ],
      "name": "autoSettlementTime",
      "outputs": [
        {
          "internalType": "uint256",
          "name": "",
          "type": "uint256"
        }
      ],
      "stateMutability": "view",
      "type": "function",
      "constant": true
    },
    {
      "inputs": [
        {
          "internalType": "uint256",
          "name": "",
          "type": "uint256"
        },
        {
          "internalType": "address",
          "name": "",
          "type": "address"
        },
        {
          "internalType": "address",
          "name": "",
          "type": "address"
        }
      ],
      "name": "debtSettled",
      "outputs": [
        {
          "internalType": "bool",
          "name": "",
          "type": "bool"
        }
      ],
      "stateMutability": "view",
      "type": "function",
      "constant": true
    },
    {
      "inputs": [],
      "name": "groupCount",
      "outputs": [
        {
          "internalType": "uint256",
          "name": "",
          "type": "uint256"
        }
      ],
      "stateMutability": "view",
      "type": "function",
      "constant": true
    },
    {
      "inputs": [
        {
          "internalType": "uint256",
          "name": "",
          "type": "uint256"
        },
        {
          "internalType": "address",
          "name": "",
          "type": "address"
        }
      ],
      "name": "groupEscrow",
      "outputs": [
        {
          "internalType": "uint256",
          "name": "",
          "type": "uint256"
        }
      ],
      "stateMutability": "view",
      "type": "function",
      "constant": true
    },
    {
      "inputs": [
        {
          "internalType": "address",
          "name": "",
          "type": "address"
        }
      ],
      "name": "registered",
      "outputs": [
        {
          "internalType": "bool",
          "name": "",
          "type": "bool"
        }
      ],
      "stateMutability": "view",
      "type": "function",
      "constant": true
    },
    {
      "inputs": [
        {
          "internalType": "address",
          "name": "",
          "type": "address"
        }
      ],
      "name": "usernameOf",
      "outputs": [
        {
          "internalType": "string",
          "name": "",
          "type": "string"
        }
      ],
      "stateMutability": "view",
      "type": "function",
      "constant": true
    },
    {
      "inputs": [
        {
          "internalType": "string",
          "name": "username",
          "type": "string"
        }
      ],
      "name": "registerUser",
      "outputs": [],
      "stateMutability": "nonpayable",
      "type": "function"
    },
    {
      "inputs": [
        {
          "internalType": "string",
          "name": "name",
          "type": "string"
        }
      ],
      "name": "createGroup",
      "outputs": [],
      "stateMutability": "nonpayable",
      "type": "function"
    },
    {
      "inputs": [
        {
          "internalType": "uint256",
          "name": "groupId",
          "type": "uint256"
        }
      ],
      "name": "deleteGroup",
      "outputs": [],
      "stateMutability": "nonpayable",
      "type": "function"
    },
    {
      "inputs": [
        {
          "internalType": "uint256",
          "name": "groupId",
          "type": "uint256"
        },
        {
          "internalType": "address",
          "name": "member",
          "type": "address"
        }
      ],
      "name": "addMember",
      "outputs": [],
      "stateMutability": "nonpayable",
      "type": "function"
    },
    {
      "inputs": [
        {
          "internalType": "uint256",
          "name": "groupId",
          "type": "uint256"
        },
        {
          "internalType": "address",
          "name": "member",
          "type": "address"
        }
      ],
      "name": "removeMember",
      "outputs": [],
      "stateMutability": "nonpayable",
      "type": "function"
    },
    {
      "inputs": [
        {
          "internalType": "uint256",
          "name": "groupId",
          "type": "uint256"
        }
      ],
      "name": "depositSecurity",
      "outputs": [],
      "stateMutability": "payable",
      "type": "function",
      "payable": true
    },
    {
      "inputs": [
        {
          "internalType": "uint256",
          "name": "groupId",
          "type": "uint256"
        },
        {
          "internalType": "string",
          "name": "debtorUsername",
          "type": "string"
        },
        {
          "internalType": "uint256",
          "name": "paymentAmount",
          "type": "uint256"
        }
      ],
      "name": "settleDebtByName",
      "outputs": [],
      "stateMutability": "payable",
      "type": "function",
      "payable": true
    },
    {
      "inputs": [
        {
          "internalType": "uint256",
          "name": "groupId",
          "type": "uint256"
        },
        {
          "internalType": "address",
          "name": "creditor",
          "type": "address"
        },
        {
          "internalType": "uint256",
          "name": "amount",
          "type": "uint256"
        }
      ],
      "name": "settleFromEscrow",
      "outputs": [],
      "stateMutability": "nonpayable",
      "type": "function"
    },
    {
      "inputs": [
        {
          "internalType": "uint256",
          "name": "groupId",
          "type": "uint256"
        },
        {
          "internalType": "uint256",
          "name": "delayInSeconds",
          "type": "uint256"
        }
      ],
      "name": "scheduleAutoSettlement",
      "outputs": [],
      "stateMutability": "nonpayable",
      "type": "function"
    },
    {
      "inputs": [
        {
          "internalType": "uint256",
          "name": "groupId",
          "type": "uint256"
        }
      ],
      "name": "triggerAutoSettlement",
      "outputs": [],
      "stateMutability": "nonpayable",
      "type": "function"
    },
    {
      "inputs": [
        {
          "internalType": "uint256",
          "name": "groupId",
          "type": "uint256"
        }
      ],
      "name": "getGroupMembers",
      "outputs": [
        {
          "internalType": "address[]",
          "name": "",
          "type": "address[]"
        }
      ],
      "stateMutability": "view",
      "type": "function",
      "constant": true
    },
    {
      "inputs": [
        {
          "internalType": "uint256",
          "name": "groupId",
          "type": "uint256"
        },
        {
          "internalType": "address",
          "name": "debtor",
          "type": "address"
        },
        {
          "internalType": "address",
          "name": "creditor",
          "type": "address"
        }
      ],
      "name": "isSettled",
      "outputs": [
        {
          "internalType": "bool",
          "name": "",
          "type": "bool"
        }
      ],
      "stateMutability": "view",
      "type": "function",
      "constant": true
    },
    {
      "inputs": [
        {
          "internalType": "uint256",
          "name": "groupId",
          "type": "uint256"
        }
      ],
      "name": "getGroupInfo",
      "outputs": [
        {
          "internalType": "uint256",
          "name": "id",
          "type": "uint256"
        },
        {
          "internalType": "string",
          "name": "name",
          "type": "string"
        },
        {
          "internalType": "address",
          "name": "owner",
          "type": "address"
        },
        {
          "internalType": "bool",
          "name": "exists",
          "type": "bool"
        }
      ],
      "stateMutability": "view",
      "type": "function",
      "constant": true
    }
  ],
  "bytecode": "0x608060405234801561001057600080fd5b50614082806100206000396000f3fe60806040526004361061011f5760003560e01c80638f23b326116100a0578063d9715a7711610064578063d9715a771461040f578063dc2ddcae14610438578063e374867f14610461578063feff2d641461049e578063ff7c1300146104db5761011f565b80638f23b3261461030157806399d4360f1461032c578063aaef289b1461036c578063b2dd5c0714610395578063b86fbcd3146103d25761011f565b8063460ff0b3116100e7578063460ff0b3146102205780636be7658b14610249578063704f1b941461027257806374d0a6761461029b5780637898acef146102c45761011f565b80631303b31614610124578063226ba2541461016157806322aeddfd1461019e57806336cc8130146101ba57806345d88d2d146101f7575b600080fd5b34801561013057600080fd5b5061014b60048036038101906101469190613134565b6104f7565b6040516101589190613a23565b60405180910390f35b34801561016d57600080fd5b50610188600480360381019061018391906130f8565b610533565b6040516101959190613d44565b60405180910390f35b6101b860048036038101906101b391906130cf565b610558565b005b3480156101c657600080fd5b506101e160048036038101906101dc91906130cf565b6107e4565b6040516101ee9190613a01565b60405180910390f35b34801561020357600080fd5b5061021e600480360381019061021991906130cf565b6108ed565b005b34801561022c57600080fd5b506102476004803603810190610242919061323e565b610ae2565b005b34801561025557600080fd5b50610270600480360381019061026b91906130f8565b610d16565b005b34801561027e57600080fd5b506102996004803603810190610294919061308a565b6112ad565b005b3480156102a757600080fd5b506102c260048036038101906102bd91906130f8565b611479565b005b3480156102d057600080fd5b506102eb60048036038101906102e69190613061565b61183c565b6040516102f89190613a62565b60405180910390f35b34801561030d57600080fd5b506103166118dc565b6040516103239190613d44565b60405180910390f35b34801561033857600080fd5b50610353600480360381019061034e91906130cf565b6118e2565b6040516103639493929190613d5f565b60405180910390f35b34801561037857600080fd5b50610393600480360381019061038e91906130cf565b611a41565b005b3480156103a157600080fd5b506103bc60048036038101906103b79190613061565b6120df565b6040516103c99190613a23565b60405180910390f35b3480156103de57600080fd5b506103f960048036038101906103f49190613134565b6120ff565b6040516104069190613a23565b60405180910390f35b34801561041b57600080fd5b5061043660048036038101906104319190613183565b6121a5565b005b34801561044457600080fd5b5061045f600480360381019061045a919061308a565b61276e565b005b34801561046d57600080fd5b50610488600480360381019061048391906130cf565b612a02565b6040516104959190613d44565b60405180910390f35b3480156104aa57600080fd5b506104c560048036038101906104c091906130cf565b612a1a565b6040516104d29190613a23565b60405180910390f35b6104f560048036038101906104f091906131d2565b612a3a565b005b6004602052826000526040600020602052816000526040600020602052806000526040600020600092509250509054906101000a900460ff1681565b6007602052816000526040600020602052806000526040600020600091509150505481565b806002600082815260200190815260200160002060050160009054906101000a900460ff166105bc576040517f08c379a00000000000000000000000000000000000000000000000000000000081526004016105b390613c44565b60405180910390fd5b6000803373ffffffffffffffffffffffffffffffffffffffff1673ffffffffffffffffffffffffffffffffffffffff16815260200190815260200160002060009054906101000a900460ff16610647576040517f08c379a000000000000000000000000000000000000000000000000000000000815260040161063e90613aa4565b60405180910390fd5b6002600083815260200190815260200160002060040160003373ffffffffffffffffffffffffffffffffffffffff1673ffffffffffffffffffffffffffffffffffffffff16815260200190815260200160002060009054906101000a900460ff166106e7576040517f08c379a00000000000000000000000000000000000000000000000000000000081526004016106de90613ae4565b60405180910390fd5b6000341161072a576040517f08c379a000000000000000000000000000000000000000000000000000000000815260040161072190613b24565b60405180910390fd5b346007600084815260200190815260200160002060003373ffffffffffffffffffffffffffffffffffffffff1673ffffffffffffffffffffffffffffffffffffffff168152602001908152602001600020600082825461078a9190613e20565b925050819055503373ffffffffffffffffffffffffffffffffffffffff16827f727e8f9e2fbd8ac7a580d0bdf7a9970f75e0ca84c2abc9affb47c35f6a3434f1346040516107d89190613d44565b60405180910390a35050565b6060816002600082815260200190815260200160002060050160009054906101000a900460ff1661084a576040517f08c379a000000000000000000000000000000000000000000000000000000000815260040161084190613c44565b60405180910390fd5b600260008481526020019081526020016000206003018054806020026020016040519081016040528092919081815260200182805480156108e057602002820191906000526020600020905b8160009054906101000a900473ffffffffffffffffffffffffffffffffffffffff1673ffffffffffffffffffffffffffffffffffffffff1681526020019060010190808311610896575b5050505050915050919050565b6000803373ffffffffffffffffffffffffffffffffffffffff1673ffffffffffffffffffffffffffffffffffffffff16815260200190815260200160002060009054906101000a900460ff16610978576040517f08c379a000000000000000000000000000000000000000000000000000000000815260040161096f90613aa4565b60405180910390fd5b806002600082815260200190815260200160002060050160009054906101000a900460ff166109dc576040517f08c379a00000000000000000000000000000000000000000000000000000000081526004016109d390613c44565b60405180910390fd5b813373ffffffffffffffffffffffffffffffffffffffff166002600083815260200190815260200160002060020160009054906101000a900473ffffffffffffffffffffffffffffffffffffffff1673ffffffffffffffffffffffffffffffffffffffff1614610a81576040517f08c379a0000000000000000000000000000000000000000000000000000000008152600401610a7890613ce4565b60405180910390fd5b60006002600085815260200190815260200160002060050160006101000a81548160ff021916908315150217905550827f05f39787bb37d43683a578f1d720308a1e4cd944934f11f73c9564925aca900d60405160405180910390a2505050565b6000803373ffffffffffffffffffffffffffffffffffffffff1673ffffffffffffffffffffffffffffffffffffffff16815260200190815260200160002060009054906101000a900460ff16610b6d576040517f08c379a0000000000000000000000000000000000000000000000000000000008152600401610b6490613aa4565b60405180910390fd5b816002600082815260200190815260200160002060050160009054906101000a900460ff16610bd1576040517f08c379a0000000000000000000000000000000000000000000000000000000008152600401610bc890613c44565b60405180910390fd5b823373ffffffffffffffffffffffffffffffffffffffff166002600083815260200190815260200160002060020160009054906101000a900473ffffffffffffffffffffffffffffffffffffffff1673ffffffffffffffffffffffffffffffffffffffff1614610c76576040517f08c379a0000000000000000000000000000000000000000000000000000000008152600401610c6d90613ce4565b60405180910390fd5b8242610c829190613e20565b600560008681526020019081526020016000208190555060016006600086815260200190815260200160002060006101000a81548160ff021916908315150217905550837f04d2adfd4cded3956948671c960401bf0110c3f2204e000f9d9342ff62d24ee76005600087815260200190815260200160002054604051610d089190613d44565b60405180910390a250505050565b6000803373ffffffffffffffffffffffffffffffffffffffff1673ffffffffffffffffffffffffffffffffffffffff16815260200190815260200160002060009054906101000a900460ff16610da1576040517f08c379a0000000000000000000000000000000000000000000000000000000008152600401610d9890613aa4565b60405180910390fd5b816002600082815260200190815260200160002060050160009054906101000a900460ff16610e05576040517f08c379a0000000000000000000000000000000000000000000000000000000008152600401610dfc90613c44565b60405180910390fd5b823373ffffffffffffffffffffffffffffffffffffffff166002600083815260200190815260200160002060020160009054906101000a900473ffffffffffffffffffffffffffffffffffffffff1673ffffffffffffffffffffffffffffffffffffffff1614610eaa576040517f08c379a0000000000000000000000000000000000000000000000000000000008152600401610ea190613ce4565b60405180910390fd5b60006002600086815260200190815260200160002090508060040160008573ffffffffffffffffffffffffffffffffffffffff1673ffffffffffffffffffffffffffffffffffffffff16815260200190815260200160002060009054906101000a900460ff16610f4f576040517f08c379a0000000000000000000000000000000000000000000000000000000008152600401610f4690613c24565b60405180910390fd5b8060020160009054906101000a900473ffffffffffffffffffffffffffffffffffffffff1673ffffffffffffffffffffffffffffffffffffffff168473ffffffffffffffffffffffffffffffffffffffff161415610fe2576040517f08c379a0000000000000000000000000000000000000000000000000000000008152600401610fd990613bc4565b60405180910390fd5b60008160040160008673ffffffffffffffffffffffffffffffffffffffff1673ffffffffffffffffffffffffffffffffffffffff16815260200190815260200160002060006101000a81548160ff02191690831515021790555060005b816003018054905081101561126d578473ffffffffffffffffffffffffffffffffffffffff168260030182815481106110a1577f4e487b7100000000000000000000000000000000000000000000000000000000600052603260045260246000fd5b9060005260206000200160009054906101000a900473ffffffffffffffffffffffffffffffffffffffff1673ffffffffffffffffffffffffffffffffffffffff16141561125a5781600301600183600301805490506111009190613e76565b81548110611137577f4e487b7100000000000000000000000000000000000000000000000000000000600052603260045260246000fd5b9060005260206000200160009054906101000a900473ffffffffffffffffffffffffffffffffffffffff1682600301828154811061119e577f4e487b7100000000000000000000000000000000000000000000000000000000600052603260045260246000fd5b9060005260206000200160006101000a81548173ffffffffffffffffffffffffffffffffffffffff021916908373ffffffffffffffffffffffffffffffffffffffff16021790555081600301805480611220577f4e487b7100000000000000000000000000000000000000000000000000000000600052603160045260246000fd5b6001900381819060005260206000200160006101000a81549073ffffffffffffffffffffffffffffffffffffffff0219169055905561126d565b808061126590613f66565b91505061103f565b50847f1c4c9d2e56d0635d11bc47c997c6909a0d7061f55cbb8f4b27386db37553191c8560405161129e91906139e6565b60405180910390a25050505050565b6000803373ffffffffffffffffffffffffffffffffffffffff1673ffffffffffffffffffffffffffffffffffffffff16815260200190815260200160002060009054906101000a900460ff1615611339576040517f08c379a000000000000000000000000000000000000000000000000000000000815260040161133090613b44565b60405180910390fd5b6000828290501161137f576040517f08c379a000000000000000000000000000000000000000000000000000000000815260040161137690613a84565b60405180910390fd5b60016000803373ffffffffffffffffffffffffffffffffffffffff1673ffffffffffffffffffffffffffffffffffffffff16815260200190815260200160002060006101000a81548160ff0219169083151502179055508181600160003373ffffffffffffffffffffffffffffffffffffffff1673ffffffffffffffffffffffffffffffffffffffff1681526020019081526020016000209190611424929190612f4a565b503373ffffffffffffffffffffffffffffffffffffffff167f48cac28ad4dc618e15f4c2dd5e97751182f166de97b25618318b2112aa951a2f838360405161146d929190613a3e565b60405180910390a25050565b6000803373ffffffffffffffffffffffffffffffffffffffff1673ffffffffffffffffffffffffffffffffffffffff16815260200190815260200160002060009054906101000a900460ff16611504576040517f08c379a00000000000000000000000000000000000000000000000000000000081526004016114fb90613aa4565b60405180910390fd5b816002600082815260200190815260200160002060050160009054906101000a900460ff16611568576040517f08c379a000000000000000000000000000000000000000000000000000000000815260040161155f90613c44565b60405180910390fd5b823373ffffffffffffffffffffffffffffffffffffffff166002600083815260200190815260200160002060020160009054906101000a900473ffffffffffffffffffffffffffffffffffffffff1673ffffffffffffffffffffffffffffffffffffffff161461160d576040517f08c379a000000000000000000000000000000000000000000000000000000000815260040161160490613ce4565b60405180910390fd5b6000808473ffffffffffffffffffffffffffffffffffffffff1673ffffffffffffffffffffffffffffffffffffffff16815260200190815260200160002060009054906101000a900460ff16611698576040517f08c379a000000000000000000000000000000000000000000000000000000000815260040161168f90613ca4565b60405180910390fd5b60006002600086815260200190815260200160002090508060040160008573ffffffffffffffffffffffffffffffffffffffff1673ffffffffffffffffffffffffffffffffffffffff16815260200190815260200160002060009054906101000a900460ff161561173e576040517f08c379a000000000000000000000000000000000000000000000000000000000815260040161173590613d04565b60405180910390fd5b60018160040160008673ffffffffffffffffffffffffffffffffffffffff1673ffffffffffffffffffffffffffffffffffffffff16815260200190815260200160002060006101000a81548160ff02191690831515021790555080600301849080600181540180825580915050600190039060005260206000200160009091909190916101000a81548173ffffffffffffffffffffffffffffffffffffffff021916908373ffffffffffffffffffffffffffffffffffffffff160217905550847ff328ac0f8bcae00933fe87ba0aa2d0d505c1df94bc9c1aa05b8441c28b74032c8560405161182d91906139e6565b60405180910390a25050505050565b6001602052806000526040600020600091509050805461185b90613f34565b80601f016020809104026020016040519081016040528092919081815260200182805461188790613f34565b80156118d45780601f106118a9576101008083540402835291602001916118d4565b820191906000526020600020905b8154815290600101906020018083116118b757829003601f168201915b505050505081565b60035481565b60006060600080846002600082815260200190815260200160002060050160009054906101000a900460ff1661194d576040517f08c379a000000000000000000000000000000000000000000000000000000000815260040161194490613c44565b60405180910390fd5b60006002600088815260200190815260200160002090508060000154816001018260020160009054906101000a900473ffffffffffffffffffffffffffffffffffffffff168360050160009054906101000a900460ff168280546119b090613f34565b80601f01602080910402602001604051908101604052809291908181526020018280546119dc90613f34565b8015611a295780601f106119fe57610100808354040283529160200191611a29565b820191906000526020600020905b815481529060010190602001808311611a0c57829003601f168201915b50505050509250955095509550955050509193509193565b6000803373ffffffffffffffffffffffffffffffffffffffff1673ffffffffffffffffffffffffffffffffffffffff16815260200190815260200160002060009054906101000a900460ff16611acc576040517f08c379a0000000000000000000000000000000000000000000000000000000008152600401611ac390613aa4565b60405180910390fd5b806002600082815260200190815260200160002060050160009054906101000a900460ff16611b30576040517f08c379a0000000000000000000000000000000000000000000000000000000008152600401611b2790613c44565b60405180910390fd5b6006600083815260200190815260200160002060009054906101000a900460ff16611b90576040517f08c379a0000000000000000000000000000000000000000000000000000000008152600401611b8790613c04565b60405180910390fd5b6005600083815260200190815260200160002054421015611be6576040517f08c379a0000000000000000000000000000000000000000000000000000000008152600401611bdd90613c64565b60405180910390fd5b600060026000848152602001908152602001600020905060005b8160030180549050811015612080576000826003018281548110611c4d577f4e487b7100000000000000000000000000000000000000000000000000000000600052603260045260246000fd5b9060005260206000200160009054906101000a900473ffffffffffffffffffffffffffffffffffffffff16905060005b836003018054905081101561206b576000846003018281548110611cca577f4e487b7100000000000000000000000000000000000000000000000000000000600052603260045260246000fd5b9060005260206000200160009054906101000a900473ffffffffffffffffffffffffffffffffffffffff1690508073ffffffffffffffffffffffffffffffffffffffff168373ffffffffffffffffffffffffffffffffffffffff161415611d315750612058565b6004600088815260200190815260200160002060008473ffffffffffffffffffffffffffffffffffffffff1673ffffffffffffffffffffffffffffffffffffffff16815260200190815260200160002060008273ffffffffffffffffffffffffffffffffffffffff1673ffffffffffffffffffffffffffffffffffffffff16815260200190815260200160002060009054906101000a900460ff16612056576000662386f26fc10000905080600760008a815260200190815260200160002060008673ffffffffffffffffffffffffffffffffffffffff1673ffffffffffffffffffffffffffffffffffffffff16815260200190815260200160002054106120545780600760008a815260200190815260200160002060008673ffffffffffffffffffffffffffffffffffffffff1673ffffffffffffffffffffffffffffffffffffffff1681526020019081526020016000206000828254611e939190613e76565b925050819055508173ffffffffffffffffffffffffffffffffffffffff166108fc829081150290604051600060405180830381858888f19350505050158015611ee0573d6000803e3d6000fd5b506001600460008a815260200190815260200160002060008673ffffffffffffffffffffffffffffffffffffffff1673ffffffffffffffffffffffffffffffffffffffff16815260200190815260200160002060008473ffffffffffffffffffffffffffffffffffffffff1673ffffffffffffffffffffffffffffffffffffffff16815260200190815260200160002060006101000a81548160ff0219169083151502179055508173ffffffffffffffffffffffffffffffffffffffff168473ffffffffffffffffffffffffffffffffffffffff16897f16c014bb6d1c6cc25e4d9c2ffff2d5052bc083462038999100ead76edf97bee084604051611fe59190613d44565b60405180910390a48173ffffffffffffffffffffffffffffffffffffffff168473ffffffffffffffffffffffffffffffffffffffff16897f42c590ce18bd7e29af1252aa4d07ef288211b827bf9c59b12f50ecad00167f7a8460405161204b9190613d44565b60405180910390a45b505b505b808061206390613f66565b915050611c7d565b5050808061207890613f66565b915050611c00565b5060006006600085815260200190815260200160002060006101000a81548160ff021916908315150217905550827f3bf04475b665123438783b19e204bdd2bbd5421ffb6b90034a5ab03f664c539860405160405180910390a2505050565b60006020528060005260406000206000915054906101000a900460ff1681565b60006004600085815260200190815260200160002060008473ffffffffffffffffffffffffffffffffffffffff1673ffffffffffffffffffffffffffffffffffffffff16815260200190815260200160002060008373ffffffffffffffffffffffffffffffffffffffff1673ffffffffffffffffffffffffffffffffffffffff16815260200190815260200160002060009054906101000a900460ff1690509392505050565b6000803373ffffffffffffffffffffffffffffffffffffffff1673ffffffffffffffffffffffffffffffffffffffff16815260200190815260200160002060009054906101000a900460ff16612230576040517f08c379a000000000000000000000000000000000000000000000000000000000815260040161222790613aa4565b60405180910390fd5b826002600082815260200190815260200160002060050160009054906101000a900460ff16612294576040517f08c379a000000000000000000000000000000000000000000000000000000000815260040161228b90613c44565b60405180910390fd5b60003390506002600086815260200190815260200160002060040160008273ffffffffffffffffffffffffffffffffffffffff1673ffffffffffffffffffffffffffffffffffffffff16815260200190815260200160002060009054906101000a900460ff16612339576040517f08c379a000000000000000000000000000000000000000000000000000000000815260040161233090613ae4565b60405180910390fd5b6002600086815260200190815260200160002060040160008573ffffffffffffffffffffffffffffffffffffffff1673ffffffffffffffffffffffffffffffffffffffff16815260200190815260200160002060009054906101000a900460ff166123d9576040517f08c379a00000000000000000000000000000000000000000000000000000000081526004016123d090613c84565b60405180910390fd5b6004600086815260200190815260200160002060008273ffffffffffffffffffffffffffffffffffffffff1673ffffffffffffffffffffffffffffffffffffffff16815260200190815260200160002060008573ffffffffffffffffffffffffffffffffffffffff1673ffffffffffffffffffffffffffffffffffffffff16815260200190815260200160002060009054906101000a900460ff16156124b4576040517f08c379a00000000000000000000000000000000000000000000000000000000081526004016124ab90613cc4565b60405180910390fd5b826007600087815260200190815260200160002060008373ffffffffffffffffffffffffffffffffffffffff1673ffffffffffffffffffffffffffffffffffffffff168152602001908152602001600020541015612547576040517f08c379a000000000000000000000000000000000000000000000000000000000815260040161253e90613b04565b60405180910390fd5b826007600087815260200190815260200160002060008373ffffffffffffffffffffffffffffffffffffffff1673ffffffffffffffffffffffffffffffffffffffff16815260200190815260200160002060008282546125a79190613e76565b925050819055508373ffffffffffffffffffffffffffffffffffffffff166108fc849081150290604051600060405180830381858888f193505050501580156125f4573d6000803e3d6000fd5b5060016004600087815260200190815260200160002060008373ffffffffffffffffffffffffffffffffffffffff1673ffffffffffffffffffffffffffffffffffffffff16815260200190815260200160002060008673ffffffffffffffffffffffffffffffffffffffff1673ffffffffffffffffffffffffffffffffffffffff16815260200190815260200160002060006101000a81548160ff0219169083151502179055508373ffffffffffffffffffffffffffffffffffffffff168173ffffffffffffffffffffffffffffffffffffffff16867f16c014bb6d1c6cc25e4d9c2ffff2d5052bc083462038999100ead76edf97bee0866040516126f99190613d44565b60405180910390a48373ffffffffffffffffffffffffffffffffffffffff168173ffffffffffffffffffffffffffffffffffffffff16867f42c590ce18bd7e29af1252aa4d07ef288211b827bf9c59b12f50ecad00167f7a8660405161275f9190613d44565b60405180910390a45050505050565b6000803373ffffffffffffffffffffffffffffffffffffffff1673ffffffffffffffffffffffffffffffffffffffff16815260200190815260200160002060009054906101000a900460ff166127f9576040517f08c379a00000000000000000000000000000000000000000000000000000000081526004016127f090613aa4565b60405180910390fd5b6000828290501161283f576040517f08c379a000000000000000000000000000000000000000000000000000000000815260040161283690613ac4565b60405180910390fd5b600060036000815461285090613f66565b91905081905590506000600260008381526020019081526020016000209050818160000181905550838382600101919061288b929190612f4a565b50338160020160006101000a81548173ffffffffffffffffffffffffffffffffffffffff021916908373ffffffffffffffffffffffffffffffffffffffff16021790555060018160050160006101000a81548160ff02191690831515021790555060018160040160003373ffffffffffffffffffffffffffffffffffffffff1673ffffffffffffffffffffffffffffffffffffffff16815260200190815260200160002060006101000a81548160ff02191690831515021790555080600301339080600181540180825580915050600190039060005260206000200160009091909190916101000a81548173ffffffffffffffffffffffffffffffffffffffff021916908373ffffffffffffffffffffffffffffffffffffffff1602179055503373ffffffffffffffffffffffffffffffffffffffff16827f4354295f5d98820e66a770bd58cf23606ab255dd9dc2daf870fab38ecbc3e7e086866040516129f4929190613a3e565b60405180910390a350505050565b60056020528060005260406000206000915090505481565b60066020528060005260406000206000915054906101000a900460ff1681565b836002600082815260200190815260200160002060050160009054906101000a900460ff16612a9e576040517f08c379a0000000000000000000000000000000000000000000000000000000008152600401612a9590613c44565b60405180910390fd5b60003390506000808273ffffffffffffffffffffffffffffffffffffffff1673ffffffffffffffffffffffffffffffffffffffff16815260200190815260200160002060009054906101000a900460ff16612b2e576040517f08c379a0000000000000000000000000000000000000000000000000000000008152600401612b2590613b84565b60405180910390fd5b60008311612b71576040517f08c379a0000000000000000000000000000000000000000000000000000000008152600401612b6890613d24565b60405180910390fd5b823414612bb3576040517f08c379a0000000000000000000000000000000000000000000000000000000008152600401612baa90613b64565b60405180910390fd5b8484604051612bc39291906139b6565b6040518091039020600160008373ffffffffffffffffffffffffffffffffffffffff1673ffffffffffffffffffffffffffffffffffffffff168152602001908152602001600020604051612c1791906139cf565b604051809103902014612c5f576040517f08c379a0000000000000000000000000000000000000000000000000000000008152600401612c5690613ba4565b60405180910390fd5b60006002600088815260200190815260200160002090508060040160008373ffffffffffffffffffffffffffffffffffffffff1673ffffffffffffffffffffffffffffffffffffffff16815260200190815260200160002060009054906101000a900460ff16612d04576040517f08c379a0000000000000000000000000000000000000000000000000000000008152600401612cfb90613be4565b60405180910390fd5b60005b8160030180549050811015612ed5576000826003018281548110612d54577f4e487b7100000000000000000000000000000000000000000000000000000000600052603260045260246000fd5b9060005260206000200160009054906101000a900473ffffffffffffffffffffffffffffffffffffffff1690508373ffffffffffffffffffffffffffffffffffffffff168173ffffffffffffffffffffffffffffffffffffffff1614612ec1576001600460008b815260200190815260200160002060008673ffffffffffffffffffffffffffffffffffffffff1673ffffffffffffffffffffffffffffffffffffffff16815260200190815260200160002060008373ffffffffffffffffffffffffffffffffffffffff1673ffffffffffffffffffffffffffffffffffffffff16815260200190815260200160002060006101000a81548160ff0219169083151502179055508073ffffffffffffffffffffffffffffffffffffffff168473ffffffffffffffffffffffffffffffffffffffff168a7f16c014bb6d1c6cc25e4d9c2ffff2d5052bc083462038999100ead76edf97bee089604051612eb89190613d44565b60405180910390a45b508080612ecd90613f66565b915050612d07565b508060020160009054906101000a900473ffffffffffffffffffffffffffffffffffffffff1673ffffffffffffffffffffffffffffffffffffffff166108fc859081150290604051600060405180830381858888f19350505050158015612f40573d6000803e3d6000fd5b5050505050505050565b828054612f5690613f34565b90600052602060002090601f016020900481019282612f785760008555612fbf565b82601f10612f9157803560ff1916838001178555612fbf565b82800160010185558215612fbf579182015b82811115612fbe578235825591602001919060010190612fa3565b5b509050612fcc9190612fd0565b5090565b5b80821115612fe9576000816000905550600101612fd1565b5090565b600081359050612ffc8161401e565b92915050565b60008083601f84011261301457600080fd5b8235905067ffffffffffffffff81111561302d57600080fd5b60208301915083600182028301111561304557600080fd5b9250929050565b60008135905061305b81614035565b92915050565b60006020828403121561307357600080fd5b600061308184828501612fed565b91505092915050565b6000806020838503121561309d57600080fd5b600083013567ffffffffffffffff8111156130b757600080fd5b6130c385828601613002565b92509250509250929050565b6000602082840312156130e157600080fd5b60006130ef8482850161304c565b91505092915050565b6000806040838503121561310b57600080fd5b60006131198582860161304c565b925050602061312a85828601612fed565b9150509250929050565b60008060006060848603121561314957600080fd5b60006131578682870161304c565b935050602061316886828701612fed565b925050604061317986828701612fed565b9150509250925092565b60008060006060848603121561319857600080fd5b60006131a68682870161304c565b93505060206131b786828701612fed565b92505060406131c88682870161304c565b9150509250925092565b600080600080606085870312156131e857600080fd5b60006131f68782880161304c565b945050602085013567ffffffffffffffff81111561321357600080fd5b61321f87828801613002565b935093505060406132328782880161304c565b91505092959194509250565b6000806040838503121561325157600080fd5b600061325f8582860161304c565b92505060206132708582860161304c565b9150509250929050565b60006132868383613292565b60208301905092915050565b61329b81613eaa565b82525050565b6132aa81613eaa565b82525050565b60006132bb82613dd0565b6132c58185613df3565b93506132d083613dab565b8060005b838110156133015781516132e8888261327a565b97506132f383613de6565b9250506001810190506132d4565b5085935050505092915050565b61331781613ebc565b82525050565b60006133298385613e04565b9350613336838584613ef2565b82840190509392505050565b6000815461334f81613f34565b6133598186613e04565b945060018216600081146133745760018114613385576133b8565b60ff198316865281860193506133b8565b61338e85613dbb565b60005b838110156133b057815481890152600182019150602081019050613391565b838801955050505b50505092915050565b60006133cd8385613e0f565b93506133da838584613ef2565b6133e38361400d565b840190509392505050565b60006133f982613ddb565b6134038185613e0f565b9350613413818560208601613f01565b61341c8161400d565b840191505092915050565b6000613434601883613e0f565b91507f557365726e616d652063616e6e6f7420626520656d70747900000000000000006000830152602082019050919050565b6000613474600e83613e0f565b91507f4e6f7420726567697374657265640000000000000000000000000000000000006000830152602082019050919050565b60006134b4601a83613e0f565b91507f47726f7570206e616d652063616e6e6f7420626520656d7074790000000000006000830152602082019050919050565b60006134f4601283613e0f565b91507f4e6f7420612067726f7570206d656d62657200000000000000000000000000006000830152602082019050919050565b6000613534601383613e0f565b91507f496e73756666696369656e7420657363726f77000000000000000000000000006000830152602082019050919050565b6000613574601e83613e0f565b91507f4d757374206465706f736974206120706f73697469766520616d6f756e7400006000830152602082019050919050565b60006135b4601283613e0f565b91507f416c7265616479207265676973746572656400000000000000000000000000006000830152602082019050919050565b60006135f4601883613e0f565b91507f496e636f7272656374207061796d656e7420616d6f756e7400000000000000006000830152602082019050919050565b6000613634601583613e0f565b91507f446562746f72206e6f74207265676973746572656400000000000000000000006000830152602082019050919050565b6000613674601883613e0f565b91507f446562746f7220757365726e616d65206d69736d6174636800000000000000006000830152602082019050919050565b60006136b4601383613e0f565b91507f43616e6e6f742072656d6f7665206f776e6572000000000000000000000000006000830152602082019050919050565b60006136f4601383613e0f565b91507f446562746f72206e6f7420696e2067726f7570000000000000000000000000006000830152602082019050919050565b6000613734601b83613e0f565b91507f4175746f2d736574746c656d656e74206e6f7420656e61626c656400000000006000830152602082019050919050565b6000613774600c83613e0f565b91507f4e6f742061206d656d62657200000000000000000000000000000000000000006000830152602082019050919050565b60006137b4601483613e0f565b91507f47726f757020646f6573206e6f742065786973740000000000000000000000006000830152602082019050919050565b60006137f4600983613e0f565b91507f546f6f206561726c7900000000000000000000000000000000000000000000006000830152602082019050919050565b6000613834601083613e0f565b91507f496e76616c6964206372656469746f72000000000000000000000000000000006000830152602082019050919050565b6000613874601583613e0f565b91507f4d656d626572206e6f74207265676973746572656400000000000000000000006000830152602082019050919050565b60006138b4600f83613e0f565b91507f416c726561647920736574746c656400000000000000000000000000000000006000830152602082019050919050565b60006138f4600f83613e0f565b91507f4e6f742067726f7570206f776e657200000000000000000000000000000000006000830152602082019050919050565b6000613934601083613e0f565b91507f416c72656164792061206d656d626572000000000000000000000000000000006000830152602082019050919050565b6000613974601783613e0f565b91507f416d6f756e74206d75737420626520706f7369746976650000000000000000006000830152602082019050919050565b6139b081613ee8565b82525050565b60006139c382848661331d565b91508190509392505050565b60006139db8284613342565b915081905092915050565b60006020820190506139fb60008301846132a1565b92915050565b60006020820190508181036000830152613a1b81846132b0565b905092915050565b6000602082019050613a38600083018461330e565b92915050565b60006020820190508181036000830152613a598184866133c1565b90509392505050565b60006020820190508181036000830152613a7c81846133ee565b905092915050565b60006020820190508181036000830152613a9d81613427565b9050919050565b60006020820190508181036000830152613abd81613467565b9050919050565b60006020820190508181036000830152613add816134a7565b9050919050565b60006020820190508181036000830152613afd816134e7565b9050919050565b60006020820190508181036000830152613b1d81613527565b9050919050565b60006020820190508181036000830152613b3d81613567565b9050919050565b60006020820190508181036000830152613b5d816135a7565b9050919050565b60006020820190508181036000830152613b7d816135e7565b9050919050565b60006020820190508181036000830152613b9d81613627565b9050919050565b60006020820190508181036000830152613bbd81613667565b9050919050565b60006020820190508181036000830152613bdd816136a7565b9050919050565b60006020820190508181036000830152613bfd816136e7565b9050919050565b60006020820190508181036000830152613c1d81613727565b9050919050565b60006020820190508181036000830152613c3d81613767565b9050919050565b60006020820190508181036000830152613c5d816137a7565b9050919050565b60006020820190508181036000830152613c7d816137e7565b9050919050565b60006020820190508181036000830152613c9d81613827565b9050919050565b60006020820190508181036000830152613cbd81613867565b9050919050565b60006020820190508181036000830152613cdd816138a7565b9050919050565b60006020820190508181036000830152613cfd816138e7565b9050919050565b60006020820190508181036000830152613d1d81613927565b9050919050565b60006020820190508181036000830152613d3d81613967565b9050919050565b6000602082019050613d5960008301846139a7565b92915050565b6000608082019050613d7460008301876139a7565b8181036020830152613d8681866133ee565b9050613d9560408301856132a1565b613da2606083018461330e565b95945050505050565b6000819050602082019050919050565b60008190508160005260206000209050919050565b600081519050919050565b600081519050919050565b6000602082019050919050565b600082825260208201905092915050565b600081905092915050565b600082825260208201905092915050565b6000613e2b82613ee8565b9150613e3683613ee8565b9250827fffffffffffffffffffffffffffffffffffffffffffffffffffffffffffffffff03821115613e6b57613e6a613faf565b5b828201905092915050565b6000613e8182613ee8565b9150613e8c83613ee8565b925082821015613e9f57613e9e613faf565b5b828203905092915050565b6000613eb582613ec8565b9050919050565b60008115159050919050565b600073ffffffffffffffffffffffffffffffffffffffff82169050919050565b6000819050919050565b82818337600083830152505050565b60005b83811015613f1f578082015181840152602081019050613f04565b83811115613f2e576000848401525b50505050565b60006002820490506001821680613f4c57607f821691505b60208210811415613f6057613f5f613fde565b5b50919050565b6000613f7182613ee8565b91507fffffffffffffffffffffffffffffffffffffffffffffffffffffffffffffffff821415613fa457613fa3613faf565b5b600182019050919050565b7f4e487b7100000000000000000000000000000000000000000000000000000000600052601160045260246000fd5b7f4e487b7100000000000000000000000000000000000000000000000000000000600052602260045260246000fd5b6000601f19601f8301169050919050565b61402781613eaa565b811461403257600080fd5b50565b61403e81613ee8565b811461404957600080fd5b5056fea264697066735822122066e5180e549cbff577f9d34982a142b3a887555baba021c1c6e8bc82d4f63e9a64736f6c63430008000033",
  "immutableReferences": {},
  "source": "// SPDX-License-Identifier: MIT\r\npragma solidity ^0.8.0;\r\n\r\ncontract TabX {\r\n    struct Group {\r\n        uint256 id;\r\n        string name;\r\n        address owner;\r\n        address[] members;\r\n        mapping(address => bool) isMember;\r\n        bool exists;\r\n    }\r\n\r\n    mapping(address => bool) public registered;\r\n    mapping(address => string) public usernameOf;\r\n    mapping(uint256 => Group) private groups;\r\n    uint256 public groupCount;\r\n    mapping(uint256 => mapping(address => mapping(address => bool))) public debtSettled;\r\n\r\n    // Auto-settlement\r\n    mapping(uint256 => uint256) public autoSettlementTime;\r\n    mapping(uint256 => bool) public autoSettlementEnabled;\r\n\r\n    // Escrow\r\n    mapping(uint256 => mapping(address => uint256)) public groupEscrow;\r\n\r\n    // Events\r\n    event UserRegistered(address indexed user, string username);\r\n    event GroupCreated(uint256 indexed groupId, address indexed owner, string name);\r\n    event GroupDeleted(uint256 indexed groupId);\r\n    event MemberAdded(uint256 indexed groupId, address member);\r\n    event MemberRemoved(uint256 indexed groupId, address member);\r\n    event DebtSettled(uint256 indexed groupId, address indexed debtor, address indexed creditor, uint256 amount);\r\n    event AutoSettlementScheduled(uint256 indexed groupId, uint256 timestamp);\r\n    event AutoSettlementExecuted(uint256 indexed groupId);\r\n    event SecurityDeposited(uint256 indexed groupId, address indexed user, uint256 amount);\r\n    event EscrowUsedForSettlement(uint256 indexed groupId, address indexed debtor, address indexed creditor, uint256 amount);\r\n\r\n    modifier onlyRegistered() {\r\n        require(registered[msg.sender], \"Not registered\");\r\n        _;\r\n    }\r\n\r\n    modifier groupExists(uint256 groupId) {\r\n        require(groups[groupId].exists, \"Group does not exist\");\r\n        _;\r\n    }\r\n\r\n    modifier onlyGroupOwner(uint256 groupId) {\r\n        require(groups[groupId].owner == msg.sender, \"Not group owner\");\r\n        _;\r\n    }\r\n\r\n    function registerUser(string calldata username) external {\r\n        require(!registered[msg.sender], \"Already registered\");\r\n        require(bytes(username).length > 0, \"Username cannot be empty\");\r\n        registered[msg.sender] = true;\r\n        usernameOf[msg.sender] = username;\r\n        emit UserRegistered(msg.sender, username);\r\n    }\r\n\r\n    function createGroup(string calldata name) external onlyRegistered {\r\n        require(bytes(name).length > 0, \"Group name cannot be empty\");\r\n        uint256 gid = ++groupCount;\r\n        Group storage g = groups[gid];\r\n        g.id = gid;\r\n        g.name = name;\r\n        g.owner = msg.sender;\r\n        g.exists = true;\r\n        g.isMember[msg.sender] = true;\r\n        g.members.push(msg.sender);\r\n        emit GroupCreated(gid, msg.sender, name);\r\n    }\r\n\r\n    function deleteGroup(uint256 groupId)\r\n        external\r\n        onlyRegistered\r\n        groupExists(groupId)\r\n        onlyGroupOwner(groupId)\r\n    {\r\n        groups[groupId].exists = false;\r\n        emit GroupDeleted(groupId);\r\n    }\r\n\r\n    function addMember(uint256 groupId, address member)\r\n        external\r\n        onlyRegistered\r\n        groupExists(groupId)\r\n        onlyGroupOwner(groupId)\r\n    {\r\n        require(registered[member], \"Member not registered\");\r\n        Group storage g = groups[groupId];\r\n        require(!g.isMember[member], \"Already a member\");\r\n        g.isMember[member] = true;\r\n        g.members.push(member);\r\n        emit MemberAdded(groupId, member);\r\n    }\r\n\r\n    function removeMember(uint256 groupId, address member)\r\n        external\r\n        onlyRegistered\r\n        groupExists(groupId)\r\n        onlyGroupOwner(groupId)\r\n    {\r\n        Group storage g = groups[groupId];\r\n        require(g.isMember[member], \"Not a member\");\r\n        require(member != g.owner, \"Cannot remove owner\");\r\n        g.isMember[member] = false;\r\n        for (uint256 i = 0; i < g.members.length; i++) {\r\n            if (g.members[i] == member) {\r\n                g.members[i] = g.members[g.members.length - 1];\r\n                g.members.pop();\r\n                break;\r\n            }\r\n        }\r\n        emit MemberRemoved(groupId, member);\r\n    }\r\n\r\n    function depositSecurity(uint256 groupId) external payable groupExists(groupId) onlyRegistered {\r\n        require(groups[groupId].isMember[msg.sender], \"Not a group member\");\r\n        require(msg.value > 0, \"Must deposit a positive amount\");\r\n        groupEscrow[groupId][msg.sender] += msg.value;\r\n        emit SecurityDeposited(groupId, msg.sender, msg.value);\r\n    }\r\n\r\n    function settleDebtByName(\r\n        uint256 groupId,\r\n        string calldata debtorUsername,\r\n        uint256 paymentAmount\r\n    ) external payable groupExists(groupId) {\r\n        address debtor = msg.sender;\r\n        require(registered[debtor], \"Debtor not registered\");\r\n        require(paymentAmount > 0, \"Amount must be positive\");\r\n        require(msg.value == paymentAmount, \"Incorrect payment amount\");\r\n        require(\r\n            keccak256(bytes(usernameOf[debtor])) == keccak256(bytes(debtorUsername)),\r\n            \"Debtor username mismatch\"\r\n        );\r\n        Group storage g = groups[groupId];\r\n        require(g.isMember[debtor], \"Debtor not in group\");\r\n        for (uint i = 0; i < g.members.length; i++) {\r\n            address cred = g.members[i];\r\n            if (cred != debtor) {\r\n                debtSettled[groupId][debtor][cred] = true;\r\n                emit DebtSettled(groupId, debtor, cred, paymentAmount);\r\n            }\r\n        }\r\n        payable(g.owner).transfer(paymentAmount);\r\n    }\r\n\r\n    //  NEW FUNCTION: Settle debt using escrow funds only\r\n    function settleFromEscrow(\r\n        uint256 groupId,\r\n        address creditor,\r\n        uint256 amount\r\n    ) external onlyRegistered groupExists(groupId) {\r\n        address debtor = msg.sender;\r\n        require(groups[groupId].isMember[debtor], \"Not a group member\");\r\n        require(groups[groupId].isMember[creditor], \"Invalid creditor\");\r\n        require(!debtSettled[groupId][debtor][creditor], \"Already settled\");\r\n        require(groupEscrow[groupId][debtor] >= amount, \"Insufficient escrow\");\r\n\r\n        groupEscrow[groupId][debtor] -= amount;\r\n        payable(creditor).transfer(amount);\r\n        debtSettled[groupId][debtor][creditor] = true;\r\n\r\n        emit DebtSettled(groupId, debtor, creditor, amount);\r\n        emit EscrowUsedForSettlement(groupId, debtor, creditor, amount);\r\n    }\r\n\r\n    function scheduleAutoSettlement(uint256 groupId, uint256 delayInSeconds)\r\n        external\r\n        onlyRegistered\r\n        groupExists(groupId)\r\n        onlyGroupOwner(groupId)\r\n    {\r\n        autoSettlementTime[groupId] = block.timestamp + delayInSeconds;\r\n        autoSettlementEnabled[groupId] = true;\r\n        emit AutoSettlementScheduled(groupId, autoSettlementTime[groupId]);\r\n    }\r\n\r\n    function triggerAutoSettlement(uint256 groupId)\r\n        external\r\n        onlyRegistered\r\n        groupExists(groupId)\r\n    {\r\n        require(autoSettlementEnabled[groupId], \"Auto-settlement not enabled\");\r\n        require(block.timestamp >= autoSettlementTime[groupId], \"Too early\");\r\n\r\n        Group storage g = groups[groupId];\r\n        for (uint i = 0; i < g.members.length; i++) {\r\n            address debtor = g.members[i];\r\n            for (uint j = 0; j < g.members.length; j++) {\r\n                address creditor = g.members[j];\r\n                if (debtor == creditor) continue;\r\n                if (!debtSettled[groupId][debtor][creditor]) {\r\n                    uint256 amount = 0.01 ether; // Placeholder\r\n                    if (groupEscrow[groupId][debtor] >= amount) {\r\n                        groupEscrow[groupId][debtor] -= amount;\r\n                        payable(creditor).transfer(amount);\r\n                        debtSettled[groupId][debtor][creditor] = true;\r\n                        emit DebtSettled(groupId, debtor, creditor, amount);\r\n                        emit EscrowUsedForSettlement(groupId, debtor, creditor, amount);\r\n                    }\r\n                }\r\n            }\r\n        }\r\n        autoSettlementEnabled[groupId] = false;\r\n        emit AutoSettlementExecuted(groupId);\r\n    }\r\n\r\n    function getGroupMembers(uint256 groupId)\r\n        external\r\n        view\r\n        groupExists(groupId)\r\n        returns (address[] memory)\r\n    {\r\n        return groups[groupId].members;\r\n    }\r\n\r\n    function isSettled(uint256 groupId, address debtor, address creditor)\r\n        external\r\n        view\r\n        returns (bool)\r\n    {\r\n        return debtSettled[groupId][debtor][creditor];\r\n    }\r\n\r\n    function getGroupInfo(uint256 groupId)\r\n        external\r\n        view\r\n        groupExists(groupId)\r\n        returns (uint256 id, string memory name, address owner, bool exists)\r\n    {\r\n        Group storage g = groups[groupId];\r\n        return (g.id, g.name, g.owner, g.exists);\r\n    }\r\n}\r\n",
  "sourcePath": "C:\\Users\\Aryan Gupta\\Desktop\\TabX\\Tabx\\truffle\\contracts\\Tabx.sol",
  "compiler": {
    "name": "solc",
    "version": "0.8.0+commit.c7dfd78e.Emscripten.clang"
  },
  "schemaVersion": "3.4.16",
  "updatedAt": "2025-04-23T17:42:11.392Z",
  "networkType": "ethereum",
  "devdoc": {
    "kind": "dev",
    "methods": {},
    "version": 1
  },
  "userdoc": {
    "kind": "user",
    "methods": {},
    "version": 1
  }
}