{
  "contractName": "TabX",
  "abi": [
    {
      "anonymous": false,
      "inputs": [
        {
          "indexed": true,
          "internalType": "uint256",
          "name": "groupId",
          "type": "uint256"
        },
        {
          "indexed": true,
          "internalType": "address",
          "name": "debtor",
          "type": "address"
        },
        {
          "indexed": true,
          "internalType": "address",
          "name": "creditor",
          "type": "address"
        },
        {
          "indexed": false,
          "internalType": "uint256",
          "name": "amount",
          "type": "uint256"
        }
      ],
      "name": "DebtSettled",
      "type": "event"
    },
    {
      "anonymous": false,
      "inputs": [
        {
          "indexed": true,
          "internalType": "uint256",
          "name": "groupId",
          "type": "uint256"
        },
        {
          "indexed": false,
          "internalType": "uint256",
          "name": "expenseId",
          "type": "uint256"
        },
        {
          "indexed": false,
          "internalType": "uint256",
          "name": "amount",
          "type": "uint256"
        }
      ],
      "name": "ExpenseAdded",
      "type": "event"
    },
    {
      "anonymous": false,
      "inputs": [
        {
          "indexed": true,
          "internalType": "uint256",
          "name": "groupId",
          "type": "uint256"
        },
        {
          "indexed": true,
          "internalType": "address",
          "name": "owner",
          "type": "address"
        },
        {
          "indexed": false,
          "internalType": "string",
          "name": "name",
          "type": "string"
        }
      ],
      "name": "GroupCreated",
      "type": "event"
    },
    {
      "anonymous": false,
      "inputs": [
        {
          "indexed": true,
          "internalType": "uint256",
          "name": "groupId",
          "type": "uint256"
        },
        {
          "indexed": false,
          "internalType": "address",
          "name": "member",
          "type": "address"
        }
      ],
      "name": "MemberAdded",
      "type": "event"
    },
    {
      "anonymous": false,
      "inputs": [
        {
          "indexed": true,
          "internalType": "uint256",
          "name": "groupId",
          "type": "uint256"
        },
        {
          "indexed": true,
          "internalType": "address",
          "name": "from",
          "type": "address"
        },
        {
          "indexed": true,
          "internalType": "address",
          "name": "to",
          "type": "address"
        },
        {
          "indexed": false,
          "internalType": "uint256",
          "name": "amount",
          "type": "uint256"
        }
      ],
      "name": "SettlementMade",
      "type": "event"
    },
    {
      "anonymous": false,
      "inputs": [
        {
          "indexed": true,
          "internalType": "address",
          "name": "user",
          "type": "address"
        },
        {
          "indexed": false,
          "internalType": "string",
          "name": "username",
          "type": "string"
        }
      ],
      "name": "UserRegistered",
      "type": "event"
    },
    {
      "inputs": [
        {
          "internalType": "address",
          "name": "",
          "type": "address"
        },
        {
          "internalType": "uint256",
          "name": "",
          "type": "uint256"
        }
      ],
      "name": "balances",
      "outputs": [
        {
          "internalType": "int256",
          "name": "",
          "type": "int256"
        }
      ],
      "stateMutability": "view",
      "type": "function",
      "constant": true
    },
    {
      "inputs": [],
      "name": "expenseIdCounter",
      "outputs": [
        {
          "internalType": "uint256",
          "name": "",
          "type": "uint256"
        }
      ],
      "stateMutability": "view",
      "type": "function",
      "constant": true
    },
    {
      "inputs": [
        {
          "internalType": "uint256",
          "name": "",
          "type": "uint256"
        }
      ],
      "name": "expenses",
      "outputs": [
        {
          "internalType": "uint256",
          "name": "id",
          "type": "uint256"
        },
        {
          "internalType": "uint256",
          "name": "totalAmount",
          "type": "uint256"
        },
        {
          "internalType": "uint256",
          "name": "remainingAmount",
          "type": "uint256"
        },
        {
          "internalType": "address",
          "name": "payer",
          "type": "address"
        },
        {
          "internalType": "bool",
          "name": "settled",
          "type": "bool"
        }
      ],
      "stateMutability": "view",
      "type": "function",
      "constant": true
    },
    {
      "inputs": [
        {
          "internalType": "uint256",
          "name": "",
          "type": "uint256"
        },
        {
          "internalType": "uint256",
          "name": "",
          "type": "uint256"
        }
      ],
      "name": "groupDebts",
      "outputs": [
        {
          "internalType": "address",
          "name": "creditor",
          "type": "address"
        },
        {
          "internalType": "address",
          "name": "debtor",
          "type": "address"
        },
        {
          "internalType": "uint256",
          "name": "amount",
          "type": "uint256"
        },
        {
          "internalType": "uint256",
          "name": "groupId",
          "type": "uint256"
        },
        {
          "internalType": "bool",
          "name": "settled",
          "type": "bool"
        },
        {
          "internalType": "uint256",
          "name": "timestamp",
          "type": "uint256"
        }
      ],
      "stateMutability": "view",
      "type": "function",
      "constant": true
    },
    {
      "inputs": [],
      "name": "groupIdCounter",
      "outputs": [
        {
          "internalType": "uint256",
          "name": "",
          "type": "uint256"
        }
      ],
      "stateMutability": "view",
      "type": "function",
      "constant": true
    },
    {
      "inputs": [
        {
          "internalType": "uint256",
          "name": "",
          "type": "uint256"
        }
      ],
      "name": "groups",
      "outputs": [
        {
          "internalType": "uint256",
          "name": "id",
          "type": "uint256"
        },
        {
          "internalType": "string",
          "name": "name",
          "type": "string"
        },
        {
          "internalType": "address",
          "name": "owner",
          "type": "address"
        },
        {
          "internalType": "uint256",
          "name": "totalExpenses",
          "type": "uint256"
        },
        {
          "internalType": "uint256",
          "name": "memberCount",
          "type": "uint256"
        }
      ],
      "stateMutability": "view",
      "type": "function",
      "constant": true
    },
    {
      "inputs": [
        {
          "internalType": "address",
          "name": "",
          "type": "address"
        },
        {
          "internalType": "uint256",
          "name": "",
          "type": "uint256"
        }
      ],
      "name": "userDebts",
      "outputs": [
        {
          "internalType": "address",
          "name": "creditor",
          "type": "address"
        },
        {
          "internalType": "address",
          "name": "debtor",
          "type": "address"
        },
        {
          "internalType": "uint256",
          "name": "amount",
          "type": "uint256"
        },
        {
          "internalType": "uint256",
          "name": "groupId",
          "type": "uint256"
        },
        {
          "internalType": "bool",
          "name": "settled",
          "type": "bool"
        },
        {
          "internalType": "uint256",
          "name": "timestamp",
          "type": "uint256"
        }
      ],
      "stateMutability": "view",
      "type": "function",
      "constant": true
    },
    {
      "inputs": [
        {
          "internalType": "address",
          "name": "",
          "type": "address"
        }
      ],
      "name": "users",
      "outputs": [
        {
          "internalType": "string",
          "name": "username",
          "type": "string"
        },
        {
          "internalType": "address",
          "name": "userAddress",
          "type": "address"
        }
      ],
      "stateMutability": "view",
      "type": "function",
      "constant": true
    },
    {
      "inputs": [
        {
          "internalType": "string",
          "name": "username",
          "type": "string"
        }
      ],
      "name": "registerUser",
      "outputs": [],
      "stateMutability": "nonpayable",
      "type": "function"
    },
    {
      "inputs": [
        {
          "internalType": "string",
          "name": "name",
          "type": "string"
        }
      ],
      "name": "createGroup",
      "outputs": [],
      "stateMutability": "nonpayable",
      "type": "function"
    },
    {
      "inputs": [
        {
          "internalType": "uint256",
          "name": "groupId",
          "type": "uint256"
        },
        {
          "internalType": "address",
          "name": "member",
          "type": "address"
        }
      ],
      "name": "addGroupMember",
      "outputs": [],
      "stateMutability": "nonpayable",
      "type": "function"
    },
    {
      "inputs": [
        {
          "internalType": "uint256",
          "name": "groupId",
          "type": "uint256"
        },
        {
          "internalType": "uint256",
          "name": "totalAmount",
          "type": "uint256"
        },
        {
          "internalType": "string[]",
          "name": "participantUsernames",
          "type": "string[]"
        }
      ],
      "name": "addExpense",
      "outputs": [],
      "stateMutability": "nonpayable",
      "type": "function"
    },
    {
      "inputs": [
        {
          "internalType": "uint256",
          "name": "groupId",
          "type": "uint256"
        },
        {
          "internalType": "string",
          "name": "debtorUsername",
          "type": "string"
        },
        {
          "internalType": "string",
          "name": "creditorUsername",
          "type": "string"
        },
        {
          "internalType": "uint256",
          "name": "paymentAmount",
          "type": "uint256"
        }
      ],
      "name": "settleDebtByName",
      "outputs": [],
      "stateMutability": "payable",
      "type": "function",
      "payable": true
    },
    {
      "inputs": [
        {
          "internalType": "uint256",
          "name": "amountWei",
          "type": "uint256"
        }
      ],
      "name": "formatAmount",
      "outputs": [
        {
          "internalType": "string",
          "name": "",
          "type": "string"
        }
      ],
      "stateMutability": "pure",
      "type": "function",
      "constant": true
    },
    {
      "inputs": [
        {
          "internalType": "uint256",
          "name": "groupId",
          "type": "uint256"
        }
      ],
      "name": "getGroupMembers",
      "outputs": [
        {
          "internalType": "address[]",
          "name": "",
          "type": "address[]"
        }
      ],
      "stateMutability": "view",
      "type": "function",
      "constant": true
    },
    {
      "inputs": [
        {
          "internalType": "uint256",
          "name": "groupId",
          "type": "uint256"
        }
      ],
      "name": "getGroupExpenses",
      "outputs": [
        {
          "internalType": "uint256",
          "name": "",
          "type": "uint256"
        }
      ],
      "stateMutability": "view",
      "type": "function",
      "constant": true
    },
    {
      "inputs": [
        {
          "internalType": "uint256",
          "name": "groupId",
          "type": "uint256"
        }
      ],
      "name": "getGroupExpenseIds",
      "outputs": [
        {
          "internalType": "uint256[]",
          "name": "",
          "type": "uint256[]"
        }
      ],
      "stateMutability": "view",
      "type": "function",
      "constant": true
    },
    {
      "inputs": [
        {
          "internalType": "address",
          "name": "user",
          "type": "address"
        },
        {
          "internalType": "uint256",
          "name": "groupId",
          "type": "uint256"
        }
      ],
      "name": "getUserBalance",
      "outputs": [
        {
          "internalType": "int256",
          "name": "",
          "type": "int256"
        }
      ],
      "stateMutability": "view",
      "type": "function",
      "constant": true
    },
    {
      "inputs": [
        {
          "internalType": "string",
          "name": "username",
          "type": "string"
        },
        {
          "internalType": "uint256",
          "name": "groupId",
          "type": "uint256"
        }
      ],
      "name": "getUserBalanceFormatted",
      "outputs": [
        {
          "internalType": "string",
          "name": "",
          "type": "string"
        }
      ],
      "stateMutability": "view",
      "type": "function",
      "constant": true
    },
    {
      "inputs": [
        {
          "internalType": "address",
          "name": "user",
          "type": "address"
        },
        {
          "internalType": "uint256",
          "name": "groupId",
          "type": "uint256"
        }
      ],
      "name": "getUserBalanceFormatted",
      "outputs": [
        {
          "internalType": "string",
          "name": "",
          "type": "string"
        }
      ],
      "stateMutability": "view",
      "type": "function",
      "constant": true
    },
    {
      "inputs": [
        {
          "internalType": "address",
          "name": "user",
          "type": "address"
        },
        {
          "internalType": "uint256",
          "name": "groupId",
          "type": "uint256"
        }
      ],
      "name": "getUserDebts",
      "outputs": [
        {
          "internalType": "address[]",
          "name": "creditors",
          "type": "address[]"
        },
        {
          "internalType": "string[]",
          "name": "amounts",
          "type": "string[]"
        },
        {
          "internalType": "bool[]",
          "name": "settledStatus",
          "type": "bool[]"
        }
      ],
      "stateMutability": "view",
      "type": "function",
      "constant": true
    },
    {
      "inputs": [
        {
          "internalType": "address",
          "name": "user",
          "type": "address"
        },
        {
          "internalType": "uint256",
          "name": "groupId",
          "type": "uint256"
        }
      ],
      "name": "getUserAllDebts",
      "outputs": [
        {
          "internalType": "address[]",
          "name": "creditors",
          "type": "address[]"
        },
        {
          "internalType": "uint256[]",
          "name": "amounts",
          "type": "uint256[]"
        },
        {
          "internalType": "bool[]",
          "name": "settledStatus",
          "type": "bool[]"
        },
        {
          "internalType": "uint256[]",
          "name": "timestamps",
          "type": "uint256[]"
        }
      ],
      "stateMutability": "view",
      "type": "function",
      "constant": true
    },
    {
      "inputs": [
        {
          "internalType": "address",
          "name": "user",
          "type": "address"
        }
      ],
      "name": "getUserDebtHistory",
      "outputs": [
        {
          "internalType": "uint256[]",
          "name": "groupIds",
          "type": "uint256[]"
        },
        {
          "internalType": "address[]",
          "name": "counterparties",
          "type": "address[]"
        },
        {
          "internalType": "uint256[]",
          "name": "amounts",
          "type": "uint256[]"
        },
        {
          "internalType": "bool[]",
          "name": "isCreditor",
          "type": "bool[]"
        },
        {
          "internalType": "bool[]",
          "name": "settledStatus",
          "type": "bool[]"
        },
        {
          "internalType": "uint256[]",
          "name": "timestamps",
          "type": "uint256[]"
        }
      ],
      "stateMutability": "view",
      "type": "function",
      "constant": true
    },
    {
      "inputs": [
        {
          "internalType": "string",
          "name": "username",
          "type": "string"
        }
      ],
      "name": "getAllUserBalancesFormatted",
      "outputs": [
        {
          "internalType": "string[]",
          "name": "",
          "type": "string[]"
        },
        {
          "internalType": "uint256[]",
          "name": "",
          "type": "uint256[]"
        }
      ],
      "stateMutability": "view",
      "type": "function",
      "constant": true
    },
    {
      "inputs": [
        {
          "internalType": "string",
          "name": "username",
          "type": "string"
        }
      ],
      "name": "getAddressFromUsername",
      "outputs": [
        {
          "internalType": "address",
          "name": "",
          "type": "address"
        }
      ],
      "stateMutability": "view",
      "type": "function",
      "constant": true
    },
    {
      "inputs": [
        {
          "internalType": "address",
          "name": "user",
          "type": "address"
        }
      ],
      "name": "getFormattedDebts",
      "outputs": [
        {
          "internalType": "uint256[]",
          "name": "amountsWei",
          "type": "uint256[]"
        },
        {
          "internalType": "string[]",
          "name": "amountsFormatted",
          "type": "string[]"
        },
        {
          "internalType": "uint256[]",
          "name": "groupIds",
          "type": "uint256[]"
        },
        {
          "internalType": "bool[]",
          "name": "settledStatus",
          "type": "bool[]"
        }
      ],
      "stateMutability": "view",
      "type": "function",
      "constant": true
    }
  ],
  "bytecode": "0x608060405234801561001057600080fd5b50613a30806100206000396000f3fe6080604052600436106101815760003560e01c8063a524d377116100d1578063cbf1304d1161008a578063db16d6dc11610064578063db16d6dc146105c7578063dc2ddcae146105dd578063f5b8790f146105fd578063fad1b0d11461062d57600080fd5b8063cbf1304d1461054f578063d702f12214610587578063da894347146105a757600080fd5b8063a524d377146103f3578063a6bffe3014610413578063a87430ba14610445578063ad84c9ba14610473578063af4afe0a146104a2578063c941821c1461052f57600080fd5b80634e82c1341161013e578063704f1b9411610118578063704f1b94146103495780637bb683741461036957806391a9648a1461037f57806396324bd4146103c257600080fd5b80634e82c134146102b3578063500b136f146102eb57806352b807f11461032957600080fd5b80630326d54b1461018657806319af2823146101bc57806331058ee7146101e9578063365e84d5146101fe57806336cc8130146102585780634a2c92b814610285575b600080fd5b34801561019257600080fd5b506101a66101a1366004613026565b61065d565b6040516101b3919061307a565b60405180910390f35b3480156101c857600080fd5b506101dc6101d7366004613026565b6106c2565b6040516101b391906130e4565b6101fc6101f73660046131ac565b61077a565b005b34801561020a57600080fd5b5061021e61021936600461323c565b610ff7565b604080516001600160a01b0397881681529690951660208701529385019290925260608401521515608083015260a082015260c0016101b3565b34801561026457600080fd5b50610278610273366004613026565b61105a565b6040516101b3919061329f565b34801561029157600080fd5b506102a56102a03660046132b2565b6110c8565b6040516101b3929190613343565b3480156102bf57600080fd5b506102d36102ce3660046132b2565b61127a565b6040516001600160a01b0390911681526020016101b3565b3480156102f757600080fd5b5061031b610306366004613026565b60009081526002602052604090206003015490565b6040519081526020016101b3565b34801561033557600080fd5b506101fc610344366004613371565b6112fb565b34801561035557600080fd5b506101fc6103643660046132b2565b6114d7565b34801561037557600080fd5b5061031b60085481565b34801561038b57600080fd5b5061031b61039a36600461323c565b6001600160a01b03919091166000908152600660209081526040808320938352929052205490565b3480156103ce57600080fd5b506103e26103dd366004613026565b6116bd565b6040516101b395949392919061339d565b3480156103ff57600080fd5b506101dc61040e3660046133dc565b611780565b34801561041f57600080fd5b5061043361042e366004613420565b61187d565b6040516101b39695949392919061346d565b34801561045157600080fd5b50610465610460366004613420565b611cb3565b6040516101b39291906134ef565b34801561047f57600080fd5b5061049361048e36600461323c565b611d60565b6040516101b393929190613519565b3480156104ae57600080fd5b506104fc6104bd366004613026565b6003602081905260009182526040909120805460018201546002830154938301546006909301549193909290916001600160a01b039091169060ff1685565b604080519586526020860194909452928401919091526001600160a01b031660608301521515608082015260a0016101b3565b34801561053b57600080fd5b506101dc61054a36600461323c565b61202a565b34801561055b57600080fd5b5061031b61056a36600461323c565b600660209081526000928352604080842090915290825290205481565b34801561059357600080fd5b506101fc6105a236600461355c565b6120af565b3480156105b357600080fd5b5061021e6105c2366004613633565b6126fb565b3480156105d357600080fd5b5061031b60075481565b3480156105e957600080fd5b506101fc6105f83660046132b2565b612717565b34801561060957600080fd5b5061061d610618366004613420565b6127ec565b6040516101b39493929190613655565b34801561063957600080fd5b5061064d61064836600461323c565b612afd565b6040516101b394939291906136a2565b6000818152600260209081526040918290206007018054835181840281018401909452808452606093928301828280156106b657602002820191906000526020600020905b8154815260200190600101908083116106a2575b50505050509050919050565b606060006106d8670de0b6b3a76400008461371b565b90506000670de0b6b3a76400006106ef818661372f565b6106fa906064613743565b610704919061371b565b905061070f82612e42565b600a821061072c5760405180602001604052806000815250610747565b604051806040016040528060018152602001600360fc1b8152505b61075083612e42565b6040516020016107629392919061375a565b60405160208183030381529060405292505050919050565b60006107858461127a565b905060006107928461127a565b90506001600160a01b0382166107e25760405162461bcd60e51b815260206004820152601060248201526f1119589d1bdc881b9bdd08199bdd5b9960821b60448201526064015b60405180910390fd5b6001600160a01b03811661082d5760405162461bcd60e51b815260206004820152601260248201527110dc99591a5d1bdc881b9bdd08199bdd5b9960721b60448201526064016107d9565b336001600160a01b0383161461087e5760405162461bcd60e51b81526020600482015260166024820152754f6e6c7920646562746f722063616e20736574746c6560501b60448201526064016107d9565b60008681526002602090815260408083206001600160a01b038616845260050190915290205460ff1680156108d8575060008681526002602090815260408083206001600160a01b038516845260050190915290205460ff165b6109185760405162461bcd60e51b81526020600482015260116024820152704e6f742067726f7570206d656d6265727360781b60448201526064016107d9565b816001600160a01b0316816001600160a01b03160361096f5760405162461bcd60e51b815260206004820152601360248201527221b0b73737ba103830bc903cb7bab939b2b63360691b60448201526064016107d9565b600083116109bf5760405162461bcd60e51b815260206004820152601760248201527f416d6f756e74206d75737420626520706f73697469766500000000000000000060448201526064016107d9565b823414610a0e5760405162461bcd60e51b815260206004820152601860248201527f496e636f7272656374207061796d656e7420616d6f756e74000000000000000060448201526064016107d9565b60008681526004602052604081208490825b8154811015610bcb57856001600160a01b0316828281548110610a4557610a456137ad565b60009182526020909120600160069092020101546001600160a01b0316148015610aa25750846001600160a01b0316828281548110610a8657610a866137ad565b60009182526020909120600690910201546001600160a01b0316145b8015610ad45750818181548110610abb57610abb6137ad565b600091825260209091206004600690920201015460ff16155b15610bb957818181548110610aeb57610aeb6137ad565b9060005260206000209060060201600201548310610b7357818181548110610b1557610b156137ad565b90600052602060002090600602016002015483610b3291906137c3565b92506001828281548110610b4857610b486137ad565b60009182526020909120600690910201600401805460ff191691151591909117905560019350610bb9565b82828281548110610b8657610b866137ad565b90600052602060002090600602016002016000828254610ba691906137c3565b909155506001945060009350610bcb9050565b80610bc3816137d6565b915050610a20565b506001600160a01b0385166000908152600560205260408120905b8154811015610d75578a828281548110610c0257610c026137ad565b906000526020600020906006020160030154148015610c545750856001600160a01b0316828281548110610c3857610c386137ad565b60009182526020909120600690910201546001600160a01b0316145b8015610c865750818181548110610c6d57610c6d6137ad565b600091825260209091206004600690920201015460ff16155b15610d6357818181548110610c9d57610c9d6137ad565b9060005260206000209060060201600201548410610d2157818181548110610cc757610cc76137ad565b90600052602060002090600602016002015484610ce491906137c3565b93506001828281548110610cfa57610cfa6137ad565b60009182526020909120600690910201600401805460ff1916911515919091179055610d63565b83828281548110610d3457610d346137ad565b90600052602060002090600602016002016000828254610d5491906137c3565b9091555060009450610d759050565b80610d6d816137d6565b915050610be6565b5083610dba5760405162461bcd60e51b8152602060048201526014602482015273139bc81858dd1a5d99481919589d08199bdd5b9960621b60448201526064016107d9565b8215610e085760405162461bcd60e51b815260206004820152601b60248201527f5061796d656e742065786365656473206465627420616d6f756e74000000000060448201526064016107d9565b6001600160a01b03861660009081526006602090815260408083208d845290915281208054899290610e3b9084906137ef565b90915550506001600160a01b03851660009081526006602090815260408083208d845290915281208054899290610e73908490613817565b90915550506001600160a01b03861660009081526006602090815260408083208d84529091529020546001600160ff1b0312801590610ed957506001600160a01b03861660009081526006602090815260408083208d8452909152902054600160ff1b13155b610f185760405162461bcd60e51b815260206004820152601060248201526f42616c616e6365206f766572666c6f7760801b60448201526064016107d9565b6040516001600160a01b0386169088156108fc029089906000818181858888f19350505050158015610f4e573d6000803e3d6000fd5b50846001600160a01b0316866001600160a01b03168b7f16c014bb6d1c6cc25e4d9c2ffff2d5052bc083462038999100ead76edf97bee08a604051610f9591815260200190565b60405180910390a4846001600160a01b0316866001600160a01b03168b7fb73414e83fe48d03a430abd012c3314bf45c74419cd1b4a7db8a774b3538ce538a604051610fe391815260200190565b60405180910390a450505050505050505050565b6005602052816000526040600020818154811061101357600080fd5b60009182526020909120600690910201805460018201546002830154600384015460048501546005909501546001600160a01b0394851697509290931694509260ff169086565b6000818152600260209081526040918290206006018054835181840281018401909452808452606093928301828280156106b657602002820191906000526020600020905b81546001600160a01b0316815260019091019060200180831161109f5750505050509050919050565b60608060006110d68461127a565b9050600060015b60075481116111345760008181526002602090815260408083206001600160a01b038716845260050190915290205460ff1615611122578161111e816137d6565b9250505b8061112c816137d6565b9150506110dd565b506000816001600160401b0381111561114f5761114f6130f7565b60405190808252806020026020018201604052801561118257816020015b606081526020019060019003908161116d5790505b5090506000826001600160401b0381111561119f5761119f6130f7565b6040519080825280602002602001820160405280156111c8578160200160208202803683370190505b509050600060015b600754811161126c5760008181526002602090815260408083206001600160a01b038a16845260050190915290205460ff161561125a576112118982611780565b848381518110611223576112236137ad565b602002602001018190525080838381518110611241576112416137ad565b602090810291909101015281611256816137d6565b9250505b80611264816137d6565b9150506111d0565b509197909650945050505050565b60008060018360405161128d919061383e565b908152604051908190036020019020546001600160a01b03169050806112f55760405162461bcd60e51b815260206004820152601760248201527f557365726e616d65206e6f74207265676973746572656400000000000000000060448201526064016107d9565b92915050565b6000828152600260208190526040909120015482906001600160a01b031633146113595760405162461bcd60e51b815260206004820152600f60248201526e2737ba1033b937bab81037bbb732b960891b60448201526064016107d9565b60008381526002602090815260408083206001600160a01b038616845260050190915290205460ff16156113c05760405162461bcd60e51b815260206004820152600e60248201526d20b63932b0b23c9036b2b6b132b960911b60448201526064016107d9565b6001600160a01b03828116600090815260208190526040902060010154166114205760405162461bcd60e51b8152602060048201526013602482015272155cd95c881b9bdd081c9959da5cdd195c9959606a1b60448201526064016107d9565b60008381526002602081815260408084206001600160a01b038716808652600582018452918520805460ff191660019081179091559383526006810180549485018155855291842090920180546001600160a01b03191690921790915584825260040180549161148f836137d6565b90915550506040516001600160a01b038316815283907ff328ac0f8bcae00933fe87ba0aa2d0d505c1df94bc9c1aa05b8441c28b74032c9060200160405180910390a2505050565b60008151116115195760405162461bcd60e51b815260206004820152600e60248201526d456d70747920757365726e616d6560901b60448201526064016107d9565b336000908152602081905260409020600101546001600160a01b0316156115775760405162461bcd60e51b8152602060048201526012602482015271105b1c9958591e481c9959da5cdd195c995960721b60448201526064016107d9565b60006001600160a01b0316600182604051611592919061383e565b908152604051908190036020019020546001600160a01b0316146115e95760405162461bcd60e51b815260206004820152600e60248201526d2ab9b2b93730b6b2903a30b5b2b760911b60448201526064016107d9565b6040805180820182528281523360208083018290526000918252819052919091208151819061161890826138e3565b5060209190910151600191820180546001600160a01b0319166001600160a01b0390921691909117905560405133919061165390849061383e565b90815260405190819003602001812080546001600160a01b03939093166001600160a01b03199093169290921790915533907f48cac28ad4dc618e15f4c2dd5e97751182f166de97b25618318b2112aa951a2f906116b29084906130e4565b60405180910390a250565b600260205260009081526040902080546001820180549192916116df9061385a565b80601f016020809104026020016040519081016040528092919081815260200182805461170b9061385a565b80156117585780601f1061172d57610100808354040283529160200191611758565b820191906000526020600020905b81548152906001019060200180831161173b57829003601f168201915b505050506002830154600384015460049094015492936001600160a01b039091169290915085565b6060600061178d8461127a565b60008481526002602090815260408083206001600160a01b038516845260050190915290205490915060ff166117f95760405162461bcd60e51b8152602060048201526011602482015270055736572206e6f7420696e2067726f757607c1b60448201526064016107d9565b6001600160a01b038116600090815260066020908152604080832086845290915281205490808212908161182d5782611836565b611836836139a2565b90506000611843826106c2565b9050826118505780611871565b8060405160200161186191906139be565b6040516020818303038152906040525b98975050505050505050565b60608080808080600060015b60075481116118bf576000818152600460205260409020546118ab90836139e7565b9150806118b7816137d6565b915050611889565b50806001600160401b038111156118d8576118d86130f7565b604051908082528060200260200182016040528015611901578160200160208202803683370190505b509650806001600160401b0381111561191c5761191c6130f7565b604051908082528060200260200182016040528015611945578160200160208202803683370190505b509550806001600160401b03811115611960576119606130f7565b604051908082528060200260200182016040528015611989578160200160208202803683370190505b509450806001600160401b038111156119a4576119a46130f7565b6040519080825280602002602001820160405280156119cd578160200160208202803683370190505b509350806001600160401b038111156119e8576119e86130f7565b604051908082528060200260200182016040528015611a11578160200160208202803683370190505b509250806001600160401b03811115611a2c57611a2c6130f7565b604051908082528060200260200182016040528015611a55578160200160208202803683370190505b509150600060015b6007548111611c955760005b600082815260046020526040902054811015611c82576000828152600460205260408120805483908110611a9f57611a9f6137ad565b6000918252602090912060069091020160018101549091506001600160a01b038d811691161480611adc575080546001600160a01b038d81169116145b15611c6f57828b8581518110611af457611af46137ad565b6020026020010181815250508060020154898581518110611b1757611b176137ad565b60209081029190910101526004810154875160ff90911690889086908110611b4157611b416137ad565b6020026020010190151590811515815250508060050154868581518110611b6a57611b6a6137ad565b602090810291909101015260018101546001600160a01b03808e16911603611bf75780548a516001600160a01b03909116908b9086908110611bae57611bae6137ad565b60200260200101906001600160a01b031690816001600160a01b0316815250506000888581518110611be257611be26137ad565b91151560209283029190910190910152611c61565b60018101548a516001600160a01b03909116908b9086908110611c1c57611c1c6137ad565b60200260200101906001600160a01b031690816001600160a01b0316815250506001888581518110611c5057611c506137ad565b911515602092830291909101909101525b83611c6b816137d6565b9450505b5080611c7a816137d6565b915050611a69565b5080611c8d816137d6565b915050611a5d565b50808852808752808652808552808452808352505091939550919395565b600060208190529081526040902080548190611cce9061385a565b80601f0160208091040260200160405190810160405280929190818152602001828054611cfa9061385a565b8015611d475780601f10611d1c57610100808354040283529160200191611d47565b820191906000526020600020905b815481529060010190602001808311611d2a57829003601f168201915b505050600190930154919250506001600160a01b031682565b600081815260046020526040812060609182918291805b8254811015611dde57876001600160a01b0316838281548110611d9c57611d9c6137ad565b60009182526020909120600160069092020101546001600160a01b031603611dcc5781611dc8816137d6565b9250505b80611dd6816137d6565b915050611d77565b50806001600160401b03811115611df757611df76130f7565b604051908082528060200260200182016040528015611e20578160200160208202803683370190505b509450806001600160401b03811115611e3b57611e3b6130f7565b604051908082528060200260200182016040528015611e6e57816020015b6060815260200190600190039081611e595790505b509350806001600160401b03811115611e8957611e896130f7565b604051908082528060200260200182016040528015611eb2578160200160208202803683370190505b5092506000805b835481101561201f57886001600160a01b0316848281548110611ede57611ede6137ad565b60009182526020909120600160069092020101546001600160a01b03160361200d57838181548110611f1257611f126137ad565b600091825260209091206006909102015487516001600160a01b0390911690889084908110611f4357611f436137ad565b60200260200101906001600160a01b031690816001600160a01b031681525050611f8f848281548110611f7857611f786137ad565b9060005260206000209060060201600201546106c2565b868381518110611fa157611fa16137ad565b6020026020010181905250838181548110611fbe57611fbe6137ad565b906000526020600020906006020160040160009054906101000a900460ff16858381518110611fef57611fef6137ad565b9115156020928302919091019091015281612009816137d6565b9250505b80612017816137d6565b915050611eb9565b505050509250925092565b6001600160a01b038216600090815260066020908152604080832084845290915281205460609180821290816120605782612069565b612069836139a2565b90506000612076826106c2565b90508261208357806120a4565b8060405160200161209491906139be565b6040516020818303038152906040525b979650505050505050565b6000838152600260209081526040808320338452600501909152902054839060ff166121105760405162461bcd60e51b815260206004820152601060248201526f2737ba1033b937bab81036b2b6b132b960811b60448201526064016107d9565b600083116121515760405162461bcd60e51b815260206004820152600e60248201526d125b9d985b1a5908185b5bdd5b9d60921b60448201526064016107d9565b60008251116121945760405162461bcd60e51b815260206004820152600f60248201526e4e6f207061727469636970616e747360881b60448201526064016107d9565b60006008600081546121a5906137d6565b918290555083519091506000816121c487670de0b6b3a7640000613743565b6121ce919061371b565b60008481526003602081905260408220868155600181018a9055600281018a905590810180546001600160a01b0319163317905560068101805460ff1916905591925090836001600160401b0381111561222a5761222a6130f7565b604051908082528060200260200182016040528015612253578160200160208202803683370190505b50805161226a916004840191602090910190612fac565b5060005b8481101561267157600061229a89838151811061228d5761228d6137ad565b602002602001015161127a565b60008c81526002602090815260408083206001600160a01b038516845260050190915290205490915060ff166123055760405162461bcd60e51b815260206004820152601060248201526f2737ba1033b937bab81036b2b6b132b960811b60448201526064016107d9565b8083600401838154811061231b5761231b6137ad565b6000918252602082200180546001600160a01b0319166001600160a01b03939093169290921790915561234f6001886137c3565b831461235b5785612378565b8461236e8c670de0b6b3a7640000613743565b61237891906137c3565b905061238481866139e7565b6001600160a01b03831660008181526005870160205260409020839055909550331461266757600460008d81526020019081526020016000206040518060c00160405280336001600160a01b03168152602001846001600160a01b031681526020018381526020018e815260200160001515815260200142815250908060018154018082558091505060019003906000526020600020906006020160009091909190915060008201518160000160006101000a8154816001600160a01b0302191690836001600160a01b0316021790555060208201518160010160006101000a8154816001600160a01b0302191690836001600160a01b03160217905550604082015181600201556060820151816003015560808201518160040160006101000a81548160ff02191690831515021790555060a08201518160050155505060056000836001600160a01b03166001600160a01b031681526020019081526020016000206040518060c00160405280336001600160a01b03168152602001846001600160a01b031681526020018381526020018e815260200160001515815260200142815250908060018154018082558091505060019003906000526020600020906006020160009091909190915060008201518160000160006101000a8154816001600160a01b0302191690836001600160a01b0316021790555060208201518160010160006101000a8154816001600160a01b0302191690836001600160a01b03160217905550604082015181600201556060820151816003015560808201518160040160006101000a81548160ff02191690831515021790555060a0820151816005015550508060066000846001600160a01b03166001600160a01b0316815260200190815260200160002060008e815260200190815260200160002060008282546126329190613817565b90915550503360009081526006602090815260408083208f8452909152812080548392906126619084906137ef565b90915550505b505060010161226e565b50600089815260026020908152604082206007810180546001810182559084529183209091018790558a825260030180548a92906126b09084906139e7565b909155505060408051868152602081018a90528a917fdb7fe1afe70d9afd2511cbba96288568628fcbba215e44e3ef77fb5b810365b4910160405180910390a2505050505050505050565b6004602052816000526040600020818154811061101357600080fd5b6000600760008154612728906137d6565b918290555060008181526002602052604090208181559091506001810161274f84826138e3565b50600281018054336001600160a01b031991821681179092556000600384018190556001600485018190558382526005850160209081526040808420805460ff19168417905560068701805493840181558452922001805490921683179091555183907f4354295f5d98820e66a770bd58cf23606ab255dd9dc2daf870fab38ecbc3e7e0906127df9087906130e4565b60405180910390a3505050565b6060808080600060015b60075481116128995760005b60008281526004602052604090205481101561288657600082815260046020526040902080546001600160a01b038a16919083908110612844576128446137ad565b60009182526020909120600160069092020101546001600160a01b0316036128745782612870816137d6565b9350505b8061287e816137d6565b915050612802565b5080612891816137d6565b9150506127f6565b50806001600160401b038111156128b2576128b26130f7565b6040519080825280602002602001820160405280156128db578160200160208202803683370190505b509450806001600160401b038111156128f6576128f66130f7565b60405190808252806020026020018201604052801561292957816020015b60608152602001906001900390816129145790505b509350806001600160401b03811115612944576129446130f7565b60405190808252806020026020018201604052801561296d578160200160208202803683370190505b509250806001600160401b03811115612988576129886130f7565b6040519080825280602002602001820160405280156129b1578160200160208202803683370190505b509150600060015b6007548111612af35760005b600082815260046020526040902054811015612ae05760008281526004602052604081208054839081106129fb576129fb6137ad565b6000918252602090912060069091020160018101549091506001600160a01b038b8116911603612acd578060020154898581518110612a3c57612a3c6137ad565b602002602001018181525050612a5581600201546106c2565b888581518110612a6757612a676137ad565b602002602001018190525082878581518110612a8557612a856137ad565b60209081029190910101526004810154865160ff90911690879086908110612aaf57612aaf6137ad565b9115156020928302919091019091015283612ac9816137d6565b9450505b5080612ad8816137d6565b9150506129c5565b5080612aeb816137d6565b9150506129b9565b5050509193509193565b600081815260046020526040812060609182918291829190805b8254811015612b7e57886001600160a01b0316838281548110612b3c57612b3c6137ad565b60009182526020909120600160069092020101546001600160a01b031603612b6c5781612b68816137d6565b9250505b80612b76816137d6565b915050612b17565b50806001600160401b03811115612b9757612b976130f7565b604051908082528060200260200182016040528015612bc0578160200160208202803683370190505b509550806001600160401b03811115612bdb57612bdb6130f7565b604051908082528060200260200182016040528015612c04578160200160208202803683370190505b509450806001600160401b03811115612c1f57612c1f6130f7565b604051908082528060200260200182016040528015612c48578160200160208202803683370190505b509350806001600160401b03811115612c6357612c636130f7565b604051908082528060200260200182016040528015612c8c578160200160208202803683370190505b5092506000805b8354811015612e3557896001600160a01b0316848281548110612cb857612cb86137ad565b60009182526020909120600160069092020101546001600160a01b031603612e2357838181548110612cec57612cec6137ad565b600091825260209091206006909102015488516001600160a01b0390911690899084908110612d1d57612d1d6137ad565b60200260200101906001600160a01b031690816001600160a01b031681525050838181548110612d4f57612d4f6137ad565b906000526020600020906006020160020154878381518110612d7357612d736137ad565b602002602001018181525050838181548110612d9157612d916137ad565b906000526020600020906006020160040160009054906101000a900460ff16868381518110612dc257612dc26137ad565b602002602001019015159081151581525050838181548110612de657612de66137ad565b906000526020600020906006020160050154858381518110612e0a57612e0a6137ad565b602090810291909101015281612e1f816137d6565b9250505b80612e2d816137d6565b915050612c93565b5050505092959194509250565b60606000612e4f83612ed4565b60010190506000816001600160401b03811115612e6e57612e6e6130f7565b6040519080825280601f01601f191660200182016040528015612e98576020820181803683370190505b5090508181016020015b600019016f181899199a1a9b1b9c1cb0b131b232b360811b600a86061a8153600a8504945084612ea257509392505050565b60008072184f03e93ff9f4daa797ed6e38ed64bf6a1f0160401b8310612f135772184f03e93ff9f4daa797ed6e38ed64bf6a1f0160401b830492506040015b6d04ee2d6d415b85acef81000000008310612f3f576d04ee2d6d415b85acef8100000000830492506020015b662386f26fc100008310612f5d57662386f26fc10000830492506010015b6305f5e1008310612f75576305f5e100830492506008015b6127108310612f8957612710830492506004015b60648310612f9b576064830492506002015b600a83106112f55760010192915050565b828054828255906000526020600020908101928215613001579160200282015b8281111561300157825182546001600160a01b0319166001600160a01b03909116178255602090920191600190910190612fcc565b5061300d929150613011565b5090565b5b8082111561300d5760008155600101613012565b60006020828403121561303857600080fd5b5035919050565b600081518084526020808501945080840160005b8381101561306f57815187529582019590820190600101613053565b509495945050505050565b60208152600061308d602083018461303f565b9392505050565b60005b838110156130af578181015183820152602001613097565b50506000910152565b600081518084526130d0816020860160208601613094565b601f01601f19169290920160200192915050565b60208152600061308d60208301846130b8565b634e487b7160e01b600052604160045260246000fd5b604051601f8201601f191681016001600160401b0381118282101715613135576131356130f7565b604052919050565b600082601f83011261314e57600080fd5b81356001600160401b03811115613167576131676130f7565b61317a601f8201601f191660200161310d565b81815284602083860101111561318f57600080fd5b816020850160208301376000918101602001919091529392505050565b600080600080608085870312156131c257600080fd5b8435935060208501356001600160401b03808211156131e057600080fd5b6131ec8883890161313d565b9450604087013591508082111561320257600080fd5b5061320f8782880161313d565b949793965093946060013593505050565b80356001600160a01b038116811461323757600080fd5b919050565b6000806040838503121561324f57600080fd5b61325883613220565b946020939093013593505050565b600081518084526020808501945080840160005b8381101561306f5781516001600160a01b03168752958201959082019060010161327a565b60208152600061308d6020830184613266565b6000602082840312156132c457600080fd5b81356001600160401b038111156132da57600080fd5b6132e68482850161313d565b949350505050565b600081518084526020808501808196508360051b8101915082860160005b858110156133365782840389526133248483516130b8565b9885019893509084019060010161330c565b5091979650505050505050565b60408152600061335660408301856132ee565b8281036020840152613368818561303f565b95945050505050565b6000806040838503121561338457600080fd5b8235915061339460208401613220565b90509250929050565b85815260a0602082015260006133b660a08301876130b8565b6001600160a01b0395909516604083015250606081019290925260809091015292915050565b600080604083850312156133ef57600080fd5b82356001600160401b0381111561340557600080fd5b6134118582860161313d565b95602094909401359450505050565b60006020828403121561343257600080fd5b61308d82613220565b600081518084526020808501945080840160005b8381101561306f57815115158752958201959082019060010161344f565b60c08152600061348060c083018961303f565b82810360208401526134928189613266565b905082810360408401526134a6818861303f565b905082810360608401526134ba818761343b565b905082810360808401526134ce818661343b565b905082810360a08401526134e2818561303f565b9998505050505050505050565b60408152600061350260408301856130b8565b905060018060a01b03831660208301529392505050565b60608152600061352c6060830186613266565b828103602084015261353e81866132ee565b90508281036040840152613552818561343b565b9695505050505050565b60008060006060848603121561357157600080fd5b83359250602080850135925060408501356001600160401b038082111561359757600080fd5b818701915087601f8301126135ab57600080fd5b8135818111156135bd576135bd6130f7565b8060051b6135cc85820161310d565b918252838101850191858101908b8411156135e657600080fd5b86860192505b83831015613622578235858111156136045760008081fd5b6136128d89838a010161313d565b83525091860191908601906135ec565b809750505050505050509250925092565b6000806040838503121561364657600080fd5b50508035926020909101359150565b608081526000613668608083018761303f565b828103602084015261367a81876132ee565b9050828103604084015261368e818661303f565b905082810360608401526120a4818561343b565b6080815260006136b56080830187613266565b82810360208401526136c7818761303f565b905082810360408401526136db818661343b565b905082810360608401526120a4818561303f565b634e487b7160e01b600052601260045260246000fd5b634e487b7160e01b600052601160045260246000fd5b60008261372a5761372a6136ef565b500490565b60008261373e5761373e6136ef565b500690565b80820281158282048414176112f5576112f5613705565b6000845161376c818460208901613094565b601760f91b908301908152845161378a816001840160208901613094565b84519101906137a0816001840160208801613094565b0160010195945050505050565b634e487b7160e01b600052603260045260246000fd5b818103818111156112f5576112f5613705565b6000600182016137e8576137e8613705565b5060010190565b808201828112600083128015821682158216171561380f5761380f613705565b505092915050565b818103600083128015838313168383128216171561383757613837613705565b5092915050565b60008251613850818460208701613094565b9190910192915050565b600181811c9082168061386e57607f821691505b60208210810361388e57634e487b7160e01b600052602260045260246000fd5b50919050565b601f8211156138de57600081815260208120601f850160051c810160208610156138bb5750805b601f850160051c820191505b818110156138da578281556001016138c7565b5050505b505050565b81516001600160401b038111156138fc576138fc6130f7565b6139108161390a845461385a565b84613894565b602080601f831160018114613945576000841561392d5750858301515b600019600386901b1c1916600185901b1785556138da565b600085815260208120601f198616915b8281101561397457888601518255948401946001909101908401613955565b50858210156139925787850151600019600388901b60f8161c191681555b5050505050600190811b01905550565b6000600160ff1b82016139b7576139b7613705565b5060000390565b602d60f81b8152600082516139da816001850160208701613094565b9190910160010192915050565b808201808211156112f5576112f561370556fea2646970667358221220d3121c0df749401f31e71a8064eff87227b4c7e9016fbeb96e73e971b91f0da464736f6c63430008130033",
  "immutableReferences": {},
  "source": "// SPDX-License-Identifier: MIT\r\npragma solidity ^0.8.0;\r\n\r\nimport \"@openzeppelin/contracts/utils/math/SafeMath.sol\";\r\nimport \"@openzeppelin/contracts/utils/Strings.sol\";\r\n\r\ncontract TabX {\r\n    using SafeMath for uint256;\r\n\r\n    struct User {\r\n        string username;\r\n        address userAddress;\r\n    }\r\n\r\n    struct Expense {\r\n        uint256 id;\r\n        uint256 totalAmount;\r\n        uint256 remainingAmount;\r\n        address payer;\r\n        address[] participants;\r\n        mapping(address => uint256) shares;\r\n        bool settled;\r\n    }\r\n\r\n    struct Group {\r\n        uint256 id;\r\n        string name;\r\n        address owner;\r\n        uint256 totalExpenses;\r\n        uint256 memberCount;\r\n        mapping(address => bool) isMember;\r\n        address[] members;\r\n        uint256[] expenseIds;\r\n    }\r\n\r\n    struct Debt {\r\n        address creditor;\r\n        address debtor;\r\n        uint256 amount;\r\n        uint256 groupId;\r\n        bool settled;\r\n        uint256 timestamp;\r\n    }\r\n\r\n    mapping(address => User) public users;\r\n    mapping(string => address) private usernameToAddress;\r\n    mapping(uint256 => Group) public groups;\r\n    mapping(uint256 => Expense) public expenses;\r\n    mapping(uint256 => Debt[]) public groupDebts;\r\n    mapping(address => Debt[]) public userDebts;\r\n    mapping(address => mapping(uint256 => int256)) public balances;\r\n\r\n    uint256 public groupIdCounter;\r\n    uint256 public expenseIdCounter;\r\n\r\n    // Events\r\n    event UserRegistered(address indexed user, string username);\r\n    event GroupCreated(uint256 indexed groupId, address indexed owner, string name);\r\n    event MemberAdded(uint256 indexed groupId, address member);\r\n    event ExpenseAdded(uint256 indexed groupId, uint256 expenseId, uint256 amount);\r\n    event DebtSettled(uint256 indexed groupId, address indexed debtor, address indexed creditor, uint256 amount);\r\n    event SettlementMade(uint256 indexed groupId, address indexed from, address indexed to, uint256 amount);\r\n\r\n    modifier onlyGroupOwner(uint256 groupId) {\r\n        require(groups[groupId].owner == msg.sender, \"Not group owner\");\r\n        _;\r\n    }\r\n\r\n    modifier onlyGroupMember(uint256 groupId) {\r\n        require(groups[groupId].isMember[msg.sender], \"Not group member\");\r\n        _;\r\n    }\r\n\r\n    function registerUser(string memory username) external {\r\n        require(bytes(username).length > 0, \"Empty username\");\r\n        require(users[msg.sender].userAddress == address(0), \"Already registered\");\r\n        require(usernameToAddress[username] == address(0), \"Username taken\");\r\n\r\n        users[msg.sender] = User(username, msg.sender);\r\n        usernameToAddress[username] = msg.sender;\r\n        emit UserRegistered(msg.sender, username);\r\n    }\r\n\r\n    function createGroup(string memory name) external {\r\n        uint256 groupId = ++groupIdCounter;\r\n\r\n        Group storage newGroup = groups[groupId];\r\n        newGroup.id = groupId;\r\n        newGroup.name = name;\r\n        newGroup.owner = msg.sender;\r\n        newGroup.totalExpenses = 0;\r\n        newGroup.memberCount = 1;\r\n\r\n        newGroup.isMember[msg.sender] = true;\r\n        newGroup.members.push(msg.sender);\r\n\r\n        emit GroupCreated(groupId, msg.sender, name);\r\n    }\r\n\r\n    function addGroupMember(uint256 groupId, address member) external onlyGroupOwner(groupId) {\r\n        require(!groups[groupId].isMember[member], \"Already member\");\r\n        require(users[member].userAddress != address(0), \"User not registered\");\r\n\r\n        groups[groupId].isMember[member] = true;\r\n        groups[groupId].members.push(member);\r\n        groups[groupId].memberCount++;\r\n        emit MemberAdded(groupId, member);\r\n    }\r\n\r\n    function addExpense(\r\n        uint256 groupId,\r\n        uint256 totalAmount,\r\n        string[] memory participantUsernames\r\n    ) external onlyGroupMember(groupId) {\r\n        require(totalAmount > 0, \"Invalid amount\");\r\n        require(participantUsernames.length > 0, \"No participants\");\r\n\r\n        uint256 expenseId = ++expenseIdCounter;\r\n        uint256 participantCount = participantUsernames.length;\r\n        uint256 sharePerParticipantWei = (totalAmount * 1 ether) / participantCount;\r\n        uint256 distributedTotal;\r\n\r\n        Expense storage newExpense = expenses[expenseId];\r\n        newExpense.id = expenseId;\r\n        newExpense.totalAmount = totalAmount;\r\n        newExpense.remainingAmount = totalAmount;\r\n        newExpense.payer = msg.sender;\r\n        newExpense.settled = false;\r\n        newExpense.participants = new address[](participantCount);\r\n\r\n        for (uint256 i = 0; i < participantCount; ) {\r\n            address participant = getAddressFromUsername(participantUsernames[i]);\r\n            require(groups[groupId].isMember[participant], \"Not group member\");\r\n            newExpense.participants[i] = participant;\r\n\r\n            uint256 shareWei = i == participantCount - 1 \r\n                ? (totalAmount * 1 ether) - distributedTotal \r\n                : sharePerParticipantWei;\r\n\r\n            distributedTotal += shareWei;\r\n            newExpense.shares[participant] = shareWei;\r\n\r\n            if (participant != msg.sender) {\r\n                groupDebts[groupId].push(Debt({\r\n                    creditor: msg.sender,\r\n                    debtor: participant,\r\n                    amount: shareWei,\r\n                    groupId: groupId,\r\n                    settled: false,\r\n                    timestamp: block.timestamp\r\n                }));\r\n                userDebts[participant].push(Debt({\r\n                    creditor: msg.sender,\r\n                    debtor: participant,\r\n                    amount: shareWei,\r\n                    groupId: groupId,\r\n                    settled: false,\r\n                    timestamp: block.timestamp\r\n                }));\r\n\r\n                balances[participant][groupId] -= int256(shareWei);\r\n                balances[msg.sender][groupId] += int256(shareWei);\r\n            }\r\n\r\n            unchecked { ++i; }\r\n        }\r\n\r\n        groups[groupId].expenseIds.push(expenseId);\r\n        groups[groupId].totalExpenses += totalAmount;\r\n        emit ExpenseAdded(groupId, expenseId, totalAmount);\r\n    }\r\n\r\n    function settleDebtByName(\r\n        uint256 groupId,\r\n        string memory debtorUsername,\r\n        string memory creditorUsername,\r\n        uint256 paymentAmount\r\n    ) external payable {\r\n        address debtor = getAddressFromUsername(debtorUsername);\r\n        address payable creditor = payable(getAddressFromUsername(creditorUsername));\r\n\r\n        require(debtor != address(0), \"Debtor not found\");\r\n        require(creditor != address(0), \"Creditor not found\");\r\n        require(msg.sender == debtor, \"Only debtor can settle\");\r\n        require(groups[groupId].isMember[debtor] && groups[groupId].isMember[creditor], \"Not group members\");\r\n        require(creditor != debtor, \"Cannot pay yourself\");\r\n        require(paymentAmount > 0, \"Amount must be positive\");\r\n        require(msg.value == paymentAmount, \"Incorrect payment amount\");\r\n\r\n        bool debtFound = false;\r\n        uint256 remainingPayment = paymentAmount;\r\n\r\n        // Process group debts\r\n        Debt[] storage gDebts = groupDebts[groupId];\r\n        for (uint i = 0; i < gDebts.length; i++) {\r\n            if (gDebts[i].debtor == debtor &&\r\n                gDebts[i].creditor == creditor &&\r\n                !gDebts[i].settled) {\r\n\r\n                if (remainingPayment >= gDebts[i].amount) {\r\n                    remainingPayment -= gDebts[i].amount;\r\n                    gDebts[i].settled = true;\r\n                    debtFound = true;\r\n                } else {\r\n                    gDebts[i].amount -= remainingPayment;\r\n                    remainingPayment = 0;\r\n                    debtFound = true;\r\n                    break;\r\n                }\r\n            }\r\n        }\r\n\r\n        // Process user debts\r\n        Debt[] storage uDebts = userDebts[debtor];\r\n        for (uint i = 0; i < uDebts.length; i++) {\r\n            if (uDebts[i].groupId == groupId &&\r\n                uDebts[i].creditor == creditor &&\r\n                !uDebts[i].settled) {\r\n\r\n                if (remainingPayment >= uDebts[i].amount) {\r\n                    remainingPayment -= uDebts[i].amount;\r\n                    uDebts[i].settled = true;\r\n                } else {\r\n                    uDebts[i].amount -= remainingPayment;\r\n                    remainingPayment = 0;\r\n                    break;\r\n                }\r\n            }\r\n        }\r\n\r\n        require(debtFound, \"No active debt found\");\r\n        require(remainingPayment == 0, \"Payment exceeds debt amount\");\r\n\r\n        // Update balances\r\n        balances[debtor][groupId] += int256(paymentAmount);\r\n        balances[creditor][groupId] -= int256(paymentAmount);\r\n\r\n        // Ensure no rounding errors by storing exact wei amounts\r\n        require(\r\n            balances[debtor][groupId] <= type(int256).max &&\r\n            balances[debtor][groupId] >= type(int256).min,\r\n            \"Balance overflow\"\r\n        );\r\n\r\n        // Transfer the funds\r\n        creditor.transfer(paymentAmount);\r\n\r\n        emit DebtSettled(groupId, debtor, creditor, paymentAmount);\r\n        emit SettlementMade(groupId, debtor, creditor, paymentAmount);\r\n    }\r\n\r\n    function getUserBalanceFormatted(address user, uint256 groupId) public view returns (string memory) {\r\n        int256 balance = balances[user][groupId];\r\n        bool isNegative = balance < 0;\r\n        uint256 absValue = isNegative ? uint256(-balance) : uint256(balance);\r\n        string memory formatted = formatAmount(absValue);\r\n        return isNegative ? string(abi.encodePacked(\"-\", formatted)) : formatted;\r\n    }\r\n\r\n    function formatAmount(uint256 amountWei) public pure returns (string memory) {\r\n        uint256 whole = amountWei / 1 ether;\r\n        uint256 fractional = (amountWei % 1 ether) * 100 / 1 ether;\r\n        return string(abi.encodePacked(\r\n            Strings.toString(whole), \".\",\r\n            fractional < 10 ? \"0\" : \"\",\r\n            Strings.toString(fractional)\r\n        ));\r\n    }\r\n\r\n    function getGroupMembers(uint256 groupId) public view returns (address[] memory) {\r\n        return groups[groupId].members;\r\n    }\r\n\r\n    function getGroupExpenses(uint256 groupId) public view returns (uint256) {\r\n        return groups[groupId].totalExpenses;\r\n    }\r\n\r\n    function getGroupExpenseIds(uint256 groupId) public view returns (uint256[] memory) {\r\n        return groups[groupId].expenseIds;\r\n    }\r\n\r\n    function getUserBalance(address user, uint256 groupId) public view returns (int256) {\r\n        return balances[user][groupId];\r\n    }\r\n\r\n    function getUserBalanceFormatted(string memory username, uint256 groupId) public view returns (string memory) {\r\n        address userAddress = getAddressFromUsername(username);\r\n        require(groups[groupId].isMember[userAddress], \"User not in group\");\r\n        int256 balance = balances[userAddress][groupId];\r\n        bool isNegative = balance < 0;\r\n        uint256 absValue = isNegative ? uint256(-balance) : uint256(balance);\r\n        string memory formatted = formatAmount(absValue);\r\n        return isNegative ? string(abi.encodePacked(\"-\", formatted)) : formatted;\r\n    }\r\n\r\n    function getUserDebts(address user, uint256 groupId) public view returns (\r\n        address[] memory creditors,\r\n        string[] memory amounts,\r\n        bool[] memory settledStatus\r\n    ) {\r\n        Debt[] storage allDebts = groupDebts[groupId];\r\n        uint256 count = 0;\r\n        for (uint256 i = 0; i < allDebts.length; i++) {\r\n            if (allDebts[i].debtor == user) {\r\n                count++;\r\n            }\r\n        }\r\n\r\n        creditors = new address[](count);\r\n        amounts = new string[](count);\r\n        settledStatus = new bool[](count);\r\n        uint256 idx;\r\n        for (uint256 i = 0; i < allDebts.length; i++) {\r\n            if (allDebts[i].debtor == user) {\r\n                creditors[idx] = allDebts[i].creditor;\r\n                amounts[idx] = formatAmount(allDebts[i].amount);\r\n                settledStatus[idx] = allDebts[i].settled;\r\n                idx++;\r\n            }\r\n        }\r\n    }\r\n\r\n    function getUserAllDebts(address user, uint256 groupId) public view returns (\r\n        address[] memory creditors,\r\n        uint256[] memory amounts,\r\n        bool[] memory settledStatus,\r\n        uint256[] memory timestamps\r\n    ) {\r\n        Debt[] storage allDebts = groupDebts[groupId];\r\n        uint256 count = 0;\r\n        for (uint256 i = 0; i < allDebts.length; i++) {\r\n            if (allDebts[i].debtor == user) {\r\n                count++;\r\n            }\r\n        }\r\n\r\n        creditors = new address[](count);\r\n        amounts = new uint256[](count);\r\n        settledStatus = new bool[](count);\r\n        timestamps = new uint256[](count);\r\n\r\n        uint256 idx;\r\n        for (uint256 i = 0; i < allDebts.length; i++) {\r\n            if (allDebts[i].debtor == user) {\r\n                creditors[idx] = allDebts[i].creditor;\r\n                amounts[idx] = allDebts[i].amount;\r\n                settledStatus[idx] = allDebts[i].settled;\r\n                timestamps[idx] = allDebts[i].timestamp;\r\n                idx++;\r\n            }\r\n        }\r\n    }\r\n\r\n    function getUserDebtHistory(address user) public view returns (\r\n        uint256[] memory groupIds,\r\n        address[] memory counterparties,\r\n        uint256[] memory amounts,\r\n        bool[] memory isCreditor,\r\n        bool[] memory settledStatus,\r\n        uint256[] memory timestamps\r\n    ) {\r\n        uint256 totalDebts = 0;\r\n        for (uint256 i = 1; i <= groupIdCounter; i++) {\r\n            totalDebts += groupDebts[i].length;\r\n        }\r\n\r\n        groupIds = new uint256[](totalDebts);\r\n        counterparties = new address[](totalDebts);\r\n        amounts = new uint256[](totalDebts);\r\n        isCreditor = new bool[](totalDebts);\r\n        settledStatus = new bool[](totalDebts);\r\n        timestamps = new uint256[](totalDebts);\r\n\r\n        uint256 idx;\r\n        for (uint256 i = 1; i <= groupIdCounter; i++) {\r\n            for (uint256 j = 0; j < groupDebts[i].length; j++) {\r\n                Debt storage debt = groupDebts[i][j];\r\n                if (debt.debtor == user || debt.creditor == user) {\r\n                    groupIds[idx] = i;\r\n                    amounts[idx] = debt.amount;\r\n                    settledStatus[idx] = debt.settled;\r\n                    timestamps[idx] = debt.timestamp;\r\n                    if (debt.debtor == user) {\r\n                        counterparties[idx] = debt.creditor;\r\n                        isCreditor[idx] = false;\r\n                    } else {\r\n                        counterparties[idx] = debt.debtor;\r\n                        isCreditor[idx] = true;\r\n                    }\r\n                    idx++;\r\n                }\r\n            }\r\n        }\r\n\r\n        assembly {\r\n            mstore(groupIds, idx)\r\n            mstore(counterparties, idx)\r\n            mstore(amounts, idx)\r\n            mstore(isCreditor, idx)\r\n            mstore(settledStatus, idx)\r\n            mstore(timestamps, idx)\r\n        }\r\n    }\r\n\r\n    function getAllUserBalancesFormatted(string memory username)\r\n        public view returns (string[] memory, uint256[] memory)\r\n    {\r\n        address userAddress = getAddressFromUsername(username);\r\n        uint256 groupCount = 0;\r\n        for (uint256 i = 1; i <= groupIdCounter; i++) {\r\n            if (groups[i].isMember[userAddress]) {\r\n                groupCount++;\r\n            }\r\n        }\r\n\r\n        string[] memory balanceStrings = new string[](groupCount);\r\n        uint256[] memory groupIdsArr = new uint256[](groupCount);\r\n        uint256 idx;\r\n        for (uint256 i = 1; i <= groupIdCounter; i++) {\r\n            if (groups[i].isMember[userAddress]) {\r\n                balanceStrings[idx] = getUserBalanceFormatted(username, i);\r\n                groupIdsArr[idx] = i;\r\n                idx++;\r\n            }\r\n        }\r\n\r\n        return (balanceStrings, groupIdsArr);\r\n    }\r\n\r\n    function getAddressFromUsername(string memory username) public view returns (address) {\r\n        address userAddress = usernameToAddress[username];\r\n        require(userAddress != address(0), \"Username not registered\");\r\n        return userAddress;\r\n    }\r\n\r\n    /**\r\n     * @notice Returns all debts for a user across all groups,\r\n     *         giving both raw wei amounts and formatted ether strings,\r\n     *         along with the group IDs and settlement status.\r\n     */\r\n    function getFormattedDebts(address user)\r\n        external\r\n        view\r\n        returns (\r\n            uint256[] memory amountsWei,\r\n            string[] memory amountsFormatted,\r\n            uint256[] memory groupIds,\r\n            bool[] memory settledStatus\r\n        )\r\n    {\r\n        // 1) Count total debts where user is debtor\r\n        uint256 total = 0;\r\n        for (uint256 g = 1; g <= groupIdCounter; g++) {\r\n            for (uint i = 0; i < groupDebts[g].length; i++) {\r\n                if (groupDebts[g][i].debtor == user) {\r\n                    total++;\r\n                }\r\n            }\r\n        }\r\n\r\n        // 2) Allocate arrays\r\n        amountsWei = new uint256[](total);\r\n        amountsFormatted = new string[](total);\r\n        groupIds = new uint256[](total);\r\n        settledStatus = new bool[](total);\r\n\r\n        // 3) Populate\r\n        uint256 idx = 0;\r\n        for (uint256 g = 1; g <= groupIdCounter; g++) {\r\n            for (uint i = 0; i < groupDebts[g].length; i++) {\r\n                Debt storage d = groupDebts[g][i];\r\n                if (d.debtor == user) {\r\n                    amountsWei[idx] = d.amount;\r\n                    amountsFormatted[idx] = formatAmount(d.amount);\r\n                    groupIds[idx] = g;\r\n                    settledStatus[idx] = d.settled;\r\n                    idx++;\r\n                }\r\n            }\r\n        }\r\n    }\r\n}\r\n",
  "sourcePath": "D:\\CCBC 24-25\\Sem2\\Proj-611\\Project_code\\truffle\\contracts\\Tabx.sol",
  "compiler": {
    "name": "solc",
    "version": "0.8.19+commit.7dd6d404.Emscripten.clang"
  },
  "schemaVersion": "3.4.16",
  "updatedAt": "2025-04-19T20:36:26.917Z",
  "networkType": "ethereum",
  "devdoc": {
    "kind": "dev",
    "methods": {},
    "version": 1
  },
  "userdoc": {
    "kind": "user",
    "methods": {
      "getFormattedDebts(address)": {
        "notice": "Returns all debts for a user across all groups,         giving both raw wei amounts and formatted ether strings,         along with the group IDs and settlement status."
      }
    },
    "version": 1
  }
}