{
  "contractName": "TabX",
  "abi": [
    {
      "anonymous": false,
      "inputs": [
        {
          "indexed": true,
          "internalType": "uint256",
          "name": "groupId",
          "type": "uint256"
        },
        {
          "indexed": true,
          "internalType": "address",
          "name": "debtor",
          "type": "address"
        },
        {
          "indexed": true,
          "internalType": "address",
          "name": "creditor",
          "type": "address"
        },
        {
          "indexed": false,
          "internalType": "uint256",
          "name": "amount",
          "type": "uint256"
        }
      ],
      "name": "DebtSettled",
      "type": "event"
    },
    {
      "anonymous": false,
      "inputs": [
        {
          "indexed": true,
          "internalType": "uint256",
          "name": "groupId",
          "type": "uint256"
        },
        {
          "indexed": false,
          "internalType": "uint256",
          "name": "expenseId",
          "type": "uint256"
        },
        {
          "indexed": false,
          "internalType": "uint256",
          "name": "amount",
          "type": "uint256"
        }
      ],
      "name": "ExpenseAdded",
      "type": "event"
    },
    {
      "anonymous": false,
      "inputs": [
        {
          "indexed": true,
          "internalType": "uint256",
          "name": "groupId",
          "type": "uint256"
        },
        {
          "indexed": false,
          "internalType": "uint256",
          "name": "expenseId",
          "type": "uint256"
        }
      ],
      "name": "ExpenseSettled",
      "type": "event"
    },
    {
      "anonymous": false,
      "inputs": [
        {
          "indexed": true,
          "internalType": "uint256",
          "name": "groupId",
          "type": "uint256"
        },
        {
          "indexed": true,
          "internalType": "address",
          "name": "owner",
          "type": "address"
        },
        {
          "indexed": false,
          "internalType": "string",
          "name": "name",
          "type": "string"
        }
      ],
      "name": "GroupCreated",
      "type": "event"
    },
    {
      "anonymous": false,
      "inputs": [
        {
          "indexed": true,
          "internalType": "uint256",
          "name": "groupId",
          "type": "uint256"
        },
        {
          "indexed": false,
          "internalType": "address",
          "name": "member",
          "type": "address"
        }
      ],
      "name": "MemberAdded",
      "type": "event"
    },
    {
      "anonymous": false,
      "inputs": [
        {
          "indexed": true,
          "internalType": "uint256",
          "name": "groupId",
          "type": "uint256"
        },
        {
          "indexed": true,
          "internalType": "address",
          "name": "payer",
          "type": "address"
        },
        {
          "indexed": false,
          "internalType": "uint256",
          "name": "amount",
          "type": "uint256"
        }
      ],
      "name": "PaymentMade",
      "type": "event"
    },
    {
      "anonymous": false,
      "inputs": [
        {
          "indexed": true,
          "internalType": "uint256",
          "name": "groupId",
          "type": "uint256"
        },
        {
          "indexed": true,
          "internalType": "address",
          "name": "from",
          "type": "address"
        },
        {
          "indexed": true,
          "internalType": "address",
          "name": "to",
          "type": "address"
        },
        {
          "indexed": false,
          "internalType": "uint256",
          "name": "amount",
          "type": "uint256"
        }
      ],
      "name": "SettlementMade",
      "type": "event"
    },
    {
      "anonymous": false,
      "inputs": [
        {
          "indexed": true,
          "internalType": "address",
          "name": "user",
          "type": "address"
        },
        {
          "indexed": false,
          "internalType": "string",
          "name": "username",
          "type": "string"
        }
      ],
      "name": "UserRegistered",
      "type": "event"
    },
    {
      "inputs": [
        {
          "internalType": "address",
          "name": "",
          "type": "address"
        },
        {
          "internalType": "uint256",
          "name": "",
          "type": "uint256"
        }
      ],
      "name": "balances",
      "outputs": [
        {
          "internalType": "int256",
          "name": "",
          "type": "int256"
        }
      ],
      "stateMutability": "view",
      "type": "function",
      "constant": true
    },
    {
      "inputs": [],
      "name": "expenseIdCounter",
      "outputs": [
        {
          "internalType": "uint256",
          "name": "",
          "type": "uint256"
        }
      ],
      "stateMutability": "view",
      "type": "function",
      "constant": true
    },
    {
      "inputs": [
        {
          "internalType": "uint256",
          "name": "",
          "type": "uint256"
        }
      ],
      "name": "expenses",
      "outputs": [
        {
          "internalType": "uint256",
          "name": "id",
          "type": "uint256"
        },
        {
          "internalType": "uint256",
          "name": "totalAmount",
          "type": "uint256"
        },
        {
          "internalType": "uint256",
          "name": "remainingAmount",
          "type": "uint256"
        },
        {
          "internalType": "address",
          "name": "payer",
          "type": "address"
        },
        {
          "internalType": "bool",
          "name": "settled",
          "type": "bool"
        }
      ],
      "stateMutability": "view",
      "type": "function",
      "constant": true
    },
    {
      "inputs": [
        {
          "internalType": "uint256",
          "name": "",
          "type": "uint256"
        },
        {
          "internalType": "uint256",
          "name": "",
          "type": "uint256"
        }
      ],
      "name": "groupDebts",
      "outputs": [
        {
          "internalType": "address",
          "name": "creditor",
          "type": "address"
        },
        {
          "internalType": "address",
          "name": "debtor",
          "type": "address"
        },
        {
          "internalType": "uint256",
          "name": "amount",
          "type": "uint256"
        },
        {
          "internalType": "uint256",
          "name": "groupId",
          "type": "uint256"
        },
        {
          "internalType": "bool",
          "name": "settled",
          "type": "bool"
        }
      ],
      "stateMutability": "view",
      "type": "function",
      "constant": true
    },
    {
      "inputs": [],
      "name": "groupIdCounter",
      "outputs": [
        {
          "internalType": "uint256",
          "name": "",
          "type": "uint256"
        }
      ],
      "stateMutability": "view",
      "type": "function",
      "constant": true
    },
    {
      "inputs": [
        {
          "internalType": "uint256",
          "name": "",
          "type": "uint256"
        }
      ],
      "name": "groups",
      "outputs": [
        {
          "internalType": "uint256",
          "name": "id",
          "type": "uint256"
        },
        {
          "internalType": "string",
          "name": "name",
          "type": "string"
        },
        {
          "internalType": "address",
          "name": "owner",
          "type": "address"
        },
        {
          "internalType": "uint256",
          "name": "totalExpenses",
          "type": "uint256"
        },
        {
          "internalType": "uint256",
          "name": "memberCount",
          "type": "uint256"
        }
      ],
      "stateMutability": "view",
      "type": "function",
      "constant": true
    },
    {
      "inputs": [
        {
          "internalType": "address",
          "name": "",
          "type": "address"
        },
        {
          "internalType": "uint256",
          "name": "",
          "type": "uint256"
        }
      ],
      "name": "userDebts",
      "outputs": [
        {
          "internalType": "address",
          "name": "creditor",
          "type": "address"
        },
        {
          "internalType": "address",
          "name": "debtor",
          "type": "address"
        },
        {
          "internalType": "uint256",
          "name": "amount",
          "type": "uint256"
        },
        {
          "internalType": "uint256",
          "name": "groupId",
          "type": "uint256"
        },
        {
          "internalType": "bool",
          "name": "settled",
          "type": "bool"
        }
      ],
      "stateMutability": "view",
      "type": "function",
      "constant": true
    },
    {
      "inputs": [
        {
          "internalType": "address",
          "name": "",
          "type": "address"
        }
      ],
      "name": "users",
      "outputs": [
        {
          "internalType": "string",
          "name": "username",
          "type": "string"
        },
        {
          "internalType": "address",
          "name": "userAddress",
          "type": "address"
        }
      ],
      "stateMutability": "view",
      "type": "function",
      "constant": true
    },
    {
      "inputs": [
        {
          "internalType": "string",
          "name": "username",
          "type": "string"
        }
      ],
      "name": "registerUser",
      "outputs": [],
      "stateMutability": "nonpayable",
      "type": "function"
    },
    {
      "inputs": [
        {
          "internalType": "string",
          "name": "name",
          "type": "string"
        }
      ],
      "name": "createGroup",
      "outputs": [],
      "stateMutability": "nonpayable",
      "type": "function"
    },
    {
      "inputs": [
        {
          "internalType": "uint256",
          "name": "groupId",
          "type": "uint256"
        },
        {
          "internalType": "address",
          "name": "member",
          "type": "address"
        }
      ],
      "name": "addGroupMember",
      "outputs": [],
      "stateMutability": "nonpayable",
      "type": "function"
    },
    {
      "inputs": [
        {
          "internalType": "uint256",
          "name": "groupId",
          "type": "uint256"
        },
        {
          "internalType": "uint256",
          "name": "totalAmount",
          "type": "uint256"
        },
        {
          "internalType": "string[]",
          "name": "participantUsernames",
          "type": "string[]"
        }
      ],
      "name": "addExpense",
      "outputs": [],
      "stateMutability": "nonpayable",
      "type": "function"
    },
    {
      "inputs": [
        {
          "internalType": "uint256",
          "name": "totalAmount",
          "type": "uint256"
        },
        {
          "internalType": "uint256",
          "name": "participantCount",
          "type": "uint256"
        }
      ],
      "name": "getPreciseShare",
      "outputs": [
        {
          "internalType": "uint256",
          "name": "",
          "type": "uint256"
        }
      ],
      "stateMutability": "pure",
      "type": "function",
      "constant": true
    },
    {
      "inputs": [
        {
          "internalType": "uint256",
          "name": "groupId",
          "type": "uint256"
        },
        {
          "internalType": "string",
          "name": "debtorUsername",
          "type": "string"
        },
        {
          "internalType": "string",
          "name": "creditorUsername",
          "type": "string"
        },
        {
          "internalType": "uint256",
          "name": "paymentAmount",
          "type": "uint256"
        }
      ],
      "name": "settleDebtByName",
      "outputs": [],
      "stateMutability": "payable",
      "type": "function",
      "payable": true
    },
    {
      "inputs": [
        {
          "internalType": "uint256",
          "name": "groupId",
          "type": "uint256"
        }
      ],
      "name": "settleAllDebts",
      "outputs": [],
      "stateMutability": "payable",
      "type": "function",
      "payable": true
    },
    {
      "inputs": [
        {
          "internalType": "uint256",
          "name": "amountWei",
          "type": "uint256"
        }
      ],
      "name": "formatAmount",
      "outputs": [
        {
          "internalType": "string",
          "name": "",
          "type": "string"
        }
      ],
      "stateMutability": "pure",
      "type": "function",
      "constant": true
    },
    {
      "inputs": [
        {
          "internalType": "address",
          "name": "user",
          "type": "address"
        },
        {
          "internalType": "uint256",
          "name": "groupId",
          "type": "uint256"
        }
      ],
      "name": "getUserDebts",
      "outputs": [
        {
          "internalType": "address[]",
          "name": "creditors",
          "type": "address[]"
        },
        {
          "internalType": "string[]",
          "name": "amounts",
          "type": "string[]"
        },
        {
          "internalType": "bool[]",
          "name": "settledStatus",
          "type": "bool[]"
        }
      ],
      "stateMutability": "view",
      "type": "function",
      "constant": true
    },
    {
      "inputs": [
        {
          "internalType": "string",
          "name": "username",
          "type": "string"
        },
        {
          "internalType": "uint256",
          "name": "groupId",
          "type": "uint256"
        }
      ],
      "name": "getUserBalanceFormatted",
      "outputs": [
        {
          "internalType": "string",
          "name": "",
          "type": "string"
        }
      ],
      "stateMutability": "view",
      "type": "function",
      "constant": true
    },
    {
      "inputs": [
        {
          "internalType": "string",
          "name": "username",
          "type": "string"
        }
      ],
      "name": "getAllUserBalancesFormatted",
      "outputs": [
        {
          "internalType": "string[]",
          "name": "",
          "type": "string[]"
        },
        {
          "internalType": "uint256[]",
          "name": "",
          "type": "uint256[]"
        }
      ],
      "stateMutability": "view",
      "type": "function",
      "constant": true
    },
    {
      "inputs": [
        {
          "internalType": "uint256",
          "name": "groupId",
          "type": "uint256"
        }
      ],
      "name": "getGroupMembers",
      "outputs": [
        {
          "internalType": "address[]",
          "name": "",
          "type": "address[]"
        }
      ],
      "stateMutability": "view",
      "type": "function",
      "constant": true
    },
    {
      "inputs": [
        {
          "internalType": "uint256",
          "name": "groupId",
          "type": "uint256"
        }
      ],
      "name": "getGroupExpenses",
      "outputs": [
        {
          "internalType": "uint256",
          "name": "",
          "type": "uint256"
        }
      ],
      "stateMutability": "view",
      "type": "function",
      "constant": true
    },
    {
      "inputs": [
        {
          "internalType": "uint256",
          "name": "expenseId",
          "type": "uint256"
        },
        {
          "internalType": "address",
          "name": "user",
          "type": "address"
        }
      ],
      "name": "getUserShareInExpense",
      "outputs": [
        {
          "internalType": "uint256",
          "name": "",
          "type": "uint256"
        }
      ],
      "stateMutability": "view",
      "type": "function",
      "constant": true
    },
    {
      "inputs": [
        {
          "internalType": "address",
          "name": "user",
          "type": "address"
        },
        {
          "internalType": "uint256",
          "name": "groupId",
          "type": "uint256"
        }
      ],
      "name": "getUserBalance",
      "outputs": [
        {
          "internalType": "int256",
          "name": "",
          "type": "int256"
        }
      ],
      "stateMutability": "view",
      "type": "function",
      "constant": true
    },
    {
      "inputs": [
        {
          "internalType": "uint256",
          "name": "groupId",
          "type": "uint256"
        }
      ],
      "name": "getGroupExpenseIds",
      "outputs": [
        {
          "internalType": "uint256[]",
          "name": "",
          "type": "uint256[]"
        }
      ],
      "stateMutability": "view",
      "type": "function",
      "constant": true
    },
    {
      "inputs": [
        {
          "internalType": "string",
          "name": "username",
          "type": "string"
        }
      ],
      "name": "getAddressFromUsername",
      "outputs": [
        {
          "internalType": "address",
          "name": "",
          "type": "address"
        }
      ],
      "stateMutability": "view",
      "type": "function",
      "constant": true
    }
  ],
  "bytecode": "0x608060405234801561001057600080fd5b506157b280620000216000396000f3fe6080604052600436106101665760003560e01c806391a9648a116100d1578063c06578121161008a578063d702f12211610064578063d702f12214610600578063da89434714610629578063db16d6dc1461066a578063dc2ddcae1461069557610166565b8063c06578121461056a578063cbf1304d14610586578063cd7f25b8146105c357610166565b806391a9648a146103f157806396324bd41461042e578063a524d3771461046f578063a87430ba146104ac578063ad84c9ba146104ea578063af4afe0a1461052957610166565b80634a2c92b8116101235780634a2c92b8146102bc5780634e82c134146102fa578063500b136f1461033757806352b807f114610374578063704f1b941461039d5780637bb68374146103c657610166565b80630326d54b1461016b57806319af2823146101a85780632447df34146101e557806331058ee714610222578063365e84d51461023e57806336cc81301461027f575b600080fd5b34801561017757600080fd5b50610192600480360381019061018d9190613b5c565b6106be565b60405161019f9190613c47565b60405180910390f35b3480156101b457600080fd5b506101cf60048036038101906101ca9190613b5c565b61072c565b6040516101dc9190613cf9565b60405180910390f35b3480156101f157600080fd5b5061020c60048036038101906102079190613d1b565b61080d565b6040516102199190613d6a565b60405180910390f35b61023c60048036038101906102379190613eba565b610836565b005b34801561024a57600080fd5b5061026560048036038101906102609190613fb7565b611397565b604051610276959493929190614021565b60405180910390f35b34801561028b57600080fd5b506102a660048036038101906102a19190613b5c565b611437565b6040516102b39190614132565b60405180910390f35b3480156102c857600080fd5b506102e360048036038101906102de9190614154565b6114db565b6040516102f19291906142a9565b60405180910390f35b34801561030657600080fd5b50610321600480360381019061031c9190614154565b611716565b60405161032e91906142e0565b60405180910390f35b34801561034357600080fd5b5061035e60048036038101906103599190613b5c565b6117d2565b60405161036b9190613d6a565b60405180910390f35b34801561038057600080fd5b5061039b600480360381019061039691906142fb565b6117f2565b005b3480156103a957600080fd5b506103c460048036038101906103bf9190614154565b611b54565b005b3480156103d257600080fd5b506103db611e8c565b6040516103e89190613d6a565b60405180910390f35b3480156103fd57600080fd5b5061041860048036038101906104139190613fb7565b611e92565b6040516104259190614354565b60405180910390f35b34801561043a57600080fd5b5061045560048036038101906104509190613b5c565b611eed565b60405161046695949392919061436f565b60405180910390f35b34801561047b57600080fd5b50610496600480360381019061049191906143c9565b611fcb565b6040516104a39190613cf9565b60405180910390f35b3480156104b857600080fd5b506104d360048036038101906104ce9190614425565b612136565b6040516104e1929190614452565b60405180910390f35b3480156104f657600080fd5b50610511600480360381019061050c9190613fb7565b612202565b60405161052093929190614540565b60405180910390f35b34801561053557600080fd5b50610550600480360381019061054b9190613b5c565b61260e565b60405161056195949392919061458c565b60405180910390f35b610584600480360381019061057f9190613b5c565b612671565b005b34801561059257600080fd5b506105ad60048036038101906105a89190613fb7565b612b8b565b6040516105ba9190614354565b60405180910390f35b3480156105cf57600080fd5b506105ea60048036038101906105e591906142fb565b612bb0565b6040516105f79190613d6a565b60405180910390f35b34801561060c57600080fd5b50610627600480360381019061062291906146c5565b612c0e565b005b34801561063557600080fd5b50610650600480360381019061064b9190613d1b565b6134c5565b604051610661959493929190614021565b60405180910390f35b34801561067657600080fd5b5061067f613565565b60405161068c9190613d6a565b60405180910390f35b3480156106a157600080fd5b506106bc60048036038101906106b79190614154565b61356b565b005b60606002600083815260200190815260200160002060070180548060200260200160405190810160405280929190818152602001828054801561072057602002820191906000526020600020905b81548152602001906001019080831161070c575b50505050509050919050565b60606000670de0b6b3a7640000836107449190614792565b90506000670de0b6b3a76400006064670de0b6b3a76400008661076791906147c3565b61077191906147f4565b61077b9190614792565b9050610786826137e4565b600a82106107a357604051806020016040528060008152506107da565b6040518060400160405280600181526020017f30000000000000000000000000000000000000000000000000000000000000008152505b6107e3836137e4565b6040516020016107f5939291906148be565b60405160208183030381529060405292505050919050565b600081670de0b6b3a76400008461082491906147f4565b61082e9190614792565b905092915050565b600061084184611716565b9050600061084e84611716565b9050600073ffffffffffffffffffffffffffffffffffffffff168273ffffffffffffffffffffffffffffffffffffffff16036108bf576040517f08c379a00000000000000000000000000000000000000000000000000000000081526004016108b690614946565b60405180910390fd5b600073ffffffffffffffffffffffffffffffffffffffff168173ffffffffffffffffffffffffffffffffffffffff160361092e576040517f08c379a0000000000000000000000000000000000000000000000000000000008152600401610925906149b2565b60405180910390fd5b8173ffffffffffffffffffffffffffffffffffffffff163373ffffffffffffffffffffffffffffffffffffffff161461099c576040517f08c379a000000000000000000000000000000000000000000000000000000000815260040161099390614a1e565b60405180910390fd5b6002600087815260200190815260200160002060050160008373ffffffffffffffffffffffffffffffffffffffff1673ffffffffffffffffffffffffffffffffffffffff16815260200190815260200160002060009054906101000a900460ff168015610a6657506002600087815260200190815260200160002060050160008273ffffffffffffffffffffffffffffffffffffffff1673ffffffffffffffffffffffffffffffffffffffff16815260200190815260200160002060009054906101000a900460ff165b610aa5576040517f08c379a0000000000000000000000000000000000000000000000000000000008152600401610a9c90614a8a565b60405180910390fd5b8173ffffffffffffffffffffffffffffffffffffffff168173ffffffffffffffffffffffffffffffffffffffff1603610b13576040517f08c379a0000000000000000000000000000000000000000000000000000000008152600401610b0a90614af6565b60405180910390fd5b60008311610b56576040517f08c379a0000000000000000000000000000000000000000000000000000000008152600401610b4d90614b62565b60405180910390fd5b823414610b98576040517f08c379a0000000000000000000000000000000000000000000000000000000008152600401610b8f90614bce565b60405180910390fd5b60008080600460008a8152602001908152602001600020905060005b8180549050811015610d31578573ffffffffffffffffffffffffffffffffffffffff16828281548110610bea57610be9614bee565b5b906000526020600020906005020160010160009054906101000a900473ffffffffffffffffffffffffffffffffffffffff1673ffffffffffffffffffffffffffffffffffffffff16148015610cae57508473ffffffffffffffffffffffffffffffffffffffff16828281548110610c6457610c63614bee565b5b906000526020600020906005020160000160009054906101000a900473ffffffffffffffffffffffffffffffffffffffff1673ffffffffffffffffffffffffffffffffffffffff16145b8015610ce95750818181548110610cc857610cc7614bee565b5b906000526020600020906005020160040160009054906101000a900460ff16155b15610d1e5760019350818181548110610d0557610d04614bee565b5b9060005260206000209060050201600201549250610d31565b8080610d2990614c1d565b915050610bb4565b5082610d72576040517f08c379a0000000000000000000000000000000000000000000000000000000008152600401610d6990614cb1565b60405180910390fd5b81861115610db5576040517f08c379a0000000000000000000000000000000000000000000000000000000008152600401610dac90614d1d565b60405180910390fd5b60005b8180549050811015610fb3578573ffffffffffffffffffffffffffffffffffffffff16828281548110610dee57610ded614bee565b5b906000526020600020906005020160010160009054906101000a900473ffffffffffffffffffffffffffffffffffffffff1673ffffffffffffffffffffffffffffffffffffffff16148015610eb257508473ffffffffffffffffffffffffffffffffffffffff16828281548110610e6857610e67614bee565b5b906000526020600020906005020160000160009054906101000a900473ffffffffffffffffffffffffffffffffffffffff1673ffffffffffffffffffffffffffffffffffffffff16145b8015610eed5750818181548110610ecc57610ecb614bee565b5b906000526020600020906005020160040160009054906101000a900460ff16155b15610fa057818181548110610f0557610f04614bee565b5b9060005260206000209060050201600201548703610f5f576001828281548110610f3257610f31614bee565b5b906000526020600020906005020160040160006101000a81548160ff021916908315150217905550610f9b565b86828281548110610f7357610f72614bee565b5b90600052602060002090600502016002016000828254610f939190614d3d565b925050819055505b610fb3565b8080610fab90614c1d565b915050610db8565b506000600560008773ffffffffffffffffffffffffffffffffffffffff1673ffffffffffffffffffffffffffffffffffffffff168152602001908152602001600020905060005b81805490508110156111a9578a82828154811061101a57611019614bee565b5b9060005260206000209060050201600301541480156110a857508573ffffffffffffffffffffffffffffffffffffffff1682828154811061105e5761105d614bee565b5b906000526020600020906005020160000160009054906101000a900473ffffffffffffffffffffffffffffffffffffffff1673ffffffffffffffffffffffffffffffffffffffff16145b80156110e357508181815481106110c2576110c1614bee565b5b906000526020600020906005020160040160009054906101000a900460ff16155b15611196578181815481106110fb576110fa614bee565b5b906000526020600020906005020160020154880361115557600182828154811061112857611127614bee565b5b906000526020600020906005020160040160006101000a81548160ff021916908315150217905550611191565b8782828154811061116957611168614bee565b5b906000526020600020906005020160020160008282546111899190614d3d565b925050819055505b6111a9565b80806111a190614c1d565b915050610ffa565b5086600660008873ffffffffffffffffffffffffffffffffffffffff1673ffffffffffffffffffffffffffffffffffffffff16815260200190815260200160002060008c8152602001908152602001600020600082825461120a9190614d71565b9250508190555086600660008773ffffffffffffffffffffffffffffffffffffffff1673ffffffffffffffffffffffffffffffffffffffff16815260200190815260200160002060008c815260200190815260200160002060008282546112719190614db5565b925050819055508473ffffffffffffffffffffffffffffffffffffffff166108fc889081150290604051600060405180830381858888f193505050501580156112be573d6000803e3d6000fd5b508473ffffffffffffffffffffffffffffffffffffffff168673ffffffffffffffffffffffffffffffffffffffff168b7f16c014bb6d1c6cc25e4d9c2ffff2d5052bc083462038999100ead76edf97bee08a60405161131d9190613d6a565b60405180910390a48473ffffffffffffffffffffffffffffffffffffffff168673ffffffffffffffffffffffffffffffffffffffff168b7fb73414e83fe48d03a430abd012c3314bf45c74419cd1b4a7db8a774b3538ce538a6040516113839190613d6a565b60405180910390a450505050505050505050565b600560205281600052604060002081815481106113b357600080fd5b9060005260206000209060050201600091509150508060000160009054906101000a900473ffffffffffffffffffffffffffffffffffffffff16908060010160009054906101000a900473ffffffffffffffffffffffffffffffffffffffff16908060020154908060030154908060040160009054906101000a900460ff16905085565b6060600260008381526020019081526020016000206006018054806020026020016040519081016040528092919081815260200182805480156114cf57602002820191906000526020600020905b8160009054906101000a900473ffffffffffffffffffffffffffffffffffffffff1673ffffffffffffffffffffffffffffffffffffffff1681526020019060010190808311611485575b50505050509050919050565b60608060006114e984611716565b9050600080600190505b6007548111611584576002600082815260200190815260200160002060050160008473ffffffffffffffffffffffffffffffffffffffff1673ffffffffffffffffffffffffffffffffffffffff16815260200190815260200160002060009054906101000a900460ff161561157157818061156d90614c1d565b9250505b808061157c90614c1d565b9150506114f3565b5060008167ffffffffffffffff8111156115a1576115a0613d8f565b5b6040519080825280602002602001820160405280156115d457816020015b60608152602001906001900390816115bf5790505b50905060008267ffffffffffffffff8111156115f3576115f2613d8f565b5b6040519080825280602002602001820160405280156116215781602001602082028036833780820191505090505b509050600080600190505b6007548111611705576002600082815260200190815260200160002060050160008773ffffffffffffffffffffffffffffffffffffffff1673ffffffffffffffffffffffffffffffffffffffff16815260200190815260200160002060009054906101000a900460ff16156116f2576116a58982611fcb565b8483815181106116b8576116b7614bee565b5b6020026020010181905250808383815181106116d7576116d6614bee565b5b60200260200101818152505081806116ee90614c1d565b9250505b80806116fd90614c1d565b91505061162c565b508282965096505050505050915091565b6000806001836040516117299190614df8565b908152602001604051809103902060009054906101000a900473ffffffffffffffffffffffffffffffffffffffff169050600073ffffffffffffffffffffffffffffffffffffffff168173ffffffffffffffffffffffffffffffffffffffff16036117c9576040517f08c379a00000000000000000000000000000000000000000000000000000000081526004016117c090614e5b565b60405180910390fd5b80915050919050565b600060026000838152602001908152602001600020600301549050919050565b813373ffffffffffffffffffffffffffffffffffffffff166002600083815260200190815260200160002060020160009054906101000a900473ffffffffffffffffffffffffffffffffffffffff1673ffffffffffffffffffffffffffffffffffffffff1614611897576040517f08c379a000000000000000000000000000000000000000000000000000000000815260040161188e90614ec7565b60405180910390fd5b6002600084815260200190815260200160002060050160008373ffffffffffffffffffffffffffffffffffffffff1673ffffffffffffffffffffffffffffffffffffffff16815260200190815260200160002060009054906101000a900460ff1615611938576040517f08c379a000000000000000000000000000000000000000000000000000000000815260040161192f90614f33565b60405180910390fd5b600073ffffffffffffffffffffffffffffffffffffffff166000808473ffffffffffffffffffffffffffffffffffffffff1673ffffffffffffffffffffffffffffffffffffffff16815260200190815260200160002060010160009054906101000a900473ffffffffffffffffffffffffffffffffffffffff1673ffffffffffffffffffffffffffffffffffffffff1603611a08576040517f08c379a00000000000000000000000000000000000000000000000000000000081526004016119ff90614f9f565b60405180910390fd5b60016002600085815260200190815260200160002060050160008473ffffffffffffffffffffffffffffffffffffffff1673ffffffffffffffffffffffffffffffffffffffff16815260200190815260200160002060006101000a81548160ff02191690831515021790555060026000848152602001908152602001600020600601829080600181540180825580915050600190039060005260206000200160009091909190916101000a81548173ffffffffffffffffffffffffffffffffffffffff021916908373ffffffffffffffffffffffffffffffffffffffff160217905550600260008481526020019081526020016000206004016000815480929190611b1290614c1d565b9190505550827ff328ac0f8bcae00933fe87ba0aa2d0d505c1df94bc9c1aa05b8441c28b74032c83604051611b4791906142e0565b60405180910390a2505050565b6000815111611b98576040517f08c379a0000000000000000000000000000000000000000000000000000000008152600401611b8f9061500b565b60405180910390fd5b600073ffffffffffffffffffffffffffffffffffffffff166000803373ffffffffffffffffffffffffffffffffffffffff1673ffffffffffffffffffffffffffffffffffffffff16815260200190815260200160002060010160009054906101000a900473ffffffffffffffffffffffffffffffffffffffff1673ffffffffffffffffffffffffffffffffffffffff1614611c68576040517f08c379a0000000000000000000000000000000000000000000000000000000008152600401611c5f90615077565b60405180910390fd5b600073ffffffffffffffffffffffffffffffffffffffff16600182604051611c909190614df8565b908152602001604051809103902060009054906101000a900473ffffffffffffffffffffffffffffffffffffffff1673ffffffffffffffffffffffffffffffffffffffff1614611d15576040517f08c379a0000000000000000000000000000000000000000000000000000000008152600401611d0c906150e3565b60405180910390fd5b60405180604001604052808281526020013373ffffffffffffffffffffffffffffffffffffffff168152506000803373ffffffffffffffffffffffffffffffffffffffff1673ffffffffffffffffffffffffffffffffffffffff1681526020019081526020016000206000820151816000019081611d93919061530f565b5060208201518160010160006101000a81548173ffffffffffffffffffffffffffffffffffffffff021916908373ffffffffffffffffffffffffffffffffffffffff16021790555090505033600182604051611def9190614df8565b908152602001604051809103902060006101000a81548173ffffffffffffffffffffffffffffffffffffffff021916908373ffffffffffffffffffffffffffffffffffffffff1602179055503373ffffffffffffffffffffffffffffffffffffffff167f48cac28ad4dc618e15f4c2dd5e97751182f166de97b25618318b2112aa951a2f82604051611e819190613cf9565b60405180910390a250565b60085481565b6000600660008473ffffffffffffffffffffffffffffffffffffffff1673ffffffffffffffffffffffffffffffffffffffff168152602001908152602001600020600083815260200190815260200160002054905092915050565b6002602052806000526040600020600091509050806000015490806001018054611f1690615132565b80601f0160208091040260200160405190810160405280929190818152602001828054611f4290615132565b8015611f8f5780601f10611f6457610100808354040283529160200191611f8f565b820191906000526020600020905b815481529060010190602001808311611f7257829003601f168201915b5050505050908060020160009054906101000a900473ffffffffffffffffffffffffffffffffffffffff16908060030154908060040154905085565b60606000611fd884611716565b90506002600084815260200190815260200160002060050160008273ffffffffffffffffffffffffffffffffffffffff1673ffffffffffffffffffffffffffffffffffffffff16815260200190815260200160002060009054906101000a900460ff1661207a576040517f08c379a00000000000000000000000000000000000000000000000000000000081526004016120719061542d565b60405180910390fd5b6000600660008373ffffffffffffffffffffffffffffffffffffffff1673ffffffffffffffffffffffffffffffffffffffff1681526020019081526020016000206000858152602001908152602001600020549050600080821290506000816120e357826120ee565b826120ed9061544d565b5b905060006120fb8261072c565b9050826121085780612129565b8060405160200161211991906154e1565b6040516020818303038152906040525b9550505050505092915050565b600060205280600052604060002060009150905080600001805461215990615132565b80601f016020809104026020016040519081016040528092919081815260200182805461218590615132565b80156121d25780601f106121a7576101008083540402835291602001916121d2565b820191906000526020600020905b8154815290600101906020018083116121b557829003601f168201915b5050505050908060010160009054906101000a900473ffffffffffffffffffffffffffffffffffffffff16905082565b606080606060006004600086815260200190815260200160002090506000805b8280549050811015612303578773ffffffffffffffffffffffffffffffffffffffff1683828154811061225857612257614bee565b5b906000526020600020906005020160010160009054906101000a900473ffffffffffffffffffffffffffffffffffffffff1673ffffffffffffffffffffffffffffffffffffffff161480156122dc57508281815481106122bb576122ba614bee565b5b906000526020600020906005020160040160009054906101000a900460ff16155b156122f05781806122ec90614c1d565b9250505b80806122fb90614c1d565b915050612222565b508067ffffffffffffffff81111561231e5761231d613d8f565b5b60405190808252806020026020018201604052801561234c5781602001602082028036833780820191505090505b5094508067ffffffffffffffff81111561236957612368613d8f565b5b60405190808252806020026020018201604052801561239c57816020015b60608152602001906001900390816123875790505b5093508067ffffffffffffffff8111156123b9576123b8613d8f565b5b6040519080825280602002602001820160405280156123e75781602001602082028036833780820191505090505b5092506000805b8380549050811015612603578873ffffffffffffffffffffffffffffffffffffffff1684828154811061242457612423614bee565b5b906000526020600020906005020160010160009054906101000a900473ffffffffffffffffffffffffffffffffffffffff1673ffffffffffffffffffffffffffffffffffffffff161480156124a8575083818154811061248757612486614bee565b5b906000526020600020906005020160040160009054906101000a900460ff16155b156125f0578381815481106124c0576124bf614bee565b5b906000526020600020906005020160000160009054906101000a900473ffffffffffffffffffffffffffffffffffffffff1687838151811061250557612504614bee565b5b602002602001019073ffffffffffffffffffffffffffffffffffffffff16908173ffffffffffffffffffffffffffffffffffffffff168152505061256c84828154811061255557612554614bee565b5b90600052602060002090600502016002015461072c565b86838151811061257f5761257e614bee565b5b602002602001018190525083818154811061259d5761259c614bee565b5b906000526020600020906005020160040160009054906101000a900460ff168583815181106125cf576125ce614bee565b5b60200260200101901515908115158152505081806125ec90614c1d565b9250505b80806125fb90614c1d565b9150506123ee565b505050509250925092565b60036020528060005260406000206000915090508060000154908060010154908060020154908060030160009054906101000a900473ffffffffffffffffffffffffffffffffffffffff16908060060160009054906101000a900460ff16905085565b600034116126b4576040517f08c379a00000000000000000000000000000000000000000000000000000000081526004016126ab9061554f565b60405180910390fd5b6000600660003373ffffffffffffffffffffffffffffffffffffffff1673ffffffffffffffffffffffffffffffffffffffff16815260200190815260200160002060008381526020019081526020016000205412612747576040517f08c379a000000000000000000000000000000000000000000000000000000000815260040161273e906155bb565b60405180910390fd5b60003490506000600260008481526020019081526020016000206006018054806020026020016040519081016040528092919081815260200182805480156127e457602002820191906000526020600020905b8160009054906101000a900473ffffffffffffffffffffffffffffffffffffffff1673ffffffffffffffffffffffffffffffffffffffff168152602001906001019080831161279a575b5050505050905060005b8151811080156127fe5750600083115b15612b3457600082828151811061281857612817614bee565b5b602002602001015190503373ffffffffffffffffffffffffffffffffffffffff168173ffffffffffffffffffffffffffffffffffffffff1614806128ad57506000600660008373ffffffffffffffffffffffffffffffffffffffff1673ffffffffffffffffffffffffffffffffffffffff16815260200190815260200160002060008781526020019081526020016000205413155b156128b85750612b21565b6000600660003373ffffffffffffffffffffffffffffffffffffffff1673ffffffffffffffffffffffffffffffffffffffff1681526020019081526020016000206000878152602001908152602001600020546129149061544d565b90506000600660008473ffffffffffffffffffffffffffffffffffffffff1673ffffffffffffffffffffffffffffffffffffffff1681526020019081526020016000206000888152602001908152602001600020549050600061298061297a84846138b2565b886138b2565b9050600081036129935750505050612b21565b80600660003373ffffffffffffffffffffffffffffffffffffffff1673ffffffffffffffffffffffffffffffffffffffff16815260200190815260200160002060008a815260200190815260200160002060008282546129f39190614d71565b9250508190555080600660008673ffffffffffffffffffffffffffffffffffffffff1673ffffffffffffffffffffffffffffffffffffffff16815260200190815260200160002060008a81526020019081526020016000206000828254612a5a9190614db5565b925050819055508373ffffffffffffffffffffffffffffffffffffffff166108fc829081150290604051600060405180830381858888f19350505050158015612aa7573d6000803e3d6000fd5b508087612ab49190614d3d565b96508373ffffffffffffffffffffffffffffffffffffffff163373ffffffffffffffffffffffffffffffffffffffff16897f16c014bb6d1c6cc25e4d9c2ffff2d5052bc083462038999100ead76edf97bee084604051612b149190613d6a565b60405180910390a4505050505b8080612b2c90614c1d565b9150506127ee565b506000821115612b86573373ffffffffffffffffffffffffffffffffffffffff166108fc839081150290604051600060405180830381858888f19350505050158015612b84573d6000803e3d6000fd5b505b505050565b6006602052816000526040600020602052806000526040600020600091509150505481565b60006003600084815260200190815260200160002060050160008373ffffffffffffffffffffffffffffffffffffffff1673ffffffffffffffffffffffffffffffffffffffff16815260200190815260200160002054905092915050565b826002600082815260200190815260200160002060050160003373ffffffffffffffffffffffffffffffffffffffff1673ffffffffffffffffffffffffffffffffffffffff16815260200190815260200160002060009054906101000a900460ff16612caf576040517f08c379a0000000000000000000000000000000000000000000000000000000008152600401612ca690615627565b60405180910390fd5b60008311612cf2576040517f08c379a0000000000000000000000000000000000000000000000000000000008152600401612ce990615693565b60405180910390fd5b6000825111612d36576040517f08c379a0000000000000000000000000000000000000000000000000000000008152600401612d2d906156ff565b60405180910390fd5b6000600860008154612d4790614c1d565b9190508190559050600083519050600081670de0b6b3a764000087612d6c91906147f4565b612d769190614792565b9050600080600360008681526020019081526020016000209050848160000181905550878160010181905550878160020181905550338160030160006101000a81548173ffffffffffffffffffffffffffffffffffffffff021916908373ffffffffffffffffffffffffffffffffffffffff16021790555060008160060160006101000a81548160ff0219169083151502179055508367ffffffffffffffff811115612e2557612e24613d8f565b5b604051908082528060200260200182016040528015612e535781602001602082028036833780820191505090505b50816004019080519060200190612e6b929190613a1e565b5060005b84811015613415576000612e9c898381518110612e8f57612e8e614bee565b5b6020026020010151611716565b9050600260008c815260200190815260200160002060050160008273ffffffffffffffffffffffffffffffffffffffff1673ffffffffffffffffffffffffffffffffffffffff16815260200190815260200160002060009054906101000a900460ff16612f3e576040517f08c379a0000000000000000000000000000000000000000000000000000000008152600401612f3590615627565b60405180910390fd5b80836004018381548110612f5557612f54614bee565b5b9060005260206000200160006101000a81548173ffffffffffffffffffffffffffffffffffffffff021916908373ffffffffffffffffffffffffffffffffffffffff1602179055506000600187612fac9190614d3d565b8314612fb85785612fd8565b84670de0b6b3a76400008c612fcd91906147f4565b612fd79190614d3d565b5b90508085612fe6919061571f565b9450808460050160008473ffffffffffffffffffffffffffffffffffffffff1673ffffffffffffffffffffffffffffffffffffffff168152602001908152602001600020819055503373ffffffffffffffffffffffffffffffffffffffff168273ffffffffffffffffffffffffffffffffffffffff161461340857600460008d81526020019081526020016000206040518060a001604052803373ffffffffffffffffffffffffffffffffffffffff1681526020018473ffffffffffffffffffffffffffffffffffffffff1681526020018381526020018e815260200160001515815250908060018154018082558091505060019003906000526020600020906005020160009091909190915060008201518160000160006101000a81548173ffffffffffffffffffffffffffffffffffffffff021916908373ffffffffffffffffffffffffffffffffffffffff16021790555060208201518160010160006101000a81548173ffffffffffffffffffffffffffffffffffffffff021916908373ffffffffffffffffffffffffffffffffffffffff160217905550604082015181600201556060820151816003015560808201518160040160006101000a81548160ff0219169083151502179055505050600560008373ffffffffffffffffffffffffffffffffffffffff1673ffffffffffffffffffffffffffffffffffffffff1681526020019081526020016000206040518060a001604052803373ffffffffffffffffffffffffffffffffffffffff1681526020018473ffffffffffffffffffffffffffffffffffffffff1681526020018381526020018e815260200160001515815250908060018154018082558091505060019003906000526020600020906005020160009091909190915060008201518160000160006101000a81548173ffffffffffffffffffffffffffffffffffffffff021916908373ffffffffffffffffffffffffffffffffffffffff16021790555060208201518160010160006101000a81548173ffffffffffffffffffffffffffffffffffffffff021916908373ffffffffffffffffffffffffffffffffffffffff160217905550604082015181600201556060820151816003015560808201518160040160006101000a81548160ff021916908315150217905550505080600660008473ffffffffffffffffffffffffffffffffffffffff1673ffffffffffffffffffffffffffffffffffffffff16815260200190815260200160002060008e815260200190815260200160002060008282546133999190614db5565b9250508190555080600660003373ffffffffffffffffffffffffffffffffffffffff1673ffffffffffffffffffffffffffffffffffffffff16815260200190815260200160002060008e815260200190815260200160002060008282546134009190614d71565b925050819055505b8260010192505050612e6f565b50600260008a815260200190815260200160002060070185908060018154018082558091505060019003906000526020600020016000909190919091505587600260008b81526020019081526020016000206003016000828254613479919061571f565b92505081905550887fdb7fe1afe70d9afd2511cbba96288568628fcbba215e44e3ef77fb5b810365b4868a6040516134b2929190615753565b60405180910390a2505050505050505050565b600460205281600052604060002081815481106134e157600080fd5b9060005260206000209060050201600091509150508060000160009054906101000a900473ffffffffffffffffffffffffffffffffffffffff16908060010160009054906101000a900473ffffffffffffffffffffffffffffffffffffffff16908060020154908060030154908060040160009054906101000a900460ff16905085565b60075481565b600060076000815461357c90614c1d565b91905081905590506000600260008381526020019081526020016000209050818160000181905550828160010190816135b5919061530f565b50338160020160006101000a81548173ffffffffffffffffffffffffffffffffffffffff021916908373ffffffffffffffffffffffffffffffffffffffff1602179055506000816003018190555060018160040181905550600067ffffffffffffffff81111561362857613627613d8f565b5b6040519080825280602002602001820160405280156136565781602001602082028036833780820191505090505b5081600601908051906020019061366e929190613a1e565b50600067ffffffffffffffff81111561368a57613689613d8f565b5b6040519080825280602002602001820160405280156136b85781602001602082028036833780820191505090505b508160070190805190602001906136d0929190613aa8565b5060018160050160003373ffffffffffffffffffffffffffffffffffffffff1673ffffffffffffffffffffffffffffffffffffffff16815260200190815260200160002060006101000a81548160ff02191690831515021790555080600601339080600181540180825580915050600190039060005260206000200160009091909190916101000a81548173ffffffffffffffffffffffffffffffffffffffff021916908373ffffffffffffffffffffffffffffffffffffffff1602179055503373ffffffffffffffffffffffffffffffffffffffff16827f4354295f5d98820e66a770bd58cf23606ab255dd9dc2daf870fab38ecbc3e7e0856040516137d79190613cf9565b60405180910390a3505050565b6060600060016137f3846138cb565b01905060008167ffffffffffffffff81111561381257613811613d8f565b5b6040519080825280601f01601f1916602001820160405280156138445781602001600182028036833780820191505090505b509050600082602001820190505b6001156138a7578080600190039150507f3031323334353637383961626364656600000000000000000000000000000000600a86061a8153600a858161389b5761389a614734565b5b04945060008503613852575b819350505050919050565b60008183106138c157816138c3565b825b905092915050565b600080600090507a184f03e93ff9f4daa797ed6e38ed64bf6a1f0100000000000000008310613929577a184f03e93ff9f4daa797ed6e38ed64bf6a1f010000000000000000838161391f5761391e614734565b5b0492506040810190505b6d04ee2d6d415b85acef81000000008310613966576d04ee2d6d415b85acef8100000000838161395c5761395b614734565b5b0492506020810190505b662386f26fc10000831061399557662386f26fc10000838161398b5761398a614734565b5b0492506010810190505b6305f5e10083106139be576305f5e10083816139b4576139b3614734565b5b0492506008810190505b61271083106139e35761271083816139d9576139d8614734565b5b0492506004810190505b60648310613a0657606483816139fc576139fb614734565b5b0492506002810190505b600a8310613a15576001810190505b80915050919050565b828054828255906000526020600020908101928215613a97579160200282015b82811115613a965782518260006101000a81548173ffffffffffffffffffffffffffffffffffffffff021916908373ffffffffffffffffffffffffffffffffffffffff16021790555091602001919060010190613a3e565b5b509050613aa49190613af5565b5090565b828054828255906000526020600020908101928215613ae4579160200282015b82811115613ae3578251825591602001919060010190613ac8565b5b509050613af19190613af5565b5090565b5b80821115613b0e576000816000905550600101613af6565b5090565b6000604051905090565b600080fd5b600080fd5b6000819050919050565b613b3981613b26565b8114613b4457600080fd5b50565b600081359050613b5681613b30565b92915050565b600060208284031215613b7257613b71613b1c565b5b6000613b8084828501613b47565b91505092915050565b600081519050919050565b600082825260208201905092915050565b6000819050602082019050919050565b613bbe81613b26565b82525050565b6000613bd08383613bb5565b60208301905092915050565b6000602082019050919050565b6000613bf482613b89565b613bfe8185613b94565b9350613c0983613ba5565b8060005b83811015613c3a578151613c218882613bc4565b9750613c2c83613bdc565b925050600181019050613c0d565b5085935050505092915050565b60006020820190508181036000830152613c618184613be9565b905092915050565b600081519050919050565b600082825260208201905092915050565b60005b83811015613ca3578082015181840152602081019050613c88565b60008484015250505050565b6000601f19601f8301169050919050565b6000613ccb82613c69565b613cd58185613c74565b9350613ce5818560208601613c85565b613cee81613caf565b840191505092915050565b60006020820190508181036000830152613d138184613cc0565b905092915050565b60008060408385031215613d3257613d31613b1c565b5b6000613d4085828601613b47565b9250506020613d5185828601613b47565b9150509250929050565b613d6481613b26565b82525050565b6000602082019050613d7f6000830184613d5b565b92915050565b600080fd5b600080fd5b7f4e487b7100000000000000000000000000000000000000000000000000000000600052604160045260246000fd5b613dc782613caf565b810181811067ffffffffffffffff82111715613de657613de5613d8f565b5b80604052505050565b6000613df9613b12565b9050613e058282613dbe565b919050565b600067ffffffffffffffff821115613e2557613e24613d8f565b5b613e2e82613caf565b9050602081019050919050565b82818337600083830152505050565b6000613e5d613e5884613e0a565b613def565b905082815260208101848484011115613e7957613e78613d8a565b5b613e84848285613e3b565b509392505050565b600082601f830112613ea157613ea0613d85565b5b8135613eb1848260208601613e4a565b91505092915050565b60008060008060808587031215613ed457613ed3613b1c565b5b6000613ee287828801613b47565b945050602085013567ffffffffffffffff811115613f0357613f02613b21565b5b613f0f87828801613e8c565b935050604085013567ffffffffffffffff811115613f3057613f2f613b21565b5b613f3c87828801613e8c565b9250506060613f4d87828801613b47565b91505092959194509250565b600073ffffffffffffffffffffffffffffffffffffffff82169050919050565b6000613f8482613f59565b9050919050565b613f9481613f79565b8114613f9f57600080fd5b50565b600081359050613fb181613f8b565b92915050565b60008060408385031215613fce57613fcd613b1c565b5b6000613fdc85828601613fa2565b9250506020613fed85828601613b47565b9150509250929050565b61400081613f79565b82525050565b60008115159050919050565b61401b81614006565b82525050565b600060a0820190506140366000830188613ff7565b6140436020830187613ff7565b6140506040830186613d5b565b61405d6060830185613d5b565b61406a6080830184614012565b9695505050505050565b600081519050919050565b600082825260208201905092915050565b6000819050602082019050919050565b6140a981613f79565b82525050565b60006140bb83836140a0565b60208301905092915050565b6000602082019050919050565b60006140df82614074565b6140e9818561407f565b93506140f483614090565b8060005b8381101561412557815161410c88826140af565b9750614117836140c7565b9250506001810190506140f8565b5085935050505092915050565b6000602082019050818103600083015261414c81846140d4565b905092915050565b60006020828403121561416a57614169613b1c565b5b600082013567ffffffffffffffff81111561418857614187613b21565b5b61419484828501613e8c565b91505092915050565b600081519050919050565b600082825260208201905092915050565b6000819050602082019050919050565b600082825260208201905092915050565b60006141e582613c69565b6141ef81856141c9565b93506141ff818560208601613c85565b61420881613caf565b840191505092915050565b600061421f83836141da565b905092915050565b6000602082019050919050565b600061423f8261419d565b61424981856141a8565b93508360208202850161425b856141b9565b8060005b8581101561429757848403895281516142788582614213565b945061428383614227565b925060208a0199505060018101905061425f565b50829750879550505050505092915050565b600060408201905081810360008301526142c38185614234565b905081810360208301526142d78184613be9565b90509392505050565b60006020820190506142f56000830184613ff7565b92915050565b6000806040838503121561431257614311613b1c565b5b600061432085828601613b47565b925050602061433185828601613fa2565b9150509250929050565b6000819050919050565b61434e8161433b565b82525050565b60006020820190506143696000830184614345565b92915050565b600060a0820190506143846000830188613d5b565b81810360208301526143968187613cc0565b90506143a56040830186613ff7565b6143b26060830185613d5b565b6143bf6080830184613d5b565b9695505050505050565b600080604083850312156143e0576143df613b1c565b5b600083013567ffffffffffffffff8111156143fe576143fd613b21565b5b61440a85828601613e8c565b925050602061441b85828601613b47565b9150509250929050565b60006020828403121561443b5761443a613b1c565b5b600061444984828501613fa2565b91505092915050565b6000604082019050818103600083015261446c8185613cc0565b905061447b6020830184613ff7565b9392505050565b600081519050919050565b600082825260208201905092915050565b6000819050602082019050919050565b6144b781614006565b82525050565b60006144c983836144ae565b60208301905092915050565b6000602082019050919050565b60006144ed82614482565b6144f7818561448d565b93506145028361449e565b8060005b8381101561453357815161451a88826144bd565b9750614525836144d5565b925050600181019050614506565b5085935050505092915050565b6000606082019050818103600083015261455a81866140d4565b9050818103602083015261456e8185614234565b9050818103604083015261458281846144e2565b9050949350505050565b600060a0820190506145a16000830188613d5b565b6145ae6020830187613d5b565b6145bb6040830186613d5b565b6145c86060830185613ff7565b6145d56080830184614012565b9695505050505050565b600067ffffffffffffffff8211156145fa576145f9613d8f565b5b602082029050602081019050919050565b600080fd5b600061462361461e846145df565b613def565b905080838252602082019050602084028301858111156146465761464561460b565b5b835b8181101561468d57803567ffffffffffffffff81111561466b5761466a613d85565b5b8086016146788982613e8c565b85526020850194505050602081019050614648565b5050509392505050565b600082601f8301126146ac576146ab613d85565b5b81356146bc848260208601614610565b91505092915050565b6000806000606084860312156146de576146dd613b1c565b5b60006146ec86828701613b47565b93505060206146fd86828701613b47565b925050604084013567ffffffffffffffff81111561471e5761471d613b21565b5b61472a86828701614697565b9150509250925092565b7f4e487b7100000000000000000000000000000000000000000000000000000000600052601260045260246000fd5b7f4e487b7100000000000000000000000000000000000000000000000000000000600052601160045260246000fd5b600061479d82613b26565b91506147a883613b26565b9250826147b8576147b7614734565b5b828204905092915050565b60006147ce82613b26565b91506147d983613b26565b9250826147e9576147e8614734565b5b828206905092915050565b60006147ff82613b26565b915061480a83613b26565b925082820261481881613b26565b9150828204841483151761482f5761482e614763565b5b5092915050565b600081905092915050565b600061484c82613c69565b6148568185614836565b9350614866818560208601613c85565b80840191505092915050565b7f2e00000000000000000000000000000000000000000000000000000000000000600082015250565b60006148a8600183614836565b91506148b382614872565b600182019050919050565b60006148ca8286614841565b91506148d58261489b565b91506148e18285614841565b91506148ed8284614841565b9150819050949350505050565b7f446562746f72206e6f7420666f756e6400000000000000000000000000000000600082015250565b6000614930601083613c74565b915061493b826148fa565b602082019050919050565b6000602082019050818103600083015261495f81614923565b9050919050565b7f4372656469746f72206e6f7420666f756e640000000000000000000000000000600082015250565b600061499c601283613c74565b91506149a782614966565b602082019050919050565b600060208201905081810360008301526149cb8161498f565b9050919050565b7f4f6e6c7920646562746f722063616e20736574746c6500000000000000000000600082015250565b6000614a08601683613c74565b9150614a13826149d2565b602082019050919050565b60006020820190508181036000830152614a37816149fb565b9050919050565b7f4e6f742067726f7570206d656d62657273000000000000000000000000000000600082015250565b6000614a74601183613c74565b9150614a7f82614a3e565b602082019050919050565b60006020820190508181036000830152614aa381614a67565b9050919050565b7f43616e6e6f742070617920796f757273656c6600000000000000000000000000600082015250565b6000614ae0601383613c74565b9150614aeb82614aaa565b602082019050919050565b60006020820190508181036000830152614b0f81614ad3565b9050919050565b7f416d6f756e74206d75737420626520706f736974697665000000000000000000600082015250565b6000614b4c601783613c74565b9150614b5782614b16565b602082019050919050565b60006020820190508181036000830152614b7b81614b3f565b9050919050565b7f496e636f7272656374207061796d656e7420616d6f756e740000000000000000600082015250565b6000614bb8601883613c74565b9150614bc382614b82565b602082019050919050565b60006020820190508181036000830152614be781614bab565b9050919050565b7f4e487b7100000000000000000000000000000000000000000000000000000000600052603260045260246000fd5b6000614c2882613b26565b91507fffffffffffffffffffffffffffffffffffffffffffffffffffffffffffffffff8203614c5a57614c59614763565b5b600182019050919050565b7f4e6f20616374697665206465627420666f756e64000000000000000000000000600082015250565b6000614c9b601483613c74565b9150614ca682614c65565b602082019050919050565b60006020820190508181036000830152614cca81614c8e565b9050919050565b7f5061796d656e7420657863656564732064656274000000000000000000000000600082015250565b6000614d07601483613c74565b9150614d1282614cd1565b602082019050919050565b60006020820190508181036000830152614d3681614cfa565b9050919050565b6000614d4882613b26565b9150614d5383613b26565b9250828203905081811115614d6b57614d6a614763565b5b92915050565b6000614d7c8261433b565b9150614d878361433b565b925082820190508281121560008312168382126000841215161715614daf57614dae614763565b5b92915050565b6000614dc08261433b565b9150614dcb8361433b565b9250828203905081811260008412168282136000851215161715614df257614df1614763565b5b92915050565b6000614e048284614841565b915081905092915050565b7f557365726e616d65206e6f742072656769737465726564000000000000000000600082015250565b6000614e45601783613c74565b9150614e5082614e0f565b602082019050919050565b60006020820190508181036000830152614e7481614e38565b9050919050565b7f4e6f742067726f7570206f776e65720000000000000000000000000000000000600082015250565b6000614eb1600f83613c74565b9150614ebc82614e7b565b602082019050919050565b60006020820190508181036000830152614ee081614ea4565b9050919050565b7f416c7265616479206d656d626572000000000000000000000000000000000000600082015250565b6000614f1d600e83613c74565b9150614f2882614ee7565b602082019050919050565b60006020820190508181036000830152614f4c81614f10565b9050919050565b7f55736572206e6f74207265676973746572656400000000000000000000000000600082015250565b6000614f89601383613c74565b9150614f9482614f53565b602082019050919050565b60006020820190508181036000830152614fb881614f7c565b9050919050565b7f456d70747920757365726e616d65000000000000000000000000000000000000600082015250565b6000614ff5600e83613c74565b915061500082614fbf565b602082019050919050565b6000602082019050818103600083015261502481614fe8565b9050919050565b7f416c726561647920726567697374657265640000000000000000000000000000600082015250565b6000615061601283613c74565b915061506c8261502b565b602082019050919050565b6000602082019050818103600083015261509081615054565b9050919050565b7f557365726e616d652074616b656e000000000000000000000000000000000000600082015250565b60006150cd600e83613c74565b91506150d882615097565b602082019050919050565b600060208201905081810360008301526150fc816150c0565b9050919050565b7f4e487b7100000000000000000000000000000000000000000000000000000000600052602260045260246000fd5b6000600282049050600182168061514a57607f821691505b60208210810361515d5761515c615103565b5b50919050565b60008190508160005260206000209050919050565b60006020601f8301049050919050565b600082821b905092915050565b6000600883026151c57fffffffffffffffffffffffffffffffffffffffffffffffffffffffffffffffff82615188565b6151cf8683615188565b95508019841693508086168417925050509392505050565b6000819050919050565b600061520c61520761520284613b26565b6151e7565b613b26565b9050919050565b6000819050919050565b615226836151f1565b61523a61523282615213565b848454615195565b825550505050565b600090565b61524f615242565b61525a81848461521d565b505050565b5b8181101561527e57615273600082615247565b600181019050615260565b5050565b601f8211156152c35761529481615163565b61529d84615178565b810160208510156152ac578190505b6152c06152b885615178565b83018261525f565b50505b505050565b600082821c905092915050565b60006152e6600019846008026152c8565b1980831691505092915050565b60006152ff83836152d5565b9150826002028217905092915050565b61531882613c69565b67ffffffffffffffff81111561533157615330613d8f565b5b61533b8254615132565b615346828285615282565b600060209050601f8311600181146153795760008415615367578287015190505b61537185826152f3565b8655506153d9565b601f19841661538786615163565b60005b828110156153af5784890151825560018201915060208501945060208101905061538a565b868310156153cc57848901516153c8601f8916826152d5565b8355505b6001600288020188555050505b505050505050565b7f55736572206e6f7420696e2067726f7570000000000000000000000000000000600082015250565b6000615417601183613c74565b9150615422826153e1565b602082019050919050565b600060208201905081810360008301526154468161540a565b9050919050565b60006154588261433b565b91507f8000000000000000000000000000000000000000000000000000000000000000820361548a57615489614763565b5b816000039050919050565b7f2d00000000000000000000000000000000000000000000000000000000000000600082015250565b60006154cb600183614836565b91506154d682615495565b600182019050919050565b60006154ec826154be565b91506154f88284614841565b915081905092915050565b7f4d7573742073656e64207061796d656e74000000000000000000000000000000600082015250565b6000615539601183613c74565b915061554482615503565b602082019050919050565b600060208201905081810360008301526155688161552c565b9050919050565b7f4e6f20646562747320746f20736574746c650000000000000000000000000000600082015250565b60006155a5601283613c74565b91506155b08261556f565b602082019050919050565b600060208201905081810360008301526155d481615598565b9050919050565b7f4e6f742067726f7570206d656d62657200000000000000000000000000000000600082015250565b6000615611601083613c74565b915061561c826155db565b602082019050919050565b6000602082019050818103600083015261564081615604565b9050919050565b7f496e76616c696420616d6f756e74000000000000000000000000000000000000600082015250565b600061567d600e83613c74565b915061568882615647565b602082019050919050565b600060208201905081810360008301526156ac81615670565b9050919050565b7f4e6f207061727469636970616e74730000000000000000000000000000000000600082015250565b60006156e9600f83613c74565b91506156f4826156b3565b602082019050919050565b60006020820190508181036000830152615718816156dc565b9050919050565b600061572a82613b26565b915061573583613b26565b925082820190508082111561574d5761574c614763565b5b92915050565b60006040820190506157686000830185613d5b565b6157756020830184613d5b565b939250505056fea2646970667358221220f02f6d1258d5fb465efcbd7144bccf26242111bb0e760d2e03dc50da0af42e7d64736f6c63430008130033",
  "immutableReferences": {},
  "source": "// SPDX-License-Identifier: MIT\r\npragma solidity ^0.8.0;\r\n\r\nimport \"@openzeppelin/contracts/utils/math/SafeMath.sol\";\r\nimport \"@openzeppelin/contracts/utils/Strings.sol\";\r\n\r\ncontract TabX {\r\n    using SafeMath for uint256;\r\n\r\n    struct User {\r\n        string username;\r\n        address userAddress;\r\n    }\r\n\r\n    struct Expense {\r\n        uint256 id;\r\n        uint256 totalAmount;\r\n        uint256 remainingAmount;\r\n        address payer;\r\n        address[] participants;\r\n        mapping(address => uint256) shares;\r\n        bool settled;\r\n    }\r\n\r\n    struct Group {\r\n        uint256 id;\r\n        string name;\r\n        address owner;\r\n        uint256 totalExpenses;\r\n        uint256 memberCount;\r\n        mapping(address => bool) isMember;\r\n        address[] members;\r\n        uint256[] expenseIds;\r\n    }\r\n\r\n    struct Debt {\r\n        address creditor;\r\n        address debtor;\r\n        uint256 amount;\r\n        uint256 groupId;\r\n        bool settled;\r\n    }\r\n\r\n    // Global mappings\r\n    mapping(address => User) public users;\r\n    mapping(string => address) private usernameToAddress;\r\n    mapping(uint256 => Group) public groups;\r\n    mapping(uint256 => Expense) public expenses;\r\n    mapping(uint256 => Debt[]) public groupDebts;\r\n    mapping(address => Debt[]) public userDebts;\r\n    \r\n    // Balance tracking\r\n    mapping(address => mapping(uint256 => int256)) public balances;\r\n\r\n    // Counters\r\n    uint256 public groupIdCounter;\r\n    uint256 public expenseIdCounter;\r\n\r\n    // Events\r\n    event UserRegistered(address indexed user, string username);\r\n    event GroupCreated(uint256 indexed groupId, address indexed owner, string name);\r\n    event MemberAdded(uint256 indexed groupId, address member);\r\n    event ExpenseAdded(uint256 indexed groupId, uint256 expenseId, uint256 amount);\r\n    event PaymentMade(uint256 indexed groupId, address indexed payer, uint256 amount);\r\n    event ExpenseSettled(uint256 indexed groupId, uint256 expenseId);\r\n    event SettlementMade(uint256 indexed groupId, address indexed from, address indexed to, uint256 amount);\r\n    event DebtSettled(uint256 indexed groupId, address indexed debtor, address indexed creditor, uint256 amount);\r\n\r\n    modifier onlyGroupOwner(uint256 groupId) {\r\n        require(groups[groupId].owner == msg.sender, \"Not group owner\");\r\n        _;\r\n    }\r\n\r\n    modifier onlyGroupMember(uint256 groupId) {\r\n        require(groups[groupId].isMember[msg.sender], \"Not group member\");\r\n        _;\r\n    }\r\n\r\n    function registerUser(string memory username) external {\r\n        require(bytes(username).length > 0, \"Empty username\");\r\n        require(users[msg.sender].userAddress == address(0), \"Already registered\");\r\n        require(usernameToAddress[username] == address(0), \"Username taken\");\r\n\r\n        users[msg.sender] = User(username, msg.sender);\r\n        usernameToAddress[username] = msg.sender;\r\n        emit UserRegistered(msg.sender, username);\r\n    }\r\n\r\n    function createGroup(string memory name) external {\r\n        uint256 groupId = ++groupIdCounter;\r\n        \r\n        Group storage newGroup = groups[groupId];\r\n        newGroup.id = groupId;\r\n        newGroup.name = name;\r\n        newGroup.owner = msg.sender;\r\n        newGroup.totalExpenses = 0;\r\n        newGroup.memberCount = 1;\r\n        newGroup.members = new address[](0);\r\n        newGroup.expenseIds = new uint256[](0);\r\n        \r\n        newGroup.isMember[msg.sender] = true;\r\n        newGroup.members.push(msg.sender);\r\n        \r\n        emit GroupCreated(groupId, msg.sender, name);\r\n    }\r\n\r\n    function addGroupMember(uint256 groupId, address member) external onlyGroupOwner(groupId) {\r\n        require(!groups[groupId].isMember[member], \"Already member\");\r\n        require(users[member].userAddress != address(0), \"User not registered\");\r\n\r\n        groups[groupId].isMember[member] = true;\r\n        groups[groupId].members.push(member);\r\n        groups[groupId].memberCount++;\r\n        emit MemberAdded(groupId, member);\r\n    }\r\n\r\n    function addExpense(\r\n        uint256 groupId,\r\n        uint256 totalAmount,\r\n        string[] memory participantUsernames\r\n    ) external onlyGroupMember(groupId) {\r\n        require(totalAmount > 0, \"Invalid amount\");\r\n        require(participantUsernames.length > 0, \"No participants\");\r\n\r\n        uint256 expenseId = ++expenseIdCounter;\r\n        uint256 participantCount = participantUsernames.length;\r\n        uint256 sharePerParticipantWei = (totalAmount * 1 ether) / participantCount;\r\n        uint256 distributedTotal;\r\n\r\n        Expense storage newExpense = expenses[expenseId];\r\n        newExpense.id = expenseId;\r\n        newExpense.totalAmount = totalAmount;\r\n        newExpense.remainingAmount = totalAmount;\r\n        newExpense.payer = msg.sender;\r\n        newExpense.settled = false;\r\n        newExpense.participants = new address[](participantCount);\r\n\r\n        for (uint256 i = 0; i < participantCount; ) {\r\n            address participant = getAddressFromUsername(participantUsernames[i]);\r\n            require(groups[groupId].isMember[participant], \"Not group member\");\r\n            newExpense.participants[i] = participant;\r\n\r\n            uint256 shareWei = i == participantCount - 1 \r\n                ? (totalAmount * 1 ether) - distributedTotal \r\n                : sharePerParticipantWei;\r\n            \r\n            distributedTotal += shareWei;\r\n            newExpense.shares[participant] = shareWei;\r\n\r\n            if (participant != msg.sender) {\r\n                groupDebts[groupId].push(Debt({\r\n                    creditor: msg.sender,\r\n                    debtor: participant,\r\n                    amount: shareWei,\r\n                    groupId: groupId,\r\n                    settled: false\r\n                }));\r\n                userDebts[participant].push(Debt({\r\n                    creditor: msg.sender,\r\n                    debtor: participant,\r\n                    amount: shareWei,\r\n                    groupId: groupId,\r\n                    settled: false\r\n                }));\r\n                \r\n                balances[participant][groupId] -= int256(shareWei);\r\n                balances[msg.sender][groupId] += int256(shareWei);\r\n            }\r\n\r\n            unchecked { ++i; }\r\n        }\r\n\r\n        groups[groupId].expenseIds.push(expenseId);\r\n        groups[groupId].totalExpenses += totalAmount;\r\n        emit ExpenseAdded(groupId, expenseId, totalAmount);\r\n    }\r\n\r\n    function getPreciseShare(uint256 totalAmount, uint256 participantCount) public pure returns (uint256) {\r\n        return (totalAmount * 1e18) / participantCount;\r\n    }\r\n\r\n    function settleDebtByName(\r\n        uint256 groupId,\r\n        string memory debtorUsername,\r\n        string memory creditorUsername,\r\n        uint256 paymentAmount\r\n    ) external payable {\r\n        address debtor = getAddressFromUsername(debtorUsername);\r\n        address payable creditor = payable(getAddressFromUsername(creditorUsername));\r\n        \r\n        require(debtor != address(0), \"Debtor not found\");\r\n        require(creditor != address(0), \"Creditor not found\");\r\n        require(msg.sender == debtor, \"Only debtor can settle\");\r\n        require(groups[groupId].isMember[debtor] && groups[groupId].isMember[creditor], \"Not group members\");\r\n        require(creditor != debtor, \"Cannot pay yourself\");\r\n        require(paymentAmount > 0, \"Amount must be positive\");\r\n        require(msg.value == paymentAmount, \"Incorrect payment amount\");\r\n\r\n        // Find the specific debt\r\n        bool debtFound = false;\r\n        uint256 debtAmount;\r\n        \r\n        Debt[] storage gDebts = groupDebts[groupId];\r\n        for (uint i = 0; i < gDebts.length; i++) {\r\n            if (gDebts[i].debtor == debtor && \r\n                gDebts[i].creditor == creditor && \r\n                !gDebts[i].settled) {\r\n                debtFound = true;\r\n                debtAmount = gDebts[i].amount;\r\n                break;\r\n            }\r\n        }\r\n        \r\n        require(debtFound, \"No active debt found\");\r\n        require(paymentAmount <= debtAmount, \"Payment exceeds debt\");\r\n\r\n        // Update debt records\r\n        for (uint i = 0; i < gDebts.length; i++) {\r\n            if (gDebts[i].debtor == debtor && \r\n                gDebts[i].creditor == creditor && \r\n                !gDebts[i].settled) {\r\n                if (paymentAmount == gDebts[i].amount) {\r\n                    gDebts[i].settled = true;\r\n                } else {\r\n                    gDebts[i].amount -= paymentAmount;\r\n                }\r\n                break;\r\n            }\r\n        }\r\n\r\n        // Update user debts\r\n        Debt[] storage uDebts = userDebts[debtor];\r\n        for (uint i = 0; i < uDebts.length; i++) {\r\n            if (uDebts[i].groupId == groupId && \r\n                uDebts[i].creditor == creditor && \r\n                !uDebts[i].settled) {\r\n                if (paymentAmount == uDebts[i].amount) {\r\n                    uDebts[i].settled = true;\r\n                } else {\r\n                    uDebts[i].amount -= paymentAmount;\r\n                }\r\n                break;\r\n            }\r\n        }\r\n\r\n        // Update balances and transfer\r\n        balances[debtor][groupId] += int256(paymentAmount);\r\n        balances[creditor][groupId] -= int256(paymentAmount);\r\n        creditor.transfer(paymentAmount);\r\n\r\n        emit DebtSettled(groupId, debtor, creditor, paymentAmount);\r\n        emit SettlementMade(groupId, debtor, creditor, paymentAmount);\r\n    }\r\n\r\n    function settleAllDebts(uint256 groupId) external payable {\r\n        require(msg.value > 0, \"Must send payment\");\r\n        require(balances[msg.sender][groupId] < 0, \"No debts to settle\");\r\n        \r\n        uint256 remainingAmount = msg.value;\r\n        address[] memory members = groups[groupId].members;\r\n        \r\n        for (uint256 i = 0; i < members.length && remainingAmount > 0; i++) {\r\n            address creditor = members[i];\r\n            \r\n            if (creditor == msg.sender || balances[creditor][groupId] <= 0) {\r\n                continue;\r\n            }\r\n            \r\n            uint256 debtAmount = uint256(-balances[msg.sender][groupId]);\r\n            uint256 creditAmount = uint256(balances[creditor][groupId]);\r\n            uint256 paymentAmount = min(min(debtAmount, creditAmount), remainingAmount);\r\n            \r\n            if (paymentAmount == 0) {\r\n                continue;\r\n            }\r\n            \r\n            // Update balances and transfer\r\n            balances[msg.sender][groupId] += int256(paymentAmount);\r\n            balances[creditor][groupId] -= int256(paymentAmount);\r\n            payable(creditor).transfer(paymentAmount);\r\n            \r\n            remainingAmount -= paymentAmount;\r\n            emit DebtSettled(groupId, msg.sender, creditor, paymentAmount);\r\n        }\r\n        \r\n        if (remainingAmount > 0) {\r\n            payable(msg.sender).transfer(remainingAmount);\r\n        }\r\n    }\r\n\r\n    function min(uint256 a, uint256 b) private pure returns (uint256) {\r\n        return a < b ? a : b;\r\n    }\r\n\r\n    function formatAmount(uint256 amountWei) public pure returns (string memory) {\r\n        uint256 whole = amountWei / 1 ether;\r\n        uint256 fractional = (amountWei % 1 ether) * 100 / 1 ether;\r\n        \r\n        return string(abi.encodePacked(\r\n            Strings.toString(whole),\r\n            \".\",\r\n            fractional < 10 ? \"0\" : \"\",\r\n            Strings.toString(fractional)\r\n        ));\r\n    }\r\n\r\n    function getUserDebts(address user, uint256 groupId) public view returns (\r\n        address[] memory creditors,\r\n        string[] memory amounts,\r\n        bool[] memory settledStatus\r\n    ) {\r\n        Debt[] storage allDebts = groupDebts[groupId];\r\n        \r\n        uint256 debtCount = 0;\r\n        for (uint256 i = 0; i < allDebts.length; i++) {\r\n            if (allDebts[i].debtor == user && !allDebts[i].settled) {\r\n                debtCount++;\r\n            }\r\n        }\r\n        \r\n        creditors = new address[](debtCount);\r\n        amounts = new string[](debtCount);\r\n        settledStatus = new bool[](debtCount);\r\n        \r\n        uint256 index = 0;\r\n        for (uint256 i = 0; i < allDebts.length; i++) {\r\n            if (allDebts[i].debtor == user && !allDebts[i].settled) {\r\n                creditors[index] = allDebts[i].creditor;\r\n                amounts[index] = formatAmount(allDebts[i].amount);\r\n                settledStatus[index] = allDebts[i].settled;\r\n                index++;\r\n            }\r\n        }\r\n        \r\n        return (creditors, amounts, settledStatus);\r\n    }\r\n\r\n    function getUserBalanceFormatted(string memory username, uint256 groupId) \r\n        public view returns (string memory) \r\n    {\r\n        address userAddress = getAddressFromUsername(username);\r\n        require(groups[groupId].isMember[userAddress], \"User not in group\");\r\n        \r\n        int256 balance = balances[userAddress][groupId];\r\n        bool isNegative = balance < 0;\r\n        uint256 absoluteValue = isNegative ? uint256(-balance) : uint256(balance);\r\n        \r\n        string memory formattedAmount = formatAmount(absoluteValue);\r\n        return isNegative ? string(abi.encodePacked(\"-\", formattedAmount)) : formattedAmount;\r\n    }\r\n\r\n    function getAllUserBalancesFormatted(string memory username)\r\n        public view returns (string[] memory, uint256[] memory)\r\n    {\r\n        address userAddress = getAddressFromUsername(username);\r\n        uint256 groupCount = 0;\r\n        \r\n        for (uint256 i = 1; i <= groupIdCounter; i++) {\r\n            if (groups[i].isMember[userAddress]) {\r\n                groupCount++;\r\n            }\r\n        }\r\n        \r\n        string[] memory balanceStrings = new string[](groupCount);\r\n        uint256[] memory groupIds = new uint256[](groupCount);\r\n        uint256 index = 0;\r\n        \r\n        for (uint256 i = 1; i <= groupIdCounter; i++) {\r\n            if (groups[i].isMember[userAddress]) {\r\n                balanceStrings[index] = getUserBalanceFormatted(username, i);\r\n                groupIds[index] = i;\r\n                index++;\r\n            }\r\n        }\r\n        \r\n        return (balanceStrings, groupIds);\r\n    }\r\n\r\n    function getGroupMembers(uint256 groupId) public view returns (address[] memory) {\r\n        return groups[groupId].members;\r\n    }\r\n\r\n    function getGroupExpenses(uint256 groupId) public view returns (uint256) {\r\n        return groups[groupId].totalExpenses;\r\n    }\r\n\r\n    function getUserShareInExpense(uint256 expenseId, address user) public view returns (uint256) {\r\n        return expenses[expenseId].shares[user];\r\n    }\r\n\r\n    function getUserBalance(address user, uint256 groupId) public view returns (int256) {\r\n        return balances[user][groupId];\r\n    }\r\n\r\n    function getGroupExpenseIds(uint256 groupId) public view returns (uint256[] memory) {\r\n        return groups[groupId].expenseIds;\r\n    }\r\n\r\n    function getAddressFromUsername(string memory username) public view returns (address) {\r\n        address userAddress = usernameToAddress[username];\r\n        require(userAddress != address(0), \"Username not registered\");\r\n        return userAddress;\r\n    }\r\n}",
  "sourcePath": "C:\\Users\\Aryan Gupta\\Desktop\\Final Tabx\\Tabx\\truffle\\contracts\\Tabx.sol",
  "compiler": {
    "name": "solc",
    "version": "0.8.19+commit.7dd6d404.Emscripten.clang"
  },
  "schemaVersion": "3.4.16",
  "updatedAt": "2025-04-09T20:20:21.464Z",
  "networkType": "ethereum",
  "devdoc": {
    "kind": "dev",
    "methods": {},
    "version": 1
  },
  "userdoc": {
    "kind": "user",
    "methods": {},
    "version": 1
  }
}