{
  "contractName": "TabX",
  "abi": [
    {
      "anonymous": false,
      "inputs": [
        {
          "indexed": true,
          "internalType": "uint256",
          "name": "groupId",
          "type": "uint256"
        },
        {
          "indexed": true,
          "internalType": "address",
          "name": "debtor",
          "type": "address"
        },
        {
          "indexed": true,
          "internalType": "address",
          "name": "creditor",
          "type": "address"
        },
        {
          "indexed": false,
          "internalType": "uint256",
          "name": "amount",
          "type": "uint256"
        }
      ],
      "name": "DebtSettled",
      "type": "event"
    },
    {
      "anonymous": false,
      "inputs": [
        {
          "indexed": true,
          "internalType": "uint256",
          "name": "groupId",
          "type": "uint256"
        },
        {
          "indexed": false,
          "internalType": "uint256",
          "name": "expenseId",
          "type": "uint256"
        },
        {
          "indexed": false,
          "internalType": "uint256",
          "name": "amount",
          "type": "uint256"
        }
      ],
      "name": "ExpenseAdded",
      "type": "event"
    },
    {
      "anonymous": false,
      "inputs": [
        {
          "indexed": true,
          "internalType": "uint256",
          "name": "groupId",
          "type": "uint256"
        },
        {
          "indexed": true,
          "internalType": "address",
          "name": "owner",
          "type": "address"
        },
        {
          "indexed": false,
          "internalType": "string",
          "name": "name",
          "type": "string"
        }
      ],
      "name": "GroupCreated",
      "type": "event"
    },
    {
      "anonymous": false,
      "inputs": [
        {
          "indexed": true,
          "internalType": "uint256",
          "name": "groupId",
          "type": "uint256"
        },
        {
          "indexed": false,
          "internalType": "address",
          "name": "member",
          "type": "address"
        }
      ],
      "name": "MemberAdded",
      "type": "event"
    },
    {
      "anonymous": false,
      "inputs": [
        {
          "indexed": true,
          "internalType": "uint256",
          "name": "groupId",
          "type": "uint256"
        },
        {
          "indexed": true,
          "internalType": "address",
          "name": "from",
          "type": "address"
        },
        {
          "indexed": true,
          "internalType": "address",
          "name": "to",
          "type": "address"
        },
        {
          "indexed": false,
          "internalType": "uint256",
          "name": "amount",
          "type": "uint256"
        }
      ],
      "name": "SettlementMade",
      "type": "event"
    },
    {
      "anonymous": false,
      "inputs": [
        {
          "indexed": true,
          "internalType": "address",
          "name": "user",
          "type": "address"
        },
        {
          "indexed": false,
          "internalType": "string",
          "name": "username",
          "type": "string"
        }
      ],
      "name": "UserRegistered",
      "type": "event"
    },
    {
      "inputs": [
        {
          "internalType": "address",
          "name": "",
          "type": "address"
        },
        {
          "internalType": "uint256",
          "name": "",
          "type": "uint256"
        }
      ],
      "name": "balances",
      "outputs": [
        {
          "internalType": "int256",
          "name": "",
          "type": "int256"
        }
      ],
      "stateMutability": "view",
      "type": "function",
      "constant": true
    },
    {
      "inputs": [],
      "name": "expenseIdCounter",
      "outputs": [
        {
          "internalType": "uint256",
          "name": "",
          "type": "uint256"
        }
      ],
      "stateMutability": "view",
      "type": "function",
      "constant": true
    },
    {
      "inputs": [
        {
          "internalType": "uint256",
          "name": "",
          "type": "uint256"
        }
      ],
      "name": "expenses",
      "outputs": [
        {
          "internalType": "uint256",
          "name": "id",
          "type": "uint256"
        },
        {
          "internalType": "uint256",
          "name": "totalAmount",
          "type": "uint256"
        },
        {
          "internalType": "uint256",
          "name": "remainingAmount",
          "type": "uint256"
        },
        {
          "internalType": "address",
          "name": "payer",
          "type": "address"
        },
        {
          "internalType": "bool",
          "name": "settled",
          "type": "bool"
        }
      ],
      "stateMutability": "view",
      "type": "function",
      "constant": true
    },
    {
      "inputs": [
        {
          "internalType": "uint256",
          "name": "",
          "type": "uint256"
        },
        {
          "internalType": "uint256",
          "name": "",
          "type": "uint256"
        }
      ],
      "name": "groupDebts",
      "outputs": [
        {
          "internalType": "address",
          "name": "creditor",
          "type": "address"
        },
        {
          "internalType": "address",
          "name": "debtor",
          "type": "address"
        },
        {
          "internalType": "uint256",
          "name": "amount",
          "type": "uint256"
        },
        {
          "internalType": "uint256",
          "name": "groupId",
          "type": "uint256"
        },
        {
          "internalType": "bool",
          "name": "settled",
          "type": "bool"
        }
      ],
      "stateMutability": "view",
      "type": "function",
      "constant": true
    },
    {
      "inputs": [],
      "name": "groupIdCounter",
      "outputs": [
        {
          "internalType": "uint256",
          "name": "",
          "type": "uint256"
        }
      ],
      "stateMutability": "view",
      "type": "function",
      "constant": true
    },
    {
      "inputs": [
        {
          "internalType": "uint256",
          "name": "",
          "type": "uint256"
        }
      ],
      "name": "groups",
      "outputs": [
        {
          "internalType": "uint256",
          "name": "id",
          "type": "uint256"
        },
        {
          "internalType": "string",
          "name": "name",
          "type": "string"
        },
        {
          "internalType": "address",
          "name": "owner",
          "type": "address"
        },
        {
          "internalType": "uint256",
          "name": "totalExpenses",
          "type": "uint256"
        },
        {
          "internalType": "uint256",
          "name": "memberCount",
          "type": "uint256"
        }
      ],
      "stateMutability": "view",
      "type": "function",
      "constant": true
    },
    {
      "inputs": [
        {
          "internalType": "address",
          "name": "",
          "type": "address"
        },
        {
          "internalType": "uint256",
          "name": "",
          "type": "uint256"
        }
      ],
      "name": "userDebts",
      "outputs": [
        {
          "internalType": "address",
          "name": "creditor",
          "type": "address"
        },
        {
          "internalType": "address",
          "name": "debtor",
          "type": "address"
        },
        {
          "internalType": "uint256",
          "name": "amount",
          "type": "uint256"
        },
        {
          "internalType": "uint256",
          "name": "groupId",
          "type": "uint256"
        },
        {
          "internalType": "bool",
          "name": "settled",
          "type": "bool"
        }
      ],
      "stateMutability": "view",
      "type": "function",
      "constant": true
    },
    {
      "inputs": [
        {
          "internalType": "address",
          "name": "",
          "type": "address"
        }
      ],
      "name": "users",
      "outputs": [
        {
          "internalType": "string",
          "name": "username",
          "type": "string"
        },
        {
          "internalType": "address",
          "name": "userAddress",
          "type": "address"
        }
      ],
      "stateMutability": "view",
      "type": "function",
      "constant": true
    },
    {
      "inputs": [
        {
          "internalType": "string",
          "name": "username",
          "type": "string"
        }
      ],
      "name": "registerUser",
      "outputs": [],
      "stateMutability": "nonpayable",
      "type": "function"
    },
    {
      "inputs": [
        {
          "internalType": "string",
          "name": "name",
          "type": "string"
        }
      ],
      "name": "createGroup",
      "outputs": [],
      "stateMutability": "nonpayable",
      "type": "function"
    },
    {
      "inputs": [
        {
          "internalType": "uint256",
          "name": "groupId",
          "type": "uint256"
        },
        {
          "internalType": "address",
          "name": "member",
          "type": "address"
        }
      ],
      "name": "addGroupMember",
      "outputs": [],
      "stateMutability": "nonpayable",
      "type": "function"
    },
    {
      "inputs": [
        {
          "internalType": "uint256",
          "name": "groupId",
          "type": "uint256"
        },
        {
          "internalType": "uint256",
          "name": "totalAmount",
          "type": "uint256"
        },
        {
          "internalType": "string[]",
          "name": "participantUsernames",
          "type": "string[]"
        }
      ],
      "name": "addExpense",
      "outputs": [],
      "stateMutability": "nonpayable",
      "type": "function"
    },
    {
      "inputs": [
        {
          "internalType": "uint256",
          "name": "groupId",
          "type": "uint256"
        },
        {
          "internalType": "string",
          "name": "debtorUsername",
          "type": "string"
        },
        {
          "internalType": "string",
          "name": "creditorUsername",
          "type": "string"
        },
        {
          "internalType": "uint256",
          "name": "paymentAmount",
          "type": "uint256"
        }
      ],
      "name": "settleDebtByName",
      "outputs": [],
      "stateMutability": "payable",
      "type": "function",
      "payable": true
    },
    {
      "inputs": [
        {
          "internalType": "uint256",
          "name": "groupId",
          "type": "uint256"
        }
      ],
      "name": "getGroupMembers",
      "outputs": [
        {
          "internalType": "address[]",
          "name": "",
          "type": "address[]"
        }
      ],
      "stateMutability": "view",
      "type": "function",
      "constant": true
    },
    {
      "inputs": [
        {
          "internalType": "uint256",
          "name": "groupId",
          "type": "uint256"
        }
      ],
      "name": "getGroupExpenses",
      "outputs": [
        {
          "internalType": "uint256",
          "name": "",
          "type": "uint256"
        }
      ],
      "stateMutability": "view",
      "type": "function",
      "constant": true
    },
    {
      "inputs": [
        {
          "internalType": "uint256",
          "name": "groupId",
          "type": "uint256"
        }
      ],
      "name": "getGroupExpenseIds",
      "outputs": [
        {
          "internalType": "uint256[]",
          "name": "",
          "type": "uint256[]"
        }
      ],
      "stateMutability": "view",
      "type": "function",
      "constant": true
    },
    {
      "inputs": [
        {
          "internalType": "address",
          "name": "user",
          "type": "address"
        },
        {
          "internalType": "uint256",
          "name": "groupId",
          "type": "uint256"
        }
      ],
      "name": "getUserBalance",
      "outputs": [
        {
          "internalType": "int256",
          "name": "",
          "type": "int256"
        }
      ],
      "stateMutability": "view",
      "type": "function",
      "constant": true
    },
    {
      "inputs": [
        {
          "internalType": "string",
          "name": "username",
          "type": "string"
        },
        {
          "internalType": "uint256",
          "name": "groupId",
          "type": "uint256"
        }
      ],
      "name": "getUserBalanceFormatted",
      "outputs": [
        {
          "internalType": "string",
          "name": "",
          "type": "string"
        }
      ],
      "stateMutability": "view",
      "type": "function",
      "constant": true
    },
    {
      "inputs": [
        {
          "internalType": "address",
          "name": "user",
          "type": "address"
        },
        {
          "internalType": "uint256",
          "name": "groupId",
          "type": "uint256"
        }
      ],
      "name": "getUserDebts",
      "outputs": [
        {
          "internalType": "address[]",
          "name": "creditors",
          "type": "address[]"
        },
        {
          "internalType": "string[]",
          "name": "amounts",
          "type": "string[]"
        },
        {
          "internalType": "bool[]",
          "name": "settledStatus",
          "type": "bool[]"
        }
      ],
      "stateMutability": "view",
      "type": "function",
      "constant": true
    },
    {
      "inputs": [
        {
          "internalType": "string",
          "name": "username",
          "type": "string"
        }
      ],
      "name": "getAddressFromUsername",
      "outputs": [
        {
          "internalType": "address",
          "name": "",
          "type": "address"
        }
      ],
      "stateMutability": "view",
      "type": "function",
      "constant": true
    },
    {
      "inputs": [
        {
          "internalType": "uint256",
          "name": "amountWei",
          "type": "uint256"
        }
      ],
      "name": "formatAmount",
      "outputs": [
        {
          "internalType": "string",
          "name": "",
          "type": "string"
        }
      ],
      "stateMutability": "pure",
      "type": "function",
      "constant": true
    },
    {
      "inputs": [
        {
          "internalType": "string",
          "name": "username",
          "type": "string"
        }
      ],
      "name": "getAllUserBalancesFormatted",
      "outputs": [
        {
          "internalType": "string[]",
          "name": "",
          "type": "string[]"
        },
        {
          "internalType": "uint256[]",
          "name": "",
          "type": "uint256[]"
        }
      ],
      "stateMutability": "view",
      "type": "function",
      "constant": true
    }
  ],
  "bytecode": "0x608060405234801561001057600080fd5b50614d65806100206000396000f3fe6080604052600436106101355760003560e01c806391a9648a116100ab578063af4afe0a1161006f578063af4afe0a146104bb578063cbf1304d146104fc578063d702f12214610539578063da89434714610562578063db16d6dc146105a3578063dc2ddcae146105ce57610135565b806391a9648a1461038357806396324bd4146103c0578063a524d37714610401578063a87430ba1461043e578063ad84c9ba1461047c57610135565b80634a2c92b8116100fd5780634a2c92b81461024e5780634e82c1341461028c578063500b136f146102c957806352b807f114610306578063704f1b941461032f5780637bb683741461035857610135565b80630326d54b1461013a57806319af28231461017757806331058ee7146101b4578063365e84d5146101d057806336cc813014610211575b600080fd5b34801561014657600080fd5b50610161600480360381019061015c9190613253565b6105f7565b60405161016e919061333e565b60405180910390f35b34801561018357600080fd5b5061019e60048036038101906101999190613253565b610665565b6040516101ab91906133f0565b60405180910390f35b6101ce60048036038101906101c99190613547565b610746565b005b3480156101dc57600080fd5b506101f760048036038101906101f29190613644565b611160565b6040516102089594939291906136bd565b60405180910390f35b34801561021d57600080fd5b5061023860048036038101906102339190613253565b611200565b60405161024591906137ce565b60405180910390f35b34801561025a57600080fd5b50610275600480360381019061027091906137f0565b6112a4565b604051610283929190613945565b60405180910390f35b34801561029857600080fd5b506102b360048036038101906102ae91906137f0565b6114df565b6040516102c0919061397c565b60405180910390f35b3480156102d557600080fd5b506102f060048036038101906102eb9190613253565b61159b565b6040516102fd9190613997565b60405180910390f35b34801561031257600080fd5b5061032d600480360381019061032891906139b2565b6115bb565b005b34801561033b57600080fd5b50610356600480360381019061035191906137f0565b61191d565b005b34801561036457600080fd5b5061036d611c55565b60405161037a9190613997565b60405180910390f35b34801561038f57600080fd5b506103aa60048036038101906103a59190613644565b611c5b565b6040516103b79190613a0b565b60405180910390f35b3480156103cc57600080fd5b506103e760048036038101906103e29190613253565b611cb6565b6040516103f8959493929190613a26565b60405180910390f35b34801561040d57600080fd5b5061042860048036038101906104239190613a80565b611d94565b60405161043591906133f0565b60405180910390f35b34801561044a57600080fd5b5061046560048036038101906104609190613adc565b611eff565b604051610473929190613b09565b60405180910390f35b34801561048857600080fd5b506104a3600480360381019061049e9190613644565b611fcb565b6040516104b293929190613bf7565b60405180910390f35b3480156104c757600080fd5b506104e260048036038101906104dd9190613253565b6123a7565b6040516104f3959493929190613c43565b60405180910390f35b34801561050857600080fd5b50610523600480360381019061051e9190613644565b61240a565b6040516105309190613a0b565b60405180910390f35b34801561054557600080fd5b50610560600480360381019061055b9190613d7c565b61242f565b005b34801561056e57600080fd5b5061058960048036038101906105849190613deb565b612ce6565b60405161059a9594939291906136bd565b60405180910390f35b3480156105af57600080fd5b506105b8612d86565b6040516105c59190613997565b60405180910390f35b3480156105da57600080fd5b506105f560048036038101906105f091906137f0565b612d8c565b005b60606002600083815260200190815260200160002060070180548060200260200160405190810160405280929190818152602001828054801561065957602002820191906000526020600020905b815481526020019060010190808311610645575b50505050509050919050565b60606000670de0b6b3a76400008361067d9190613e89565b90506000670de0b6b3a76400006064670de0b6b3a7640000866106a09190613eba565b6106aa9190613eeb565b6106b49190613e89565b90506106bf82612f41565b600a82106106dc5760405180602001604052806000815250610713565b6040518060400160405280600181526020017f30000000000000000000000000000000000000000000000000000000000000008152505b61071c83612f41565b60405160200161072e93929190613fb5565b60405160208183030381529060405292505050919050565b6000610751846114df565b9050600061075e846114df565b9050600073ffffffffffffffffffffffffffffffffffffffff168273ffffffffffffffffffffffffffffffffffffffff16036107cf576040517f08c379a00000000000000000000000000000000000000000000000000000000081526004016107c69061403d565b60405180910390fd5b600073ffffffffffffffffffffffffffffffffffffffff168173ffffffffffffffffffffffffffffffffffffffff160361083e576040517f08c379a0000000000000000000000000000000000000000000000000000000008152600401610835906140a9565b60405180910390fd5b8173ffffffffffffffffffffffffffffffffffffffff163373ffffffffffffffffffffffffffffffffffffffff16146108ac576040517f08c379a00000000000000000000000000000000000000000000000000000000081526004016108a390614115565b60405180910390fd5b6002600087815260200190815260200160002060050160008373ffffffffffffffffffffffffffffffffffffffff1673ffffffffffffffffffffffffffffffffffffffff16815260200190815260200160002060009054906101000a900460ff16801561097657506002600087815260200190815260200160002060050160008273ffffffffffffffffffffffffffffffffffffffff1673ffffffffffffffffffffffffffffffffffffffff16815260200190815260200160002060009054906101000a900460ff165b6109b5576040517f08c379a00000000000000000000000000000000000000000000000000000000081526004016109ac90614181565b60405180910390fd5b8173ffffffffffffffffffffffffffffffffffffffff168173ffffffffffffffffffffffffffffffffffffffff1603610a23576040517f08c379a0000000000000000000000000000000000000000000000000000000008152600401610a1a906141ed565b60405180910390fd5b60008311610a66576040517f08c379a0000000000000000000000000000000000000000000000000000000008152600401610a5d90614259565b60405180910390fd5b823414610aa8576040517f08c379a0000000000000000000000000000000000000000000000000000000008152600401610a9f906142c5565b60405180910390fd5b60006004600088815260200190815260200160002090506000805b8280549050811015610d13578473ffffffffffffffffffffffffffffffffffffffff16838281548110610af957610af86142e5565b5b906000526020600020906005020160010160009054906101000a900473ffffffffffffffffffffffffffffffffffffffff1673ffffffffffffffffffffffffffffffffffffffff16148015610bbd57508373ffffffffffffffffffffffffffffffffffffffff16838281548110610b7357610b726142e5565b5b906000526020600020906005020160000160009054906101000a900473ffffffffffffffffffffffffffffffffffffffff1673ffffffffffffffffffffffffffffffffffffffff16145b8015610bf85750828181548110610bd757610bd66142e5565b5b906000526020600020906005020160040160009054906101000a900460ff16155b15610d0057828181548110610c1057610c0f6142e5565b5b9060005260206000209060050201600201548610610cbb57828181548110610c3b57610c3a6142e5565b5b90600052602060002090600502016002015495506001838281548110610c6457610c636142e5565b5b906000526020600020906005020160040160006101000a81548160ff0219169083151502179055506000838281548110610ca157610ca06142e5565b5b906000526020600020906005020160020181905550610cf7565b85838281548110610ccf57610cce6142e5565b5b90600052602060002090600502016002016000828254610cef9190614314565b925050819055505b60019150610d13565b8080610d0b90614348565b915050610ac3565b5080610d54576040517f08c379a0000000000000000000000000000000000000000000000000000000008152600401610d4b906143dc565b60405180910390fd5b6000600560008673ffffffffffffffffffffffffffffffffffffffff1673ffffffffffffffffffffffffffffffffffffffff168152602001908152602001600020905060005b8180549050811015610f735789828281548110610dba57610db96142e5565b5b906000526020600020906005020160030154148015610e4857508473ffffffffffffffffffffffffffffffffffffffff16828281548110610dfe57610dfd6142e5565b5b906000526020600020906005020160000160009054906101000a900473ffffffffffffffffffffffffffffffffffffffff1673ffffffffffffffffffffffffffffffffffffffff16145b8015610e835750818181548110610e6257610e616142e5565b5b906000526020600020906005020160040160009054906101000a900460ff16155b15610f6057818181548110610e9b57610e9a6142e5565b5b9060005260206000209060050201600201548710610f1f576001828281548110610ec857610ec76142e5565b5b906000526020600020906005020160040160006101000a81548160ff0219169083151502179055506000828281548110610f0557610f046142e5565b5b906000526020600020906005020160020181905550610f5b565b86828281548110610f3357610f326142e5565b5b90600052602060002090600502016002016000828254610f539190614314565b925050819055505b610f73565b8080610f6b90614348565b915050610d9a565b5085600660008773ffffffffffffffffffffffffffffffffffffffff1673ffffffffffffffffffffffffffffffffffffffff16815260200190815260200160002060008b81526020019081526020016000206000828254610fd491906143fc565b9250508190555085600660008673ffffffffffffffffffffffffffffffffffffffff1673ffffffffffffffffffffffffffffffffffffffff16815260200190815260200160002060008b8152602001908152602001600020600082825461103b9190614440565b925050819055508373ffffffffffffffffffffffffffffffffffffffff166108fc879081150290604051600060405180830381858888f19350505050158015611088573d6000803e3d6000fd5b508373ffffffffffffffffffffffffffffffffffffffff168573ffffffffffffffffffffffffffffffffffffffff168a7f16c014bb6d1c6cc25e4d9c2ffff2d5052bc083462038999100ead76edf97bee0896040516110e79190613997565b60405180910390a48373ffffffffffffffffffffffffffffffffffffffff168573ffffffffffffffffffffffffffffffffffffffff168a7fb73414e83fe48d03a430abd012c3314bf45c74419cd1b4a7db8a774b3538ce538960405161114d9190613997565b60405180910390a4505050505050505050565b6005602052816000526040600020818154811061117c57600080fd5b9060005260206000209060050201600091509150508060000160009054906101000a900473ffffffffffffffffffffffffffffffffffffffff16908060010160009054906101000a900473ffffffffffffffffffffffffffffffffffffffff16908060020154908060030154908060040160009054906101000a900460ff16905085565b60606002600083815260200190815260200160002060060180548060200260200160405190810160405280929190818152602001828054801561129857602002820191906000526020600020905b8160009054906101000a900473ffffffffffffffffffffffffffffffffffffffff1673ffffffffffffffffffffffffffffffffffffffff168152602001906001019080831161124e575b50505050509050919050565b60608060006112b2846114df565b9050600080600190505b600754811161134d576002600082815260200190815260200160002060050160008473ffffffffffffffffffffffffffffffffffffffff1673ffffffffffffffffffffffffffffffffffffffff16815260200190815260200160002060009054906101000a900460ff161561133a57818061133690614348565b9250505b808061134590614348565b9150506112bc565b5060008167ffffffffffffffff81111561136a5761136961341c565b5b60405190808252806020026020018201604052801561139d57816020015b60608152602001906001900390816113885790505b50905060008267ffffffffffffffff8111156113bc576113bb61341c565b5b6040519080825280602002602001820160405280156113ea5781602001602082028036833780820191505090505b509050600080600190505b60075481116114ce576002600082815260200190815260200160002060050160008773ffffffffffffffffffffffffffffffffffffffff1673ffffffffffffffffffffffffffffffffffffffff16815260200190815260200160002060009054906101000a900460ff16156114bb5761146e8982611d94565b848381518110611481576114806142e5565b5b6020026020010181905250808383815181106114a05761149f6142e5565b5b60200260200101818152505081806114b790614348565b9250505b80806114c690614348565b9150506113f5565b508282965096505050505050915091565b6000806001836040516114f29190614483565b908152602001604051809103902060009054906101000a900473ffffffffffffffffffffffffffffffffffffffff169050600073ffffffffffffffffffffffffffffffffffffffff168173ffffffffffffffffffffffffffffffffffffffff1603611592576040517f08c379a0000000000000000000000000000000000000000000000000000000008152600401611589906144e6565b60405180910390fd5b80915050919050565b600060026000838152602001908152602001600020600301549050919050565b813373ffffffffffffffffffffffffffffffffffffffff166002600083815260200190815260200160002060020160009054906101000a900473ffffffffffffffffffffffffffffffffffffffff1673ffffffffffffffffffffffffffffffffffffffff1614611660576040517f08c379a000000000000000000000000000000000000000000000000000000000815260040161165790614552565b60405180910390fd5b6002600084815260200190815260200160002060050160008373ffffffffffffffffffffffffffffffffffffffff1673ffffffffffffffffffffffffffffffffffffffff16815260200190815260200160002060009054906101000a900460ff1615611701576040517f08c379a00000000000000000000000000000000000000000000000000000000081526004016116f8906145be565b60405180910390fd5b600073ffffffffffffffffffffffffffffffffffffffff166000808473ffffffffffffffffffffffffffffffffffffffff1673ffffffffffffffffffffffffffffffffffffffff16815260200190815260200160002060010160009054906101000a900473ffffffffffffffffffffffffffffffffffffffff1673ffffffffffffffffffffffffffffffffffffffff16036117d1576040517f08c379a00000000000000000000000000000000000000000000000000000000081526004016117c89061462a565b60405180910390fd5b60016002600085815260200190815260200160002060050160008473ffffffffffffffffffffffffffffffffffffffff1673ffffffffffffffffffffffffffffffffffffffff16815260200190815260200160002060006101000a81548160ff02191690831515021790555060026000848152602001908152602001600020600601829080600181540180825580915050600190039060005260206000200160009091909190916101000a81548173ffffffffffffffffffffffffffffffffffffffff021916908373ffffffffffffffffffffffffffffffffffffffff1602179055506002600084815260200190815260200160002060040160008154809291906118db90614348565b9190505550827ff328ac0f8bcae00933fe87ba0aa2d0d505c1df94bc9c1aa05b8441c28b74032c83604051611910919061397c565b60405180910390a2505050565b6000815111611961576040517f08c379a000000000000000000000000000000000000000000000000000000000815260040161195890614696565b60405180910390fd5b600073ffffffffffffffffffffffffffffffffffffffff166000803373ffffffffffffffffffffffffffffffffffffffff1673ffffffffffffffffffffffffffffffffffffffff16815260200190815260200160002060010160009054906101000a900473ffffffffffffffffffffffffffffffffffffffff1673ffffffffffffffffffffffffffffffffffffffff1614611a31576040517f08c379a0000000000000000000000000000000000000000000000000000000008152600401611a2890614702565b60405180910390fd5b600073ffffffffffffffffffffffffffffffffffffffff16600182604051611a599190614483565b908152602001604051809103902060009054906101000a900473ffffffffffffffffffffffffffffffffffffffff1673ffffffffffffffffffffffffffffffffffffffff1614611ade576040517f08c379a0000000000000000000000000000000000000000000000000000000008152600401611ad59061476e565b60405180910390fd5b60405180604001604052808281526020013373ffffffffffffffffffffffffffffffffffffffff168152506000803373ffffffffffffffffffffffffffffffffffffffff1673ffffffffffffffffffffffffffffffffffffffff1681526020019081526020016000206000820151816000019081611b5c919061499a565b5060208201518160010160006101000a81548173ffffffffffffffffffffffffffffffffffffffff021916908373ffffffffffffffffffffffffffffffffffffffff16021790555090505033600182604051611bb89190614483565b908152602001604051809103902060006101000a81548173ffffffffffffffffffffffffffffffffffffffff021916908373ffffffffffffffffffffffffffffffffffffffff1602179055503373ffffffffffffffffffffffffffffffffffffffff167f48cac28ad4dc618e15f4c2dd5e97751182f166de97b25618318b2112aa951a2f82604051611c4a91906133f0565b60405180910390a250565b60085481565b6000600660008473ffffffffffffffffffffffffffffffffffffffff1673ffffffffffffffffffffffffffffffffffffffff168152602001908152602001600020600083815260200190815260200160002054905092915050565b6002602052806000526040600020600091509050806000015490806001018054611cdf906147bd565b80601f0160208091040260200160405190810160405280929190818152602001828054611d0b906147bd565b8015611d585780601f10611d2d57610100808354040283529160200191611d58565b820191906000526020600020905b815481529060010190602001808311611d3b57829003601f168201915b5050505050908060020160009054906101000a900473ffffffffffffffffffffffffffffffffffffffff16908060030154908060040154905085565b60606000611da1846114df565b90506002600084815260200190815260200160002060050160008273ffffffffffffffffffffffffffffffffffffffff1673ffffffffffffffffffffffffffffffffffffffff16815260200190815260200160002060009054906101000a900460ff16611e43576040517f08c379a0000000000000000000000000000000000000000000000000000000008152600401611e3a90614ab8565b60405180910390fd5b6000600660008373ffffffffffffffffffffffffffffffffffffffff1673ffffffffffffffffffffffffffffffffffffffff168152602001908152602001600020600085815260200190815260200160002054905060008082129050600081611eac5782611eb7565b82611eb690614ad8565b5b90506000611ec482610665565b905082611ed15780611ef2565b80604051602001611ee29190614b6c565b6040516020818303038152906040525b9550505050505092915050565b6000602052806000526040600020600091509050806000018054611f22906147bd565b80601f0160208091040260200160405190810160405280929190818152602001828054611f4e906147bd565b8015611f9b5780601f10611f7057610100808354040283529160200191611f9b565b820191906000526020600020905b815481529060010190602001808311611f7e57829003601f168201915b5050505050908060010160009054906101000a900473ffffffffffffffffffffffffffffffffffffffff16905082565b606080606060006004600086815260200190815260200160002090506000805b82805490508110156120cc578773ffffffffffffffffffffffffffffffffffffffff16838281548110612021576120206142e5565b5b906000526020600020906005020160010160009054906101000a900473ffffffffffffffffffffffffffffffffffffffff1673ffffffffffffffffffffffffffffffffffffffff161480156120a55750828181548110612084576120836142e5565b5b906000526020600020906005020160040160009054906101000a900460ff16155b156120b95781806120b590614348565b9250505b80806120c490614348565b915050611feb565b508067ffffffffffffffff8111156120e7576120e661341c565b5b6040519080825280602002602001820160405280156121155781602001602082028036833780820191505090505b5094508067ffffffffffffffff8111156121325761213161341c565b5b60405190808252806020026020018201604052801561216557816020015b60608152602001906001900390816121505790505b5093508067ffffffffffffffff8111156121825761218161341c565b5b6040519080825280602002602001820160405280156121b05781602001602082028036833780820191505090505b5092506000805b838054905081101561239c578873ffffffffffffffffffffffffffffffffffffffff168482815481106121ed576121ec6142e5565b5b906000526020600020906005020160010160009054906101000a900473ffffffffffffffffffffffffffffffffffffffff1673ffffffffffffffffffffffffffffffffffffffff1614801561227157508381815481106122505761224f6142e5565b5b906000526020600020906005020160040160009054906101000a900460ff16155b1561238957838181548110612289576122886142e5565b5b906000526020600020906005020160000160009054906101000a900473ffffffffffffffffffffffffffffffffffffffff168783815181106122ce576122cd6142e5565b5b602002602001019073ffffffffffffffffffffffffffffffffffffffff16908173ffffffffffffffffffffffffffffffffffffffff168152505061233584828154811061231e5761231d6142e5565b5b906000526020600020906005020160020154610665565b868381518110612348576123476142e5565b5b60200260200101819052506000858381518110612368576123676142e5565b5b602002602001019015159081151581525050818061238590614348565b9250505b808061239490614348565b9150506121b7565b505050509250925092565b60036020528060005260406000206000915090508060000154908060010154908060020154908060030160009054906101000a900473ffffffffffffffffffffffffffffffffffffffff16908060060160009054906101000a900460ff16905085565b6006602052816000526040600020602052806000526040600020600091509150505481565b826002600082815260200190815260200160002060050160003373ffffffffffffffffffffffffffffffffffffffff1673ffffffffffffffffffffffffffffffffffffffff16815260200190815260200160002060009054906101000a900460ff166124d0576040517f08c379a00000000000000000000000000000000000000000000000000000000081526004016124c790614bda565b60405180910390fd5b60008311612513576040517f08c379a000000000000000000000000000000000000000000000000000000000815260040161250a90614c46565b60405180910390fd5b6000825111612557576040517f08c379a000000000000000000000000000000000000000000000000000000000815260040161254e90614cb2565b60405180910390fd5b600060086000815461256890614348565b9190508190559050600083519050600081670de0b6b3a76400008761258d9190613eeb565b6125979190613e89565b9050600080600360008681526020019081526020016000209050848160000181905550878160010181905550878160020181905550338160030160006101000a81548173ffffffffffffffffffffffffffffffffffffffff021916908373ffffffffffffffffffffffffffffffffffffffff16021790555060008160060160006101000a81548160ff0219169083151502179055508367ffffffffffffffff8111156126465761264561341c565b5b6040519080825280602002602001820160405280156126745781602001602082028036833780820191505090505b5081600401908051906020019061268c929190613162565b5060005b84811015612c365760006126bd8983815181106126b0576126af6142e5565b5b60200260200101516114df565b9050600260008c815260200190815260200160002060050160008273ffffffffffffffffffffffffffffffffffffffff1673ffffffffffffffffffffffffffffffffffffffff16815260200190815260200160002060009054906101000a900460ff1661275f576040517f08c379a000000000000000000000000000000000000000000000000000000000815260040161275690614bda565b60405180910390fd5b80836004018381548110612776576127756142e5565b5b9060005260206000200160006101000a81548173ffffffffffffffffffffffffffffffffffffffff021916908373ffffffffffffffffffffffffffffffffffffffff16021790555060006001876127cd9190614314565b83146127d957856127f9565b84670de0b6b3a76400008c6127ee9190613eeb565b6127f89190614314565b5b905080856128079190614cd2565b9450808460050160008473ffffffffffffffffffffffffffffffffffffffff1673ffffffffffffffffffffffffffffffffffffffff168152602001908152602001600020819055503373ffffffffffffffffffffffffffffffffffffffff168273ffffffffffffffffffffffffffffffffffffffff1614612c2957600460008d81526020019081526020016000206040518060a001604052803373ffffffffffffffffffffffffffffffffffffffff1681526020018473ffffffffffffffffffffffffffffffffffffffff1681526020018381526020018e815260200160001515815250908060018154018082558091505060019003906000526020600020906005020160009091909190915060008201518160000160006101000a81548173ffffffffffffffffffffffffffffffffffffffff021916908373ffffffffffffffffffffffffffffffffffffffff16021790555060208201518160010160006101000a81548173ffffffffffffffffffffffffffffffffffffffff021916908373ffffffffffffffffffffffffffffffffffffffff160217905550604082015181600201556060820151816003015560808201518160040160006101000a81548160ff0219169083151502179055505050600560008373ffffffffffffffffffffffffffffffffffffffff1673ffffffffffffffffffffffffffffffffffffffff1681526020019081526020016000206040518060a001604052803373ffffffffffffffffffffffffffffffffffffffff1681526020018473ffffffffffffffffffffffffffffffffffffffff1681526020018381526020018e815260200160001515815250908060018154018082558091505060019003906000526020600020906005020160009091909190915060008201518160000160006101000a81548173ffffffffffffffffffffffffffffffffffffffff021916908373ffffffffffffffffffffffffffffffffffffffff16021790555060208201518160010160006101000a81548173ffffffffffffffffffffffffffffffffffffffff021916908373ffffffffffffffffffffffffffffffffffffffff160217905550604082015181600201556060820151816003015560808201518160040160006101000a81548160ff021916908315150217905550505080600660008473ffffffffffffffffffffffffffffffffffffffff1673ffffffffffffffffffffffffffffffffffffffff16815260200190815260200160002060008e81526020019081526020016000206000828254612bba9190614440565b9250508190555080600660003373ffffffffffffffffffffffffffffffffffffffff1673ffffffffffffffffffffffffffffffffffffffff16815260200190815260200160002060008e81526020019081526020016000206000828254612c2191906143fc565b925050819055505b8260010192505050612690565b50600260008a815260200190815260200160002060070185908060018154018082558091505060019003906000526020600020016000909190919091505587600260008b81526020019081526020016000206003016000828254612c9a9190614cd2565b92505081905550887fdb7fe1afe70d9afd2511cbba96288568628fcbba215e44e3ef77fb5b810365b4868a604051612cd3929190614d06565b60405180910390a2505050505050505050565b60046020528160005260406000208181548110612d0257600080fd5b9060005260206000209060050201600091509150508060000160009054906101000a900473ffffffffffffffffffffffffffffffffffffffff16908060010160009054906101000a900473ffffffffffffffffffffffffffffffffffffffff16908060020154908060030154908060040160009054906101000a900460ff16905085565b60075481565b6000600760008154612d9d90614348565b9190508190559050600060026000838152602001908152602001600020905081816000018190555082816001019081612dd6919061499a565b50338160020160006101000a81548173ffffffffffffffffffffffffffffffffffffffff021916908373ffffffffffffffffffffffffffffffffffffffff160217905550600081600301819055506001816004018190555060018160050160003373ffffffffffffffffffffffffffffffffffffffff1673ffffffffffffffffffffffffffffffffffffffff16815260200190815260200160002060006101000a81548160ff02191690831515021790555080600601339080600181540180825580915050600190039060005260206000200160009091909190916101000a81548173ffffffffffffffffffffffffffffffffffffffff021916908373ffffffffffffffffffffffffffffffffffffffff1602179055503373ffffffffffffffffffffffffffffffffffffffff16827f4354295f5d98820e66a770bd58cf23606ab255dd9dc2daf870fab38ecbc3e7e085604051612f3491906133f0565b60405180910390a3505050565b606060006001612f508461300f565b01905060008167ffffffffffffffff811115612f6f57612f6e61341c565b5b6040519080825280601f01601f191660200182016040528015612fa15781602001600182028036833780820191505090505b509050600082602001820190505b600115613004578080600190039150507f3031323334353637383961626364656600000000000000000000000000000000600a86061a8153600a8581612ff857612ff7613e2b565b5b04945060008503612faf575b819350505050919050565b600080600090507a184f03e93ff9f4daa797ed6e38ed64bf6a1f010000000000000000831061306d577a184f03e93ff9f4daa797ed6e38ed64bf6a1f010000000000000000838161306357613062613e2b565b5b0492506040810190505b6d04ee2d6d415b85acef810000000083106130aa576d04ee2d6d415b85acef810000000083816130a05761309f613e2b565b5b0492506020810190505b662386f26fc1000083106130d957662386f26fc1000083816130cf576130ce613e2b565b5b0492506010810190505b6305f5e1008310613102576305f5e10083816130f8576130f7613e2b565b5b0492506008810190505b612710831061312757612710838161311d5761311c613e2b565b5b0492506004810190505b6064831061314a57606483816131405761313f613e2b565b5b0492506002810190505b600a8310613159576001810190505b80915050919050565b8280548282559060005260206000209081019282156131db579160200282015b828111156131da5782518260006101000a81548173ffffffffffffffffffffffffffffffffffffffff021916908373ffffffffffffffffffffffffffffffffffffffff16021790555091602001919060010190613182565b5b5090506131e891906131ec565b5090565b5b808211156132055760008160009055506001016131ed565b5090565b6000604051905090565b600080fd5b600080fd5b6000819050919050565b6132308161321d565b811461323b57600080fd5b50565b60008135905061324d81613227565b92915050565b60006020828403121561326957613268613213565b5b60006132778482850161323e565b91505092915050565b600081519050919050565b600082825260208201905092915050565b6000819050602082019050919050565b6132b58161321d565b82525050565b60006132c783836132ac565b60208301905092915050565b6000602082019050919050565b60006132eb82613280565b6132f5818561328b565b93506133008361329c565b8060005b8381101561333157815161331888826132bb565b9750613323836132d3565b925050600181019050613304565b5085935050505092915050565b6000602082019050818103600083015261335881846132e0565b905092915050565b600081519050919050565b600082825260208201905092915050565b60005b8381101561339a57808201518184015260208101905061337f565b60008484015250505050565b6000601f19601f8301169050919050565b60006133c282613360565b6133cc818561336b565b93506133dc81856020860161337c565b6133e5816133a6565b840191505092915050565b6000602082019050818103600083015261340a81846133b7565b905092915050565b600080fd5b600080fd5b7f4e487b7100000000000000000000000000000000000000000000000000000000600052604160045260246000fd5b613454826133a6565b810181811067ffffffffffffffff821117156134735761347261341c565b5b80604052505050565b6000613486613209565b9050613492828261344b565b919050565b600067ffffffffffffffff8211156134b2576134b161341c565b5b6134bb826133a6565b9050602081019050919050565b82818337600083830152505050565b60006134ea6134e584613497565b61347c565b90508281526020810184848401111561350657613505613417565b5b6135118482856134c8565b509392505050565b600082601f83011261352e5761352d613412565b5b813561353e8482602086016134d7565b91505092915050565b6000806000806080858703121561356157613560613213565b5b600061356f8782880161323e565b945050602085013567ffffffffffffffff8111156135905761358f613218565b5b61359c87828801613519565b935050604085013567ffffffffffffffff8111156135bd576135bc613218565b5b6135c987828801613519565b92505060606135da8782880161323e565b91505092959194509250565b600073ffffffffffffffffffffffffffffffffffffffff82169050919050565b6000613611826135e6565b9050919050565b61362181613606565b811461362c57600080fd5b50565b60008135905061363e81613618565b92915050565b6000806040838503121561365b5761365a613213565b5b60006136698582860161362f565b925050602061367a8582860161323e565b9150509250929050565b61368d81613606565b82525050565b61369c8161321d565b82525050565b60008115159050919050565b6136b7816136a2565b82525050565b600060a0820190506136d26000830188613684565b6136df6020830187613684565b6136ec6040830186613693565b6136f96060830185613693565b61370660808301846136ae565b9695505050505050565b600081519050919050565b600082825260208201905092915050565b6000819050602082019050919050565b61374581613606565b82525050565b6000613757838361373c565b60208301905092915050565b6000602082019050919050565b600061377b82613710565b613785818561371b565b93506137908361372c565b8060005b838110156137c15781516137a8888261374b565b97506137b383613763565b925050600181019050613794565b5085935050505092915050565b600060208201905081810360008301526137e88184613770565b905092915050565b60006020828403121561380657613805613213565b5b600082013567ffffffffffffffff81111561382457613823613218565b5b61383084828501613519565b91505092915050565b600081519050919050565b600082825260208201905092915050565b6000819050602082019050919050565b600082825260208201905092915050565b600061388182613360565b61388b8185613865565b935061389b81856020860161337c565b6138a4816133a6565b840191505092915050565b60006138bb8383613876565b905092915050565b6000602082019050919050565b60006138db82613839565b6138e58185613844565b9350836020820285016138f785613855565b8060005b85811015613933578484038952815161391485826138af565b945061391f836138c3565b925060208a019950506001810190506138fb565b50829750879550505050505092915050565b6000604082019050818103600083015261395f81856138d0565b9050818103602083015261397381846132e0565b90509392505050565b60006020820190506139916000830184613684565b92915050565b60006020820190506139ac6000830184613693565b92915050565b600080604083850312156139c9576139c8613213565b5b60006139d78582860161323e565b92505060206139e88582860161362f565b9150509250929050565b6000819050919050565b613a05816139f2565b82525050565b6000602082019050613a2060008301846139fc565b92915050565b600060a082019050613a3b6000830188613693565b8181036020830152613a4d81876133b7565b9050613a5c6040830186613684565b613a696060830185613693565b613a766080830184613693565b9695505050505050565b60008060408385031215613a9757613a96613213565b5b600083013567ffffffffffffffff811115613ab557613ab4613218565b5b613ac185828601613519565b9250506020613ad28582860161323e565b9150509250929050565b600060208284031215613af257613af1613213565b5b6000613b008482850161362f565b91505092915050565b60006040820190508181036000830152613b2381856133b7565b9050613b326020830184613684565b9392505050565b600081519050919050565b600082825260208201905092915050565b6000819050602082019050919050565b613b6e816136a2565b82525050565b6000613b808383613b65565b60208301905092915050565b6000602082019050919050565b6000613ba482613b39565b613bae8185613b44565b9350613bb983613b55565b8060005b83811015613bea578151613bd18882613b74565b9750613bdc83613b8c565b925050600181019050613bbd565b5085935050505092915050565b60006060820190508181036000830152613c118186613770565b90508181036020830152613c2581856138d0565b90508181036040830152613c398184613b99565b9050949350505050565b600060a082019050613c586000830188613693565b613c656020830187613693565b613c726040830186613693565b613c7f6060830185613684565b613c8c60808301846136ae565b9695505050505050565b600067ffffffffffffffff821115613cb157613cb061341c565b5b602082029050602081019050919050565b600080fd5b6000613cda613cd584613c96565b61347c565b90508083825260208201905060208402830185811115613cfd57613cfc613cc2565b5b835b81811015613d4457803567ffffffffffffffff811115613d2257613d21613412565b5b808601613d2f8982613519565b85526020850194505050602081019050613cff565b5050509392505050565b600082601f830112613d6357613d62613412565b5b8135613d73848260208601613cc7565b91505092915050565b600080600060608486031215613d9557613d94613213565b5b6000613da38682870161323e565b9350506020613db48682870161323e565b925050604084013567ffffffffffffffff811115613dd557613dd4613218565b5b613de186828701613d4e565b9150509250925092565b60008060408385031215613e0257613e01613213565b5b6000613e108582860161323e565b9250506020613e218582860161323e565b9150509250929050565b7f4e487b7100000000000000000000000000000000000000000000000000000000600052601260045260246000fd5b7f4e487b7100000000000000000000000000000000000000000000000000000000600052601160045260246000fd5b6000613e948261321d565b9150613e9f8361321d565b925082613eaf57613eae613e2b565b5b828204905092915050565b6000613ec58261321d565b9150613ed08361321d565b925082613ee057613edf613e2b565b5b828206905092915050565b6000613ef68261321d565b9150613f018361321d565b9250828202613f0f8161321d565b91508282048414831517613f2657613f25613e5a565b5b5092915050565b600081905092915050565b6000613f4382613360565b613f4d8185613f2d565b9350613f5d81856020860161337c565b80840191505092915050565b7f2e00000000000000000000000000000000000000000000000000000000000000600082015250565b6000613f9f600183613f2d565b9150613faa82613f69565b600182019050919050565b6000613fc18286613f38565b9150613fcc82613f92565b9150613fd88285613f38565b9150613fe48284613f38565b9150819050949350505050565b7f446562746f72206e6f7420666f756e6400000000000000000000000000000000600082015250565b600061402760108361336b565b915061403282613ff1565b602082019050919050565b600060208201905081810360008301526140568161401a565b9050919050565b7f4372656469746f72206e6f7420666f756e640000000000000000000000000000600082015250565b600061409360128361336b565b915061409e8261405d565b602082019050919050565b600060208201905081810360008301526140c281614086565b9050919050565b7f4f6e6c7920646562746f722063616e20736574746c6500000000000000000000600082015250565b60006140ff60168361336b565b915061410a826140c9565b602082019050919050565b6000602082019050818103600083015261412e816140f2565b9050919050565b7f4e6f742067726f7570206d656d62657273000000000000000000000000000000600082015250565b600061416b60118361336b565b915061417682614135565b602082019050919050565b6000602082019050818103600083015261419a8161415e565b9050919050565b7f43616e6e6f742070617920796f757273656c6600000000000000000000000000600082015250565b60006141d760138361336b565b91506141e2826141a1565b602082019050919050565b60006020820190508181036000830152614206816141ca565b9050919050565b7f416d6f756e74206d75737420626520706f736974697665000000000000000000600082015250565b600061424360178361336b565b915061424e8261420d565b602082019050919050565b6000602082019050818103600083015261427281614236565b9050919050565b7f496e636f7272656374207061796d656e7420616d6f756e740000000000000000600082015250565b60006142af60188361336b565b91506142ba82614279565b602082019050919050565b600060208201905081810360008301526142de816142a2565b9050919050565b7f4e487b7100000000000000000000000000000000000000000000000000000000600052603260045260246000fd5b600061431f8261321d565b915061432a8361321d565b925082820390508181111561434257614341613e5a565b5b92915050565b60006143538261321d565b91507fffffffffffffffffffffffffffffffffffffffffffffffffffffffffffffffff820361438557614384613e5a565b5b600182019050919050565b7f4e6f20616374697665206465627420666f756e64000000000000000000000000600082015250565b60006143c660148361336b565b91506143d182614390565b602082019050919050565b600060208201905081810360008301526143f5816143b9565b9050919050565b6000614407826139f2565b9150614412836139f2565b92508282019050828112156000831216838212600084121516171561443a57614439613e5a565b5b92915050565b600061444b826139f2565b9150614456836139f2565b925082820390508181126000841216828213600085121516171561447d5761447c613e5a565b5b92915050565b600061448f8284613f38565b915081905092915050565b7f557365726e616d65206e6f742072656769737465726564000000000000000000600082015250565b60006144d060178361336b565b91506144db8261449a565b602082019050919050565b600060208201905081810360008301526144ff816144c3565b9050919050565b7f4e6f742067726f7570206f776e65720000000000000000000000000000000000600082015250565b600061453c600f8361336b565b915061454782614506565b602082019050919050565b6000602082019050818103600083015261456b8161452f565b9050919050565b7f416c7265616479206d656d626572000000000000000000000000000000000000600082015250565b60006145a8600e8361336b565b91506145b382614572565b602082019050919050565b600060208201905081810360008301526145d78161459b565b9050919050565b7f55736572206e6f74207265676973746572656400000000000000000000000000600082015250565b600061461460138361336b565b915061461f826145de565b602082019050919050565b6000602082019050818103600083015261464381614607565b9050919050565b7f456d70747920757365726e616d65000000000000000000000000000000000000600082015250565b6000614680600e8361336b565b915061468b8261464a565b602082019050919050565b600060208201905081810360008301526146af81614673565b9050919050565b7f416c726561647920726567697374657265640000000000000000000000000000600082015250565b60006146ec60128361336b565b91506146f7826146b6565b602082019050919050565b6000602082019050818103600083015261471b816146df565b9050919050565b7f557365726e616d652074616b656e000000000000000000000000000000000000600082015250565b6000614758600e8361336b565b915061476382614722565b602082019050919050565b600060208201905081810360008301526147878161474b565b9050919050565b7f4e487b7100000000000000000000000000000000000000000000000000000000600052602260045260246000fd5b600060028204905060018216806147d557607f821691505b6020821081036147e8576147e761478e565b5b50919050565b60008190508160005260206000209050919050565b60006020601f8301049050919050565b600082821b905092915050565b6000600883026148507fffffffffffffffffffffffffffffffffffffffffffffffffffffffffffffffff82614813565b61485a8683614813565b95508019841693508086168417925050509392505050565b6000819050919050565b600061489761489261488d8461321d565b614872565b61321d565b9050919050565b6000819050919050565b6148b18361487c565b6148c56148bd8261489e565b848454614820565b825550505050565b600090565b6148da6148cd565b6148e58184846148a8565b505050565b5b81811015614909576148fe6000826148d2565b6001810190506148eb565b5050565b601f82111561494e5761491f816147ee565b61492884614803565b81016020851015614937578190505b61494b61494385614803565b8301826148ea565b50505b505050565b600082821c905092915050565b600061497160001984600802614953565b1980831691505092915050565b600061498a8383614960565b9150826002028217905092915050565b6149a382613360565b67ffffffffffffffff8111156149bc576149bb61341c565b5b6149c682546147bd565b6149d182828561490d565b600060209050601f831160018114614a0457600084156149f2578287015190505b6149fc858261497e565b865550614a64565b601f198416614a12866147ee565b60005b82811015614a3a57848901518255600182019150602085019450602081019050614a15565b86831015614a575784890151614a53601f891682614960565b8355505b6001600288020188555050505b505050505050565b7f55736572206e6f7420696e2067726f7570000000000000000000000000000000600082015250565b6000614aa260118361336b565b9150614aad82614a6c565b602082019050919050565b60006020820190508181036000830152614ad181614a95565b9050919050565b6000614ae3826139f2565b91507f80000000000000000000000000000000000000000000000000000000000000008203614b1557614b14613e5a565b5b816000039050919050565b7f2d00000000000000000000000000000000000000000000000000000000000000600082015250565b6000614b56600183613f2d565b9150614b6182614b20565b600182019050919050565b6000614b7782614b49565b9150614b838284613f38565b915081905092915050565b7f4e6f742067726f7570206d656d62657200000000000000000000000000000000600082015250565b6000614bc460108361336b565b9150614bcf82614b8e565b602082019050919050565b60006020820190508181036000830152614bf381614bb7565b9050919050565b7f496e76616c696420616d6f756e74000000000000000000000000000000000000600082015250565b6000614c30600e8361336b565b9150614c3b82614bfa565b602082019050919050565b60006020820190508181036000830152614c5f81614c23565b9050919050565b7f4e6f207061727469636970616e74730000000000000000000000000000000000600082015250565b6000614c9c600f8361336b565b9150614ca782614c66565b602082019050919050565b60006020820190508181036000830152614ccb81614c8f565b9050919050565b6000614cdd8261321d565b9150614ce88361321d565b9250828201905080821115614d0057614cff613e5a565b5b92915050565b6000604082019050614d1b6000830185613693565b614d286020830184613693565b939250505056fea2646970667358221220f4e2942aba335fde3a6d0b28e8e15354802a3ba5e88dfeb897286f2819e031a764736f6c63430008130033",
  "immutableReferences": {},
  "source": "// SPDX-License-Identifier: MIT\r\npragma solidity ^0.8.0;\r\n\r\nimport \"@openzeppelin/contracts/utils/math/SafeMath.sol\";\r\nimport \"@openzeppelin/contracts/utils/Strings.sol\";\r\n\r\ncontract TabX {\r\n    using SafeMath for uint256;\r\n\r\n    struct User {\r\n        string username;\r\n        address userAddress;\r\n    }\r\n\r\n    struct Expense {\r\n        uint256 id;\r\n        uint256 totalAmount;\r\n        uint256 remainingAmount;\r\n        address payer;\r\n        address[] participants;\r\n        mapping(address => uint256) shares;\r\n        bool settled;\r\n    }\r\n\r\n    struct Group {\r\n        uint256 id;\r\n        string name;\r\n        address owner;\r\n        uint256 totalExpenses;\r\n        uint256 memberCount;\r\n        mapping(address => bool) isMember;\r\n        address[] members;\r\n        uint256[] expenseIds;\r\n    }\r\n\r\n    struct Debt {\r\n        address creditor;\r\n        address debtor;\r\n        uint256 amount;\r\n        uint256 groupId;\r\n        bool settled;\r\n    }\r\n\r\n    mapping(address => User) public users;\r\n    mapping(string => address) private usernameToAddress;\r\n    mapping(uint256 => Group) public groups;\r\n    mapping(uint256 => Expense) public expenses;\r\n    mapping(uint256 => Debt[]) public groupDebts;\r\n    mapping(address => Debt[]) public userDebts;\r\n    mapping(address => mapping(uint256 => int256)) public balances;\r\n\r\n    uint256 public groupIdCounter;\r\n    uint256 public expenseIdCounter;\r\n\r\n    // Events\r\n    event UserRegistered(address indexed user, string username);\r\n    event GroupCreated(uint256 indexed groupId, address indexed owner, string name);\r\n    event MemberAdded(uint256 indexed groupId, address member);\r\n    event ExpenseAdded(uint256 indexed groupId, uint256 expenseId, uint256 amount);\r\n    event DebtSettled(uint256 indexed groupId, address indexed debtor, address indexed creditor, uint256 amount);\r\n    event SettlementMade(uint256 indexed groupId, address indexed from, address indexed to, uint256 amount);\r\n\r\n    modifier onlyGroupOwner(uint256 groupId) {\r\n        require(groups[groupId].owner == msg.sender, \"Not group owner\");\r\n        _;\r\n    }\r\n\r\n    modifier onlyGroupMember(uint256 groupId) {\r\n        require(groups[groupId].isMember[msg.sender], \"Not group member\");\r\n        _;\r\n    }\r\n\r\n    function registerUser(string memory username) external {\r\n        require(bytes(username).length > 0, \"Empty username\");\r\n        require(users[msg.sender].userAddress == address(0), \"Already registered\");\r\n        require(usernameToAddress[username] == address(0), \"Username taken\");\r\n\r\n        users[msg.sender] = User(username, msg.sender);\r\n        usernameToAddress[username] = msg.sender;\r\n        emit UserRegistered(msg.sender, username);\r\n    }\r\n\r\n    function createGroup(string memory name) external {\r\n        uint256 groupId = ++groupIdCounter;\r\n\r\n        Group storage newGroup = groups[groupId];\r\n        newGroup.id = groupId;\r\n        newGroup.name = name;\r\n        newGroup.owner = msg.sender;\r\n        newGroup.totalExpenses = 0;\r\n        newGroup.memberCount = 1;\r\n\r\n        newGroup.isMember[msg.sender] = true;\r\n        newGroup.members.push(msg.sender);\r\n\r\n        emit GroupCreated(groupId, msg.sender, name);\r\n    }\r\n\r\n    function addGroupMember(uint256 groupId, address member) external onlyGroupOwner(groupId) {\r\n        require(!groups[groupId].isMember[member], \"Already member\");\r\n        require(users[member].userAddress != address(0), \"User not registered\");\r\n\r\n        groups[groupId].isMember[member] = true;\r\n        groups[groupId].members.push(member);\r\n        groups[groupId].memberCount++;\r\n        emit MemberAdded(groupId, member);\r\n    }\r\n\r\n    function addExpense(\r\n        uint256 groupId,\r\n        uint256 totalAmount,\r\n        string[] memory participantUsernames\r\n    ) external onlyGroupMember(groupId) {\r\n        require(totalAmount > 0, \"Invalid amount\");\r\n        require(participantUsernames.length > 0, \"No participants\");\r\n\r\n        uint256 expenseId = ++expenseIdCounter;\r\n        uint256 participantCount = participantUsernames.length;\r\n        uint256 sharePerParticipantWei = (totalAmount * 1 ether) / participantCount;\r\n        uint256 distributedTotal;\r\n\r\n        Expense storage newExpense = expenses[expenseId];\r\n        newExpense.id = expenseId;\r\n        newExpense.totalAmount = totalAmount;\r\n        newExpense.remainingAmount = totalAmount;\r\n        newExpense.payer = msg.sender;\r\n        newExpense.settled = false;\r\n        newExpense.participants = new address[](participantCount);\r\n\r\n        for (uint256 i = 0; i < participantCount; ) {\r\n            address participant = getAddressFromUsername(participantUsernames[i]);\r\n            require(groups[groupId].isMember[participant], \"Not group member\");\r\n            newExpense.participants[i] = participant;\r\n\r\n            uint256 shareWei = i == participantCount - 1 \r\n                ? (totalAmount * 1 ether) - distributedTotal \r\n                : sharePerParticipantWei;\r\n\r\n            distributedTotal += shareWei;\r\n            newExpense.shares[participant] = shareWei;\r\n\r\n            if (participant != msg.sender) {\r\n                groupDebts[groupId].push(Debt({\r\n                    creditor: msg.sender,\r\n                    debtor: participant,\r\n                    amount: shareWei,\r\n                    groupId: groupId,\r\n                    settled: false\r\n                }));\r\n                userDebts[participant].push(Debt({\r\n                    creditor: msg.sender,\r\n                    debtor: participant,\r\n                    amount: shareWei,\r\n                    groupId: groupId,\r\n                    settled: false\r\n                }));\r\n\r\n                balances[participant][groupId] -= int256(shareWei);\r\n                balances[msg.sender][groupId] += int256(shareWei);\r\n            }\r\n\r\n            unchecked { ++i; }\r\n        }\r\n\r\n        groups[groupId].expenseIds.push(expenseId);\r\n        groups[groupId].totalExpenses += totalAmount;\r\n        emit ExpenseAdded(groupId, expenseId, totalAmount);\r\n    }\r\n\r\n    function settleDebtByName(\r\n        uint256 groupId,\r\n        string memory debtorUsername,\r\n        string memory creditorUsername,\r\n        uint256 paymentAmount\r\n    ) external payable {\r\n        address debtor = getAddressFromUsername(debtorUsername);\r\n        address payable creditor = payable(getAddressFromUsername(creditorUsername));\r\n\r\n        require(debtor != address(0), \"Debtor not found\");\r\n        require(creditor != address(0), \"Creditor not found\");\r\n        require(msg.sender == debtor, \"Only debtor can settle\");\r\n        require(groups[groupId].isMember[debtor] && groups[groupId].isMember[creditor], \"Not group members\");\r\n        require(creditor != debtor, \"Cannot pay yourself\");\r\n        require(paymentAmount > 0, \"Amount must be positive\");\r\n        require(msg.value == paymentAmount, \"Incorrect payment amount\");\r\n\r\n        Debt[] storage gDebts = groupDebts[groupId];\r\n        bool debtFound = false;\r\n\r\n        for (uint i = 0; i < gDebts.length; i++) {\r\n            if (gDebts[i].debtor == debtor && \r\n                gDebts[i].creditor == creditor && \r\n                !gDebts[i].settled) {\r\n\r\n                if (paymentAmount >= gDebts[i].amount) {\r\n                    paymentAmount = gDebts[i].amount;\r\n                    gDebts[i].settled = true;\r\n                    gDebts[i].amount = 0;\r\n                } else {\r\n                    gDebts[i].amount -= paymentAmount;\r\n                }\r\n\r\n                debtFound = true;\r\n                break;\r\n            }\r\n        }\r\n\r\n        require(debtFound, \"No active debt found\");\r\n\r\n        Debt[] storage uDebts = userDebts[debtor];\r\n        for (uint i = 0; i < uDebts.length; i++) {\r\n            if (uDebts[i].groupId == groupId && \r\n                uDebts[i].creditor == creditor && \r\n                !uDebts[i].settled) {\r\n\r\n                if (paymentAmount >= uDebts[i].amount) {\r\n                    uDebts[i].settled = true;\r\n                    uDebts[i].amount = 0;\r\n                } else {\r\n                    uDebts[i].amount -= paymentAmount;\r\n                }\r\n                break;\r\n            }\r\n        }\r\n\r\n        balances[debtor][groupId] += int256(paymentAmount);\r\n        balances[creditor][groupId] -= int256(paymentAmount);\r\n        creditor.transfer(paymentAmount);\r\n\r\n        emit DebtSettled(groupId, debtor, creditor, paymentAmount);\r\n        emit SettlementMade(groupId, debtor, creditor, paymentAmount);\r\n    }\r\n\r\n    function getGroupMembers(uint256 groupId) public view returns (address[] memory) {\r\n        return groups[groupId].members;\r\n    }\r\n\r\n    function getGroupExpenses(uint256 groupId) public view returns (uint256) {\r\n        return groups[groupId].totalExpenses;\r\n    }\r\n\r\n    function getGroupExpenseIds(uint256 groupId) public view returns (uint256[] memory) {\r\n        return groups[groupId].expenseIds;\r\n    }\r\n\r\n    function getUserBalance(address user, uint256 groupId) public view returns (int256) {\r\n        return balances[user][groupId];\r\n    }\r\n\r\n    function getUserBalanceFormatted(string memory username, uint256 groupId) public view returns (string memory) {\r\n        address userAddress = getAddressFromUsername(username);\r\n        require(groups[groupId].isMember[userAddress], \"User not in group\");\r\n\r\n        int256 balance = balances[userAddress][groupId];\r\n        bool isNegative = balance < 0;\r\n        uint256 absValue = isNegative ? uint256(-balance) : uint256(balance);\r\n\r\n        string memory formatted = formatAmount(absValue);\r\n        return isNegative ? string(abi.encodePacked(\"-\", formatted)) : formatted;\r\n    }\r\n\r\n    function getUserDebts(address user, uint256 groupId) public view returns (\r\n        address[] memory creditors,\r\n        string[] memory amounts,\r\n        bool[] memory settledStatus\r\n    ) {\r\n        Debt[] storage allDebts = groupDebts[groupId];\r\n\r\n        uint256 count = 0;\r\n        for (uint256 i = 0; i < allDebts.length; i++) {\r\n            if (allDebts[i].debtor == user && !allDebts[i].settled) {\r\n                count++;\r\n            }\r\n        }\r\n\r\n        creditors = new address[](count);\r\n        amounts = new string[](count);\r\n        settledStatus = new bool[](count);\r\n\r\n        uint256 index = 0;\r\n        for (uint256 i = 0; i < allDebts.length; i++) {\r\n            if (allDebts[i].debtor == user && !allDebts[i].settled) {\r\n                creditors[index] = allDebts[i].creditor;\r\n                amounts[index] = formatAmount(allDebts[i].amount);\r\n                settledStatus[index] = false;\r\n                index++;\r\n            }\r\n        }\r\n    }\r\n\r\n    function getAddressFromUsername(string memory username) public view returns (address) {\r\n        address userAddress = usernameToAddress[username];\r\n        require(userAddress != address(0), \"Username not registered\");\r\n        return userAddress;\r\n    }\r\n\r\n    function formatAmount(uint256 amountWei) public pure returns (string memory) {\r\n        uint256 whole = amountWei / 1 ether;\r\n        uint256 fractional = (amountWei % 1 ether) * 100 / 1 ether;\r\n\r\n        return string(abi.encodePacked(\r\n            Strings.toString(whole), \".\", fractional < 10 ? \"0\" : \"\", Strings.toString(fractional)\r\n        ));\r\n    }\r\n\r\n    function getAllUserBalancesFormatted(string memory username)\r\n        public view returns (string[] memory, uint256[] memory)\r\n    {\r\n        address userAddress = getAddressFromUsername(username);\r\n        uint256 groupCount = 0;\r\n\r\n        for (uint256 i = 1; i <= groupIdCounter; i++) {\r\n            if (groups[i].isMember[userAddress]) {\r\n                groupCount++;\r\n            }\r\n        }\r\n\r\n        string[] memory balanceStrings = new string[](groupCount);\r\n        uint256[] memory groupIds = new uint256[](groupCount);\r\n        uint256 index = 0;\r\n\r\n        for (uint256 i = 1; i <= groupIdCounter; i++) {\r\n            if (groups[i].isMember[userAddress]) {\r\n                balanceStrings[index] = getUserBalanceFormatted(username, i);\r\n                groupIds[index] = i;\r\n                index++;\r\n            }\r\n        }\r\n\r\n        return (balanceStrings, groupIds);\r\n    }\r\n}\r\n",
  "sourcePath": "D:\\CCBC 24-25\\Sem2\\Proj-611\\Project_code\\truffle\\contracts\\Tabx.sol",
  "compiler": {
    "name": "solc",
    "version": "0.8.19+commit.7dd6d404.Emscripten.clang"
  },
  "schemaVersion": "3.4.16",
  "updatedAt": "2025-04-11T07:01:05.309Z",
  "networkType": "ethereum",
  "devdoc": {
    "kind": "dev",
    "methods": {},
    "version": 1
  },
  "userdoc": {
    "kind": "user",
    "methods": {},
    "version": 1
  }
}