{
  "contractName": "TabxExpenseSharing",
  "abi": [
    {
      "inputs": [],
      "stateMutability": "nonpayable",
      "type": "constructor"
    },
    {
      "inputs": [
        {
          "internalType": "uint256",
          "name": "",
          "type": "uint256"
        }
      ],
      "name": "Users",
      "outputs": [
        {
          "internalType": "uint256",
          "name": "userName",
          "type": "uint256"
        },
        {
          "internalType": "address",
          "name": "contributor",
          "type": "address"
        }
      ],
      "stateMutability": "view",
      "type": "function",
      "constant": true
    },
    {
      "inputs": [],
      "name": "message",
      "outputs": [
        {
          "internalType": "string",
          "name": "",
          "type": "string"
        }
      ],
      "stateMutability": "view",
      "type": "function",
      "constant": true
    },
    {
      "inputs": [
        {
          "internalType": "string",
          "name": "newMessage",
          "type": "string"
        }
      ],
      "name": "setMessage",
      "outputs": [],
      "stateMutability": "nonpayable",
      "type": "function"
    }
  ],
  "bytecode": "0x608060405234801561001057600080fd5b506040518060400160405280600d81526020017f48656c6c6f2c20576f726c6421000000000000000000000000000000000000008152506001908051906020019061005c929190610062565b50610166565b82805461006e90610105565b90600052602060002090601f01602090048101928261009057600085556100d7565b82601f106100a957805160ff19168380011785556100d7565b828001600101855582156100d7579182015b828111156100d65782518255916020019190600101906100bb565b5b5090506100e491906100e8565b5090565b5b808211156101015760008160009055506001016100e9565b5090565b6000600282049050600182168061011d57607f821691505b6020821081141561013157610130610137565b5b50919050565b7f4e487b7100000000000000000000000000000000000000000000000000000000600052602260045260246000fd5b6105b2806101756000396000f3fe608060405234801561001057600080fd5b50600436106100415760003560e01c80631e98fd1c14610046578063368b877214610077578063e21f37ce14610093575b600080fd5b610060600480360381019061005b91906102fe565b6100b1565b60405161006e9291906103a0565b60405180910390f35b610091600480360381019061008c91906102bd565b6100f5565b005b61009b61010f565b6040516100a8919061037e565b60405180910390f35b60006020528060005260406000206000915090508060000154908060010160009054906101000a900473ffffffffffffffffffffffffffffffffffffffff16905082565b806001908051906020019061010b92919061019d565b5050565b6001805461011c906104c4565b80601f0160208091040260200160405190810160405280929190818152602001828054610148906104c4565b80156101955780601f1061016a57610100808354040283529160200191610195565b820191906000526020600020905b81548152906001019060200180831161017857829003601f168201915b505050505081565b8280546101a9906104c4565b90600052602060002090601f0160209004810192826101cb5760008555610212565b82601f106101e457805160ff1916838001178555610212565b82800160010185558215610212579182015b828111156102115782518255916020019190600101906101f6565b5b50905061021f9190610223565b5090565b5b8082111561023c576000816000905550600101610224565b5090565b600061025361024e846103fa565b6103c9565b90508281526020810184848401111561026b57600080fd5b610276848285610482565b509392505050565b600082601f83011261028f57600080fd5b813561029f848260208601610240565b91505092915050565b6000813590506102b781610565565b92915050565b6000602082840312156102cf57600080fd5b600082013567ffffffffffffffff8111156102e957600080fd5b6102f58482850161027e565b91505092915050565b60006020828403121561031057600080fd5b600061031e848285016102a8565b91505092915050565b61033081610446565b82525050565b60006103418261042a565b61034b8185610435565b935061035b818560208601610491565b61036481610554565b840191505092915050565b61037881610478565b82525050565b600060208201905081810360008301526103988184610336565b905092915050565b60006040820190506103b5600083018561036f565b6103c26020830184610327565b9392505050565b6000604051905081810181811067ffffffffffffffff821117156103f0576103ef610525565b5b8060405250919050565b600067ffffffffffffffff82111561041557610414610525565b5b601f19601f8301169050602081019050919050565b600081519050919050565b600082825260208201905092915050565b600061045182610458565b9050919050565b600073ffffffffffffffffffffffffffffffffffffffff82169050919050565b6000819050919050565b82818337600083830152505050565b60005b838110156104af578082015181840152602081019050610494565b838111156104be576000848401525b50505050565b600060028204905060018216806104dc57607f821691505b602082108114156104f0576104ef6104f6565b5b50919050565b7f4e487b7100000000000000000000000000000000000000000000000000000000600052602260045260246000fd5b7f4e487b7100000000000000000000000000000000000000000000000000000000600052604160045260246000fd5b6000601f19601f8301169050919050565b61056e81610478565b811461057957600080fd5b5056fea2646970667358221220b54fda73dc827db678161d2f37759699d452f158590e7755e36efc7ac45c719764736f6c63430008000033",
  "immutableReferences": {},
  "source": "// SPDX-License-Identifier: MIT\r\npragma solidity ^0.8.0;\r\n\r\ncontract TabxExpenseSharing {\r\n\r\n    struct User {\r\n        uint256 userName;\r\n        address contributor;\r\n    }\r\n\r\n    mapping(uint256 => User) public Users;\r\n\r\n    struct group {\r\n        string groupname;\r\n        uint256 totalGroupSpending;\r\n        uint256 personalSpend;\r\n    }\r\n\r\n    string public message;\r\n\r\n    constructor() {\r\n        message = \"Hello, World!\";\r\n    }\r\n\r\n    function setMessage(string memory newMessage) public {\r\n        message = newMessage;\r\n    }\r\n}\r\n",
  "sourcePath": "D:\\CCBC 24-25\\Sem2\\Proj-611\\Project_code\\truffle\\contracts\\Tabx.sol",
  "compiler": {
    "name": "solc",
    "version": "0.8.0+commit.c7dfd78e.Emscripten.clang"
  },
  "schemaVersion": "3.4.16",
  "updatedAt": "2025-02-09T00:20:52.077Z",
  "networkType": "ethereum",
  "devdoc": {
    "kind": "dev",
    "methods": {},
    "version": 1
  },
  "userdoc": {
    "kind": "user",
    "methods": {},
    "version": 1
  }
}