{
  "contractName": "TabX",
  "abi": [
    {
      "anonymous": false,
      "inputs": [
        {
          "indexed": true,
          "internalType": "uint256",
          "name": "groupId",
          "type": "uint256"
        },
        {
          "indexed": true,
          "internalType": "address",
          "name": "debtor",
          "type": "address"
        },
        {
          "indexed": true,
          "internalType": "address",
          "name": "creditor",
          "type": "address"
        },
        {
          "indexed": false,
          "internalType": "uint256",
          "name": "amount",
          "type": "uint256"
        }
      ],
      "name": "DebtSettled",
      "type": "event"
    },
    {
      "anonymous": false,
      "inputs": [
        {
          "indexed": true,
          "internalType": "uint256",
          "name": "groupId",
          "type": "uint256"
        },
        {
          "indexed": true,
          "internalType": "address",
          "name": "owner",
          "type": "address"
        },
        {
          "indexed": false,
          "internalType": "string",
          "name": "name",
          "type": "string"
        }
      ],
      "name": "GroupCreated",
      "type": "event"
    },
    {
      "anonymous": false,
      "inputs": [
        {
          "indexed": true,
          "internalType": "uint256",
          "name": "groupId",
          "type": "uint256"
        }
      ],
      "name": "GroupDeleted",
      "type": "event"
    },
    {
      "anonymous": false,
      "inputs": [
        {
          "indexed": true,
          "internalType": "uint256",
          "name": "groupId",
          "type": "uint256"
        },
        {
          "indexed": false,
          "internalType": "address",
          "name": "member",
          "type": "address"
        }
      ],
      "name": "MemberAdded",
      "type": "event"
    },
    {
      "anonymous": false,
      "inputs": [
        {
          "indexed": true,
          "internalType": "uint256",
          "name": "groupId",
          "type": "uint256"
        },
        {
          "indexed": false,
          "internalType": "address",
          "name": "member",
          "type": "address"
        }
      ],
      "name": "MemberRemoved",
      "type": "event"
    },
    {
      "anonymous": false,
      "inputs": [
        {
          "indexed": true,
          "internalType": "address",
          "name": "user",
          "type": "address"
        },
        {
          "indexed": false,
          "internalType": "string",
          "name": "username",
          "type": "string"
        }
      ],
      "name": "UserRegistered",
      "type": "event"
    },
    {
      "inputs": [
        {
          "internalType": "uint256",
          "name": "",
          "type": "uint256"
        },
        {
          "internalType": "address",
          "name": "",
          "type": "address"
        },
        {
          "internalType": "address",
          "name": "",
          "type": "address"
        }
      ],
      "name": "debtSettled",
      "outputs": [
        {
          "internalType": "bool",
          "name": "",
          "type": "bool"
        }
      ],
      "stateMutability": "view",
      "type": "function",
      "constant": true
    },
    {
      "inputs": [],
      "name": "groupCount",
      "outputs": [
        {
          "internalType": "uint256",
          "name": "",
          "type": "uint256"
        }
      ],
      "stateMutability": "view",
      "type": "function",
      "constant": true
    },
    {
      "inputs": [
        {
          "internalType": "address",
          "name": "",
          "type": "address"
        }
      ],
      "name": "registered",
      "outputs": [
        {
          "internalType": "bool",
          "name": "",
          "type": "bool"
        }
      ],
      "stateMutability": "view",
      "type": "function",
      "constant": true
    },
    {
      "inputs": [
        {
          "internalType": "address",
          "name": "",
          "type": "address"
        }
      ],
      "name": "usernameOf",
      "outputs": [
        {
          "internalType": "string",
          "name": "",
          "type": "string"
        }
      ],
      "stateMutability": "view",
      "type": "function",
      "constant": true
    },
    {
      "inputs": [
        {
          "internalType": "string",
          "name": "username",
          "type": "string"
        }
      ],
      "name": "registerUser",
      "outputs": [],
      "stateMutability": "nonpayable",
      "type": "function"
    },
    {
      "inputs": [
        {
          "internalType": "string",
          "name": "name",
          "type": "string"
        }
      ],
      "name": "createGroup",
      "outputs": [],
      "stateMutability": "nonpayable",
      "type": "function"
    },
    {
      "inputs": [
        {
          "internalType": "uint256",
          "name": "groupId",
          "type": "uint256"
        }
      ],
      "name": "deleteGroup",
      "outputs": [],
      "stateMutability": "nonpayable",
      "type": "function"
    },
    {
      "inputs": [
        {
          "internalType": "uint256",
          "name": "groupId",
          "type": "uint256"
        },
        {
          "internalType": "address",
          "name": "member",
          "type": "address"
        }
      ],
      "name": "addMember",
      "outputs": [],
      "stateMutability": "nonpayable",
      "type": "function"
    },
    {
      "inputs": [
        {
          "internalType": "uint256",
          "name": "groupId",
          "type": "uint256"
        },
        {
          "internalType": "address",
          "name": "member",
          "type": "address"
        }
      ],
      "name": "removeMember",
      "outputs": [],
      "stateMutability": "nonpayable",
      "type": "function"
    },
    {
      "inputs": [
        {
          "internalType": "uint256",
          "name": "groupId",
          "type": "uint256"
        },
        {
          "internalType": "string",
          "name": "debtorUsername",
          "type": "string"
        },
        {
          "internalType": "uint256",
          "name": "paymentAmount",
          "type": "uint256"
        }
      ],
      "name": "settleDebtByName",
      "outputs": [],
      "stateMutability": "payable",
      "type": "function",
      "payable": true
    },
    {
      "inputs": [
        {
          "internalType": "uint256",
          "name": "groupId",
          "type": "uint256"
        }
      ],
      "name": "getGroupMembers",
      "outputs": [
        {
          "internalType": "address[]",
          "name": "",
          "type": "address[]"
        }
      ],
      "stateMutability": "view",
      "type": "function",
      "constant": true
    },
    {
      "inputs": [
        {
          "internalType": "uint256",
          "name": "groupId",
          "type": "uint256"
        },
        {
          "internalType": "address",
          "name": "debtor",
          "type": "address"
        },
        {
          "internalType": "address",
          "name": "creditor",
          "type": "address"
        }
      ],
      "name": "isSettled",
      "outputs": [
        {
          "internalType": "bool",
          "name": "",
          "type": "bool"
        }
      ],
      "stateMutability": "view",
      "type": "function",
      "constant": true
    },
    {
      "inputs": [
        {
          "internalType": "uint256",
          "name": "groupId",
          "type": "uint256"
        }
      ],
      "name": "getGroupInfo",
      "outputs": [
        {
          "internalType": "uint256",
          "name": "id",
          "type": "uint256"
        },
        {
          "internalType": "string",
          "name": "name",
          "type": "string"
        },
        {
          "internalType": "address",
          "name": "owner",
          "type": "address"
        },
        {
          "internalType": "bool",
          "name": "exists",
          "type": "bool"
        }
      ],
      "stateMutability": "view",
      "type": "function",
      "constant": true
    }
  ],
  "bytecode": "0x608060405234801561001057600080fd5b50611660806100206000396000f3fe6080604052600436106100c25760003560e01c80637898acef1161007f578063b2dd5c0711610059578063b2dd5c071461024d578063b86fbcd31461027d578063dc2ddcae146102cb578063ff7c1300146102eb57600080fd5b80637898acef146101cc5780638f23b326146101f957806399d4360f1461021d57600080fd5b80631303b316146100c757806336cc81301461011d57806345d88d2d1461014a5780636be7658b1461016c578063704f1b941461018c57806374d0a676146101ac575b600080fd5b3480156100d357600080fd5b506101086100e23660046110c7565b600460209081526000938452604080852082529284528284209052825290205460ff1681565b60405190151581526020015b60405180910390f35b34801561012957600080fd5b5061013d610138366004611103565b6102fe565b604051610114919061111c565b34801561015657600080fd5b5061016a610165366004611103565b6103ac565b005b34801561017857600080fd5b5061016a610187366004611169565b61048f565b34801561019857600080fd5b5061016a6101a73660046111de565b61075e565b3480156101b857600080fd5b5061016a6101c7366004611169565b610876565b3480156101d857600080fd5b506101ec6101e7366004611220565b610a67565b6040516101149190611288565b34801561020557600080fd5b5061020f60035481565b604051908152602001610114565b34801561022957600080fd5b5061023d610238366004611103565b610b01565b604051610114949392919061129b565b34801561025957600080fd5b50610108610268366004611220565b60006020819052908152604090205460ff1681565b34801561028957600080fd5b506101086102983660046110c7565b60009283526004602090815260408085206001600160a01b03948516865282528085209290931684525290205460ff1690565b3480156102d757600080fd5b5061016a6102e63660046111de565b610c0c565b61016a6102f93660046112d5565b610d67565b600081815260026020526040902060050154606090829060ff1661033d5760405162461bcd60e51b815260040161033490611328565b60405180910390fd5b6000838152600260209081526040918290206003018054835181840281018401909452808452909183018282801561039e57602002820191906000526020600020905b81546001600160a01b03168152600190910190602001808311610380575b505050505091505b50919050565b3360009081526020819052604090205460ff166103db5760405162461bcd60e51b815260040161033490611356565b600081815260026020526040902060050154819060ff1661040e5760405162461bcd60e51b815260040161033490611328565b6000828152600260208190526040909120015482906001600160a01b0316331461044a5760405162461bcd60e51b81526004016103349061137e565b600083815260026020526040808220600501805460ff191690555184917f05f39787bb37d43683a578f1d720308a1e4cd944934f11f73c9564925aca900d91a2505050565b3360009081526020819052604090205460ff166104be5760405162461bcd60e51b815260040161033490611356565b600082815260026020526040902060050154829060ff166104f15760405162461bcd60e51b815260040161033490611328565b6000838152600260208190526040909120015483906001600160a01b0316331461052d5760405162461bcd60e51b81526004016103349061137e565b60008481526002602090815260408083206001600160a01b0387168452600481019092529091205460ff166105935760405162461bcd60e51b815260206004820152600c60248201526b2737ba10309036b2b6b132b960a11b6044820152606401610334565b60028101546001600160a01b03908116908516036105e95760405162461bcd60e51b815260206004820152601360248201527221b0b73737ba103932b6b7bb329037bbb732b960691b6044820152606401610334565b6001600160a01b03841660009081526004820160205260408120805460ff1916905560038201905b815481101561071757856001600160a01b0316828281548110610636576106366113a7565b6000918252602090912001546001600160a01b0316036107055781548290610660906001906113d3565b81548110610670576106706113a7565b9060005260206000200160009054906101000a90046001600160a01b03168282815481106106a0576106a06113a7565b9060005260206000200160006101000a8154816001600160a01b0302191690836001600160a01b03160217905550818054806106de576106de6113ec565b600082815260209020810160001990810180546001600160a01b0319169055019055610717565b8061070f81611402565b915050610611565b506040516001600160a01b038616815286907f1c4c9d2e56d0635d11bc47c997c6909a0d7061f55cbb8f4b27386db37553191c9060200160405180910390a2505050505050565b3360009081526020819052604090205460ff16156107b35760405162461bcd60e51b8152602060048201526012602482015271105b1c9958591e481c9959da5cdd195c995960721b6044820152606401610334565b806108005760405162461bcd60e51b815260206004820152601860248201527f557365726e616d652063616e6e6f7420626520656d70747900000000000000006044820152606401610334565b33600090815260208181526040808320805460ff19166001908117909155909152902061082e8284836114b4565b50336001600160a01b03167f48cac28ad4dc618e15f4c2dd5e97751182f166de97b25618318b2112aa951a2f838360405161086a929190611575565b60405180910390a25050565b3360009081526020819052604090205460ff166108a55760405162461bcd60e51b815260040161033490611356565b600082815260026020526040902060050154829060ff166108d85760405162461bcd60e51b815260040161033490611328565b6000838152600260208190526040909120015483906001600160a01b031633146109145760405162461bcd60e51b81526004016103349061137e565b6001600160a01b03831660009081526020819052604090205460ff166109745760405162461bcd60e51b815260206004820152601560248201527413595b58995c881b9bdd081c9959da5cdd195c9959605a1b6044820152606401610334565b60008481526002602090815260408083206001600160a01b0387168452600481019092529091205460ff16156109df5760405162461bcd60e51b815260206004820152601060248201526f20b63932b0b23c90309036b2b6b132b960811b6044820152606401610334565b6001600160a01b03841660008181526004830160209081526040808320805460ff19166001908117909155600386018054918201815584529282902090920180546001600160a01b03191684179055905191825286917ff328ac0f8bcae00933fe87ba0aa2d0d505c1df94bc9c1aa05b8441c28b74032c910160405180910390a25050505050565b60016020526000908152604090208054610a8090611431565b80601f0160208091040260200160405190810160405280929190818152602001828054610aac90611431565b8015610af95780601f10610ace57610100808354040283529160200191610af9565b820191906000526020600020905b815481529060010190602001808311610adc57829003601f168201915b505050505081565b60008181526002602052604081206005015460609082908190859060ff16610b3b5760405162461bcd60e51b815260040161033490611328565b6000868152600260208190526040909120805491810154600582015460018301805493949390926001600160a01b03169160ff16908390610b7b90611431565b80601f0160208091040260200160405190810160405280929190818152602001828054610ba790611431565b8015610bf45780601f10610bc957610100808354040283529160200191610bf4565b820191906000526020600020905b815481529060010190602001808311610bd757829003601f168201915b50505050509250955095509550955050509193509193565b3360009081526020819052604090205460ff16610c3b5760405162461bcd60e51b815260040161033490611356565b80610c885760405162461bcd60e51b815260206004820152601a60248201527f47726f7570206e616d652063616e6e6f7420626520656d7074790000000000006044820152606401610334565b6000600360008154610c9990611402565b9182905550600081815260026020526040902081815590915060018101610cc18486836114b4565b50600281018054336001600160a01b0319918216811790925560058301805460ff1990811660019081179092556000848152600486016020908152604080832080549094168517909355600387018054948501815582529020909101805490921683179091555183907f4354295f5d98820e66a770bd58cf23606ab255dd9dc2daf870fab38ecbc3e7e090610d599088908890611575565b60405180910390a350505050565b600084815260026020526040902060050154849060ff16610d9a5760405162461bcd60e51b815260040161033490611328565b3360008181526020819052604090205460ff16610df15760405162461bcd60e51b81526020600482015260156024820152741119589d1bdc881b9bdd081c9959da5cdd195c9959605a1b6044820152606401610334565b60008311610e415760405162461bcd60e51b815260206004820152601760248201527f416d6f756e74206d75737420626520706f7369746976650000000000000000006044820152606401610334565b823414610e905760405162461bcd60e51b815260206004820152601860248201527f496e636f7272656374207061796d656e7420616d6f756e7400000000000000006044820152606401610334565b8484604051610ea09291906115a4565b604080519182900382206001600160a01b03841660009081526001602052919091209091610ece91906115b4565b604051809103902014610f235760405162461bcd60e51b815260206004820152601860248201527f446562746f7220757365726e616d65206d69736d6174636800000000000000006044820152606401610334565b60008681526002602090815260408083206001600160a01b0385168452600481019092529091205460ff16610f905760405162461bcd60e51b81526020600482015260136024820152720446562746f72206e6f7420696e2067726f757606c1b6044820152606401610334565b60005b6003820154811015611064576000826003018281548110610fb657610fb66113a7565b6000918252602090912001546001600160a01b039081169150841681146110515760008981526004602090815260408083206001600160a01b03808916808652918452828520908616808652935292819020805460ff19166001179055519091908b907f16c014bb6d1c6cc25e4d9c2ffff2d5052bc083462038999100ead76edf97bee090611048908b815260200190565b60405180910390a45b508061105c81611402565b915050610f93565b5060028101546040516001600160a01b039091169085156108fc029086906000818181858888f193505050501580156110a1573d6000803e3d6000fd5b5050505050505050565b80356001600160a01b03811681146110c257600080fd5b919050565b6000806000606084860312156110dc57600080fd5b833592506110ec602085016110ab565b91506110fa604085016110ab565b90509250925092565b60006020828403121561111557600080fd5b5035919050565b6020808252825182820181905260009190848201906040850190845b8181101561115d5783516001600160a01b031683529284019291840191600101611138565b50909695505050505050565b6000806040838503121561117c57600080fd5b8235915061118c602084016110ab565b90509250929050565b60008083601f8401126111a757600080fd5b50813567ffffffffffffffff8111156111bf57600080fd5b6020830191508360208285010111156111d757600080fd5b9250929050565b600080602083850312156111f157600080fd5b823567ffffffffffffffff81111561120857600080fd5b61121485828601611195565b90969095509350505050565b60006020828403121561123257600080fd5b61123b826110ab565b9392505050565b6000815180845260005b818110156112685760208185018101518683018201520161124c565b506000602082860101526020601f19601f83011685010191505092915050565b60208152600061123b6020830184611242565b8481526080602082015260006112b46080830186611242565b6001600160a01b039490941660408301525090151560609091015292915050565b600080600080606085870312156112eb57600080fd5b84359350602085013567ffffffffffffffff81111561130957600080fd5b61131587828801611195565b9598909750949560400135949350505050565b60208082526014908201527311dc9bdd5c08191bd95cc81b9bdd08195e1a5cdd60621b604082015260600190565b6020808252600e908201526d139bdd081c9959da5cdd195c995960921b604082015260600190565b6020808252600f908201526e2737ba1033b937bab81037bbb732b960891b604082015260600190565b634e487b7160e01b600052603260045260246000fd5b634e487b7160e01b600052601160045260246000fd5b818103818111156113e6576113e66113bd565b92915050565b634e487b7160e01b600052603160045260246000fd5b600060018201611414576114146113bd565b5060010190565b634e487b7160e01b600052604160045260246000fd5b600181811c9082168061144557607f821691505b6020821081036103a657634e487b7160e01b600052602260045260246000fd5b601f8211156114af57600081815260208120601f850160051c8101602086101561148c5750805b601f850160051c820191505b818110156114ab57828155600101611498565b5050505b505050565b67ffffffffffffffff8311156114cc576114cc61141b565b6114e0836114da8354611431565b83611465565b6000601f84116001811461151457600085156114fc5750838201355b600019600387901b1c1916600186901b17835561156e565b600083815260209020601f19861690835b828110156115455786850135825560209485019460019092019101611525565b50868210156115625760001960f88860031b161c19848701351681555b505060018560011b0183555b5050505050565b60208152816020820152818360408301376000818301604090810191909152601f909201601f19160101919050565b8183823760009101908152919050565b60008083546115c281611431565b600182811680156115da57600181146115ef5761161e565b60ff198416875282151583028701945061161e565b8760005260208060002060005b858110156116155781548a8201529084019082016115fc565b50505082870194505b5092969550505050505056fea2646970667358221220134a5cd058123f8c422ae90d14c45764b866484b1528d91cd27f50ab0585e47164736f6c63430008130033",
  "immutableReferences": {},
  "source": "// SPDX-License-Identifier: MIT\r\npragma solidity ^0.8.0;\r\n\r\ncontract TabX {\r\n    struct Group {\r\n        uint256 id;\r\n        string name;\r\n        address owner;\r\n        address[] members;\r\n        mapping(address => bool) isMember;\r\n        bool exists;\r\n    }\r\n\r\n    // user registry\r\n    mapping(address => bool) public registered;\r\n    mapping(address => string) public usernameOf;\r\n\r\n    // groups\r\n    mapping(uint256 => Group) private groups;\r\n    uint256 public groupCount;\r\n\r\n    // debt settlement flag: groupId  debtor  creditor  settled\r\n    mapping(uint256 => mapping(address => mapping(address => bool))) public debtSettled;\r\n\r\n    // events\r\n    event UserRegistered(address indexed user, string username);\r\n    event GroupCreated(uint256 indexed groupId, address indexed owner, string name);\r\n    event GroupDeleted(uint256 indexed groupId);\r\n    event MemberAdded(uint256 indexed groupId, address member);\r\n    event MemberRemoved(uint256 indexed groupId, address member);\r\n    event DebtSettled(uint256 indexed groupId, address indexed debtor, address indexed creditor, uint256 amount);\r\n\r\n    // modifiers\r\n    modifier onlyRegistered() {\r\n        require(registered[msg.sender], \"Not registered\");\r\n        _;\r\n    }\r\n\r\n    modifier groupExists(uint256 groupId) {\r\n        require(groups[groupId].exists, \"Group does not exist\");\r\n        _;\r\n    }\r\n\r\n    modifier onlyGroupOwner(uint256 groupId) {\r\n        require(groups[groupId].owner == msg.sender, \"Not group owner\");\r\n        _;\r\n    }\r\n\r\n    /// @notice Register yourself with a username\r\n    function registerUser(string calldata username) external {\r\n        require(!registered[msg.sender], \"Already registered\");\r\n        require(bytes(username).length > 0, \"Username cannot be empty\");\r\n\r\n        registered[msg.sender] = true;\r\n        usernameOf[msg.sender] = username;\r\n        emit UserRegistered(msg.sender, username);\r\n    }\r\n\r\n    /// @notice Create a new group\r\n    function createGroup(string calldata name) external onlyRegistered {\r\n        require(bytes(name).length > 0, \"Group name cannot be empty\");\r\n\r\n        uint256 gid = ++groupCount;\r\n        Group storage g = groups[gid];\r\n        g.id = gid;\r\n        g.name = name;\r\n        g.owner = msg.sender;\r\n        g.exists = true;\r\n\r\n        // owner is first member\r\n        g.isMember[msg.sender] = true;\r\n        g.members.push(msg.sender);\r\n\r\n        emit GroupCreated(gid, msg.sender, name);\r\n    }\r\n\r\n    /// @notice Delete a group (only owner)\r\n    function deleteGroup(uint256 groupId)\r\n        external\r\n        onlyRegistered\r\n        groupExists(groupId)\r\n        onlyGroupOwner(groupId)\r\n    {\r\n        groups[groupId].exists = false;\r\n        emit GroupDeleted(groupId);\r\n    }\r\n\r\n    /// @notice Add a member to a group (owner only)\r\n    function addMember(uint256 groupId, address member)\r\n        external\r\n        onlyRegistered\r\n        groupExists(groupId)\r\n        onlyGroupOwner(groupId)\r\n    {\r\n        require(registered[member], \"Member not registered\");\r\n        Group storage g = groups[groupId];\r\n        require(!g.isMember[member], \"Already a member\");\r\n\r\n        g.isMember[member] = true;\r\n        g.members.push(member);\r\n        emit MemberAdded(groupId, member);\r\n    }\r\n\r\n    /// @notice Remove a member from a group (owner only)\r\n    function removeMember(uint256 groupId, address member)\r\n        external\r\n        onlyRegistered\r\n        groupExists(groupId)\r\n        onlyGroupOwner(groupId)\r\n    {\r\n        Group storage g = groups[groupId];\r\n        require(g.isMember[member], \"Not a member\");\r\n        require(member != g.owner, \"Cannot remove owner\");\r\n\r\n        g.isMember[member] = false;\r\n\r\n        address[] storage mems = g.members;\r\n        for (uint256 i = 0; i < mems.length; i++) {\r\n            if (mems[i] == member) {\r\n                mems[i] = mems[mems.length - 1];\r\n                mems.pop();\r\n                break;\r\n            }\r\n        }\r\n\r\n        emit MemberRemoved(groupId, member);\r\n    }\r\n\r\n    /// @notice Settle the debt you owe to a creditor in a group\r\n    /// @dev creditorUsername is unused on-chain; kept for off-chain alignment\r\n    function settleDebtByName(\r\n        uint256 groupId,\r\n        string calldata debtorUsername,\r\n        /*string calldata creditorUsername,*/\r\n        uint256 paymentAmount\r\n    ) external payable groupExists(groupId) {\r\n        address debtor = msg.sender;\r\n        require(registered[debtor], \"Debtor not registered\");\r\n        require(paymentAmount > 0, \"Amount must be positive\");\r\n        require(msg.value == paymentAmount, \"Incorrect payment amount\");\r\n\r\n        // verify debtorUsername matches\r\n        require(\r\n            keccak256(bytes(usernameOf[debtor])) == keccak256(bytes(debtorUsername)),\r\n            \"Debtor username mismatch\"\r\n        );\r\n\r\n        // ensure membership\r\n        Group storage g = groups[groupId];\r\n        require(g.isMember[debtor], \"Debtor not in group\");\r\n\r\n        // here off-chain you would supply creditor address\r\n        // for on-chain, we trust msg.value distribution and mark settled\r\n        // (credential mapping not stored on-chain in this design)\r\n        // thus we simply emit event and mark generic flag\r\n        // NOTE: in real use, pass creditor address instead of username\r\n\r\n        // mark debt settled for all creditor entries (simplified)\r\n        // In a full design you'd specify creditorAddress\r\n        // but here we mark all debts from debtor in group as settled\r\n        for (uint i = 0; i < g.members.length; i++) {\r\n            address cred = g.members[i];\r\n            if (cred != debtor) {\r\n                debtSettled[groupId][debtor][cred] = true;\r\n                emit DebtSettled(groupId, debtor, cred, paymentAmount);\r\n            }\r\n        }\r\n\r\n        // forward funds to group owner as placeholder\r\n        payable(g.owner).transfer(paymentAmount);\r\n    }\r\n\r\n    /// @notice Get members of a group\r\n    function getGroupMembers(uint256 groupId)\r\n        external\r\n        view\r\n        groupExists(groupId)\r\n        returns (address[] memory)\r\n    {\r\n        return groups[groupId].members;\r\n    }\r\n\r\n    /// @notice Check if a specific debt is settled\r\n    function isSettled(uint256 groupId, address debtor, address creditor)\r\n        external\r\n        view\r\n        returns (bool)\r\n    {\r\n        return debtSettled[groupId][debtor][creditor];\r\n    }\r\n\r\n        /// @notice Return the basic info for a group\r\n    function getGroupInfo(uint256 groupId)\r\n      external\r\n      view\r\n      groupExists(groupId)\r\n      returns (\r\n        uint256 id,\r\n        string memory name,\r\n        address owner,\r\n        bool exists\r\n      )\r\n    {\r\n      Group storage g = groups[groupId];\r\n      return (g.id, g.name, g.owner, g.exists);\r\n    }\r\n\r\n}\r\n",
  "sourcePath": "D:\\CCBC 24-25\\Sem2\\Proj-611\\Project_code\\truffle\\contracts\\Tabx.sol",
  "compiler": {
    "name": "solc",
    "version": "0.8.19+commit.7dd6d404.Emscripten.clang"
  },
  "schemaVersion": "3.4.16",
  "updatedAt": "2025-04-22T23:27:47.910Z",
  "networkType": "ethereum",
  "devdoc": {
    "kind": "dev",
    "methods": {
      "settleDebtByName(uint256,string,uint256)": {
        "details": "creditorUsername is unused on-chain; kept for off-chain alignment"
      }
    },
    "version": 1
  },
  "userdoc": {
    "kind": "user",
    "methods": {
      "addMember(uint256,address)": {
        "notice": "Add a member to a group (owner only)"
      },
      "createGroup(string)": {
        "notice": "Create a new group"
      },
      "deleteGroup(uint256)": {
        "notice": "Delete a group (only owner)"
      },
      "getGroupInfo(uint256)": {
        "notice": "Return the basic info for a group"
      },
      "getGroupMembers(uint256)": {
        "notice": "Get members of a group"
      },
      "isSettled(uint256,address,address)": {
        "notice": "Check if a specific debt is settled"
      },
      "registerUser(string)": {
        "notice": "Register yourself with a username"
      },
      "removeMember(uint256,address)": {
        "notice": "Remove a member from a group (owner only)"
      },
      "settleDebtByName(uint256,string,uint256)": {
        "notice": "Settle the debt you owe to a creditor in a group"
      }
    },
    "version": 1
  }
}