{
  "contractName": "TabX",
  "abi": [
    {
      "anonymous": false,
      "inputs": [
        {
          "indexed": true,
          "internalType": "uint256",
          "name": "groupId",
          "type": "uint256"
        },
        {
          "indexed": true,
          "internalType": "address",
          "name": "debtor",
          "type": "address"
        },
        {
          "indexed": true,
          "internalType": "address",
          "name": "creditor",
          "type": "address"
        },
        {
          "indexed": false,
          "internalType": "uint256",
          "name": "amount",
          "type": "uint256"
        }
      ],
      "name": "DebtSettled",
      "type": "event"
    },
    {
      "anonymous": false,
      "inputs": [
        {
          "indexed": true,
          "internalType": "uint256",
          "name": "groupId",
          "type": "uint256"
        },
        {
          "indexed": false,
          "internalType": "address",
          "name": "debtor",
          "type": "address"
        },
        {
          "indexed": false,
          "internalType": "address",
          "name": "creditor",
          "type": "address"
        },
        {
          "indexed": false,
          "internalType": "int256",
          "name": "debtorBalance",
          "type": "int256"
        },
        {
          "indexed": false,
          "internalType": "int256",
          "name": "creditorBalance",
          "type": "int256"
        },
        {
          "indexed": false,
          "internalType": "uint256",
          "name": "paymentSent",
          "type": "uint256"
        }
      ],
      "name": "DebugInfo",
      "type": "event"
    },
    {
      "anonymous": false,
      "inputs": [
        {
          "indexed": true,
          "internalType": "uint256",
          "name": "groupId",
          "type": "uint256"
        },
        {
          "indexed": false,
          "internalType": "uint256",
          "name": "expenseId",
          "type": "uint256"
        },
        {
          "indexed": false,
          "internalType": "uint256",
          "name": "amount",
          "type": "uint256"
        }
      ],
      "name": "ExpenseAdded",
      "type": "event"
    },
    {
      "anonymous": false,
      "inputs": [
        {
          "indexed": true,
          "internalType": "uint256",
          "name": "groupId",
          "type": "uint256"
        },
        {
          "indexed": false,
          "internalType": "uint256",
          "name": "expenseId",
          "type": "uint256"
        }
      ],
      "name": "ExpenseSettled",
      "type": "event"
    },
    {
      "anonymous": false,
      "inputs": [
        {
          "indexed": true,
          "internalType": "uint256",
          "name": "groupId",
          "type": "uint256"
        },
        {
          "indexed": true,
          "internalType": "address",
          "name": "owner",
          "type": "address"
        },
        {
          "indexed": false,
          "internalType": "string",
          "name": "name",
          "type": "string"
        }
      ],
      "name": "GroupCreated",
      "type": "event"
    },
    {
      "anonymous": false,
      "inputs": [
        {
          "indexed": true,
          "internalType": "uint256",
          "name": "groupId",
          "type": "uint256"
        },
        {
          "indexed": false,
          "internalType": "address",
          "name": "member",
          "type": "address"
        }
      ],
      "name": "MemberAdded",
      "type": "event"
    },
    {
      "anonymous": false,
      "inputs": [
        {
          "indexed": true,
          "internalType": "uint256",
          "name": "groupId",
          "type": "uint256"
        },
        {
          "indexed": true,
          "internalType": "address",
          "name": "payer",
          "type": "address"
        },
        {
          "indexed": false,
          "internalType": "uint256",
          "name": "amount",
          "type": "uint256"
        }
      ],
      "name": "PaymentMade",
      "type": "event"
    },
    {
      "anonymous": false,
      "inputs": [
        {
          "indexed": true,
          "internalType": "uint256",
          "name": "groupId",
          "type": "uint256"
        },
        {
          "indexed": true,
          "internalType": "address",
          "name": "from",
          "type": "address"
        },
        {
          "indexed": true,
          "internalType": "address",
          "name": "to",
          "type": "address"
        },
        {
          "indexed": false,
          "internalType": "uint256",
          "name": "amount",
          "type": "uint256"
        }
      ],
      "name": "SettlementMade",
      "type": "event"
    },
    {
      "anonymous": false,
      "inputs": [
        {
          "indexed": true,
          "internalType": "address",
          "name": "user",
          "type": "address"
        },
        {
          "indexed": false,
          "internalType": "string",
          "name": "username",
          "type": "string"
        }
      ],
      "name": "UserRegistered",
      "type": "event"
    },
    {
      "inputs": [
        {
          "internalType": "address",
          "name": "",
          "type": "address"
        },
        {
          "internalType": "uint256",
          "name": "",
          "type": "uint256"
        }
      ],
      "name": "balances",
      "outputs": [
        {
          "internalType": "int256",
          "name": "",
          "type": "int256"
        }
      ],
      "stateMutability": "view",
      "type": "function",
      "constant": true
    },
    {
      "inputs": [],
      "name": "expenseIdCounter",
      "outputs": [
        {
          "internalType": "uint256",
          "name": "",
          "type": "uint256"
        }
      ],
      "stateMutability": "view",
      "type": "function",
      "constant": true
    },
    {
      "inputs": [
        {
          "internalType": "uint256",
          "name": "",
          "type": "uint256"
        }
      ],
      "name": "expenses",
      "outputs": [
        {
          "internalType": "uint256",
          "name": "id",
          "type": "uint256"
        },
        {
          "internalType": "uint256",
          "name": "totalAmount",
          "type": "uint256"
        },
        {
          "internalType": "uint256",
          "name": "remainingAmount",
          "type": "uint256"
        },
        {
          "internalType": "address",
          "name": "payer",
          "type": "address"
        },
        {
          "internalType": "bool",
          "name": "settled",
          "type": "bool"
        }
      ],
      "stateMutability": "view",
      "type": "function",
      "constant": true
    },
    {
      "inputs": [
        {
          "internalType": "uint256",
          "name": "",
          "type": "uint256"
        },
        {
          "internalType": "uint256",
          "name": "",
          "type": "uint256"
        }
      ],
      "name": "groupDebts",
      "outputs": [
        {
          "internalType": "address",
          "name": "creditor",
          "type": "address"
        },
        {
          "internalType": "address",
          "name": "debtor",
          "type": "address"
        },
        {
          "internalType": "uint256",
          "name": "amount",
          "type": "uint256"
        },
        {
          "internalType": "uint256",
          "name": "groupId",
          "type": "uint256"
        },
        {
          "internalType": "bool",
          "name": "settled",
          "type": "bool"
        }
      ],
      "stateMutability": "view",
      "type": "function",
      "constant": true
    },
    {
      "inputs": [],
      "name": "groupIdCounter",
      "outputs": [
        {
          "internalType": "uint256",
          "name": "",
          "type": "uint256"
        }
      ],
      "stateMutability": "view",
      "type": "function",
      "constant": true
    },
    {
      "inputs": [
        {
          "internalType": "uint256",
          "name": "",
          "type": "uint256"
        }
      ],
      "name": "groups",
      "outputs": [
        {
          "internalType": "uint256",
          "name": "id",
          "type": "uint256"
        },
        {
          "internalType": "string",
          "name": "name",
          "type": "string"
        },
        {
          "internalType": "address",
          "name": "owner",
          "type": "address"
        },
        {
          "internalType": "uint256",
          "name": "totalExpenses",
          "type": "uint256"
        },
        {
          "internalType": "uint256",
          "name": "memberCount",
          "type": "uint256"
        }
      ],
      "stateMutability": "view",
      "type": "function",
      "constant": true
    },
    {
      "inputs": [
        {
          "internalType": "address",
          "name": "",
          "type": "address"
        },
        {
          "internalType": "uint256",
          "name": "",
          "type": "uint256"
        }
      ],
      "name": "userDebts",
      "outputs": [
        {
          "internalType": "address",
          "name": "creditor",
          "type": "address"
        },
        {
          "internalType": "address",
          "name": "debtor",
          "type": "address"
        },
        {
          "internalType": "uint256",
          "name": "amount",
          "type": "uint256"
        },
        {
          "internalType": "uint256",
          "name": "groupId",
          "type": "uint256"
        },
        {
          "internalType": "bool",
          "name": "settled",
          "type": "bool"
        }
      ],
      "stateMutability": "view",
      "type": "function",
      "constant": true
    },
    {
      "inputs": [
        {
          "internalType": "address",
          "name": "",
          "type": "address"
        }
      ],
      "name": "users",
      "outputs": [
        {
          "internalType": "string",
          "name": "username",
          "type": "string"
        },
        {
          "internalType": "address",
          "name": "userAddress",
          "type": "address"
        }
      ],
      "stateMutability": "view",
      "type": "function",
      "constant": true
    },
    {
      "inputs": [
        {
          "internalType": "string",
          "name": "username",
          "type": "string"
        }
      ],
      "name": "registerUser",
      "outputs": [],
      "stateMutability": "nonpayable",
      "type": "function"
    },
    {
      "inputs": [
        {
          "internalType": "string",
          "name": "name",
          "type": "string"
        }
      ],
      "name": "createGroup",
      "outputs": [],
      "stateMutability": "nonpayable",
      "type": "function"
    },
    {
      "inputs": [
        {
          "internalType": "uint256",
          "name": "groupId",
          "type": "uint256"
        },
        {
          "internalType": "address",
          "name": "member",
          "type": "address"
        }
      ],
      "name": "addGroupMember",
      "outputs": [],
      "stateMutability": "nonpayable",
      "type": "function"
    },
    {
      "inputs": [
        {
          "internalType": "uint256",
          "name": "groupId",
          "type": "uint256"
        },
        {
          "internalType": "uint256",
          "name": "totalAmount",
          "type": "uint256"
        },
        {
          "internalType": "string[]",
          "name": "participantUsernames",
          "type": "string[]"
        }
      ],
      "name": "addExpense",
      "outputs": [],
      "stateMutability": "nonpayable",
      "type": "function"
    },
    {
      "inputs": [
        {
          "internalType": "uint256",
          "name": "totalAmount",
          "type": "uint256"
        },
        {
          "internalType": "uint256",
          "name": "participantCount",
          "type": "uint256"
        }
      ],
      "name": "getPreciseShare",
      "outputs": [
        {
          "internalType": "uint256",
          "name": "",
          "type": "uint256"
        }
      ],
      "stateMutability": "pure",
      "type": "function",
      "constant": true
    },
    {
      "inputs": [
        {
          "internalType": "uint256",
          "name": "groupId",
          "type": "uint256"
        },
        {
          "internalType": "string",
          "name": "debtorUsername",
          "type": "string"
        },
        {
          "internalType": "string",
          "name": "creditorUsername",
          "type": "string"
        }
      ],
      "name": "settleDebtByName",
      "outputs": [],
      "stateMutability": "payable",
      "type": "function",
      "payable": true
    },
    {
      "inputs": [
        {
          "internalType": "uint256",
          "name": "groupId",
          "type": "uint256"
        }
      ],
      "name": "settleAllDebts",
      "outputs": [],
      "stateMutability": "payable",
      "type": "function",
      "payable": true
    },
    {
      "inputs": [
        {
          "internalType": "address",
          "name": "user",
          "type": "address"
        },
        {
          "internalType": "uint256",
          "name": "groupId",
          "type": "uint256"
        }
      ],
      "name": "getUserDebts",
      "outputs": [
        {
          "components": [
            {
              "internalType": "address",
              "name": "creditor",
              "type": "address"
            },
            {
              "internalType": "address",
              "name": "debtor",
              "type": "address"
            },
            {
              "internalType": "uint256",
              "name": "amount",
              "type": "uint256"
            },
            {
              "internalType": "uint256",
              "name": "groupId",
              "type": "uint256"
            },
            {
              "internalType": "bool",
              "name": "settled",
              "type": "bool"
            }
          ],
          "internalType": "struct TabX.Debt[]",
          "name": "",
          "type": "tuple[]"
        }
      ],
      "stateMutability": "view",
      "type": "function",
      "constant": true
    },
    {
      "inputs": [
        {
          "internalType": "string",
          "name": "username",
          "type": "string"
        },
        {
          "internalType": "uint256",
          "name": "groupId",
          "type": "uint256"
        }
      ],
      "name": "getUserBalanceFormatted",
      "outputs": [
        {
          "internalType": "string",
          "name": "balanceStr",
          "type": "string"
        }
      ],
      "stateMutability": "view",
      "type": "function",
      "constant": true
    },
    {
      "inputs": [
        {
          "internalType": "string",
          "name": "username",
          "type": "string"
        }
      ],
      "name": "getAllUserBalancesFormatted",
      "outputs": [
        {
          "internalType": "string[]",
          "name": "balanceStrings",
          "type": "string[]"
        },
        {
          "internalType": "uint256[]",
          "name": "groupIds",
          "type": "uint256[]"
        }
      ],
      "stateMutability": "view",
      "type": "function",
      "constant": true
    },
    {
      "inputs": [
        {
          "internalType": "uint256",
          "name": "groupId",
          "type": "uint256"
        }
      ],
      "name": "getGroupMembers",
      "outputs": [
        {
          "internalType": "address[]",
          "name": "",
          "type": "address[]"
        }
      ],
      "stateMutability": "view",
      "type": "function",
      "constant": true
    },
    {
      "inputs": [
        {
          "internalType": "uint256",
          "name": "groupId",
          "type": "uint256"
        }
      ],
      "name": "getGroupExpenses",
      "outputs": [
        {
          "internalType": "uint256",
          "name": "",
          "type": "uint256"
        }
      ],
      "stateMutability": "view",
      "type": "function",
      "constant": true
    },
    {
      "inputs": [
        {
          "internalType": "uint256",
          "name": "expenseId",
          "type": "uint256"
        },
        {
          "internalType": "address",
          "name": "user",
          "type": "address"
        }
      ],
      "name": "getUserShareInExpense",
      "outputs": [
        {
          "internalType": "uint256",
          "name": "",
          "type": "uint256"
        }
      ],
      "stateMutability": "view",
      "type": "function",
      "constant": true
    },
    {
      "inputs": [
        {
          "internalType": "address",
          "name": "user",
          "type": "address"
        },
        {
          "internalType": "uint256",
          "name": "groupId",
          "type": "uint256"
        }
      ],
      "name": "getUserBalance",
      "outputs": [
        {
          "internalType": "int256",
          "name": "",
          "type": "int256"
        }
      ],
      "stateMutability": "view",
      "type": "function",
      "constant": true
    },
    {
      "inputs": [
        {
          "internalType": "uint256",
          "name": "groupId",
          "type": "uint256"
        }
      ],
      "name": "getGroupExpenseIds",
      "outputs": [
        {
          "internalType": "uint256[]",
          "name": "",
          "type": "uint256[]"
        }
      ],
      "stateMutability": "view",
      "type": "function",
      "constant": true
    },
    {
      "inputs": [
        {
          "internalType": "string",
          "name": "username",
          "type": "string"
        }
      ],
      "name": "getAddressFromUsername",
      "outputs": [
        {
          "internalType": "address",
          "name": "",
          "type": "address"
        }
      ],
      "stateMutability": "view",
      "type": "function",
      "constant": true
    }
  ],
  "bytecode": "0x608060405234801561001057600080fd5b5061544d806100206000396000f3fe60806040526004361061014b5760003560e01c8063a524d377116100b6578063cbf1304d1161006f578063cbf1304d1461052c578063cd7f25b814610569578063d702f122146105a6578063da894347146105cf578063db16d6dc14610610578063dc2ddcae1461063b5761014b565b8063a524d377146103fb578063a87430ba14610438578063ad84c9ba14610476578063af4afe0a146104b3578063af593b0c146104f4578063c0657812146105105761014b565b8063500b136f11610108578063500b136f146102c357806352b807f114610300578063704f1b94146103295780637bb683741461035257806391a9648a1461037d57806396324bd4146103ba5761014b565b80630326d54b146101505780632447df341461018d578063365e84d5146101ca57806336cc81301461020b5780634a2c92b8146102485780634e82c13414610286575b600080fd5b34801561015c57600080fd5b5061017760048036038101906101729190613693565b610664565b604051610184919061377e565b60405180910390f35b34801561019957600080fd5b506101b460048036038101906101af91906137a0565b6106d2565b6040516101c191906137ef565b60405180910390f35b3480156101d657600080fd5b506101f160048036038101906101ec9190613868565b6106fb565b6040516102029594939291906138d2565b60405180910390f35b34801561021757600080fd5b50610232600480360381019061022d9190613693565b61079b565b60405161023f91906139e3565b60405180910390f35b34801561025457600080fd5b5061026f600480360381019061026a9190613b4b565b61083f565b60405161027d929190613cd5565b60405180910390f35b34801561029257600080fd5b506102ad60048036038101906102a89190613b4b565b610a6e565b6040516102ba9190613d0c565b60405180910390f35b3480156102cf57600080fd5b506102ea60048036038101906102e59190613693565b610b2a565b6040516102f791906137ef565b60405180910390f35b34801561030c57600080fd5b5061032760048036038101906103229190613d27565b610b4a565b005b34801561033557600080fd5b50610350600480360381019061034b9190613b4b565b610eac565b005b34801561035e57600080fd5b506103676111e4565b60405161037491906137ef565b60405180910390f35b34801561038957600080fd5b506103a4600480360381019061039f9190613868565b6111ea565b6040516103b19190613d80565b60405180910390f35b3480156103c657600080fd5b506103e160048036038101906103dc9190613693565b611245565b6040516103f2959493929190613de5565b60405180910390f35b34801561040757600080fd5b50610422600480360381019061041d9190613e3f565b611323565b60405161042f9190613e9b565b60405180910390f35b34801561044457600080fd5b5061045f600480360381019061045a9190613ebd565b6115c7565b60405161046d929190613eea565b60405180910390f35b34801561048257600080fd5b5061049d60048036038101906104989190613868565b611693565b6040516104aa9190614040565b60405180910390f35b3480156104bf57600080fd5b506104da60048036038101906104d59190613693565b611922565b6040516104eb959493929190614062565b60405180910390f35b61050e600480360381019061050991906140b5565b611985565b005b61052a60048036038101906105259190613693565b612148565b005b34801561053857600080fd5b50610553600480360381019061054e9190613868565b612665565b6040516105609190613d80565b60405180910390f35b34801561057557600080fd5b50610590600480360381019061058b9190613d27565b61268a565b60405161059d91906137ef565b60405180910390f35b3480156105b257600080fd5b506105cd60048036038101906105c89190614226565b6126e8565b005b3480156105db57600080fd5b506105f660048036038101906105f191906137a0565b612f9f565b6040516106079594939291906138d2565b60405180910390f35b34801561061c57600080fd5b5061062561303f565b60405161063291906137ef565b60405180910390f35b34801561064757600080fd5b50610662600480360381019061065d9190613b4b565b613045565b005b6060600260008381526020019081526020016000206007018054806020026020016040519081016040528092919081815260200182805480156106c657602002820191906000526020600020905b8154815260200190600101908083116106b2575b50505050509050919050565b600081670de0b6b3a7640000846106e991906142c4565b6106f39190614335565b905092915050565b6005602052816000526040600020818154811061071757600080fd5b9060005260206000209060050201600091509150508060000160009054906101000a900473ffffffffffffffffffffffffffffffffffffffff16908060010160009054906101000a900473ffffffffffffffffffffffffffffffffffffffff16908060020154908060030154908060040160009054906101000a900460ff16905085565b60606002600083815260200190815260200160002060060180548060200260200160405190810160405280929190818152602001828054801561083357602002820191906000526020600020905b8160009054906101000a900473ffffffffffffffffffffffffffffffffffffffff1673ffffffffffffffffffffffffffffffffffffffff16815260200190600101908083116107e9575b50505050509050919050565b606080600061084d84610a6e565b9050600080600190505b60075481116108e8576002600082815260200190815260200160002060050160008473ffffffffffffffffffffffffffffffffffffffff1673ffffffffffffffffffffffffffffffffffffffff16815260200190815260200160002060009054906101000a900460ff16156108d55781806108d190614366565b9250505b80806108e090614366565b915050610857565b508067ffffffffffffffff81111561090357610902613a20565b5b60405190808252806020026020018201604052801561093657816020015b60608152602001906001900390816109215790505b5093508067ffffffffffffffff81111561095357610952613a20565b5b6040519080825280602002602001820160405280156109815781602001602082028036833780820191505090505b509250600080600190505b6007548111610a65576002600082815260200190815260200160002060050160008573ffffffffffffffffffffffffffffffffffffffff1673ffffffffffffffffffffffffffffffffffffffff16815260200190815260200160002060009054906101000a900460ff1615610a5257610a058782611323565b868381518110610a1857610a176143ae565b5b602002602001018190525080858381518110610a3757610a366143ae565b5b6020026020010181815250508180610a4e90614366565b9250505b8080610a5d90614366565b91505061098c565b50505050915091565b600080600183604051610a819190614419565b908152602001604051809103902060009054906101000a900473ffffffffffffffffffffffffffffffffffffffff169050600073ffffffffffffffffffffffffffffffffffffffff168173ffffffffffffffffffffffffffffffffffffffff1603610b21576040517f08c379a0000000000000000000000000000000000000000000000000000000008152600401610b189061447c565b60405180910390fd5b80915050919050565b600060026000838152602001908152602001600020600301549050919050565b813373ffffffffffffffffffffffffffffffffffffffff166002600083815260200190815260200160002060020160009054906101000a900473ffffffffffffffffffffffffffffffffffffffff1673ffffffffffffffffffffffffffffffffffffffff1614610bef576040517f08c379a0000000000000000000000000000000000000000000000000000000008152600401610be6906144e8565b60405180910390fd5b6002600084815260200190815260200160002060050160008373ffffffffffffffffffffffffffffffffffffffff1673ffffffffffffffffffffffffffffffffffffffff16815260200190815260200160002060009054906101000a900460ff1615610c90576040517f08c379a0000000000000000000000000000000000000000000000000000000008152600401610c8790614554565b60405180910390fd5b600073ffffffffffffffffffffffffffffffffffffffff166000808473ffffffffffffffffffffffffffffffffffffffff1673ffffffffffffffffffffffffffffffffffffffff16815260200190815260200160002060010160009054906101000a900473ffffffffffffffffffffffffffffffffffffffff1673ffffffffffffffffffffffffffffffffffffffff1603610d60576040517f08c379a0000000000000000000000000000000000000000000000000000000008152600401610d57906145c0565b60405180910390fd5b60016002600085815260200190815260200160002060050160008473ffffffffffffffffffffffffffffffffffffffff1673ffffffffffffffffffffffffffffffffffffffff16815260200190815260200160002060006101000a81548160ff02191690831515021790555060026000848152602001908152602001600020600601829080600181540180825580915050600190039060005260206000200160009091909190916101000a81548173ffffffffffffffffffffffffffffffffffffffff021916908373ffffffffffffffffffffffffffffffffffffffff160217905550600260008481526020019081526020016000206004016000815480929190610e6a90614366565b9190505550827ff328ac0f8bcae00933fe87ba0aa2d0d505c1df94bc9c1aa05b8441c28b74032c83604051610e9f9190613d0c565b60405180910390a2505050565b6000815111610ef0576040517f08c379a0000000000000000000000000000000000000000000000000000000008152600401610ee79061462c565b60405180910390fd5b600073ffffffffffffffffffffffffffffffffffffffff166000803373ffffffffffffffffffffffffffffffffffffffff1673ffffffffffffffffffffffffffffffffffffffff16815260200190815260200160002060010160009054906101000a900473ffffffffffffffffffffffffffffffffffffffff1673ffffffffffffffffffffffffffffffffffffffff1614610fc0576040517f08c379a0000000000000000000000000000000000000000000000000000000008152600401610fb790614698565b60405180910390fd5b600073ffffffffffffffffffffffffffffffffffffffff16600182604051610fe89190614419565b908152602001604051809103902060009054906101000a900473ffffffffffffffffffffffffffffffffffffffff1673ffffffffffffffffffffffffffffffffffffffff161461106d576040517f08c379a000000000000000000000000000000000000000000000000000000000815260040161106490614704565b60405180910390fd5b60405180604001604052808281526020013373ffffffffffffffffffffffffffffffffffffffff168152506000803373ffffffffffffffffffffffffffffffffffffffff1673ffffffffffffffffffffffffffffffffffffffff16815260200190815260200160002060008201518160000190816110eb9190614930565b5060208201518160010160006101000a81548173ffffffffffffffffffffffffffffffffffffffff021916908373ffffffffffffffffffffffffffffffffffffffff160217905550905050336001826040516111479190614419565b908152602001604051809103902060006101000a81548173ffffffffffffffffffffffffffffffffffffffff021916908373ffffffffffffffffffffffffffffffffffffffff1602179055503373ffffffffffffffffffffffffffffffffffffffff167f48cac28ad4dc618e15f4c2dd5e97751182f166de97b25618318b2112aa951a2f826040516111d99190613e9b565b60405180910390a250565b60085481565b6000600660008473ffffffffffffffffffffffffffffffffffffffff1673ffffffffffffffffffffffffffffffffffffffff168152602001908152602001600020600083815260200190815260200160002054905092915050565b600260205280600052604060002060009150905080600001549080600101805461126e90614753565b80601f016020809104026020016040519081016040528092919081815260200182805461129a90614753565b80156112e75780601f106112bc576101008083540402835291602001916112e7565b820191906000526020600020905b8154815290600101906020018083116112ca57829003601f168201915b5050505050908060020160009054906101000a900473ffffffffffffffffffffffffffffffffffffffff16908060030154908060040154905085565b6060600061133084610a6e565b90506002600084815260200190815260200160002060050160008273ffffffffffffffffffffffffffffffffffffffff1673ffffffffffffffffffffffffffffffffffffffff16815260200190815260200160002060009054906101000a900460ff166113d2576040517f08c379a00000000000000000000000000000000000000000000000000000000081526004016113c990614a4e565b60405180910390fd5b6000600660008373ffffffffffffffffffffffffffffffffffffffff1673ffffffffffffffffffffffffffffffffffffffff16815260200190815260200160002060008581526020019081526020016000205490506000808212905060008161143b5782611446565b8261144590614a6e565b5b90506000670de0b6b3a76400008261145e9190614335565b90506000670de0b6b3a76400006064670de0b6b3a7640000856114819190614ab6565b61148b91906142c4565b6114959190614335565b90508315611531576114a6826132be565b600a82106114c357604051806020016040528060008152506114fa565b6040518060400160405280600181526020017f30000000000000000000000000000000000000000000000000000000000000008152505b611503836132be565b60405160200161151593929190614b7f565b60405160208183030381529060405296505050505050506115c1565b61153a826132be565b600a8210611557576040518060200160405280600081525061158e565b6040518060400160405280600181526020017f30000000000000000000000000000000000000000000000000000000000000008152505b611597836132be565b6040516020016115a993929190614bc6565b60405160208183030381529060405296505050505050505b92915050565b60006020528060005260406000206000915090508060000180546115ea90614753565b80601f016020809104026020016040519081016040528092919081815260200182805461161690614753565b80156116635780601f1061163857610100808354040283529160200191611663565b820191906000526020600020905b81548152906001019060200180831161164657829003601f168201915b5050505050908060010160009054906101000a900473ffffffffffffffffffffffffffffffffffffffff16905082565b606060006004600084815260200190815260200160002090506000818054905067ffffffffffffffff8111156116cc576116cb613a20565b5b60405190808252806020026020018201604052801561170557816020015b6116f26134f8565b8152602001906001900390816116ea5790505b5090506000805b8380549050811015611912578673ffffffffffffffffffffffffffffffffffffffff16848281548110611742576117416143ae565b5b906000526020600020906005020160010160009054906101000a900473ffffffffffffffffffffffffffffffffffffffff1673ffffffffffffffffffffffffffffffffffffffff161480156117c657508381815481106117a5576117a46143ae565b5b906000526020600020906005020160040160009054906101000a900460ff16155b156118ff578381815481106117de576117dd6143ae565b5b90600052602060002090600502016040518060a00160405290816000820160009054906101000a900473ffffffffffffffffffffffffffffffffffffffff1673ffffffffffffffffffffffffffffffffffffffff1673ffffffffffffffffffffffffffffffffffffffff1681526020016001820160009054906101000a900473ffffffffffffffffffffffffffffffffffffffff1673ffffffffffffffffffffffffffffffffffffffff1673ffffffffffffffffffffffffffffffffffffffff16815260200160028201548152602001600382015481526020016004820160009054906101000a900460ff1615151515815250508383815181106118e5576118e46143ae565b5b602002602001018190525081806118fb90614366565b9250505b808061190a90614366565b91505061170c565b5080825281935050505092915050565b60036020528060005260406000206000915090508060000154908060010154908060020154908060030160009054906101000a900473ffffffffffffffffffffffffffffffffffffffff16908060060160009054906101000a900460ff16905085565b600061199083610a6e565b9050600061199d83610a6e565b9050600073ffffffffffffffffffffffffffffffffffffffff168273ffffffffffffffffffffffffffffffffffffffff1603611a0e576040517f08c379a0000000000000000000000000000000000000000000000000000000008152600401611a0590614c4e565b60405180910390fd5b600073ffffffffffffffffffffffffffffffffffffffff168173ffffffffffffffffffffffffffffffffffffffff1603611a7d576040517f08c379a0000000000000000000000000000000000000000000000000000000008152600401611a7490614cba565b60405180910390fd5b6002600086815260200190815260200160002060050160008373ffffffffffffffffffffffffffffffffffffffff1673ffffffffffffffffffffffffffffffffffffffff16815260200190815260200160002060009054906101000a900460ff16611b1d576040517f08c379a0000000000000000000000000000000000000000000000000000000008152600401611b1490614d26565b60405180910390fd5b6002600086815260200190815260200160002060050160008273ffffffffffffffffffffffffffffffffffffffff1673ffffffffffffffffffffffffffffffffffffffff16815260200190815260200160002060009054906101000a900460ff16611bbd576040517f08c379a0000000000000000000000000000000000000000000000000000000008152600401611bb490614d92565b60405180910390fd5b6000600660008473ffffffffffffffffffffffffffffffffffffffff1673ffffffffffffffffffffffffffffffffffffffff16815260200190815260200160002060008781526020019081526020016000205490506000600660008473ffffffffffffffffffffffffffffffffffffffff1673ffffffffffffffffffffffffffffffffffffffff1681526020019081526020016000206000888152602001908152602001600020549050867f5362623e98e36bbc9df7a028107d26ddcd817ad3cc96dc9e10341eaf52d13a858585858534604051611c9f959493929190614e07565b60405180910390a2600082126000831215611cc35782611cbe90614a6e565b611cc5565b825b6000841215611ce35760405180602001604052806000815250611d1a565b6040518060400160405280600f81526020017f20286e6f74206e656761746976652900000000000000000000000000000000008152505b604051602001611d2b929190614ec7565b60405160208183030381529060405290611d7b576040517f08c379a0000000000000000000000000000000000000000000000000000000008152600401611d729190613e9b565b60405180910390fd5b5060008113816000831315611d9f5760405180602001604052806000815250611dd6565b6040518060400160405280600f81526020017f20286e6f7420706f7369746976652900000000000000000000000000000000008152505b604051602001611de7929190614f46565b60405160208183030381529060405290611e37576040517f08c379a0000000000000000000000000000000000000000000000000000000008152600401611e2e9190613e9b565b60405180910390fd5b508373ffffffffffffffffffffffffffffffffffffffff168373ffffffffffffffffffffffffffffffffffffffff1603611ea6576040517f08c379a0000000000000000000000000000000000000000000000000000000008152600401611e9d90614fc5565b60405180910390fd5b600082611eb290614a6e565b905060008290506000818310611ec85781611eca565b825b905060003411611f0f576040517f08c379a0000000000000000000000000000000000000000000000000000000008152600401611f0690615031565b60405180910390fd5b60008111611f52576040517f08c379a0000000000000000000000000000000000000000000000000000000008152600401611f49906150c3565b60405180910390fd5b6000813410611f615781611f63565b345b905080600660008a73ffffffffffffffffffffffffffffffffffffffff1673ffffffffffffffffffffffffffffffffffffffff16815260200190815260200160002060008d81526020019081526020016000206000828254611fc591906150e3565b9250508190555080600660008973ffffffffffffffffffffffffffffffffffffffff1673ffffffffffffffffffffffffffffffffffffffff16815260200190815260200160002060008d8152602001908152602001600020600082825461202c9190615127565b925050819055508673ffffffffffffffffffffffffffffffffffffffff166108fc829081150290604051600060405180830381858888f19350505050158015612079573d6000803e3d6000fd5b50803411156120d5573373ffffffffffffffffffffffffffffffffffffffff166108fc82346120a8919061516a565b9081150290604051600060405180830381858888f193505050501580156120d3573d6000803e3d6000fd5b505b8673ffffffffffffffffffffffffffffffffffffffff168873ffffffffffffffffffffffffffffffffffffffff168c7f16c014bb6d1c6cc25e4d9c2ffff2d5052bc083462038999100ead76edf97bee08460405161213391906137ef565b60405180910390a45050505050505050505050565b6000341161218b576040517f08c379a0000000000000000000000000000000000000000000000000000000008152600401612182906151ea565b60405180910390fd5b6000600660003373ffffffffffffffffffffffffffffffffffffffff1673ffffffffffffffffffffffffffffffffffffffff1681526020019081526020016000206000838152602001908152602001600020541261221e576040517f08c379a000000000000000000000000000000000000000000000000000000000815260040161221590615256565b60405180910390fd5b60003490506000600260008481526020019081526020016000206006018054806020026020016040519081016040528092919081815260200182805480156122bb57602002820191906000526020600020905b8160009054906101000a900473ffffffffffffffffffffffffffffffffffffffff1673ffffffffffffffffffffffffffffffffffffffff1681526020019060010190808311612271575b5050505050905060005b8151811080156122d55750600083115b1561260e5760008282815181106122ef576122ee6143ae565b5b602002602001015190503373ffffffffffffffffffffffffffffffffffffffff168173ffffffffffffffffffffffffffffffffffffffff16148061238457506000600660008373ffffffffffffffffffffffffffffffffffffffff1673ffffffffffffffffffffffffffffffffffffffff16815260200190815260200160002060008781526020019081526020016000205413155b1561238f57506125fb565b6000600660003373ffffffffffffffffffffffffffffffffffffffff1673ffffffffffffffffffffffffffffffffffffffff1681526020019081526020016000206000878152602001908152602001600020546123eb90614a6e565b90506000600660008473ffffffffffffffffffffffffffffffffffffffff1673ffffffffffffffffffffffffffffffffffffffff1681526020019081526020016000206000888152602001908152602001600020549050600086905061245a612454848461338c565b8261338c565b90506000810361246d57505050506125fb565b80600660003373ffffffffffffffffffffffffffffffffffffffff1673ffffffffffffffffffffffffffffffffffffffff16815260200190815260200160002060008a815260200190815260200160002060008282546124cd91906150e3565b9250508190555080600660008673ffffffffffffffffffffffffffffffffffffffff1673ffffffffffffffffffffffffffffffffffffffff16815260200190815260200160002060008a815260200190815260200160002060008282546125349190615127565b925050819055508373ffffffffffffffffffffffffffffffffffffffff166108fc829081150290604051600060405180830381858888f19350505050158015612581573d6000803e3d6000fd5b50808761258e919061516a565b96508373ffffffffffffffffffffffffffffffffffffffff163373ffffffffffffffffffffffffffffffffffffffff16897f16c014bb6d1c6cc25e4d9c2ffff2d5052bc083462038999100ead76edf97bee0846040516125ee91906137ef565b60405180910390a4505050505b808061260690614366565b9150506122c5565b506000821115612660573373ffffffffffffffffffffffffffffffffffffffff166108fc839081150290604051600060405180830381858888f1935050505015801561265e573d6000803e3d6000fd5b505b505050565b6006602052816000526040600020602052806000526040600020600091509150505481565b60006003600084815260200190815260200160002060050160008373ffffffffffffffffffffffffffffffffffffffff1673ffffffffffffffffffffffffffffffffffffffff16815260200190815260200160002054905092915050565b826002600082815260200190815260200160002060050160003373ffffffffffffffffffffffffffffffffffffffff1673ffffffffffffffffffffffffffffffffffffffff16815260200190815260200160002060009054906101000a900460ff16612789576040517f08c379a0000000000000000000000000000000000000000000000000000000008152600401612780906152c2565b60405180910390fd5b600083116127cc576040517f08c379a00000000000000000000000000000000000000000000000000000000081526004016127c39061532e565b60405180910390fd5b6000825111612810576040517f08c379a00000000000000000000000000000000000000000000000000000000081526004016128079061539a565b60405180910390fd5b600060086000815461282190614366565b9190508190559050600083519050600081670de0b6b3a76400008761284691906142c4565b6128509190614335565b9050600080600360008681526020019081526020016000209050848160000181905550878160010181905550878160020181905550338160030160006101000a81548173ffffffffffffffffffffffffffffffffffffffff021916908373ffffffffffffffffffffffffffffffffffffffff16021790555060008160060160006101000a81548160ff0219169083151502179055508367ffffffffffffffff8111156128ff576128fe613a20565b5b60405190808252806020026020018201604052801561292d5781602001602082028036833780820191505090505b50816004019080519060200190612945929190613555565b5060005b84811015612eef576000612976898381518110612969576129686143ae565b5b6020026020010151610a6e565b9050600260008c815260200190815260200160002060050160008273ffffffffffffffffffffffffffffffffffffffff1673ffffffffffffffffffffffffffffffffffffffff16815260200190815260200160002060009054906101000a900460ff16612a18576040517f08c379a0000000000000000000000000000000000000000000000000000000008152600401612a0f906152c2565b60405180910390fd5b80836004018381548110612a2f57612a2e6143ae565b5b9060005260206000200160006101000a81548173ffffffffffffffffffffffffffffffffffffffff021916908373ffffffffffffffffffffffffffffffffffffffff1602179055506000600187612a86919061516a565b8314612a925785612ab2565b84670de0b6b3a76400008c612aa791906142c4565b612ab1919061516a565b5b90508085612ac091906153ba565b9450808460050160008473ffffffffffffffffffffffffffffffffffffffff1673ffffffffffffffffffffffffffffffffffffffff168152602001908152602001600020819055503373ffffffffffffffffffffffffffffffffffffffff168273ffffffffffffffffffffffffffffffffffffffff1614612ee257600460008d81526020019081526020016000206040518060a001604052803373ffffffffffffffffffffffffffffffffffffffff1681526020018473ffffffffffffffffffffffffffffffffffffffff1681526020018381526020018e815260200160001515815250908060018154018082558091505060019003906000526020600020906005020160009091909190915060008201518160000160006101000a81548173ffffffffffffffffffffffffffffffffffffffff021916908373ffffffffffffffffffffffffffffffffffffffff16021790555060208201518160010160006101000a81548173ffffffffffffffffffffffffffffffffffffffff021916908373ffffffffffffffffffffffffffffffffffffffff160217905550604082015181600201556060820151816003015560808201518160040160006101000a81548160ff0219169083151502179055505050600560008373ffffffffffffffffffffffffffffffffffffffff1673ffffffffffffffffffffffffffffffffffffffff1681526020019081526020016000206040518060a001604052803373ffffffffffffffffffffffffffffffffffffffff1681526020018473ffffffffffffffffffffffffffffffffffffffff1681526020018381526020018e815260200160001515815250908060018154018082558091505060019003906000526020600020906005020160009091909190915060008201518160000160006101000a81548173ffffffffffffffffffffffffffffffffffffffff021916908373ffffffffffffffffffffffffffffffffffffffff16021790555060208201518160010160006101000a81548173ffffffffffffffffffffffffffffffffffffffff021916908373ffffffffffffffffffffffffffffffffffffffff160217905550604082015181600201556060820151816003015560808201518160040160006101000a81548160ff021916908315150217905550505080600660008473ffffffffffffffffffffffffffffffffffffffff1673ffffffffffffffffffffffffffffffffffffffff16815260200190815260200160002060008e81526020019081526020016000206000828254612e739190615127565b9250508190555080600660003373ffffffffffffffffffffffffffffffffffffffff1673ffffffffffffffffffffffffffffffffffffffff16815260200190815260200160002060008e81526020019081526020016000206000828254612eda91906150e3565b925050819055505b8260010192505050612949565b50600260008a815260200190815260200160002060070185908060018154018082558091505060019003906000526020600020016000909190919091505587600260008b81526020019081526020016000206003016000828254612f5391906153ba565b92505081905550887fdb7fe1afe70d9afd2511cbba96288568628fcbba215e44e3ef77fb5b810365b4868a604051612f8c9291906153ee565b60405180910390a2505050505050505050565b60046020528160005260406000208181548110612fbb57600080fd5b9060005260206000209060050201600091509150508060000160009054906101000a900473ffffffffffffffffffffffffffffffffffffffff16908060010160009054906101000a900473ffffffffffffffffffffffffffffffffffffffff16908060020154908060030154908060040160009054906101000a900460ff16905085565b60075481565b600060076000815461305690614366565b919050819055905060006002600083815260200190815260200160002090508181600001819055508281600101908161308f9190614930565b50338160020160006101000a81548173ffffffffffffffffffffffffffffffffffffffff021916908373ffffffffffffffffffffffffffffffffffffffff1602179055506000816003018190555060018160040181905550600067ffffffffffffffff81111561310257613101613a20565b5b6040519080825280602002602001820160405280156131305781602001602082028036833780820191505090505b50816006019080519060200190613148929190613555565b50600067ffffffffffffffff81111561316457613163613a20565b5b6040519080825280602002602001820160405280156131925781602001602082028036833780820191505090505b508160070190805190602001906131aa9291906135df565b5060018160050160003373ffffffffffffffffffffffffffffffffffffffff1673ffffffffffffffffffffffffffffffffffffffff16815260200190815260200160002060006101000a81548160ff02191690831515021790555080600601339080600181540180825580915050600190039060005260206000200160009091909190916101000a81548173ffffffffffffffffffffffffffffffffffffffff021916908373ffffffffffffffffffffffffffffffffffffffff1602179055503373ffffffffffffffffffffffffffffffffffffffff16827f4354295f5d98820e66a770bd58cf23606ab255dd9dc2daf870fab38ecbc3e7e0856040516132b19190613e9b565b60405180910390a3505050565b6060600060016132cd846133a5565b01905060008167ffffffffffffffff8111156132ec576132eb613a20565b5b6040519080825280601f01601f19166020018201604052801561331e5781602001600182028036833780820191505090505b509050600082602001820190505b600115613381578080600190039150507f3031323334353637383961626364656600000000000000000000000000000000600a86061a8153600a858161337557613374614306565b5b0494506000850361332c575b819350505050919050565b600081831061339b578161339d565b825b905092915050565b600080600090507a184f03e93ff9f4daa797ed6e38ed64bf6a1f0100000000000000008310613403577a184f03e93ff9f4daa797ed6e38ed64bf6a1f01000000000000000083816133f9576133f8614306565b5b0492506040810190505b6d04ee2d6d415b85acef81000000008310613440576d04ee2d6d415b85acef8100000000838161343657613435614306565b5b0492506020810190505b662386f26fc10000831061346f57662386f26fc10000838161346557613464614306565b5b0492506010810190505b6305f5e1008310613498576305f5e100838161348e5761348d614306565b5b0492506008810190505b61271083106134bd5761271083816134b3576134b2614306565b5b0492506004810190505b606483106134e057606483816134d6576134d5614306565b5b0492506002810190505b600a83106134ef576001810190505b80915050919050565b6040518060a00160405280600073ffffffffffffffffffffffffffffffffffffffff168152602001600073ffffffffffffffffffffffffffffffffffffffff16815260200160008152602001600081526020016000151581525090565b8280548282559060005260206000209081019282156135ce579160200282015b828111156135cd5782518260006101000a81548173ffffffffffffffffffffffffffffffffffffffff021916908373ffffffffffffffffffffffffffffffffffffffff16021790555091602001919060010190613575565b5b5090506135db919061362c565b5090565b82805482825590600052602060002090810192821561361b579160200282015b8281111561361a5782518255916020019190600101906135ff565b5b509050613628919061362c565b5090565b5b8082111561364557600081600090555060010161362d565b5090565b6000604051905090565b600080fd5b600080fd5b6000819050919050565b6136708161365d565b811461367b57600080fd5b50565b60008135905061368d81613667565b92915050565b6000602082840312156136a9576136a8613653565b5b60006136b78482850161367e565b91505092915050565b600081519050919050565b600082825260208201905092915050565b6000819050602082019050919050565b6136f58161365d565b82525050565b600061370783836136ec565b60208301905092915050565b6000602082019050919050565b600061372b826136c0565b61373581856136cb565b9350613740836136dc565b8060005b8381101561377157815161375888826136fb565b975061376383613713565b925050600181019050613744565b5085935050505092915050565b600060208201905081810360008301526137988184613720565b905092915050565b600080604083850312156137b7576137b6613653565b5b60006137c58582860161367e565b92505060206137d68582860161367e565b9150509250929050565b6137e98161365d565b82525050565b600060208201905061380460008301846137e0565b92915050565b600073ffffffffffffffffffffffffffffffffffffffff82169050919050565b60006138358261380a565b9050919050565b6138458161382a565b811461385057600080fd5b50565b6000813590506138628161383c565b92915050565b6000806040838503121561387f5761387e613653565b5b600061388d85828601613853565b925050602061389e8582860161367e565b9150509250929050565b6138b18161382a565b82525050565b60008115159050919050565b6138cc816138b7565b82525050565b600060a0820190506138e760008301886138a8565b6138f460208301876138a8565b61390160408301866137e0565b61390e60608301856137e0565b61391b60808301846138c3565b9695505050505050565b600081519050919050565b600082825260208201905092915050565b6000819050602082019050919050565b61395a8161382a565b82525050565b600061396c8383613951565b60208301905092915050565b6000602082019050919050565b600061399082613925565b61399a8185613930565b93506139a583613941565b8060005b838110156139d65781516139bd8882613960565b97506139c883613978565b9250506001810190506139a9565b5085935050505092915050565b600060208201905081810360008301526139fd8184613985565b905092915050565b600080fd5b600080fd5b6000601f19601f8301169050919050565b7f4e487b7100000000000000000000000000000000000000000000000000000000600052604160045260246000fd5b613a5882613a0f565b810181811067ffffffffffffffff82111715613a7757613a76613a20565b5b80604052505050565b6000613a8a613649565b9050613a968282613a4f565b919050565b600067ffffffffffffffff821115613ab657613ab5613a20565b5b613abf82613a0f565b9050602081019050919050565b82818337600083830152505050565b6000613aee613ae984613a9b565b613a80565b905082815260208101848484011115613b0a57613b09613a0a565b5b613b15848285613acc565b509392505050565b600082601f830112613b3257613b31613a05565b5b8135613b42848260208601613adb565b91505092915050565b600060208284031215613b6157613b60613653565b5b600082013567ffffffffffffffff811115613b7f57613b7e613658565b5b613b8b84828501613b1d565b91505092915050565b600081519050919050565b600082825260208201905092915050565b6000819050602082019050919050565b600081519050919050565b600082825260208201905092915050565b60005b83811015613bfa578082015181840152602081019050613bdf565b60008484015250505050565b6000613c1182613bc0565b613c1b8185613bcb565b9350613c2b818560208601613bdc565b613c3481613a0f565b840191505092915050565b6000613c4b8383613c06565b905092915050565b6000602082019050919050565b6000613c6b82613b94565b613c758185613b9f565b935083602082028501613c8785613bb0565b8060005b85811015613cc35784840389528151613ca48582613c3f565b9450613caf83613c53565b925060208a01995050600181019050613c8b565b50829750879550505050505092915050565b60006040820190508181036000830152613cef8185613c60565b90508181036020830152613d038184613720565b90509392505050565b6000602082019050613d2160008301846138a8565b92915050565b60008060408385031215613d3e57613d3d613653565b5b6000613d4c8582860161367e565b9250506020613d5d85828601613853565b9150509250929050565b6000819050919050565b613d7a81613d67565b82525050565b6000602082019050613d956000830184613d71565b92915050565b600082825260208201905092915050565b6000613db782613bc0565b613dc18185613d9b565b9350613dd1818560208601613bdc565b613dda81613a0f565b840191505092915050565b600060a082019050613dfa60008301886137e0565b8181036020830152613e0c8187613dac565b9050613e1b60408301866138a8565b613e2860608301856137e0565b613e3560808301846137e0565b9695505050505050565b60008060408385031215613e5657613e55613653565b5b600083013567ffffffffffffffff811115613e7457613e73613658565b5b613e8085828601613b1d565b9250506020613e918582860161367e565b9150509250929050565b60006020820190508181036000830152613eb58184613dac565b905092915050565b600060208284031215613ed357613ed2613653565b5b6000613ee184828501613853565b91505092915050565b60006040820190508181036000830152613f048185613dac565b9050613f1360208301846138a8565b9392505050565b600081519050919050565b600082825260208201905092915050565b6000819050602082019050919050565b613f4f816138b7565b82525050565b60a082016000820151613f6b6000850182613951565b506020820151613f7e6020850182613951565b506040820151613f9160408501826136ec565b506060820151613fa460608501826136ec565b506080820151613fb76080850182613f46565b50505050565b6000613fc98383613f55565b60a08301905092915050565b6000602082019050919050565b6000613fed82613f1a565b613ff78185613f25565b935061400283613f36565b8060005b8381101561403357815161401a8882613fbd565b975061402583613fd5565b925050600181019050614006565b5085935050505092915050565b6000602082019050818103600083015261405a8184613fe2565b905092915050565b600060a08201905061407760008301886137e0565b61408460208301876137e0565b61409160408301866137e0565b61409e60608301856138a8565b6140ab60808301846138c3565b9695505050505050565b6000806000606084860312156140ce576140cd613653565b5b60006140dc8682870161367e565b935050602084013567ffffffffffffffff8111156140fd576140fc613658565b5b61410986828701613b1d565b925050604084013567ffffffffffffffff81111561412a57614129613658565b5b61413686828701613b1d565b9150509250925092565b600067ffffffffffffffff82111561415b5761415a613a20565b5b602082029050602081019050919050565b600080fd5b600061418461417f84614140565b613a80565b905080838252602082019050602084028301858111156141a7576141a661416c565b5b835b818110156141ee57803567ffffffffffffffff8111156141cc576141cb613a05565b5b8086016141d98982613b1d565b855260208501945050506020810190506141a9565b5050509392505050565b600082601f83011261420d5761420c613a05565b5b813561421d848260208601614171565b91505092915050565b60008060006060848603121561423f5761423e613653565b5b600061424d8682870161367e565b935050602061425e8682870161367e565b925050604084013567ffffffffffffffff81111561427f5761427e613658565b5b61428b868287016141f8565b9150509250925092565b7f4e487b7100000000000000000000000000000000000000000000000000000000600052601160045260246000fd5b60006142cf8261365d565b91506142da8361365d565b92508282026142e88161365d565b915082820484148315176142ff576142fe614295565b5b5092915050565b7f4e487b7100000000000000000000000000000000000000000000000000000000600052601260045260246000fd5b60006143408261365d565b915061434b8361365d565b92508261435b5761435a614306565b5b828204905092915050565b60006143718261365d565b91507fffffffffffffffffffffffffffffffffffffffffffffffffffffffffffffffff82036143a3576143a2614295565b5b600182019050919050565b7f4e487b7100000000000000000000000000000000000000000000000000000000600052603260045260246000fd5b600081905092915050565b60006143f382613bc0565b6143fd81856143dd565b935061440d818560208601613bdc565b80840191505092915050565b600061442582846143e8565b915081905092915050565b7f557365726e616d65206e6f742072656769737465726564000000000000000000600082015250565b6000614466601783613d9b565b915061447182614430565b602082019050919050565b6000602082019050818103600083015261449581614459565b9050919050565b7f4e6f742067726f7570206f776e65720000000000000000000000000000000000600082015250565b60006144d2600f83613d9b565b91506144dd8261449c565b602082019050919050565b60006020820190508181036000830152614501816144c5565b9050919050565b7f416c7265616479206d656d626572000000000000000000000000000000000000600082015250565b600061453e600e83613d9b565b915061454982614508565b602082019050919050565b6000602082019050818103600083015261456d81614531565b9050919050565b7f55736572206e6f74207265676973746572656400000000000000000000000000600082015250565b60006145aa601383613d9b565b91506145b582614574565b602082019050919050565b600060208201905081810360008301526145d98161459d565b9050919050565b7f456d70747920757365726e616d65000000000000000000000000000000000000600082015250565b6000614616600e83613d9b565b9150614621826145e0565b602082019050919050565b6000602082019050818103600083015261464581614609565b9050919050565b7f416c726561647920726567697374657265640000000000000000000000000000600082015250565b6000614682601283613d9b565b915061468d8261464c565b602082019050919050565b600060208201905081810360008301526146b181614675565b9050919050565b7f557365726e616d652074616b656e000000000000000000000000000000000000600082015250565b60006146ee600e83613d9b565b91506146f9826146b8565b602082019050919050565b6000602082019050818103600083015261471d816146e1565b9050919050565b7f4e487b7100000000000000000000000000000000000000000000000000000000600052602260045260246000fd5b6000600282049050600182168061476b57607f821691505b60208210810361477e5761477d614724565b5b50919050565b60008190508160005260206000209050919050565b60006020601f8301049050919050565b600082821b905092915050565b6000600883026147e67fffffffffffffffffffffffffffffffffffffffffffffffffffffffffffffffff826147a9565b6147f086836147a9565b95508019841693508086168417925050509392505050565b6000819050919050565b600061482d6148286148238461365d565b614808565b61365d565b9050919050565b6000819050919050565b61484783614812565b61485b61485382614834565b8484546147b6565b825550505050565b600090565b614870614863565b61487b81848461483e565b505050565b5b8181101561489f57614894600082614868565b600181019050614881565b5050565b601f8211156148e4576148b581614784565b6148be84614799565b810160208510156148cd578190505b6148e16148d985614799565b830182614880565b50505b505050565b600082821c905092915050565b6000614907600019846008026148e9565b1980831691505092915050565b600061492083836148f6565b9150826002028217905092915050565b61493982613bc0565b67ffffffffffffffff81111561495257614951613a20565b5b61495c8254614753565b6149678282856148a3565b600060209050601f83116001811461499a5760008415614988578287015190505b6149928582614914565b8655506149fa565b601f1984166149a886614784565b60005b828110156149d0578489015182556001820191506020850194506020810190506149ab565b868310156149ed57848901516149e9601f8916826148f6565b8355505b6001600288020188555050505b505050505050565b7f55736572206e6f7420696e2067726f7570000000000000000000000000000000600082015250565b6000614a38601183613d9b565b9150614a4382614a02565b602082019050919050565b60006020820190508181036000830152614a6781614a2b565b9050919050565b6000614a7982613d67565b91507f80000000000000000000000000000000000000000000000000000000000000008203614aab57614aaa614295565b5b816000039050919050565b6000614ac18261365d565b9150614acc8361365d565b925082614adc57614adb614306565b5b828206905092915050565b7f2d00000000000000000000000000000000000000000000000000000000000000600082015250565b6000614b1d6001836143dd565b9150614b2882614ae7565b600182019050919050565b7f2e00000000000000000000000000000000000000000000000000000000000000600082015250565b6000614b696001836143dd565b9150614b7482614b33565b600182019050919050565b6000614b8a82614b10565b9150614b9682866143e8565b9150614ba182614b5c565b9150614bad82856143e8565b9150614bb982846143e8565b9150819050949350505050565b6000614bd282866143e8565b9150614bdd82614b5c565b9150614be982856143e8565b9150614bf582846143e8565b9150819050949350505050565b7f446562746f7220757365726e616d65206e6f7420666f756e6400000000000000600082015250565b6000614c38601983613d9b565b9150614c4382614c02565b602082019050919050565b60006020820190508181036000830152614c6781614c2b565b9050919050565b7f4372656469746f7220757365726e616d65206e6f7420666f756e640000000000600082015250565b6000614ca4601b83613d9b565b9150614caf82614c6e565b602082019050919050565b60006020820190508181036000830152614cd381614c97565b9050919050565b7f446562746f72206e6f7420696e20746869732067726f75700000000000000000600082015250565b6000614d10601883613d9b565b9150614d1b82614cda565b602082019050919050565b60006020820190508181036000830152614d3f81614d03565b9050919050565b7f4372656469746f72206e6f7420696e20746869732067726f7570000000000000600082015250565b6000614d7c601a83613d9b565b9150614d8782614d46565b602082019050919050565b60006020820190508181036000830152614dab81614d6f565b9050919050565b6000614dcd614dc8614dc38461380a565b614808565b61380a565b9050919050565b6000614ddf82614db2565b9050919050565b6000614df182614dd4565b9050919050565b614e0181614de6565b82525050565b600060a082019050614e1c60008301886138a8565b614e296020830187614df8565b614e366040830186613d71565b614e436060830185613d71565b614e5060808301846137e0565b9695505050505050565b7f446562746f722062616c616e63653a2000000000000000000000000000000000600082015250565b6000614e906010836143dd565b9150614e9b82614e5a565b601082019050919050565b6000819050919050565b614ec1614ebc8261365d565b614ea6565b82525050565b6000614ed282614e83565b9150614ede8285614eb0565b602082019150614eee82846143e8565b91508190509392505050565b7f4372656469746f722062616c616e63653a200000000000000000000000000000600082015250565b6000614f306012836143dd565b9150614f3b82614efa565b601282019050919050565b6000614f5182614f23565b9150614f5d8285614eb0565b602082019150614f6d82846143e8565b91508190509392505050565b7f43616e6e6f742070617920796f757273656c6600000000000000000000000000600082015250565b6000614faf601383613d9b565b9150614fba82614f79565b602082019050919050565b60006020820190508181036000830152614fde81614fa2565b9050919050565b7f4d7573742073656e642045544820746f20706179206465627400000000000000600082015250565b600061501b601983613d9b565b915061502682614fe5565b602082019050919050565b6000602082019050818103600083015261504a8161500e565b9050919050565b7f4e6f206465627420746f20736574746c65206265747765656e2074686573652060008201527f7573657273000000000000000000000000000000000000000000000000000000602082015250565b60006150ad602583613d9b565b91506150b882615051565b604082019050919050565b600060208201905081810360008301526150dc816150a0565b9050919050565b60006150ee82613d67565b91506150f983613d67565b92508282019050828112156000831216838212600084121516171561512157615120614295565b5b92915050565b600061513282613d67565b915061513d83613d67565b925082820390508181126000841216828213600085121516171561516457615163614295565b5b92915050565b60006151758261365d565b91506151808361365d565b925082820390508181111561519857615197614295565b5b92915050565b7f4d7573742073656e64207061796d656e74000000000000000000000000000000600082015250565b60006151d4601183613d9b565b91506151df8261519e565b602082019050919050565b60006020820190508181036000830152615203816151c7565b9050919050565b7f4e6f20646562747320746f20736574746c650000000000000000000000000000600082015250565b6000615240601283613d9b565b915061524b8261520a565b602082019050919050565b6000602082019050818103600083015261526f81615233565b9050919050565b7f4e6f742067726f7570206d656d62657200000000000000000000000000000000600082015250565b60006152ac601083613d9b565b91506152b782615276565b602082019050919050565b600060208201905081810360008301526152db8161529f565b9050919050565b7f496e76616c696420616d6f756e74000000000000000000000000000000000000600082015250565b6000615318600e83613d9b565b9150615323826152e2565b602082019050919050565b600060208201905081810360008301526153478161530b565b9050919050565b7f4e6f207061727469636970616e74730000000000000000000000000000000000600082015250565b6000615384600f83613d9b565b915061538f8261534e565b602082019050919050565b600060208201905081810360008301526153b381615377565b9050919050565b60006153c58261365d565b91506153d08361365d565b92508282019050808211156153e8576153e7614295565b5b92915050565b600060408201905061540360008301856137e0565b61541060208301846137e0565b939250505056fea2646970667358221220e04c2e4aa58539bf243c6888f942c1591dc132081baa205efbd241396af9ae2a64736f6c63430008130033",
  "immutableReferences": {},
  "source": "// SPDX-License-Identifier: MIT\r\npragma solidity ^0.8.0;\r\n\r\nimport \"@openzeppelin/contracts/utils/math/SafeMath.sol\";\r\nimport \"@openzeppelin/contracts/utils/Strings.sol\";\r\n\r\ncontract TabX {\r\n    using SafeMath for uint256;\r\n\r\n    struct User {\r\n        string username;\r\n        address userAddress;\r\n    }\r\n\r\n    struct Expense {\r\n        uint256 id;\r\n        uint256 totalAmount;\r\n        uint256 remainingAmount;\r\n        address payer;\r\n        address[] participants;\r\n        mapping(address => uint256) shares;\r\n        bool settled;\r\n    }\r\n\r\n    struct Group {\r\n        uint256 id;\r\n        string name;\r\n        address owner;\r\n        uint256 totalExpenses;\r\n        uint256 memberCount;\r\n        mapping(address => bool) isMember;\r\n        address[] members;\r\n        uint256[] expenseIds;\r\n    }\r\n\r\n    // Add this new struct to track debts between users\r\nstruct Debt {\r\n    address creditor;\r\n    address debtor;\r\n    uint256 amount;\r\n    uint256 groupId;\r\n    bool settled;\r\n}\r\n\r\n    // Global mappings\r\n    mapping(address => User) public users;\r\n    mapping(string => address) private usernameToAddress;\r\n    mapping(uint256 => Group) public groups;\r\n    mapping(uint256 => Expense) public expenses;\r\n    //mappings to track debts\r\nmapping(uint256 => Debt[]) public groupDebts; // groupId => list of debts\r\nmapping(address => Debt[]) public userDebts;   // user => list of debts\r\n\r\n    \r\n    // Balance tracking: user => groupID => balance\r\n    mapping(address => mapping(uint256 => int256)) public balances;\r\n\r\n    // Counters\r\n    uint256 public groupIdCounter;\r\n    uint256 public expenseIdCounter;\r\n\r\n    // Events\r\n    event UserRegistered(address indexed user, string username);\r\n    event GroupCreated(uint256 indexed groupId, address indexed owner, string name);\r\n    event MemberAdded(uint256 indexed groupId, address member);\r\n    event ExpenseAdded(uint256 indexed groupId, uint256 expenseId, uint256 amount);\r\n    event PaymentMade(uint256 indexed groupId, address indexed payer, uint256 amount);\r\n    event ExpenseSettled(uint256 indexed groupId, uint256 expenseId);\r\n    event SettlementMade(uint256 indexed groupId, address indexed from, address indexed to, uint256 amount);\r\n    event DebtSettled(uint256 indexed groupId, address indexed debtor, address indexed creditor, uint256 amount);\r\n    //this event for debugging\r\n    event DebugInfo(\r\n        uint256 indexed groupId,\r\n        address debtor,\r\n        address creditor,\r\n        int256 debtorBalance,\r\n        int256 creditorBalance,\r\n        uint256 paymentSent\r\n    );\r\n\r\n    modifier onlyGroupOwner(uint256 groupId) {\r\n        require(groups[groupId].owner == msg.sender, \"Not group owner\");\r\n        _;\r\n    }\r\n\r\n    modifier onlyGroupMember(uint256 groupId) {\r\n        require(groups[groupId].isMember[msg.sender], \"Not group member\");\r\n        _;\r\n    }\r\n\r\n    function registerUser(string memory username) external {\r\n        require(bytes(username).length > 0, \"Empty username\");\r\n        require(users[msg.sender].userAddress == address(0), \"Already registered\");\r\n        require(usernameToAddress[username] == address(0), \"Username taken\");\r\n\r\n        users[msg.sender] = User(username, msg.sender);\r\n        usernameToAddress[username] = msg.sender;\r\n        emit UserRegistered(msg.sender, username);\r\n    }\r\n\r\n    function createGroup(string memory name) external {\r\n        uint256 groupId = ++groupIdCounter;\r\n        \r\n        // Initialize the Group struct without the mapping\r\n        Group storage newGroup = groups[groupId];\r\n        newGroup.id = groupId;\r\n        newGroup.name = name;\r\n        newGroup.owner = msg.sender;\r\n        newGroup.totalExpenses = 0;\r\n        newGroup.memberCount = 1;\r\n        newGroup.members = new address[](0);\r\n        newGroup.expenseIds = new uint256[](0);\r\n        \r\n        // Initialize the mapping separately\r\n        newGroup.isMember[msg.sender] = true;\r\n        newGroup.members.push(msg.sender);\r\n        \r\n        emit GroupCreated(groupId, msg.sender, name);\r\n    }\r\n\r\n    function addGroupMember(uint256 groupId, address member) external onlyGroupOwner(groupId) {\r\n        require(!groups[groupId].isMember[member], \"Already member\");\r\n        require(users[member].userAddress != address(0), \"User not registered\");\r\n\r\n        groups[groupId].isMember[member] = true;\r\n        groups[groupId].members.push(member);\r\n        groups[groupId].memberCount++;\r\n        emit MemberAdded(groupId, member);\r\n    }\r\n\r\n// Modified addExpense function with proper splitting logic\r\nfunction addExpense(\r\n    uint256 groupId,\r\n    uint256 totalAmount,\r\n    string[] memory participantUsernames\r\n) external onlyGroupMember(groupId) {\r\n    require(totalAmount > 0, \"Invalid amount\");\r\n    require(participantUsernames.length > 0, \"No participants\");\r\n\r\n    uint256 expenseId = ++expenseIdCounter;\r\n    uint256 participantCount = participantUsernames.length;\r\n    uint256 sharePerParticipantWei = (totalAmount * 1 ether) / participantCount;\r\n    uint256 distributedTotal;\r\n\r\n    // Initialize expense in storage\r\n    Expense storage newExpense = expenses[expenseId];\r\n    newExpense.id = expenseId;\r\n    newExpense.totalAmount = totalAmount;\r\n    newExpense.remainingAmount = totalAmount;\r\n    newExpense.payer = msg.sender;\r\n    newExpense.settled = false;\r\n    newExpense.participants = new address[](participantCount);\r\n\r\n    for (uint256 i = 0; i < participantCount; ) {\r\n        address participant = getAddressFromUsername(participantUsernames[i]);\r\n        require(groups[groupId].isMember[participant], \"Not group member\");\r\n        newExpense.participants[i] = participant;\r\n\r\n        uint256 shareWei = i == participantCount - 1 \r\n            ? (totalAmount * 1 ether) - distributedTotal \r\n            : sharePerParticipantWei;\r\n        \r\n        distributedTotal += shareWei;\r\n        newExpense.shares[participant] = shareWei;\r\n\r\n        if (participant != msg.sender) {\r\n            groupDebts[groupId].push(Debt({\r\n                creditor: msg.sender,\r\n                debtor: participant,\r\n                amount: shareWei,\r\n                groupId: groupId,\r\n                settled: false\r\n            }));\r\n            userDebts[participant].push(Debt({\r\n                creditor: msg.sender,\r\n                debtor: participant,\r\n                amount: shareWei,\r\n                groupId: groupId,\r\n                settled: false\r\n            }));\r\n            \r\n            balances[participant][groupId] -= int256(shareWei);\r\n            balances[msg.sender][groupId] += int256(shareWei);\r\n        }\r\n\r\n        unchecked { ++i; }\r\n    }\r\n\r\n    groups[groupId].expenseIds.push(expenseId);\r\n    groups[groupId].totalExpenses += totalAmount;\r\n    emit ExpenseAdded(groupId, expenseId, totalAmount);\r\n}\r\n\r\n// function to handle fractional amounts like 3.33333\r\nfunction getPreciseShare(uint256 totalAmount, uint256 participantCount) public pure returns (uint256) {\r\n    return (totalAmount * 1e18) / participantCount;\r\n}\r\n\r\n// New function to settle debts between two users in a group\r\nfunction settleDebtByName(\r\n    uint256 groupId,\r\n    string memory debtorUsername,\r\n    string memory creditorUsername\r\n) external payable {\r\n    // Get addresses from usernames\r\n    address debtor = getAddressFromUsername(debtorUsername);\r\n    address payable creditor = payable(getAddressFromUsername(creditorUsername));\r\n    \r\n    // Verify addresses exist\r\n    require(debtor != address(0), \"Debtor username not found\");\r\n    require(creditor != address(0), \"Creditor username not found\");\r\n    \r\n    // Verify both parties are group members\r\n    require(groups[groupId].isMember[debtor], \"Debtor not in this group\");\r\n    require(groups[groupId].isMember[creditor], \"Creditor not in this group\");\r\n    \r\n    // Get balances\r\n    int256 debtorBalance = balances[debtor][groupId];\r\n    int256 creditorBalance = balances[creditor][groupId];\r\n    \r\n    // Debug information (viewable in transaction details)\r\n    emit DebugInfo(groupId, debtor, creditor, debtorBalance, creditorBalance, msg.value);\r\n    \r\n    // Check valid debt relationship\r\n    require(debtorBalance < 0, string(abi.encodePacked(\r\n        \"Debtor balance: \", \r\n        uint256(debtorBalance >= 0 ? uint256(debtorBalance) : uint256(-debtorBalance)),\r\n        debtorBalance >= 0 ? \" (not negative)\" : \"\"\r\n    )));\r\n    \r\n    require(creditorBalance > 0, string(abi.encodePacked(\r\n        \"Creditor balance: \",\r\n        uint256(creditorBalance),\r\n        creditorBalance <= 0 ? \" (not positive)\" : \"\"\r\n    )));\r\n    \r\n    require(creditor != debtor, \"Cannot pay yourself\");\r\n\r\n    // Calculate maximum payable amount\r\n    uint256 debtAmount = uint256(-debtorBalance);\r\n    uint256 creditAmount = uint256(creditorBalance);\r\n    uint256 maxPayment = debtAmount < creditAmount ? debtAmount : creditAmount;\r\n    \r\n    // Verify payment makes sense\r\n    require(msg.value > 0, \"Must send ETH to pay debt\");\r\n    require(maxPayment > 0, \"No debt to settle between these users\");\r\n    \r\n    // Determine actual payment amount\r\n    uint256 paymentAmount = msg.value < maxPayment ? msg.value : maxPayment;\r\n\r\n    // Update balances\r\n    balances[debtor][groupId] += int256(paymentAmount);\r\n    balances[creditor][groupId] -= int256(paymentAmount);\r\n\r\n    // Transfer funds\r\n    creditor.transfer(paymentAmount);\r\n    \r\n    // Refund any overpayment\r\n    if (msg.value > paymentAmount) {\r\n        payable(msg.sender).transfer(msg.value - paymentAmount);\r\n    }\r\n\r\n    emit DebtSettled(groupId, debtor, creditor, paymentAmount);\r\n}\r\n\r\n//Automatic debt settle for all\r\nfunction settleAllDebts(uint256 groupId) external payable {\r\n    require(msg.value > 0, \"Must send payment\");\r\n    require(balances[msg.sender][groupId] < 0, \"No debts to settle\");\r\n    \r\n    uint256 remainingAmount = msg.value;\r\n    \r\n    // Get all group members\r\n    address[] memory members = groups[groupId].members;\r\n    \r\n    for (uint256 i = 0; i < members.length && remainingAmount > 0; i++) {\r\n        address creditor = members[i];\r\n        \r\n        // Skip self and members who aren't owed money\r\n        if (creditor == msg.sender || balances[creditor][groupId] <= 0) {\r\n            continue;\r\n        }\r\n        \r\n        uint256 debtAmount = uint256(-balances[msg.sender][groupId]);\r\n        uint256 creditAmount = uint256(balances[creditor][groupId]);\r\n        uint256 paymentAmount = remainingAmount;\r\n        \r\n        // Pay either the full debt, the creditor's credit, or remaining payment\r\n        paymentAmount = min(min(debtAmount, creditAmount), paymentAmount);\r\n        \r\n        if (paymentAmount == 0) {\r\n            continue;\r\n        }\r\n        \r\n        // Update balances\r\n        balances[msg.sender][groupId] += int256(paymentAmount);\r\n        balances[creditor][groupId] -= int256(paymentAmount);\r\n        \r\n        // Transfer funds\r\n        payable(creditor).transfer(paymentAmount);\r\n        \r\n        remainingAmount -= paymentAmount;\r\n        \r\n        emit DebtSettled(groupId, msg.sender, creditor, paymentAmount);\r\n    }\r\n    \r\n    // Return any remaining funds\r\n    if (remainingAmount > 0) {\r\n        payable(msg.sender).transfer(remainingAmount);\r\n    }\r\n}\r\n\r\nfunction min(uint256 a, uint256 b) private pure returns (uint256) {\r\n    return a < b ? a : b;\r\n}\r\n\r\n// Helper function to get debts for a user in a group\r\nfunction getUserDebts(address user, uint256 groupId) public view returns (Debt[] memory) {\r\n    Debt[] storage allDebts = groupDebts[groupId];\r\n    Debt[] memory result = new Debt[](allDebts.length);\r\n    uint256 counter = 0;\r\n    \r\n    for (uint256 i = 0; i < allDebts.length; i++) {\r\n        if (allDebts[i].debtor == user && !allDebts[i].settled) {\r\n            result[counter] = allDebts[i];\r\n            counter++;\r\n        }\r\n    }\r\n    \r\n    // Resize array to actual length\r\n    assembly {\r\n        mstore(result, counter)\r\n    }\r\n    \r\n    return result;\r\n}\r\n \r\n    //Getter function for retriving user balances \r\n    /**\r\n     * @dev Get user's balance in decimal string format (e.g. \"3.33\")\r\n     * @param username The username to lookup\r\n     * @param groupId The group ID to check\r\n     * @return balanceStr Formatted balance string with 2 decimal places\r\n     */\r\n    function getUserBalanceFormatted(string memory username, uint256 groupId) \r\n        public \r\n        view \r\n        returns (string memory balanceStr) \r\n    {\r\n        address userAddress = getAddressFromUsername(username);\r\n        require(groups[groupId].isMember[userAddress], \"User not in group\");\r\n        \r\n        int256 balance = balances[userAddress][groupId];\r\n        \r\n        // Convert to absolute value for formatting\r\n        bool isNegative = balance < 0;\r\n        uint256 absoluteValue = isNegative ? uint256(-balance) : uint256(balance);\r\n        \r\n        // Calculate whole and fractional parts\r\n        uint256 whole = absoluteValue / 1 ether;\r\n        uint256 fractional = (absoluteValue % 1 ether) * 100 / 1 ether;\r\n        \r\n        // Format as string (e.g. \"-3.33\" or \"5.00\")\r\n        if (isNegative) {\r\n            return string(abi.encodePacked(\r\n                \"-\",\r\n                Strings.toString(whole),\r\n                \".\",\r\n                fractional < 10 ? \"0\" : \"\",\r\n                Strings.toString(fractional)\r\n            ));\r\n        } else {\r\n            return string(abi.encodePacked(\r\n                Strings.toString(whole),\r\n                \".\",\r\n                fractional < 10 ? \"0\" : \"\",\r\n                Strings.toString(fractional)\r\n            ));\r\n        }\r\n    }\r\n\r\n    /**\r\n     * @dev Get all user balances in decimal format\r\n     * @param username The username to lookup\r\n     * @return balanceStrings Array of formatted balance strings\r\n     * @return groupIds Corresponding group IDs\r\n     */\r\n    function getAllUserBalancesFormatted(string memory username)\r\n        public\r\n        view\r\n        returns (string[] memory balanceStrings, uint256[] memory groupIds)\r\n    {\r\n        address userAddress = getAddressFromUsername(username);\r\n        \r\n        // Count groups user is in\r\n        uint256 groupCount = 0;\r\n        for (uint256 i = 1; i <= groupIdCounter; i++) {\r\n            if (groups[i].isMember[userAddress]) {\r\n                groupCount++;\r\n            }\r\n        }\r\n        \r\n        // Initialize arrays\r\n        balanceStrings = new string[](groupCount);\r\n        groupIds = new uint256[](groupCount);\r\n        uint256 index = 0;\r\n        \r\n        // Populate arrays\r\n        for (uint256 i = 1; i <= groupIdCounter; i++) {\r\n            if (groups[i].isMember[userAddress]) {\r\n                balanceStrings[index] = getUserBalanceFormatted(username, i);\r\n                groupIds[index] = i;\r\n                index++;\r\n            }\r\n        }\r\n        \r\n        return (balanceStrings, groupIds);\r\n    }\r\n\r\n    // Getter functions\r\n    function getGroupMembers(uint256 groupId) public view returns (address[] memory) {\r\n        return groups[groupId].members;\r\n    }\r\n\r\n    function getGroupExpenses(uint256 groupId) public view returns (uint256) {\r\n        return groups[groupId].totalExpenses;\r\n    }\r\n\r\n    function getUserShareInExpense(uint256 expenseId, address user) public view returns (uint256) {\r\n        return expenses[expenseId].shares[user];\r\n    }\r\n\r\n    function getUserBalance(address user, uint256 groupId) public view returns (int256) {\r\n        return balances[user][groupId];\r\n    }\r\n\r\n    function getGroupExpenseIds(uint256 groupId) public view returns (uint256[] memory) {\r\n        return groups[groupId].expenseIds;\r\n    }\r\n\r\n    // function getUsername(address user) public view returns (string memory) {\r\n    //     return users[user].username;\r\n    // }\r\n\r\n   // Helper function to get address from username\r\nfunction getAddressFromUsername(string memory username) public view returns (address) {\r\n    address userAddress = usernameToAddress[username];\r\n    require(userAddress != address(0), \"Username not registered\");\r\n    return userAddress;\r\n}\r\n}",
  "sourcePath": "D:\\CCBC 24-25\\Sem2\\Proj-611\\Project_code\\truffle\\contracts\\Tabx.sol",
  "compiler": {
    "name": "solc",
    "version": "0.8.19+commit.7dd6d404.Emscripten.clang"
  },
  "schemaVersion": "3.4.16",
  "updatedAt": "2025-04-08T19:47:44.659Z",
  "networkType": "ethereum",
  "devdoc": {
    "kind": "dev",
    "methods": {
      "getAllUserBalancesFormatted(string)": {
        "details": "Get all user balances in decimal format",
        "params": {
          "username": "The username to lookup"
        },
        "returns": {
          "balanceStrings": "Array of formatted balance strings",
          "groupIds": "Corresponding group IDs"
        }
      },
      "getUserBalanceFormatted(string,uint256)": {
        "details": "Get user's balance in decimal string format (e.g. \"3.33\")",
        "params": {
          "groupId": "The group ID to check",
          "username": "The username to lookup"
        },
        "returns": {
          "balanceStr": "Formatted balance string with 2 decimal places"
        }
      }
    },
    "version": 1
  },
  "userdoc": {
    "kind": "user",
    "methods": {},
    "version": 1
  }
}