{
  "contractName": "TabX",
  "abi": [
    {
      "anonymous": false,
      "inputs": [
        {
          "indexed": true,
          "internalType": "uint256",
          "name": "groupId",
          "type": "uint256"
        },
        {
          "indexed": true,
          "internalType": "address",
          "name": "debtor",
          "type": "address"
        },
        {
          "indexed": true,
          "internalType": "address",
          "name": "creditor",
          "type": "address"
        },
        {
          "indexed": false,
          "internalType": "uint256",
          "name": "amount",
          "type": "uint256"
        }
      ],
      "name": "DebtSettled",
      "type": "event"
    },
    {
      "anonymous": false,
      "inputs": [
        {
          "indexed": true,
          "internalType": "uint256",
          "name": "groupId",
          "type": "uint256"
        },
        {
          "indexed": true,
          "internalType": "address",
          "name": "owner",
          "type": "address"
        },
        {
          "indexed": false,
          "internalType": "string",
          "name": "name",
          "type": "string"
        }
      ],
      "name": "GroupCreated",
      "type": "event"
    },
    {
      "anonymous": false,
      "inputs": [
        {
          "indexed": true,
          "internalType": "uint256",
          "name": "groupId",
          "type": "uint256"
        }
      ],
      "name": "GroupDeleted",
      "type": "event"
    },
    {
      "anonymous": false,
      "inputs": [
        {
          "indexed": true,
          "internalType": "uint256",
          "name": "groupId",
          "type": "uint256"
        },
        {
          "indexed": false,
          "internalType": "address",
          "name": "member",
          "type": "address"
        }
      ],
      "name": "MemberAdded",
      "type": "event"
    },
    {
      "anonymous": false,
      "inputs": [
        {
          "indexed": true,
          "internalType": "uint256",
          "name": "groupId",
          "type": "uint256"
        },
        {
          "indexed": false,
          "internalType": "address",
          "name": "member",
          "type": "address"
        }
      ],
      "name": "MemberRemoved",
      "type": "event"
    },
    {
      "anonymous": false,
      "inputs": [
        {
          "indexed": true,
          "internalType": "address",
          "name": "user",
          "type": "address"
        },
        {
          "indexed": false,
          "internalType": "string",
          "name": "username",
          "type": "string"
        }
      ],
      "name": "UserRegistered",
      "type": "event"
    },
    {
      "inputs": [
        {
          "internalType": "uint256",
          "name": "",
          "type": "uint256"
        },
        {
          "internalType": "address",
          "name": "",
          "type": "address"
        },
        {
          "internalType": "address",
          "name": "",
          "type": "address"
        }
      ],
      "name": "debtSettled",
      "outputs": [
        {
          "internalType": "bool",
          "name": "",
          "type": "bool"
        }
      ],
      "stateMutability": "view",
      "type": "function",
      "constant": true
    },
    {
      "inputs": [],
      "name": "groupCount",
      "outputs": [
        {
          "internalType": "uint256",
          "name": "",
          "type": "uint256"
        }
      ],
      "stateMutability": "view",
      "type": "function",
      "constant": true
    },
    {
      "inputs": [
        {
          "internalType": "address",
          "name": "",
          "type": "address"
        }
      ],
      "name": "registered",
      "outputs": [
        {
          "internalType": "bool",
          "name": "",
          "type": "bool"
        }
      ],
      "stateMutability": "view",
      "type": "function",
      "constant": true
    },
    {
      "inputs": [
        {
          "internalType": "address",
          "name": "",
          "type": "address"
        }
      ],
      "name": "usernameOf",
      "outputs": [
        {
          "internalType": "string",
          "name": "",
          "type": "string"
        }
      ],
      "stateMutability": "view",
      "type": "function",
      "constant": true
    },
    {
      "inputs": [
        {
          "internalType": "string",
          "name": "username",
          "type": "string"
        }
      ],
      "name": "registerUser",
      "outputs": [],
      "stateMutability": "nonpayable",
      "type": "function"
    },
    {
      "inputs": [
        {
          "internalType": "string",
          "name": "name",
          "type": "string"
        }
      ],
      "name": "createGroup",
      "outputs": [],
      "stateMutability": "nonpayable",
      "type": "function"
    },
    {
      "inputs": [
        {
          "internalType": "uint256",
          "name": "groupId",
          "type": "uint256"
        }
      ],
      "name": "deleteGroup",
      "outputs": [],
      "stateMutability": "nonpayable",
      "type": "function"
    },
    {
      "inputs": [
        {
          "internalType": "uint256",
          "name": "groupId",
          "type": "uint256"
        },
        {
          "internalType": "address",
          "name": "member",
          "type": "address"
        }
      ],
      "name": "addMember",
      "outputs": [],
      "stateMutability": "nonpayable",
      "type": "function"
    },
    {
      "inputs": [
        {
          "internalType": "uint256",
          "name": "groupId",
          "type": "uint256"
        },
        {
          "internalType": "address",
          "name": "member",
          "type": "address"
        }
      ],
      "name": "removeMember",
      "outputs": [],
      "stateMutability": "nonpayable",
      "type": "function"
    },
    {
      "inputs": [
        {
          "internalType": "uint256",
          "name": "groupId",
          "type": "uint256"
        },
        {
          "internalType": "string",
          "name": "debtorUsername",
          "type": "string"
        },
        {
          "internalType": "uint256",
          "name": "paymentAmount",
          "type": "uint256"
        }
      ],
      "name": "settleDebtByName",
      "outputs": [],
      "stateMutability": "payable",
      "type": "function",
      "payable": true
    },
    {
      "inputs": [
        {
          "internalType": "uint256",
          "name": "groupId",
          "type": "uint256"
        }
      ],
      "name": "getGroupMembers",
      "outputs": [
        {
          "internalType": "address[]",
          "name": "",
          "type": "address[]"
        }
      ],
      "stateMutability": "view",
      "type": "function",
      "constant": true
    },
    {
      "inputs": [
        {
          "internalType": "uint256",
          "name": "groupId",
          "type": "uint256"
        },
        {
          "internalType": "address",
          "name": "debtor",
          "type": "address"
        },
        {
          "internalType": "address",
          "name": "creditor",
          "type": "address"
        }
      ],
      "name": "isSettled",
      "outputs": [
        {
          "internalType": "bool",
          "name": "",
          "type": "bool"
        }
      ],
      "stateMutability": "view",
      "type": "function",
      "constant": true
    },
    {
      "inputs": [
        {
          "internalType": "uint256",
          "name": "groupId",
          "type": "uint256"
        }
      ],
      "name": "getGroupInfo",
      "outputs": [
        {
          "internalType": "uint256",
          "name": "id",
          "type": "uint256"
        },
        {
          "internalType": "string",
          "name": "name",
          "type": "string"
        },
        {
          "internalType": "address",
          "name": "owner",
          "type": "address"
        },
        {
          "internalType": "bool",
          "name": "exists",
          "type": "bool"
        }
      ],
      "stateMutability": "view",
      "type": "function",
      "constant": true
    }
  ],
  "bytecode": "0x608060405234801561001057600080fd5b506129c9806100206000396000f3fe6080604052600436106100c25760003560e01c80637898acef1161007f578063b2dd5c0711610059578063b2dd5c071461028d578063b86fbcd3146102ca578063dc2ddcae14610307578063ff7c130014610330576100c2565b80637898acef146101e55780638f23b3261461022257806399d4360f1461024d576100c2565b80631303b316146100c757806336cc81301461010457806345d88d2d146101415780636be7658b1461016a578063704f1b941461019357806374d0a676146101bc575b600080fd5b3480156100d357600080fd5b506100ee60048036038101906100e99190611dfc565b61034c565b6040516100fb91906124a0565b60405180910390f35b34801561011057600080fd5b5061012b60048036038101906101269190611d97565b610388565b604051610138919061247e565b60405180910390f35b34801561014d57600080fd5b5061016860048036038101906101639190611d97565b610491565b005b34801561017657600080fd5b50610191600480360381019061018c9190611dc0565b610686565b005b34801561019f57600080fd5b506101ba60048036038101906101b59190611d52565b610c14565b005b3480156101c857600080fd5b506101e360048036038101906101de9190611dc0565b610de0565b005b3480156101f157600080fd5b5061020c60048036038101906102079190611d29565b6111a3565b60405161021991906124df565b60405180910390f35b34801561022e57600080fd5b50610237611243565b60405161024491906126e1565b60405180910390f35b34801561025957600080fd5b50610274600480360381019061026f9190611d97565b611249565b60405161028494939291906126fc565b60405180910390f35b34801561029957600080fd5b506102b460048036038101906102af9190611d29565b6113a8565b6040516102c191906124a0565b60405180910390f35b3480156102d657600080fd5b506102f160048036038101906102ec9190611dfc565b6113c8565b6040516102fe91906124a0565b60405180910390f35b34801561031357600080fd5b5061032e60048036038101906103299190611d52565b61146e565b005b61034a60048036038101906103459190611e4b565b611702565b005b6004602052826000526040600020602052816000526040600020602052806000526040600020600092509250509054906101000a900460ff1681565b6060816002600082815260200190815260200160002060050160009054906101000a900460ff166103ee576040517f08c379a00000000000000000000000000000000000000000000000000000000081526004016103e590612641565b60405180910390fd5b6002600084815260200190815260200160002060030180548060200260200160405190810160405280929190818152602001828054801561048457602002820191906000526020600020905b8160009054906101000a900473ffffffffffffffffffffffffffffffffffffffff1673ffffffffffffffffffffffffffffffffffffffff168152602001906001019080831161043a575b5050505050915050919050565b6000803373ffffffffffffffffffffffffffffffffffffffff1673ffffffffffffffffffffffffffffffffffffffff16815260200190815260200160002060009054906101000a900460ff1661051c576040517f08c379a000000000000000000000000000000000000000000000000000000000815260040161051390612521565b60405180910390fd5b806002600082815260200190815260200160002060050160009054906101000a900460ff16610580576040517f08c379a000000000000000000000000000000000000000000000000000000000815260040161057790612641565b60405180910390fd5b813373ffffffffffffffffffffffffffffffffffffffff166002600083815260200190815260200160002060020160009054906101000a900473ffffffffffffffffffffffffffffffffffffffff1673ffffffffffffffffffffffffffffffffffffffff1614610625576040517f08c379a000000000000000000000000000000000000000000000000000000000815260040161061c90612681565b60405180910390fd5b60006002600085815260200190815260200160002060050160006101000a81548160ff021916908315150217905550827f05f39787bb37d43683a578f1d720308a1e4cd944934f11f73c9564925aca900d60405160405180910390a2505050565b6000803373ffffffffffffffffffffffffffffffffffffffff1673ffffffffffffffffffffffffffffffffffffffff16815260200190815260200160002060009054906101000a900460ff16610711576040517f08c379a000000000000000000000000000000000000000000000000000000000815260040161070890612521565b60405180910390fd5b816002600082815260200190815260200160002060050160009054906101000a900460ff16610775576040517f08c379a000000000000000000000000000000000000000000000000000000000815260040161076c90612641565b60405180910390fd5b823373ffffffffffffffffffffffffffffffffffffffff166002600083815260200190815260200160002060020160009054906101000a900473ffffffffffffffffffffffffffffffffffffffff1673ffffffffffffffffffffffffffffffffffffffff161461081a576040517f08c379a000000000000000000000000000000000000000000000000000000000815260040161081190612681565b60405180910390fd5b60006002600086815260200190815260200160002090508060040160008573ffffffffffffffffffffffffffffffffffffffff1673ffffffffffffffffffffffffffffffffffffffff16815260200190815260200160002060009054906101000a900460ff166108bf576040517f08c379a00000000000000000000000000000000000000000000000000000000081526004016108b690612621565b60405180910390fd5b8060020160009054906101000a900473ffffffffffffffffffffffffffffffffffffffff1673ffffffffffffffffffffffffffffffffffffffff168473ffffffffffffffffffffffffffffffffffffffff161415610952576040517f08c379a0000000000000000000000000000000000000000000000000000000008152600401610949906125e1565b60405180910390fd5b60008160040160008673ffffffffffffffffffffffffffffffffffffffff1673ffffffffffffffffffffffffffffffffffffffff16815260200190815260200160002060006101000a81548160ff021916908315150217905550600081600301905060005b8180549050811015610bd3578573ffffffffffffffffffffffffffffffffffffffff16828281548110610a13577f4e487b7100000000000000000000000000000000000000000000000000000000600052603260045260246000fd5b9060005260206000200160009054906101000a900473ffffffffffffffffffffffffffffffffffffffff1673ffffffffffffffffffffffffffffffffffffffff161415610bc0578160018380549050610a6c91906127bd565b81548110610aa3577f4e487b7100000000000000000000000000000000000000000000000000000000600052603260045260246000fd5b9060005260206000200160009054906101000a900473ffffffffffffffffffffffffffffffffffffffff16828281548110610b07577f4e487b7100000000000000000000000000000000000000000000000000000000600052603260045260246000fd5b9060005260206000200160006101000a81548173ffffffffffffffffffffffffffffffffffffffff021916908373ffffffffffffffffffffffffffffffffffffffff16021790555081805480610b86577f4e487b7100000000000000000000000000000000000000000000000000000000600052603160045260246000fd5b6001900381819060005260206000200160006101000a81549073ffffffffffffffffffffffffffffffffffffffff02191690559055610bd3565b8080610bcb906128ad565b9150506109b7565b50857f1c4c9d2e56d0635d11bc47c997c6909a0d7061f55cbb8f4b27386db37553191c86604051610c049190612463565b60405180910390a2505050505050565b6000803373ffffffffffffffffffffffffffffffffffffffff1673ffffffffffffffffffffffffffffffffffffffff16815260200190815260200160002060009054906101000a900460ff1615610ca0576040517f08c379a0000000000000000000000000000000000000000000000000000000008152600401610c9790612561565b60405180910390fd5b60008282905011610ce6576040517f08c379a0000000000000000000000000000000000000000000000000000000008152600401610cdd90612501565b60405180910390fd5b60016000803373ffffffffffffffffffffffffffffffffffffffff1673ffffffffffffffffffffffffffffffffffffffff16815260200190815260200160002060006101000a81548160ff0219169083151502179055508181600160003373ffffffffffffffffffffffffffffffffffffffff1673ffffffffffffffffffffffffffffffffffffffff1681526020019081526020016000209190610d8b929190611c12565b503373ffffffffffffffffffffffffffffffffffffffff167f48cac28ad4dc618e15f4c2dd5e97751182f166de97b25618318b2112aa951a2f8383604051610dd49291906124bb565b60405180910390a25050565b6000803373ffffffffffffffffffffffffffffffffffffffff1673ffffffffffffffffffffffffffffffffffffffff16815260200190815260200160002060009054906101000a900460ff16610e6b576040517f08c379a0000000000000000000000000000000000000000000000000000000008152600401610e6290612521565b60405180910390fd5b816002600082815260200190815260200160002060050160009054906101000a900460ff16610ecf576040517f08c379a0000000000000000000000000000000000000000000000000000000008152600401610ec690612641565b60405180910390fd5b823373ffffffffffffffffffffffffffffffffffffffff166002600083815260200190815260200160002060020160009054906101000a900473ffffffffffffffffffffffffffffffffffffffff1673ffffffffffffffffffffffffffffffffffffffff1614610f74576040517f08c379a0000000000000000000000000000000000000000000000000000000008152600401610f6b90612681565b60405180910390fd5b6000808473ffffffffffffffffffffffffffffffffffffffff1673ffffffffffffffffffffffffffffffffffffffff16815260200190815260200160002060009054906101000a900460ff16610fff576040517f08c379a0000000000000000000000000000000000000000000000000000000008152600401610ff690612661565b60405180910390fd5b60006002600086815260200190815260200160002090508060040160008573ffffffffffffffffffffffffffffffffffffffff1673ffffffffffffffffffffffffffffffffffffffff16815260200190815260200160002060009054906101000a900460ff16156110a5576040517f08c379a000000000000000000000000000000000000000000000000000000000815260040161109c906126a1565b60405180910390fd5b60018160040160008673ffffffffffffffffffffffffffffffffffffffff1673ffffffffffffffffffffffffffffffffffffffff16815260200190815260200160002060006101000a81548160ff02191690831515021790555080600301849080600181540180825580915050600190039060005260206000200160009091909190916101000a81548173ffffffffffffffffffffffffffffffffffffffff021916908373ffffffffffffffffffffffffffffffffffffffff160217905550847ff328ac0f8bcae00933fe87ba0aa2d0d505c1df94bc9c1aa05b8441c28b74032c856040516111949190612463565b60405180910390a25050505050565b600160205280600052604060002060009150905080546111c29061287b565b80601f01602080910402602001604051908101604052809291908181526020018280546111ee9061287b565b801561123b5780601f106112105761010080835404028352916020019161123b565b820191906000526020600020905b81548152906001019060200180831161121e57829003601f168201915b505050505081565b60035481565b60006060600080846002600082815260200190815260200160002060050160009054906101000a900460ff166112b4576040517f08c379a00000000000000000000000000000000000000000000000000000000081526004016112ab90612641565b60405180910390fd5b60006002600088815260200190815260200160002090508060000154816001018260020160009054906101000a900473ffffffffffffffffffffffffffffffffffffffff168360050160009054906101000a900460ff168280546113179061287b565b80601f01602080910402602001604051908101604052809291908181526020018280546113439061287b565b80156113905780601f1061136557610100808354040283529160200191611390565b820191906000526020600020905b81548152906001019060200180831161137357829003601f168201915b50505050509250955095509550955050509193509193565b60006020528060005260406000206000915054906101000a900460ff1681565b60006004600085815260200190815260200160002060008473ffffffffffffffffffffffffffffffffffffffff1673ffffffffffffffffffffffffffffffffffffffff16815260200190815260200160002060008373ffffffffffffffffffffffffffffffffffffffff1673ffffffffffffffffffffffffffffffffffffffff16815260200190815260200160002060009054906101000a900460ff1690509392505050565b6000803373ffffffffffffffffffffffffffffffffffffffff1673ffffffffffffffffffffffffffffffffffffffff16815260200190815260200160002060009054906101000a900460ff166114f9576040517f08c379a00000000000000000000000000000000000000000000000000000000081526004016114f090612521565b60405180910390fd5b6000828290501161153f576040517f08c379a000000000000000000000000000000000000000000000000000000000815260040161153690612541565b60405180910390fd5b6000600360008154611550906128ad565b91905081905590506000600260008381526020019081526020016000209050818160000181905550838382600101919061158b929190611c12565b50338160020160006101000a81548173ffffffffffffffffffffffffffffffffffffffff021916908373ffffffffffffffffffffffffffffffffffffffff16021790555060018160050160006101000a81548160ff02191690831515021790555060018160040160003373ffffffffffffffffffffffffffffffffffffffff1673ffffffffffffffffffffffffffffffffffffffff16815260200190815260200160002060006101000a81548160ff02191690831515021790555080600301339080600181540180825580915050600190039060005260206000200160009091909190916101000a81548173ffffffffffffffffffffffffffffffffffffffff021916908373ffffffffffffffffffffffffffffffffffffffff1602179055503373ffffffffffffffffffffffffffffffffffffffff16827f4354295f5d98820e66a770bd58cf23606ab255dd9dc2daf870fab38ecbc3e7e086866040516116f49291906124bb565b60405180910390a350505050565b836002600082815260200190815260200160002060050160009054906101000a900460ff16611766576040517f08c379a000000000000000000000000000000000000000000000000000000000815260040161175d90612641565b60405180910390fd5b60003390506000808273ffffffffffffffffffffffffffffffffffffffff1673ffffffffffffffffffffffffffffffffffffffff16815260200190815260200160002060009054906101000a900460ff166117f6576040517f08c379a00000000000000000000000000000000000000000000000000000000081526004016117ed906125a1565b60405180910390fd5b60008311611839576040517f08c379a0000000000000000000000000000000000000000000000000000000008152600401611830906126c1565b60405180910390fd5b82341461187b576040517f08c379a000000000000000000000000000000000000000000000000000000000815260040161187290612581565b60405180910390fd5b848460405161188b929190612433565b6040518091039020600160008373ffffffffffffffffffffffffffffffffffffffff1673ffffffffffffffffffffffffffffffffffffffff1681526020019081526020016000206040516118df919061244c565b604051809103902014611927576040517f08c379a000000000000000000000000000000000000000000000000000000000815260040161191e906125c1565b60405180910390fd5b60006002600088815260200190815260200160002090508060040160008373ffffffffffffffffffffffffffffffffffffffff1673ffffffffffffffffffffffffffffffffffffffff16815260200190815260200160002060009054906101000a900460ff166119cc576040517f08c379a00000000000000000000000000000000000000000000000000000000081526004016119c390612601565b60405180910390fd5b60005b8160030180549050811015611b9d576000826003018281548110611a1c577f4e487b7100000000000000000000000000000000000000000000000000000000600052603260045260246000fd5b9060005260206000200160009054906101000a900473ffffffffffffffffffffffffffffffffffffffff1690508373ffffffffffffffffffffffffffffffffffffffff168173ffffffffffffffffffffffffffffffffffffffff1614611b89576001600460008b815260200190815260200160002060008673ffffffffffffffffffffffffffffffffffffffff1673ffffffffffffffffffffffffffffffffffffffff16815260200190815260200160002060008373ffffffffffffffffffffffffffffffffffffffff1673ffffffffffffffffffffffffffffffffffffffff16815260200190815260200160002060006101000a81548160ff0219169083151502179055508073ffffffffffffffffffffffffffffffffffffffff168473ffffffffffffffffffffffffffffffffffffffff168a7f16c014bb6d1c6cc25e4d9c2ffff2d5052bc083462038999100ead76edf97bee089604051611b8091906126e1565b60405180910390a45b508080611b95906128ad565b9150506119cf565b508060020160009054906101000a900473ffffffffffffffffffffffffffffffffffffffff1673ffffffffffffffffffffffffffffffffffffffff166108fc859081150290604051600060405180830381858888f19350505050158015611c08573d6000803e3d6000fd5b5050505050505050565b828054611c1e9061287b565b90600052602060002090601f016020900481019282611c405760008555611c87565b82601f10611c5957803560ff1916838001178555611c87565b82800160010185558215611c87579182015b82811115611c86578235825591602001919060010190611c6b565b5b509050611c949190611c98565b5090565b5b80821115611cb1576000816000905550600101611c99565b5090565b600081359050611cc481612965565b92915050565b60008083601f840112611cdc57600080fd5b8235905067ffffffffffffffff811115611cf557600080fd5b602083019150836001820283011115611d0d57600080fd5b9250929050565b600081359050611d238161297c565b92915050565b600060208284031215611d3b57600080fd5b6000611d4984828501611cb5565b91505092915050565b60008060208385031215611d6557600080fd5b600083013567ffffffffffffffff811115611d7f57600080fd5b611d8b85828601611cca565b92509250509250929050565b600060208284031215611da957600080fd5b6000611db784828501611d14565b91505092915050565b60008060408385031215611dd357600080fd5b6000611de185828601611d14565b9250506020611df285828601611cb5565b9150509250929050565b600080600060608486031215611e1157600080fd5b6000611e1f86828701611d14565b9350506020611e3086828701611cb5565b9250506040611e4186828701611cb5565b9150509250925092565b60008060008060608587031215611e6157600080fd5b6000611e6f87828801611d14565b945050602085013567ffffffffffffffff811115611e8c57600080fd5b611e9887828801611cca565b93509350506040611eab87828801611d14565b91505092959194509250565b6000611ec38383611ecf565b60208301905092915050565b611ed8816127f1565b82525050565b611ee7816127f1565b82525050565b6000611ef88261276d565b611f028185612790565b9350611f0d83612748565b8060005b83811015611f3e578151611f258882611eb7565b9750611f3083612783565b925050600181019050611f11565b5085935050505092915050565b611f5481612803565b82525050565b6000611f6683856127a1565b9350611f73838584612839565b82840190509392505050565b60008154611f8c8161287b565b611f9681866127a1565b94506001821660008114611fb15760018114611fc257611ff5565b60ff19831686528186019350611ff5565b611fcb85612758565b60005b83811015611fed57815481890152600182019150602081019050611fce565b838801955050505b50505092915050565b600061200a83856127ac565b9350612017838584612839565b61202083612954565b840190509392505050565b600061203682612778565b61204081856127ac565b9350612050818560208601612848565b61205981612954565b840191505092915050565b60006120716018836127ac565b91507f557365726e616d652063616e6e6f7420626520656d70747900000000000000006000830152602082019050919050565b60006120b1600e836127ac565b91507f4e6f7420726567697374657265640000000000000000000000000000000000006000830152602082019050919050565b60006120f1601a836127ac565b91507f47726f7570206e616d652063616e6e6f7420626520656d7074790000000000006000830152602082019050919050565b60006121316012836127ac565b91507f416c7265616479207265676973746572656400000000000000000000000000006000830152602082019050919050565b60006121716018836127ac565b91507f496e636f7272656374207061796d656e7420616d6f756e7400000000000000006000830152602082019050919050565b60006121b16015836127ac565b91507f446562746f72206e6f74207265676973746572656400000000000000000000006000830152602082019050919050565b60006121f16018836127ac565b91507f446562746f7220757365726e616d65206d69736d6174636800000000000000006000830152602082019050919050565b60006122316013836127ac565b91507f43616e6e6f742072656d6f7665206f776e6572000000000000000000000000006000830152602082019050919050565b60006122716013836127ac565b91507f446562746f72206e6f7420696e2067726f7570000000000000000000000000006000830152602082019050919050565b60006122b1600c836127ac565b91507f4e6f742061206d656d62657200000000000000000000000000000000000000006000830152602082019050919050565b60006122f16014836127ac565b91507f47726f757020646f6573206e6f742065786973740000000000000000000000006000830152602082019050919050565b60006123316015836127ac565b91507f4d656d626572206e6f74207265676973746572656400000000000000000000006000830152602082019050919050565b6000612371600f836127ac565b91507f4e6f742067726f7570206f776e657200000000000000000000000000000000006000830152602082019050919050565b60006123b16010836127ac565b91507f416c72656164792061206d656d626572000000000000000000000000000000006000830152602082019050919050565b60006123f16017836127ac565b91507f416d6f756e74206d75737420626520706f7369746976650000000000000000006000830152602082019050919050565b61242d8161282f565b82525050565b6000612440828486611f5a565b91508190509392505050565b60006124588284611f7f565b915081905092915050565b60006020820190506124786000830184611ede565b92915050565b600060208201905081810360008301526124988184611eed565b905092915050565b60006020820190506124b56000830184611f4b565b92915050565b600060208201905081810360008301526124d6818486611ffe565b90509392505050565b600060208201905081810360008301526124f9818461202b565b905092915050565b6000602082019050818103600083015261251a81612064565b9050919050565b6000602082019050818103600083015261253a816120a4565b9050919050565b6000602082019050818103600083015261255a816120e4565b9050919050565b6000602082019050818103600083015261257a81612124565b9050919050565b6000602082019050818103600083015261259a81612164565b9050919050565b600060208201905081810360008301526125ba816121a4565b9050919050565b600060208201905081810360008301526125da816121e4565b9050919050565b600060208201905081810360008301526125fa81612224565b9050919050565b6000602082019050818103600083015261261a81612264565b9050919050565b6000602082019050818103600083015261263a816122a4565b9050919050565b6000602082019050818103600083015261265a816122e4565b9050919050565b6000602082019050818103600083015261267a81612324565b9050919050565b6000602082019050818103600083015261269a81612364565b9050919050565b600060208201905081810360008301526126ba816123a4565b9050919050565b600060208201905081810360008301526126da816123e4565b9050919050565b60006020820190506126f66000830184612424565b92915050565b60006080820190506127116000830187612424565b8181036020830152612723818661202b565b90506127326040830185611ede565b61273f6060830184611f4b565b95945050505050565b6000819050602082019050919050565b60008190508160005260206000209050919050565b600081519050919050565b600081519050919050565b6000602082019050919050565b600082825260208201905092915050565b600081905092915050565b600082825260208201905092915050565b60006127c88261282f565b91506127d38361282f565b9250828210156127e6576127e56128f6565b5b828203905092915050565b60006127fc8261280f565b9050919050565b60008115159050919050565b600073ffffffffffffffffffffffffffffffffffffffff82169050919050565b6000819050919050565b82818337600083830152505050565b60005b8381101561286657808201518184015260208101905061284b565b83811115612875576000848401525b50505050565b6000600282049050600182168061289357607f821691505b602082108114156128a7576128a6612925565b5b50919050565b60006128b88261282f565b91507fffffffffffffffffffffffffffffffffffffffffffffffffffffffffffffffff8214156128eb576128ea6128f6565b5b600182019050919050565b7f4e487b7100000000000000000000000000000000000000000000000000000000600052601160045260246000fd5b7f4e487b7100000000000000000000000000000000000000000000000000000000600052602260045260246000fd5b6000601f19601f8301169050919050565b61296e816127f1565b811461297957600080fd5b50565b6129858161282f565b811461299057600080fd5b5056fea26469706673582212209c58bd607936935ce955b37cb0b3417324b9e2337e3a7ed8371ccd856e4a5ccb64736f6c63430008000033",
  "immutableReferences": {},
  "source": "// SPDX-License-Identifier: MIT\r\npragma solidity ^0.8.0;\r\n\r\ncontract TabX {\r\n    struct Group {\r\n        uint256 id;\r\n        string name;\r\n        address owner;\r\n        address[] members;\r\n        mapping(address => bool) isMember;\r\n        bool exists;\r\n    }\r\n\r\n    // user registry\r\n    mapping(address => bool) public registered;\r\n    mapping(address => string) public usernameOf;\r\n\r\n    // groups\r\n    mapping(uint256 => Group) private groups;\r\n    uint256 public groupCount;\r\n\r\n    // debt settlement flag: groupId  debtor  creditor  settled\r\n    mapping(uint256 => mapping(address => mapping(address => bool))) public debtSettled;\r\n\r\n    // events\r\n    event UserRegistered(address indexed user, string username);\r\n    event GroupCreated(uint256 indexed groupId, address indexed owner, string name);\r\n    event GroupDeleted(uint256 indexed groupId);\r\n    event MemberAdded(uint256 indexed groupId, address member);\r\n    event MemberRemoved(uint256 indexed groupId, address member);\r\n    event DebtSettled(uint256 indexed groupId, address indexed debtor, address indexed creditor, uint256 amount);\r\n\r\n    // modifiers\r\n    modifier onlyRegistered() {\r\n        require(registered[msg.sender], \"Not registered\");\r\n        _;\r\n    }\r\n\r\n    modifier groupExists(uint256 groupId) {\r\n        require(groups[groupId].exists, \"Group does not exist\");\r\n        _;\r\n    }\r\n\r\n    modifier onlyGroupOwner(uint256 groupId) {\r\n        require(groups[groupId].owner == msg.sender, \"Not group owner\");\r\n        _;\r\n    }\r\n\r\n    /// @notice Register yourself with a username\r\n    function registerUser(string calldata username) external {\r\n        require(!registered[msg.sender], \"Already registered\");\r\n        require(bytes(username).length > 0, \"Username cannot be empty\");\r\n\r\n        registered[msg.sender] = true;\r\n        usernameOf[msg.sender] = username;\r\n        emit UserRegistered(msg.sender, username);\r\n    }\r\n\r\n    /// @notice Create a new group\r\n    function createGroup(string calldata name) external onlyRegistered {\r\n        require(bytes(name).length > 0, \"Group name cannot be empty\");\r\n\r\n        uint256 gid = ++groupCount;\r\n        Group storage g = groups[gid];\r\n        g.id = gid;\r\n        g.name = name;\r\n        g.owner = msg.sender;\r\n        g.exists = true;\r\n\r\n        // owner is first member\r\n        g.isMember[msg.sender] = true;\r\n        g.members.push(msg.sender);\r\n\r\n        emit GroupCreated(gid, msg.sender, name);\r\n    }\r\n\r\n    /// @notice Delete a group (only owner)\r\n    function deleteGroup(uint256 groupId)\r\n        external\r\n        onlyRegistered\r\n        groupExists(groupId)\r\n        onlyGroupOwner(groupId)\r\n    {\r\n        groups[groupId].exists = false;\r\n        emit GroupDeleted(groupId);\r\n    }\r\n\r\n    /// @notice Add a member to a group (owner only)\r\n    function addMember(uint256 groupId, address member)\r\n        external\r\n        onlyRegistered\r\n        groupExists(groupId)\r\n        onlyGroupOwner(groupId)\r\n    {\r\n        require(registered[member], \"Member not registered\");\r\n        Group storage g = groups[groupId];\r\n        require(!g.isMember[member], \"Already a member\");\r\n\r\n        g.isMember[member] = true;\r\n        g.members.push(member);\r\n        emit MemberAdded(groupId, member);\r\n    }\r\n\r\n    /// @notice Remove a member from a group (owner only)\r\n    function removeMember(uint256 groupId, address member)\r\n        external\r\n        onlyRegistered\r\n        groupExists(groupId)\r\n        onlyGroupOwner(groupId)\r\n    {\r\n        Group storage g = groups[groupId];\r\n        require(g.isMember[member], \"Not a member\");\r\n        require(member != g.owner, \"Cannot remove owner\");\r\n\r\n        g.isMember[member] = false;\r\n\r\n        address[] storage mems = g.members;\r\n        for (uint256 i = 0; i < mems.length; i++) {\r\n            if (mems[i] == member) {\r\n                mems[i] = mems[mems.length - 1];\r\n                mems.pop();\r\n                break;\r\n            }\r\n        }\r\n\r\n        emit MemberRemoved(groupId, member);\r\n    }\r\n\r\n    /// @notice Settle the debt you owe to a creditor in a group\r\n    /// @dev creditorUsername is unused on-chain; kept for off-chain alignment\r\n    function settleDebtByName(\r\n        uint256 groupId,\r\n        string calldata debtorUsername,\r\n        /*string calldata creditorUsername,*/\r\n        uint256 paymentAmount\r\n    ) external payable groupExists(groupId) {\r\n        address debtor = msg.sender;\r\n        require(registered[debtor], \"Debtor not registered\");\r\n        require(paymentAmount > 0, \"Amount must be positive\");\r\n        require(msg.value == paymentAmount, \"Incorrect payment amount\");\r\n\r\n        // verify debtorUsername matches\r\n        require(\r\n            keccak256(bytes(usernameOf[debtor])) == keccak256(bytes(debtorUsername)),\r\n            \"Debtor username mismatch\"\r\n        );\r\n\r\n        // ensure membership\r\n        Group storage g = groups[groupId];\r\n        require(g.isMember[debtor], \"Debtor not in group\");\r\n\r\n        // here off-chain you would supply creditor address\r\n        // for on-chain, we trust msg.value distribution and mark settled\r\n        // (credential mapping not stored on-chain in this design)\r\n        // thus we simply emit event and mark generic flag\r\n        // NOTE: in real use, pass creditor address instead of username\r\n\r\n        // mark debt settled for all creditor entries (simplified)\r\n        // In a full design you'd specify creditorAddress\r\n        // but here we mark all debts from debtor in group as settled\r\n        for (uint i = 0; i < g.members.length; i++) {\r\n            address cred = g.members[i];\r\n            if (cred != debtor) {\r\n                debtSettled[groupId][debtor][cred] = true;\r\n                emit DebtSettled(groupId, debtor, cred, paymentAmount);\r\n            }\r\n        }\r\n\r\n        // forward funds to group owner as placeholder\r\n        payable(g.owner).transfer(paymentAmount);\r\n    }\r\n\r\n    /// @notice Get members of a group\r\n    function getGroupMembers(uint256 groupId)\r\n        external\r\n        view\r\n        groupExists(groupId)\r\n        returns (address[] memory)\r\n    {\r\n        return groups[groupId].members;\r\n    }\r\n\r\n    /// @notice Check if a specific debt is settled\r\n    function isSettled(uint256 groupId, address debtor, address creditor)\r\n        external\r\n        view\r\n        returns (bool)\r\n    {\r\n        return debtSettled[groupId][debtor][creditor];\r\n    }\r\n\r\n        /// @notice Return the basic info for a group\r\n    function getGroupInfo(uint256 groupId)\r\n      external\r\n      view\r\n      groupExists(groupId)\r\n      returns (\r\n        uint256 id,\r\n        string memory name,\r\n        address owner,\r\n        bool exists\r\n      )\r\n    {\r\n      Group storage g = groups[groupId];\r\n      return (g.id, g.name, g.owner, g.exists);\r\n    }\r\n\r\n}\r\n",
  "sourcePath": "C:\\Users\\Aryan Gupta\\Desktop\\TabX\\Tabx\\truffle\\contracts\\Tabx.sol",
  "compiler": {
    "name": "solc",
    "version": "0.8.0+commit.c7dfd78e.Emscripten.clang"
  },
  "schemaVersion": "3.4.16",
  "updatedAt": "2025-04-23T16:11:36.497Z",
  "networkType": "ethereum",
  "devdoc": {
    "kind": "dev",
    "methods": {
      "settleDebtByName(uint256,string,uint256)": {
        "details": "creditorUsername is unused on-chain; kept for off-chain alignment"
      }
    },
    "version": 1
  },
  "userdoc": {
    "kind": "user",
    "methods": {
      "addMember(uint256,address)": {
        "notice": "Add a member to a group (owner only)"
      },
      "createGroup(string)": {
        "notice": "Create a new group"
      },
      "deleteGroup(uint256)": {
        "notice": "Delete a group (only owner)"
      },
      "getGroupInfo(uint256)": {
        "notice": "Return the basic info for a group"
      },
      "getGroupMembers(uint256)": {
        "notice": "Get members of a group"
      },
      "isSettled(uint256,address,address)": {
        "notice": "Check if a specific debt is settled"
      },
      "registerUser(string)": {
        "notice": "Register yourself with a username"
      },
      "removeMember(uint256,address)": {
        "notice": "Remove a member from a group (owner only)"
      },
      "settleDebtByName(uint256,string,uint256)": {
        "notice": "Settle the debt you owe to a creditor in a group"
      }
    },
    "version": 1
  }
}