{
  "contractName": "TabX",
  "abi": [
    {
      "anonymous": false,
      "inputs": [
        {
          "indexed": true,
          "internalType": "uint256",
          "name": "groupId",
          "type": "uint256"
        }
      ],
      "name": "AutoSettlementExecuted",
      "type": "event"
    },
    {
      "anonymous": false,
      "inputs": [
        {
          "indexed": true,
          "internalType": "uint256",
          "name": "groupId",
          "type": "uint256"
        },
        {
          "indexed": false,
          "internalType": "uint256",
          "name": "timestamp",
          "type": "uint256"
        }
      ],
      "name": "AutoSettlementScheduled",
      "type": "event"
    },
    {
      "anonymous": false,
      "inputs": [
        {
          "indexed": true,
          "internalType": "uint256",
          "name": "groupId",
          "type": "uint256"
        },
        {
          "indexed": true,
          "internalType": "address",
          "name": "debtor",
          "type": "address"
        },
        {
          "indexed": true,
          "internalType": "address",
          "name": "creditor",
          "type": "address"
        },
        {
          "indexed": false,
          "internalType": "uint256",
          "name": "amount",
          "type": "uint256"
        }
      ],
      "name": "DebtSettled",
      "type": "event"
    },
    {
      "anonymous": false,
      "inputs": [
        {
          "indexed": true,
          "internalType": "uint256",
          "name": "groupId",
          "type": "uint256"
        },
        {
          "indexed": true,
          "internalType": "address",
          "name": "debtor",
          "type": "address"
        },
        {
          "indexed": true,
          "internalType": "address",
          "name": "creditor",
          "type": "address"
        },
        {
          "indexed": false,
          "internalType": "uint256",
          "name": "amount",
          "type": "uint256"
        }
      ],
      "name": "EscrowUsedForSettlement",
      "type": "event"
    },
    {
      "anonymous": false,
      "inputs": [
        {
          "indexed": true,
          "internalType": "uint256",
          "name": "groupId",
          "type": "uint256"
        },
        {
          "indexed": true,
          "internalType": "address",
          "name": "owner",
          "type": "address"
        },
        {
          "indexed": false,
          "internalType": "string",
          "name": "name",
          "type": "string"
        }
      ],
      "name": "GroupCreated",
      "type": "event"
    },
    {
      "anonymous": false,
      "inputs": [
        {
          "indexed": true,
          "internalType": "uint256",
          "name": "groupId",
          "type": "uint256"
        }
      ],
      "name": "GroupDeleted",
      "type": "event"
    },
    {
      "anonymous": false,
      "inputs": [
        {
          "indexed": true,
          "internalType": "uint256",
          "name": "groupId",
          "type": "uint256"
        },
        {
          "indexed": false,
          "internalType": "address",
          "name": "member",
          "type": "address"
        }
      ],
      "name": "MemberAdded",
      "type": "event"
    },
    {
      "anonymous": false,
      "inputs": [
        {
          "indexed": true,
          "internalType": "uint256",
          "name": "groupId",
          "type": "uint256"
        },
        {
          "indexed": false,
          "internalType": "address",
          "name": "member",
          "type": "address"
        }
      ],
      "name": "MemberRemoved",
      "type": "event"
    },
    {
      "anonymous": false,
      "inputs": [
        {
          "indexed": true,
          "internalType": "uint256",
          "name": "groupId",
          "type": "uint256"
        },
        {
          "indexed": true,
          "internalType": "address",
          "name": "user",
          "type": "address"
        },
        {
          "indexed": false,
          "internalType": "uint256",
          "name": "amount",
          "type": "uint256"
        }
      ],
      "name": "SecurityDeposited",
      "type": "event"
    },
    {
      "anonymous": false,
      "inputs": [
        {
          "indexed": true,
          "internalType": "uint256",
          "name": "groupId",
          "type": "uint256"
        },
        {
          "indexed": true,
          "internalType": "address",
          "name": "payer",
          "type": "address"
        },
        {
          "indexed": false,
          "internalType": "string",
          "name": "name",
          "type": "string"
        },
        {
          "indexed": false,
          "internalType": "address[]",
          "name": "debtors",
          "type": "address[]"
        },
        {
          "indexed": false,
          "internalType": "uint256[]",
          "name": "amounts",
          "type": "uint256[]"
        },
        {
          "indexed": false,
          "internalType": "uint256",
          "name": "timestamp",
          "type": "uint256"
        }
      ],
      "name": "SplitCreated",
      "type": "event"
    },
    {
      "anonymous": false,
      "inputs": [
        {
          "indexed": true,
          "internalType": "uint256",
          "name": "groupId",
          "type": "uint256"
        },
        {
          "indexed": true,
          "internalType": "address",
          "name": "deleter",
          "type": "address"
        },
        {
          "indexed": false,
          "internalType": "uint256",
          "name": "originalIdx",
          "type": "uint256"
        },
        {
          "indexed": false,
          "internalType": "uint256",
          "name": "timestamp",
          "type": "uint256"
        }
      ],
      "name": "SplitDeleted",
      "type": "event"
    },
    {
      "anonymous": false,
      "inputs": [
        {
          "indexed": true,
          "internalType": "uint256",
          "name": "groupId",
          "type": "uint256"
        },
        {
          "indexed": true,
          "internalType": "address",
          "name": "editor",
          "type": "address"
        },
        {
          "indexed": false,
          "internalType": "uint256",
          "name": "originalIdx",
          "type": "uint256"
        },
        {
          "indexed": false,
          "internalType": "string",
          "name": "name",
          "type": "string"
        },
        {
          "indexed": false,
          "internalType": "address[]",
          "name": "debtors",
          "type": "address[]"
        },
        {
          "indexed": false,
          "internalType": "uint256[]",
          "name": "amounts",
          "type": "uint256[]"
        },
        {
          "indexed": false,
          "internalType": "uint256",
          "name": "timestamp",
          "type": "uint256"
        }
      ],
      "name": "SplitEdited",
      "type": "event"
    },
    {
      "anonymous": false,
      "inputs": [
        {
          "indexed": true,
          "internalType": "address",
          "name": "user",
          "type": "address"
        },
        {
          "indexed": false,
          "internalType": "string",
          "name": "username",
          "type": "string"
        }
      ],
      "name": "UserRegistered",
      "type": "event"
    },
    {
      "inputs": [
        {
          "internalType": "uint256",
          "name": "",
          "type": "uint256"
        }
      ],
      "name": "autoSettlementEnabled",
      "outputs": [
        {
          "internalType": "bool",
          "name": "",
          "type": "bool"
        }
      ],
      "stateMutability": "view",
      "type": "function",
      "constant": true
    },
    {
      "inputs": [
        {
          "internalType": "uint256",
          "name": "",
          "type": "uint256"
        }
      ],
      "name": "autoSettlementTime",
      "outputs": [
        {
          "internalType": "uint256",
          "name": "",
          "type": "uint256"
        }
      ],
      "stateMutability": "view",
      "type": "function",
      "constant": true
    },
    {
      "inputs": [
        {
          "internalType": "uint256",
          "name": "",
          "type": "uint256"
        },
        {
          "internalType": "address",
          "name": "",
          "type": "address"
        },
        {
          "internalType": "address",
          "name": "",
          "type": "address"
        }
      ],
      "name": "debtSettled",
      "outputs": [
        {
          "internalType": "bool",
          "name": "",
          "type": "bool"
        }
      ],
      "stateMutability": "view",
      "type": "function",
      "constant": true
    },
    {
      "inputs": [],
      "name": "groupCount",
      "outputs": [
        {
          "internalType": "uint256",
          "name": "",
          "type": "uint256"
        }
      ],
      "stateMutability": "view",
      "type": "function",
      "constant": true
    },
    {
      "inputs": [
        {
          "internalType": "uint256",
          "name": "",
          "type": "uint256"
        },
        {
          "internalType": "address",
          "name": "",
          "type": "address"
        }
      ],
      "name": "groupEscrow",
      "outputs": [
        {
          "internalType": "uint256",
          "name": "",
          "type": "uint256"
        }
      ],
      "stateMutability": "view",
      "type": "function",
      "constant": true
    },
    {
      "inputs": [
        {
          "internalType": "address",
          "name": "",
          "type": "address"
        }
      ],
      "name": "registered",
      "outputs": [
        {
          "internalType": "bool",
          "name": "",
          "type": "bool"
        }
      ],
      "stateMutability": "view",
      "type": "function",
      "constant": true
    },
    {
      "inputs": [
        {
          "internalType": "address",
          "name": "",
          "type": "address"
        }
      ],
      "name": "usernameOf",
      "outputs": [
        {
          "internalType": "string",
          "name": "",
          "type": "string"
        }
      ],
      "stateMutability": "view",
      "type": "function",
      "constant": true
    },
    {
      "inputs": [
        {
          "internalType": "string",
          "name": "username",
          "type": "string"
        }
      ],
      "name": "registerUser",
      "outputs": [],
      "stateMutability": "nonpayable",
      "type": "function"
    },
    {
      "inputs": [
        {
          "internalType": "string",
          "name": "name",
          "type": "string"
        }
      ],
      "name": "createGroup",
      "outputs": [],
      "stateMutability": "nonpayable",
      "type": "function"
    },
    {
      "inputs": [
        {
          "internalType": "uint256",
          "name": "groupId",
          "type": "uint256"
        }
      ],
      "name": "deleteGroup",
      "outputs": [],
      "stateMutability": "nonpayable",
      "type": "function"
    },
    {
      "inputs": [
        {
          "internalType": "uint256",
          "name": "groupId",
          "type": "uint256"
        },
        {
          "internalType": "address",
          "name": "member",
          "type": "address"
        }
      ],
      "name": "addMember",
      "outputs": [],
      "stateMutability": "nonpayable",
      "type": "function"
    },
    {
      "inputs": [
        {
          "internalType": "uint256",
          "name": "groupId",
          "type": "uint256"
        },
        {
          "internalType": "address",
          "name": "member",
          "type": "address"
        }
      ],
      "name": "removeMember",
      "outputs": [],
      "stateMutability": "nonpayable",
      "type": "function"
    },
    {
      "inputs": [
        {
          "internalType": "uint256",
          "name": "groupId",
          "type": "uint256"
        }
      ],
      "name": "depositSecurity",
      "outputs": [],
      "stateMutability": "payable",
      "type": "function",
      "payable": true
    },
    {
      "inputs": [
        {
          "internalType": "uint256",
          "name": "groupId",
          "type": "uint256"
        },
        {
          "internalType": "string",
          "name": "debtorUsername",
          "type": "string"
        },
        {
          "internalType": "uint256",
          "name": "paymentAmount",
          "type": "uint256"
        }
      ],
      "name": "settleDebtByName",
      "outputs": [],
      "stateMutability": "payable",
      "type": "function",
      "payable": true
    },
    {
      "inputs": [
        {
          "internalType": "uint256",
          "name": "groupId",
          "type": "uint256"
        },
        {
          "internalType": "address",
          "name": "creditor",
          "type": "address"
        },
        {
          "internalType": "uint256",
          "name": "amount",
          "type": "uint256"
        }
      ],
      "name": "settleFromEscrow",
      "outputs": [],
      "stateMutability": "nonpayable",
      "type": "function"
    },
    {
      "inputs": [
        {
          "internalType": "uint256",
          "name": "groupId",
          "type": "uint256"
        },
        {
          "internalType": "uint256",
          "name": "delayInSeconds",
          "type": "uint256"
        }
      ],
      "name": "scheduleAutoSettlement",
      "outputs": [],
      "stateMutability": "nonpayable",
      "type": "function"
    },
    {
      "inputs": [
        {
          "internalType": "uint256",
          "name": "groupId",
          "type": "uint256"
        }
      ],
      "name": "triggerAutoSettlement",
      "outputs": [],
      "stateMutability": "nonpayable",
      "type": "function"
    },
    {
      "inputs": [
        {
          "internalType": "uint256",
          "name": "groupId",
          "type": "uint256"
        },
        {
          "internalType": "string",
          "name": "name",
          "type": "string"
        },
        {
          "internalType": "address[]",
          "name": "debtors",
          "type": "address[]"
        },
        {
          "internalType": "uint256[]",
          "name": "amounts",
          "type": "uint256[]"
        }
      ],
      "name": "createSplit",
      "outputs": [],
      "stateMutability": "nonpayable",
      "type": "function"
    },
    {
      "inputs": [
        {
          "internalType": "uint256",
          "name": "groupId",
          "type": "uint256"
        },
        {
          "internalType": "uint256",
          "name": "originalIdx",
          "type": "uint256"
        },
        {
          "internalType": "string",
          "name": "name",
          "type": "string"
        },
        {
          "internalType": "address[]",
          "name": "debtors",
          "type": "address[]"
        },
        {
          "internalType": "uint256[]",
          "name": "amounts",
          "type": "uint256[]"
        }
      ],
      "name": "editSplit",
      "outputs": [],
      "stateMutability": "nonpayable",
      "type": "function"
    },
    {
      "inputs": [
        {
          "internalType": "uint256",
          "name": "groupId",
          "type": "uint256"
        },
        {
          "internalType": "uint256",
          "name": "originalIdx",
          "type": "uint256"
        }
      ],
      "name": "deleteSplit",
      "outputs": [],
      "stateMutability": "nonpayable",
      "type": "function"
    },
    {
      "inputs": [
        {
          "internalType": "uint256",
          "name": "groupId",
          "type": "uint256"
        }
      ],
      "name": "getGroupMembers",
      "outputs": [
        {
          "internalType": "address[]",
          "name": "",
          "type": "address[]"
        }
      ],
      "stateMutability": "view",
      "type": "function",
      "constant": true
    },
    {
      "inputs": [
        {
          "internalType": "uint256",
          "name": "groupId",
          "type": "uint256"
        },
        {
          "internalType": "address",
          "name": "debtor",
          "type": "address"
        },
        {
          "internalType": "address",
          "name": "creditor",
          "type": "address"
        }
      ],
      "name": "isSettled",
      "outputs": [
        {
          "internalType": "bool",
          "name": "",
          "type": "bool"
        }
      ],
      "stateMutability": "view",
      "type": "function",
      "constant": true
    },
    {
      "inputs": [
        {
          "internalType": "uint256",
          "name": "groupId",
          "type": "uint256"
        }
      ],
      "name": "getGroupInfo",
      "outputs": [
        {
          "internalType": "uint256",
          "name": "id",
          "type": "uint256"
        },
        {
          "internalType": "string",
          "name": "name",
          "type": "string"
        },
        {
          "internalType": "address",
          "name": "owner",
          "type": "address"
        },
        {
          "internalType": "bool",
          "name": "exists",
          "type": "bool"
        }
      ],
      "stateMutability": "view",
      "type": "function",
      "constant": true
    }
  ],
  "bytecode": "0x608060405234801561001057600080fd5b50614a02806100206000396000f3fe6080604052600436106101405760003560e01c80638f23b326116100b6578063d6a3b9ff1161006f578063d6a3b9ff14610482578063d9715a77146104ab578063dc2ddcae146104d4578063e374867f146104fd578063feff2d641461053a578063ff7c13001461057757610140565b80638f23b3261461034b57806399d4360f14610376578063aab000c0146103b6578063aaef289b146103df578063b2dd5c0714610408578063b86fbcd31461044557610140565b8063460ff0b311610108578063460ff0b3146102415780635d89d7bc1461026a5780636be7658b14610293578063704f1b94146102bc57806374d0a676146102e55780637898acef1461030e57610140565b80631303b31614610145578063226ba2541461018257806322aeddfd146101bf57806336cc8130146101db57806345d88d2d14610218575b600080fd5b34801561015157600080fd5b5061016c600480360381019061016791906136e4565b610593565b604051610179919061424d565b60405180910390f35b34801561018e57600080fd5b506101a960048036038101906101a491906136a8565b6105cf565b6040516101b691906145ee565b60405180910390f35b6101d960048036038101906101d4919061367f565b6105f4565b005b3480156101e757600080fd5b5061020260048036038101906101fd919061367f565b610880565b60405161020f919061422b565b60405180910390f35b34801561022457600080fd5b5061023f600480360381019061023a919061367f565b610989565b005b34801561024d57600080fd5b50610268600480360381019061026391906138a7565b610b7e565b005b34801561027657600080fd5b50610291600480360381019061028c9190613782565b610db2565b005b34801561029f57600080fd5b506102ba60048036038101906102b591906136a8565b610f4e565b005b3480156102c857600080fd5b506102e360048036038101906102de919061363a565b6114e5565b005b3480156102f157600080fd5b5061030c600480360381019061030791906136a8565b6116b1565b005b34801561031a57600080fd5b5061033560048036038101906103309190613611565b611a74565b60405161034291906142ec565b60405180910390f35b34801561035757600080fd5b50610360611b14565b60405161036d91906145ee565b60405180910390f35b34801561038257600080fd5b5061039d6004803603810190610398919061367f565b611b1a565b6040516103ad9493929190614677565b60405180910390f35b3480156103c257600080fd5b506103dd60048036038101906103d891906138e3565b611c79565b005b3480156103eb57600080fd5b506104066004803603810190610401919061367f565b611e18565b005b34801561041457600080fd5b5061042f600480360381019061042a9190613611565b6124b6565b60405161043c919061424d565b60405180910390f35b34801561045157600080fd5b5061046c600480360381019061046791906136e4565b6124d6565b604051610479919061424d565b60405180910390f35b34801561048e57600080fd5b506104a960048036038101906104a491906138a7565b61257c565b005b3480156104b757600080fd5b506104d260048036038101906104cd9190613733565b6126c1565b005b3480156104e057600080fd5b506104fb60048036038101906104f6919061363a565b612c8a565b005b34801561050957600080fd5b50610524600480360381019061051f919061367f565b612f1e565b60405161053191906145ee565b60405180910390f35b34801561054657600080fd5b50610561600480360381019061055c919061367f565b612f36565b60405161056e919061424d565b60405180910390f35b610591600480360381019061058c919061383b565b612f56565b005b6004602052826000526040600020602052816000526040600020602052806000526040600020600092509250509054906101000a900460ff1681565b6007602052816000526040600020602052806000526040600020600091509150505481565b806002600082815260200190815260200160002060050160009054906101000a900460ff16610658576040517f08c379a000000000000000000000000000000000000000000000000000000000815260040161064f906144ee565b60405180910390fd5b6000803373ffffffffffffffffffffffffffffffffffffffff1673ffffffffffffffffffffffffffffffffffffffff16815260200190815260200160002060009054906101000a900460ff166106e3576040517f08c379a00000000000000000000000000000000000000000000000000000000081526004016106da9061432e565b60405180910390fd5b6002600083815260200190815260200160002060040160003373ffffffffffffffffffffffffffffffffffffffff1673ffffffffffffffffffffffffffffffffffffffff16815260200190815260200160002060009054906101000a900460ff16610783576040517f08c379a000000000000000000000000000000000000000000000000000000000815260040161077a9061436e565b60405180910390fd5b600034116107c6576040517f08c379a00000000000000000000000000000000000000000000000000000000081526004016107bd906143ae565b60405180910390fd5b346007600084815260200190815260200160002060003373ffffffffffffffffffffffffffffffffffffffff1673ffffffffffffffffffffffffffffffffffffffff168152602001908152602001600020600082825461082691906147a0565b925050819055503373ffffffffffffffffffffffffffffffffffffffff16827f727e8f9e2fbd8ac7a580d0bdf7a9970f75e0ca84c2abc9affb47c35f6a3434f13460405161087491906145ee565b60405180910390a35050565b6060816002600082815260200190815260200160002060050160009054906101000a900460ff166108e6576040517f08c379a00000000000000000000000000000000000000000000000000000000081526004016108dd906144ee565b60405180910390fd5b6002600084815260200190815260200160002060030180548060200260200160405190810160405280929190818152602001828054801561097c57602002820191906000526020600020905b8160009054906101000a900473ffffffffffffffffffffffffffffffffffffffff1673ffffffffffffffffffffffffffffffffffffffff1681526020019060010190808311610932575b5050505050915050919050565b6000803373ffffffffffffffffffffffffffffffffffffffff1673ffffffffffffffffffffffffffffffffffffffff16815260200190815260200160002060009054906101000a900460ff16610a14576040517f08c379a0000000000000000000000000000000000000000000000000000000008152600401610a0b9061432e565b60405180910390fd5b806002600082815260200190815260200160002060050160009054906101000a900460ff16610a78576040517f08c379a0000000000000000000000000000000000000000000000000000000008152600401610a6f906144ee565b60405180910390fd5b813373ffffffffffffffffffffffffffffffffffffffff166002600083815260200190815260200160002060020160009054906101000a900473ffffffffffffffffffffffffffffffffffffffff1673ffffffffffffffffffffffffffffffffffffffff1614610b1d576040517f08c379a0000000000000000000000000000000000000000000000000000000008152600401610b149061458e565b60405180910390fd5b60006002600085815260200190815260200160002060050160006101000a81548160ff021916908315150217905550827f05f39787bb37d43683a578f1d720308a1e4cd944934f11f73c9564925aca900d60405160405180910390a2505050565b6000803373ffffffffffffffffffffffffffffffffffffffff1673ffffffffffffffffffffffffffffffffffffffff16815260200190815260200160002060009054906101000a900460ff16610c09576040517f08c379a0000000000000000000000000000000000000000000000000000000008152600401610c009061432e565b60405180910390fd5b816002600082815260200190815260200160002060050160009054906101000a900460ff16610c6d576040517f08c379a0000000000000000000000000000000000000000000000000000000008152600401610c64906144ee565b60405180910390fd5b823373ffffffffffffffffffffffffffffffffffffffff166002600083815260200190815260200160002060020160009054906101000a900473ffffffffffffffffffffffffffffffffffffffff1673ffffffffffffffffffffffffffffffffffffffff1614610d12576040517f08c379a0000000000000000000000000000000000000000000000000000000008152600401610d099061458e565b60405180910390fd5b8242610d1e91906147a0565b600560008681526020019081526020016000208190555060016006600086815260200190815260200160002060006101000a81548160ff021916908315150217905550837f04d2adfd4cded3956948671c960401bf0110c3f2204e000f9d9342ff62d24ee76005600087815260200190815260200160002054604051610da491906145ee565b60405180910390a250505050565b6000803373ffffffffffffffffffffffffffffffffffffffff1673ffffffffffffffffffffffffffffffffffffffff16815260200190815260200160002060009054906101000a900460ff16610e3d576040517f08c379a0000000000000000000000000000000000000000000000000000000008152600401610e349061432e565b60405180910390fd5b866002600082815260200190815260200160002060050160009054906101000a900460ff16610ea1576040517f08c379a0000000000000000000000000000000000000000000000000000000008152600401610e98906144ee565b60405180910390fd5b828290508585905014610ee9576040517f08c379a0000000000000000000000000000000000000000000000000000000008152600401610ee09061440e565b60405180910390fd5b3373ffffffffffffffffffffffffffffffffffffffff16887fa7753f0ce32fd060b1d53bf5c166f9e7025fc8a8e9cff81eb94d2bf699d541b089898989898942604051610f3c979695949392919061428c565b60405180910390a35050505050505050565b6000803373ffffffffffffffffffffffffffffffffffffffff1673ffffffffffffffffffffffffffffffffffffffff16815260200190815260200160002060009054906101000a900460ff16610fd9576040517f08c379a0000000000000000000000000000000000000000000000000000000008152600401610fd09061432e565b60405180910390fd5b816002600082815260200190815260200160002060050160009054906101000a900460ff1661103d576040517f08c379a0000000000000000000000000000000000000000000000000000000008152600401611034906144ee565b60405180910390fd5b823373ffffffffffffffffffffffffffffffffffffffff166002600083815260200190815260200160002060020160009054906101000a900473ffffffffffffffffffffffffffffffffffffffff1673ffffffffffffffffffffffffffffffffffffffff16146110e2576040517f08c379a00000000000000000000000000000000000000000000000000000000081526004016110d99061458e565b60405180910390fd5b60006002600086815260200190815260200160002090508060040160008573ffffffffffffffffffffffffffffffffffffffff1673ffffffffffffffffffffffffffffffffffffffff16815260200190815260200160002060009054906101000a900460ff16611187576040517f08c379a000000000000000000000000000000000000000000000000000000000815260040161117e906144ce565b60405180910390fd5b8060020160009054906101000a900473ffffffffffffffffffffffffffffffffffffffff1673ffffffffffffffffffffffffffffffffffffffff168473ffffffffffffffffffffffffffffffffffffffff16141561121a576040517f08c379a00000000000000000000000000000000000000000000000000000000081526004016112119061446e565b60405180910390fd5b60008160040160008673ffffffffffffffffffffffffffffffffffffffff1673ffffffffffffffffffffffffffffffffffffffff16815260200190815260200160002060006101000a81548160ff02191690831515021790555060005b81600301805490508110156114a5578473ffffffffffffffffffffffffffffffffffffffff168260030182815481106112d9577f4e487b7100000000000000000000000000000000000000000000000000000000600052603260045260246000fd5b9060005260206000200160009054906101000a900473ffffffffffffffffffffffffffffffffffffffff1673ffffffffffffffffffffffffffffffffffffffff16141561149257816003016001836003018054905061133891906147f6565b8154811061136f577f4e487b7100000000000000000000000000000000000000000000000000000000600052603260045260246000fd5b9060005260206000200160009054906101000a900473ffffffffffffffffffffffffffffffffffffffff168260030182815481106113d6577f4e487b7100000000000000000000000000000000000000000000000000000000600052603260045260246000fd5b9060005260206000200160006101000a81548173ffffffffffffffffffffffffffffffffffffffff021916908373ffffffffffffffffffffffffffffffffffffffff16021790555081600301805480611458577f4e487b7100000000000000000000000000000000000000000000000000000000600052603160045260246000fd5b6001900381819060005260206000200160006101000a81549073ffffffffffffffffffffffffffffffffffffffff021916905590556114a5565b808061149d906148e6565b915050611277565b50847f1c4c9d2e56d0635d11bc47c997c6909a0d7061f55cbb8f4b27386db37553191c856040516114d69190614210565b60405180910390a25050505050565b6000803373ffffffffffffffffffffffffffffffffffffffff1673ffffffffffffffffffffffffffffffffffffffff16815260200190815260200160002060009054906101000a900460ff1615611571576040517f08c379a0000000000000000000000000000000000000000000000000000000008152600401611568906143ce565b60405180910390fd5b600082829050116115b7576040517f08c379a00000000000000000000000000000000000000000000000000000000081526004016115ae9061430e565b60405180910390fd5b60016000803373ffffffffffffffffffffffffffffffffffffffff1673ffffffffffffffffffffffffffffffffffffffff16815260200190815260200160002060006101000a81548160ff0219169083151502179055508181600160003373ffffffffffffffffffffffffffffffffffffffff1673ffffffffffffffffffffffffffffffffffffffff168152602001908152602001600020919061165c929190613466565b503373ffffffffffffffffffffffffffffffffffffffff167f48cac28ad4dc618e15f4c2dd5e97751182f166de97b25618318b2112aa951a2f83836040516116a5929190614268565b60405180910390a25050565b6000803373ffffffffffffffffffffffffffffffffffffffff1673ffffffffffffffffffffffffffffffffffffffff16815260200190815260200160002060009054906101000a900460ff1661173c576040517f08c379a00000000000000000000000000000000000000000000000000000000081526004016117339061432e565b60405180910390fd5b816002600082815260200190815260200160002060050160009054906101000a900460ff166117a0576040517f08c379a0000000000000000000000000000000000000000000000000000000008152600401611797906144ee565b60405180910390fd5b823373ffffffffffffffffffffffffffffffffffffffff166002600083815260200190815260200160002060020160009054906101000a900473ffffffffffffffffffffffffffffffffffffffff1673ffffffffffffffffffffffffffffffffffffffff1614611845576040517f08c379a000000000000000000000000000000000000000000000000000000000815260040161183c9061458e565b60405180910390fd5b6000808473ffffffffffffffffffffffffffffffffffffffff1673ffffffffffffffffffffffffffffffffffffffff16815260200190815260200160002060009054906101000a900460ff166118d0576040517f08c379a00000000000000000000000000000000000000000000000000000000081526004016118c79061454e565b60405180910390fd5b60006002600086815260200190815260200160002090508060040160008573ffffffffffffffffffffffffffffffffffffffff1673ffffffffffffffffffffffffffffffffffffffff16815260200190815260200160002060009054906101000a900460ff1615611976576040517f08c379a000000000000000000000000000000000000000000000000000000000815260040161196d906145ae565b60405180910390fd5b60018160040160008673ffffffffffffffffffffffffffffffffffffffff1673ffffffffffffffffffffffffffffffffffffffff16815260200190815260200160002060006101000a81548160ff02191690831515021790555080600301849080600181540180825580915050600190039060005260206000200160009091909190916101000a81548173ffffffffffffffffffffffffffffffffffffffff021916908373ffffffffffffffffffffffffffffffffffffffff160217905550847ff328ac0f8bcae00933fe87ba0aa2d0d505c1df94bc9c1aa05b8441c28b74032c85604051611a659190614210565b60405180910390a25050505050565b60016020528060005260406000206000915090508054611a93906148b4565b80601f0160208091040260200160405190810160405280929190818152602001828054611abf906148b4565b8015611b0c5780601f10611ae157610100808354040283529160200191611b0c565b820191906000526020600020905b815481529060010190602001808311611aef57829003601f168201915b505050505081565b60035481565b60006060600080846002600082815260200190815260200160002060050160009054906101000a900460ff16611b85576040517f08c379a0000000000000000000000000000000000000000000000000000000008152600401611b7c906144ee565b60405180910390fd5b60006002600088815260200190815260200160002090508060000154816001018260020160009054906101000a900473ffffffffffffffffffffffffffffffffffffffff168360050160009054906101000a900460ff16828054611be8906148b4565b80601f0160208091040260200160405190810160405280929190818152602001828054611c14906148b4565b8015611c615780601f10611c3657610100808354040283529160200191611c61565b820191906000526020600020905b815481529060010190602001808311611c4457829003601f168201915b50505050509250955095509550955050509193509193565b6000803373ffffffffffffffffffffffffffffffffffffffff1673ffffffffffffffffffffffffffffffffffffffff16815260200190815260200160002060009054906101000a900460ff16611d04576040517f08c379a0000000000000000000000000000000000000000000000000000000008152600401611cfb9061432e565b60405180910390fd5b876002600082815260200190815260200160002060050160009054906101000a900460ff16611d68576040517f08c379a0000000000000000000000000000000000000000000000000000000008152600401611d5f906144ee565b60405180910390fd5b828290508585905014611db0576040517f08c379a0000000000000000000000000000000000000000000000000000000008152600401611da79061440e565b60405180910390fd5b3373ffffffffffffffffffffffffffffffffffffffff16897f6cb9d2806b2a9058b2f00a00183ac653f1ea88f13cc37042b83020ebd4e4c9488a8a8a8a8a8a8a42604051611e05989796959493929190614609565b60405180910390a3505050505050505050565b6000803373ffffffffffffffffffffffffffffffffffffffff1673ffffffffffffffffffffffffffffffffffffffff16815260200190815260200160002060009054906101000a900460ff16611ea3576040517f08c379a0000000000000000000000000000000000000000000000000000000008152600401611e9a9061432e565b60405180910390fd5b806002600082815260200190815260200160002060050160009054906101000a900460ff16611f07576040517f08c379a0000000000000000000000000000000000000000000000000000000008152600401611efe906144ee565b60405180910390fd5b6006600083815260200190815260200160002060009054906101000a900460ff16611f67576040517f08c379a0000000000000000000000000000000000000000000000000000000008152600401611f5e906144ae565b60405180910390fd5b6005600083815260200190815260200160002054421015611fbd576040517f08c379a0000000000000000000000000000000000000000000000000000000008152600401611fb49061450e565b60405180910390fd5b600060026000848152602001908152602001600020905060005b8160030180549050811015612457576000826003018281548110612024577f4e487b7100000000000000000000000000000000000000000000000000000000600052603260045260246000fd5b9060005260206000200160009054906101000a900473ffffffffffffffffffffffffffffffffffffffff16905060005b83600301805490508110156124425760008460030182815481106120a1577f4e487b7100000000000000000000000000000000000000000000000000000000600052603260045260246000fd5b9060005260206000200160009054906101000a900473ffffffffffffffffffffffffffffffffffffffff1690508073ffffffffffffffffffffffffffffffffffffffff168373ffffffffffffffffffffffffffffffffffffffff161415612108575061242f565b6004600088815260200190815260200160002060008473ffffffffffffffffffffffffffffffffffffffff1673ffffffffffffffffffffffffffffffffffffffff16815260200190815260200160002060008273ffffffffffffffffffffffffffffffffffffffff1673ffffffffffffffffffffffffffffffffffffffff16815260200190815260200160002060009054906101000a900460ff1661242d576000662386f26fc10000905080600760008a815260200190815260200160002060008673ffffffffffffffffffffffffffffffffffffffff1673ffffffffffffffffffffffffffffffffffffffff168152602001908152602001600020541061242b5780600760008a815260200190815260200160002060008673ffffffffffffffffffffffffffffffffffffffff1673ffffffffffffffffffffffffffffffffffffffff168152602001908152602001600020600082825461226a91906147f6565b925050819055508173ffffffffffffffffffffffffffffffffffffffff166108fc829081150290604051600060405180830381858888f193505050501580156122b7573d6000803e3d6000fd5b506001600460008a815260200190815260200160002060008673ffffffffffffffffffffffffffffffffffffffff1673ffffffffffffffffffffffffffffffffffffffff16815260200190815260200160002060008473ffffffffffffffffffffffffffffffffffffffff1673ffffffffffffffffffffffffffffffffffffffff16815260200190815260200160002060006101000a81548160ff0219169083151502179055508173ffffffffffffffffffffffffffffffffffffffff168473ffffffffffffffffffffffffffffffffffffffff16897f16c014bb6d1c6cc25e4d9c2ffff2d5052bc083462038999100ead76edf97bee0846040516123bc91906145ee565b60405180910390a48173ffffffffffffffffffffffffffffffffffffffff168473ffffffffffffffffffffffffffffffffffffffff16897f42c590ce18bd7e29af1252aa4d07ef288211b827bf9c59b12f50ecad00167f7a8460405161242291906145ee565b60405180910390a45b505b505b808061243a906148e6565b915050612054565b5050808061244f906148e6565b915050611fd7565b5060006006600085815260200190815260200160002060006101000a81548160ff021916908315150217905550827f3bf04475b665123438783b19e204bdd2bbd5421ffb6b90034a5ab03f664c539860405160405180910390a2505050565b60006020528060005260406000206000915054906101000a900460ff1681565b60006004600085815260200190815260200160002060008473ffffffffffffffffffffffffffffffffffffffff1673ffffffffffffffffffffffffffffffffffffffff16815260200190815260200160002060008373ffffffffffffffffffffffffffffffffffffffff1673ffffffffffffffffffffffffffffffffffffffff16815260200190815260200160002060009054906101000a900460ff1690509392505050565b6000803373ffffffffffffffffffffffffffffffffffffffff1673ffffffffffffffffffffffffffffffffffffffff16815260200190815260200160002060009054906101000a900460ff16612607576040517f08c379a00000000000000000000000000000000000000000000000000000000081526004016125fe9061432e565b60405180910390fd5b816002600082815260200190815260200160002060050160009054906101000a900460ff1661266b576040517f08c379a0000000000000000000000000000000000000000000000000000000008152600401612662906144ee565b60405180910390fd5b3373ffffffffffffffffffffffffffffffffffffffff16837f7b3e220ec6658b94dd945bbc07705d7fb2178d3200ebd8087f85e89c09c88abe84426040516126b49291906146c3565b60405180910390a3505050565b6000803373ffffffffffffffffffffffffffffffffffffffff1673ffffffffffffffffffffffffffffffffffffffff16815260200190815260200160002060009054906101000a900460ff1661274c576040517f08c379a00000000000000000000000000000000000000000000000000000000081526004016127439061432e565b60405180910390fd5b826002600082815260200190815260200160002060050160009054906101000a900460ff166127b0576040517f08c379a00000000000000000000000000000000000000000000000000000000081526004016127a7906144ee565b60405180910390fd5b60003390506002600086815260200190815260200160002060040160008273ffffffffffffffffffffffffffffffffffffffff1673ffffffffffffffffffffffffffffffffffffffff16815260200190815260200160002060009054906101000a900460ff16612855576040517f08c379a000000000000000000000000000000000000000000000000000000000815260040161284c9061436e565b60405180910390fd5b6002600086815260200190815260200160002060040160008573ffffffffffffffffffffffffffffffffffffffff1673ffffffffffffffffffffffffffffffffffffffff16815260200190815260200160002060009054906101000a900460ff166128f5576040517f08c379a00000000000000000000000000000000000000000000000000000000081526004016128ec9061452e565b60405180910390fd5b6004600086815260200190815260200160002060008273ffffffffffffffffffffffffffffffffffffffff1673ffffffffffffffffffffffffffffffffffffffff16815260200190815260200160002060008573ffffffffffffffffffffffffffffffffffffffff1673ffffffffffffffffffffffffffffffffffffffff16815260200190815260200160002060009054906101000a900460ff16156129d0576040517f08c379a00000000000000000000000000000000000000000000000000000000081526004016129c79061456e565b60405180910390fd5b826007600087815260200190815260200160002060008373ffffffffffffffffffffffffffffffffffffffff1673ffffffffffffffffffffffffffffffffffffffff168152602001908152602001600020541015612a63576040517f08c379a0000000000000000000000000000000000000000000000000000000008152600401612a5a9061438e565b60405180910390fd5b826007600087815260200190815260200160002060008373ffffffffffffffffffffffffffffffffffffffff1673ffffffffffffffffffffffffffffffffffffffff1681526020019081526020016000206000828254612ac391906147f6565b925050819055508373ffffffffffffffffffffffffffffffffffffffff166108fc849081150290604051600060405180830381858888f19350505050158015612b10573d6000803e3d6000fd5b5060016004600087815260200190815260200160002060008373ffffffffffffffffffffffffffffffffffffffff1673ffffffffffffffffffffffffffffffffffffffff16815260200190815260200160002060008673ffffffffffffffffffffffffffffffffffffffff1673ffffffffffffffffffffffffffffffffffffffff16815260200190815260200160002060006101000a81548160ff0219169083151502179055508373ffffffffffffffffffffffffffffffffffffffff168173ffffffffffffffffffffffffffffffffffffffff16867f16c014bb6d1c6cc25e4d9c2ffff2d5052bc083462038999100ead76edf97bee086604051612c1591906145ee565b60405180910390a48373ffffffffffffffffffffffffffffffffffffffff168173ffffffffffffffffffffffffffffffffffffffff16867f42c590ce18bd7e29af1252aa4d07ef288211b827bf9c59b12f50ecad00167f7a86604051612c7b91906145ee565b60405180910390a45050505050565b6000803373ffffffffffffffffffffffffffffffffffffffff1673ffffffffffffffffffffffffffffffffffffffff16815260200190815260200160002060009054906101000a900460ff16612d15576040517f08c379a0000000000000000000000000000000000000000000000000000000008152600401612d0c9061432e565b60405180910390fd5b60008282905011612d5b576040517f08c379a0000000000000000000000000000000000000000000000000000000008152600401612d529061434e565b60405180910390fd5b6000600360008154612d6c906148e6565b919050819055905060006002600083815260200190815260200160002090508181600001819055508383826001019190612da7929190613466565b50338160020160006101000a81548173ffffffffffffffffffffffffffffffffffffffff021916908373ffffffffffffffffffffffffffffffffffffffff16021790555060018160050160006101000a81548160ff02191690831515021790555060018160040160003373ffffffffffffffffffffffffffffffffffffffff1673ffffffffffffffffffffffffffffffffffffffff16815260200190815260200160002060006101000a81548160ff02191690831515021790555080600301339080600181540180825580915050600190039060005260206000200160009091909190916101000a81548173ffffffffffffffffffffffffffffffffffffffff021916908373ffffffffffffffffffffffffffffffffffffffff1602179055503373ffffffffffffffffffffffffffffffffffffffff16827f4354295f5d98820e66a770bd58cf23606ab255dd9dc2daf870fab38ecbc3e7e08686604051612f10929190614268565b60405180910390a350505050565b60056020528060005260406000206000915090505481565b60066020528060005260406000206000915054906101000a900460ff1681565b836002600082815260200190815260200160002060050160009054906101000a900460ff16612fba576040517f08c379a0000000000000000000000000000000000000000000000000000000008152600401612fb1906144ee565b60405180910390fd5b60003390506000808273ffffffffffffffffffffffffffffffffffffffff1673ffffffffffffffffffffffffffffffffffffffff16815260200190815260200160002060009054906101000a900460ff1661304a576040517f08c379a00000000000000000000000000000000000000000000000000000000081526004016130419061442e565b60405180910390fd5b6000831161308d576040517f08c379a0000000000000000000000000000000000000000000000000000000008152600401613084906145ce565b60405180910390fd5b8234146130cf576040517f08c379a00000000000000000000000000000000000000000000000000000000081526004016130c6906143ee565b60405180910390fd5b84846040516130df9291906141e0565b6040518091039020600160008373ffffffffffffffffffffffffffffffffffffffff1673ffffffffffffffffffffffffffffffffffffffff16815260200190815260200160002060405161313391906141f9565b60405180910390201461317b576040517f08c379a00000000000000000000000000000000000000000000000000000000081526004016131729061444e565b60405180910390fd5b60006002600088815260200190815260200160002090508060040160008373ffffffffffffffffffffffffffffffffffffffff1673ffffffffffffffffffffffffffffffffffffffff16815260200190815260200160002060009054906101000a900460ff16613220576040517f08c379a00000000000000000000000000000000000000000000000000000000081526004016132179061448e565b60405180910390fd5b60005b81600301805490508110156133f1576000826003018281548110613270577f4e487b7100000000000000000000000000000000000000000000000000000000600052603260045260246000fd5b9060005260206000200160009054906101000a900473ffffffffffffffffffffffffffffffffffffffff1690508373ffffffffffffffffffffffffffffffffffffffff168173ffffffffffffffffffffffffffffffffffffffff16146133dd576001600460008b815260200190815260200160002060008673ffffffffffffffffffffffffffffffffffffffff1673ffffffffffffffffffffffffffffffffffffffff16815260200190815260200160002060008373ffffffffffffffffffffffffffffffffffffffff1673ffffffffffffffffffffffffffffffffffffffff16815260200190815260200160002060006101000a81548160ff0219169083151502179055508073ffffffffffffffffffffffffffffffffffffffff168473ffffffffffffffffffffffffffffffffffffffff168a7f16c014bb6d1c6cc25e4d9c2ffff2d5052bc083462038999100ead76edf97bee0896040516133d491906145ee565b60405180910390a45b5080806133e9906148e6565b915050613223565b508060020160009054906101000a900473ffffffffffffffffffffffffffffffffffffffff1673ffffffffffffffffffffffffffffffffffffffff166108fc859081150290604051600060405180830381858888f1935050505015801561345c573d6000803e3d6000fd5b5050505050505050565b828054613472906148b4565b90600052602060002090601f01602090048101928261349457600085556134db565b82601f106134ad57803560ff19168380011785556134db565b828001600101855582156134db579182015b828111156134da5782358255916020019190600101906134bf565b5b5090506134e891906134ec565b5090565b5b808211156135055760008160009055506001016134ed565b5090565b6000813590506135188161499e565b92915050565b60008083601f84011261353057600080fd5b8235905067ffffffffffffffff81111561354957600080fd5b60208301915083602082028301111561356157600080fd5b9250929050565b60008083601f84011261357a57600080fd5b8235905067ffffffffffffffff81111561359357600080fd5b6020830191508360208202830111156135ab57600080fd5b9250929050565b60008083601f8401126135c457600080fd5b8235905067ffffffffffffffff8111156135dd57600080fd5b6020830191508360018202830111156135f557600080fd5b9250929050565b60008135905061360b816149b5565b92915050565b60006020828403121561362357600080fd5b600061363184828501613509565b91505092915050565b6000806020838503121561364d57600080fd5b600083013567ffffffffffffffff81111561366757600080fd5b613673858286016135b2565b92509250509250929050565b60006020828403121561369157600080fd5b600061369f848285016135fc565b91505092915050565b600080604083850312156136bb57600080fd5b60006136c9858286016135fc565b92505060206136da85828601613509565b9150509250929050565b6000806000606084860312156136f957600080fd5b6000613707868287016135fc565b935050602061371886828701613509565b925050604061372986828701613509565b9150509250925092565b60008060006060848603121561374857600080fd5b6000613756868287016135fc565b935050602061376786828701613509565b9250506040613778868287016135fc565b9150509250925092565b60008060008060008060006080888a03121561379d57600080fd5b60006137ab8a828b016135fc565b975050602088013567ffffffffffffffff8111156137c857600080fd5b6137d48a828b016135b2565b9650965050604088013567ffffffffffffffff8111156137f357600080fd5b6137ff8a828b0161351e565b9450945050606088013567ffffffffffffffff81111561381e57600080fd5b61382a8a828b01613568565b925092505092959891949750929550565b6000806000806060858703121561385157600080fd5b600061385f878288016135fc565b945050602085013567ffffffffffffffff81111561387c57600080fd5b613888878288016135b2565b9350935050604061389b878288016135fc565b91505092959194509250565b600080604083850312156138ba57600080fd5b60006138c8858286016135fc565b92505060206138d9858286016135fc565b9150509250929050565b60008060008060008060008060a0898b0312156138ff57600080fd5b600061390d8b828c016135fc565b985050602061391e8b828c016135fc565b975050604089013567ffffffffffffffff81111561393b57600080fd5b6139478b828c016135b2565b9650965050606089013567ffffffffffffffff81111561396657600080fd5b6139728b828c0161351e565b9450945050608089013567ffffffffffffffff81111561399157600080fd5b61399d8b828c01613568565b92509250509295985092959890939650565b60006139bb83836139c7565b60208301905092915050565b6139d08161482a565b82525050565b6139df8161482a565b82525050565b60006139f1838561474b565b93506139fc826146ec565b8060005b85811015613a3557613a128284614789565b613a1c88826139af565b9750613a2783614731565b925050600181019050613a00565b5085925050509392505050565b6000613a4d8261471b565b613a57818561474b565b9350613a62836146f6565b8060005b83811015613a93578151613a7a88826139af565b9750613a858361473e565b925050600181019050613a66565b5085935050505092915050565b6000613aac838561475c565b93507f07ffffffffffffffffffffffffffffffffffffffffffffffffffffffffffffff831115613adb57600080fd5b602083029250613aec838584614872565b82840190509392505050565b613b018161483c565b82525050565b6000613b13838561476d565b9350613b20838584614872565b82840190509392505050565b60008154613b39816148b4565b613b43818661476d565b94506001821660008114613b5e5760018114613b6f57613ba2565b60ff19831686528186019350613ba2565b613b7885614706565b60005b83811015613b9a57815481890152600182019150602081019050613b7b565b838801955050505b50505092915050565b6000613bb78385614778565b9350613bc4838584614872565b613bcd8361498d565b840190509392505050565b6000613be382614726565b613bed8185614778565b9350613bfd818560208601614881565b613c068161498d565b840191505092915050565b6000613c1e601883614778565b91507f557365726e616d652063616e6e6f7420626520656d70747900000000000000006000830152602082019050919050565b6000613c5e600e83614778565b91507f4e6f7420726567697374657265640000000000000000000000000000000000006000830152602082019050919050565b6000613c9e601a83614778565b91507f47726f7570206e616d652063616e6e6f7420626520656d7074790000000000006000830152602082019050919050565b6000613cde601283614778565b91507f4e6f7420612067726f7570206d656d62657200000000000000000000000000006000830152602082019050919050565b6000613d1e601383614778565b91507f496e73756666696369656e7420657363726f77000000000000000000000000006000830152602082019050919050565b6000613d5e601e83614778565b91507f4d757374206465706f736974206120706f73697469766520616d6f756e7400006000830152602082019050919050565b6000613d9e601283614778565b91507f416c7265616479207265676973746572656400000000000000000000000000006000830152602082019050919050565b6000613dde601883614778565b91507f496e636f7272656374207061796d656e7420616d6f756e7400000000000000006000830152602082019050919050565b6000613e1e601183614778565b91507f4d69736d617463686564206172726179730000000000000000000000000000006000830152602082019050919050565b6000613e5e601583614778565b91507f446562746f72206e6f74207265676973746572656400000000000000000000006000830152602082019050919050565b6000613e9e601883614778565b91507f446562746f7220757365726e616d65206d69736d6174636800000000000000006000830152602082019050919050565b6000613ede601383614778565b91507f43616e6e6f742072656d6f7665206f776e6572000000000000000000000000006000830152602082019050919050565b6000613f1e601383614778565b91507f446562746f72206e6f7420696e2067726f7570000000000000000000000000006000830152602082019050919050565b6000613f5e601b83614778565b91507f4175746f2d736574746c656d656e74206e6f7420656e61626c656400000000006000830152602082019050919050565b6000613f9e600c83614778565b91507f4e6f742061206d656d62657200000000000000000000000000000000000000006000830152602082019050919050565b6000613fde601483614778565b91507f47726f757020646f6573206e6f742065786973740000000000000000000000006000830152602082019050919050565b600061401e600983614778565b91507f546f6f206561726c7900000000000000000000000000000000000000000000006000830152602082019050919050565b600061405e601083614778565b91507f496e76616c6964206372656469746f72000000000000000000000000000000006000830152602082019050919050565b600061409e601583614778565b91507f4d656d626572206e6f74207265676973746572656400000000000000000000006000830152602082019050919050565b60006140de600f83614778565b91507f416c726561647920736574746c656400000000000000000000000000000000006000830152602082019050919050565b600061411e600f83614778565b91507f4e6f742067726f7570206f776e657200000000000000000000000000000000006000830152602082019050919050565b600061415e601083614778565b91507f416c72656164792061206d656d626572000000000000000000000000000000006000830152602082019050919050565b600061419e601783614778565b91507f416d6f756e74206d75737420626520706f7369746976650000000000000000006000830152602082019050919050565b6141da81614868565b82525050565b60006141ed828486613b07565b91508190509392505050565b60006142058284613b2c565b915081905092915050565b600060208201905061422560008301846139d6565b92915050565b600060208201905081810360008301526142458184613a42565b905092915050565b60006020820190506142626000830184613af8565b92915050565b60006020820190508181036000830152614283818486613bab565b90509392505050565b600060808201905081810360008301526142a781898b613bab565b905081810360208301526142bc8187896139e5565b905081810360408301526142d1818587613aa0565b90506142e060608301846141d1565b98975050505050505050565b600060208201905081810360008301526143068184613bd8565b905092915050565b6000602082019050818103600083015261432781613c11565b9050919050565b6000602082019050818103600083015261434781613c51565b9050919050565b6000602082019050818103600083015261436781613c91565b9050919050565b6000602082019050818103600083015261438781613cd1565b9050919050565b600060208201905081810360008301526143a781613d11565b9050919050565b600060208201905081810360008301526143c781613d51565b9050919050565b600060208201905081810360008301526143e781613d91565b9050919050565b6000602082019050818103600083015261440781613dd1565b9050919050565b6000602082019050818103600083015261442781613e11565b9050919050565b6000602082019050818103600083015261444781613e51565b9050919050565b6000602082019050818103600083015261446781613e91565b9050919050565b6000602082019050818103600083015261448781613ed1565b9050919050565b600060208201905081810360008301526144a781613f11565b9050919050565b600060208201905081810360008301526144c781613f51565b9050919050565b600060208201905081810360008301526144e781613f91565b9050919050565b6000602082019050818103600083015261450781613fd1565b9050919050565b6000602082019050818103600083015261452781614011565b9050919050565b6000602082019050818103600083015261454781614051565b9050919050565b6000602082019050818103600083015261456781614091565b9050919050565b60006020820190508181036000830152614587816140d1565b9050919050565b600060208201905081810360008301526145a781614111565b9050919050565b600060208201905081810360008301526145c781614151565b9050919050565b600060208201905081810360008301526145e781614191565b9050919050565b600060208201905061460360008301846141d1565b92915050565b600060a08201905061461e600083018b6141d1565b818103602083015261463181898b613bab565b905081810360408301526146468187896139e5565b9050818103606083015261465b818587613aa0565b905061466a60808301846141d1565b9998505050505050505050565b600060808201905061468c60008301876141d1565b818103602083015261469e8186613bd8565b90506146ad60408301856139d6565b6146ba6060830184613af8565b95945050505050565b60006040820190506146d860008301856141d1565b6146e560208301846141d1565b9392505050565b6000819050919050565b6000819050602082019050919050565b60008190508160005260206000209050919050565b600081519050919050565b600081519050919050565b6000602082019050919050565b6000602082019050919050565b600082825260208201905092915050565b600082825260208201905092915050565b600081905092915050565b600082825260208201905092915050565b60006147986020840184613509565b905092915050565b60006147ab82614868565b91506147b683614868565b9250827fffffffffffffffffffffffffffffffffffffffffffffffffffffffffffffffff038211156147eb576147ea61492f565b5b828201905092915050565b600061480182614868565b915061480c83614868565b92508282101561481f5761481e61492f565b5b828203905092915050565b600061483582614848565b9050919050565b60008115159050919050565b600073ffffffffffffffffffffffffffffffffffffffff82169050919050565b6000819050919050565b82818337600083830152505050565b60005b8381101561489f578082015181840152602081019050614884565b838111156148ae576000848401525b50505050565b600060028204905060018216806148cc57607f821691505b602082108114156148e0576148df61495e565b5b50919050565b60006148f182614868565b91507fffffffffffffffffffffffffffffffffffffffffffffffffffffffffffffffff8214156149245761492361492f565b5b600182019050919050565b7f4e487b7100000000000000000000000000000000000000000000000000000000600052601160045260246000fd5b7f4e487b7100000000000000000000000000000000000000000000000000000000600052602260045260246000fd5b6000601f19601f8301169050919050565b6149a78161482a565b81146149b257600080fd5b50565b6149be81614868565b81146149c957600080fd5b5056fea26469706673582212204c4bb13f9aae6ab237624af927d29f35e257276ca28368b089d16e6f805d13f664736f6c63430008000033",
  "immutableReferences": {},
  "source": "// SPDX-License-Identifier: MIT\r\npragma solidity ^0.8.0;\r\n\r\ncontract TabX {\r\n    struct Group {\r\n        uint256 id;\r\n        string name;\r\n        address owner;\r\n        address[] members;\r\n        mapping(address => bool) isMember;\r\n        bool exists;\r\n    }\r\n\r\n    mapping(address => bool) public registered;\r\n    mapping(address => string) public usernameOf;\r\n    mapping(uint256 => Group) private groups;\r\n    uint256 public groupCount;\r\n    mapping(uint256 => mapping(address => mapping(address => bool))) public debtSettled;\r\n\r\n    // Autosettlement\r\n    mapping(uint256 => uint256) public autoSettlementTime;\r\n    mapping(uint256 => bool) public autoSettlementEnabled;\r\n\r\n    // Escrow\r\n    mapping(uint256 => mapping(address => uint256)) public groupEscrow;\r\n\r\n    // Events\r\n    event UserRegistered(address indexed user, string username);\r\n    event GroupCreated(uint256 indexed groupId, address indexed owner, string name);\r\n    event GroupDeleted(uint256 indexed groupId);\r\n    event MemberAdded(uint256 indexed groupId, address member);\r\n    event MemberRemoved(uint256 indexed groupId, address member);\r\n    event DebtSettled(uint256 indexed groupId, address indexed debtor, address indexed creditor, uint256 amount);\r\n    event AutoSettlementScheduled(uint256 indexed groupId, uint256 timestamp);\r\n    event AutoSettlementExecuted(uint256 indexed groupId);\r\n    event SecurityDeposited(uint256 indexed groupId, address indexed user, uint256 amount);\r\n    event EscrowUsedForSettlement(uint256 indexed groupId, address indexed debtor, address indexed creditor, uint256 amount);\r\n\r\n    // Expense split events for off-chain indexing\r\n    event SplitCreated(\r\n        uint256 indexed groupId,\r\n        address indexed payer,\r\n        string name,\r\n        address[] debtors,\r\n        uint256[] amounts,\r\n        uint256 timestamp\r\n    );\r\n    event SplitEdited(\r\n        uint256 indexed groupId,\r\n        address indexed editor,\r\n        uint256 originalIdx,\r\n        string name,\r\n        address[] debtors,\r\n        uint256[] amounts,\r\n        uint256 timestamp\r\n    );\r\n    event SplitDeleted(\r\n        uint256 indexed groupId,\r\n        address indexed deleter,\r\n        uint256 originalIdx,\r\n        uint256 timestamp\r\n    );\r\n\r\n    modifier onlyRegistered() {\r\n        require(registered[msg.sender], \"Not registered\");\r\n        _;\r\n    }\r\n\r\n    modifier groupExists(uint256 groupId) {\r\n        require(groups[groupId].exists, \"Group does not exist\");\r\n        _;\r\n    }\r\n\r\n    modifier onlyGroupOwner(uint256 groupId) {\r\n        require(groups[groupId].owner == msg.sender, \"Not group owner\");\r\n        _;\r\n    }\r\n\r\n    function registerUser(string calldata username) external {\r\n        require(!registered[msg.sender], \"Already registered\");\r\n        require(bytes(username).length > 0, \"Username cannot be empty\");\r\n        registered[msg.sender] = true;\r\n        usernameOf[msg.sender] = username;\r\n        emit UserRegistered(msg.sender, username);\r\n    }\r\n\r\n    function createGroup(string calldata name) external onlyRegistered {\r\n        require(bytes(name).length > 0, \"Group name cannot be empty\");\r\n        uint256 gid = ++groupCount;\r\n        Group storage g = groups[gid];\r\n        g.id = gid;\r\n        g.name = name;\r\n        g.owner = msg.sender;\r\n        g.exists = true;\r\n        g.isMember[msg.sender] = true;\r\n        g.members.push(msg.sender);\r\n        emit GroupCreated(gid, msg.sender, name);\r\n    }\r\n\r\n    function deleteGroup(uint256 groupId)\r\n        external\r\n        onlyRegistered\r\n        groupExists(groupId)\r\n        onlyGroupOwner(groupId)\r\n    {\r\n        groups[groupId].exists = false;\r\n        emit GroupDeleted(groupId);\r\n    }\r\n\r\n    function addMember(uint256 groupId, address member)\r\n        external\r\n        onlyRegistered\r\n        groupExists(groupId)\r\n        onlyGroupOwner(groupId)\r\n    {\r\n        require(registered[member], \"Member not registered\");\r\n        Group storage g = groups[groupId];\r\n        require(!g.isMember[member], \"Already a member\");\r\n        g.isMember[member] = true;\r\n        g.members.push(member);\r\n        emit MemberAdded(groupId, member);\r\n    }\r\n\r\n    function removeMember(uint256 groupId, address member)\r\n        external\r\n        onlyRegistered\r\n        groupExists(groupId)\r\n        onlyGroupOwner(groupId)\r\n    {\r\n        Group storage g = groups[groupId];\r\n        require(g.isMember[member], \"Not a member\");\r\n        require(member != g.owner, \"Cannot remove owner\");\r\n        g.isMember[member] = false;\r\n        for (uint256 i = 0; i < g.members.length; i++) {\r\n            if (g.members[i] == member) {\r\n                g.members[i] = g.members[g.members.length - 1];\r\n                g.members.pop();\r\n                break;\r\n            }\r\n        }\r\n        emit MemberRemoved(groupId, member);\r\n    }\r\n\r\n    function depositSecurity(uint256 groupId) external payable groupExists(groupId) onlyRegistered {\r\n        require(groups[groupId].isMember[msg.sender], \"Not a group member\");\r\n        require(msg.value > 0, \"Must deposit a positive amount\");\r\n        groupEscrow[groupId][msg.sender] += msg.value;\r\n        emit SecurityDeposited(groupId, msg.sender, msg.value);\r\n    }\r\n\r\n    function settleDebtByName(\r\n        uint256 groupId,\r\n        string calldata debtorUsername,\r\n        uint256 paymentAmount\r\n    ) external payable groupExists(groupId) {\r\n        address debtor = msg.sender;\r\n        require(registered[debtor], \"Debtor not registered\");\r\n        require(paymentAmount > 0, \"Amount must be positive\");\r\n        require(msg.value == paymentAmount, \"Incorrect payment amount\");\r\n        require(\r\n            keccak256(bytes(usernameOf[debtor])) == keccak256(bytes(debtorUsername)),\r\n            \"Debtor username mismatch\"\r\n        );\r\n        Group storage g = groups[groupId];\r\n        require(g.isMember[debtor], \"Debtor not in group\");\r\n        for (uint i = 0; i < g.members.length; i++) {\r\n            address cred = g.members[i];\r\n            if (cred != debtor) {\r\n                debtSettled[groupId][debtor][cred] = true;\r\n                emit DebtSettled(groupId, debtor, cred, paymentAmount);\r\n            }\r\n        }\r\n        payable(g.owner).transfer(paymentAmount);\r\n    }\r\n\r\n    //  NEW FUNCTION: Settle debt using escrow funds only\r\n    function settleFromEscrow(\r\n        uint256 groupId,\r\n        address creditor,\r\n        uint256 amount\r\n    ) external onlyRegistered groupExists(groupId) {\r\n        address debtor = msg.sender;\r\n        require(groups[groupId].isMember[debtor], \"Not a group member\");\r\n        require(groups[groupId].isMember[creditor], \"Invalid creditor\");\r\n        require(!debtSettled[groupId][debtor][creditor], \"Already settled\");\r\n        require(groupEscrow[groupId][debtor] >= amount, \"Insufficient escrow\");\r\n\r\n        groupEscrow[groupId][debtor] -= amount;\r\n        payable(creditor).transfer(amount);\r\n        debtSettled[groupId][debtor][creditor] = true;\r\n\r\n        emit DebtSettled(groupId, debtor, creditor, amount);\r\n        emit EscrowUsedForSettlement(groupId, debtor, creditor, amount);\r\n    }\r\n\r\n    function scheduleAutoSettlement(uint256 groupId, uint256 delayInSeconds)\r\n        external\r\n        onlyRegistered\r\n        groupExists(groupId)\r\n        onlyGroupOwner(groupId)\r\n    {\r\n        autoSettlementTime[groupId] = block.timestamp + delayInSeconds;\r\n        autoSettlementEnabled[groupId] = true;\r\n        emit AutoSettlementScheduled(groupId, autoSettlementTime[groupId]);\r\n    }\r\n\r\n    function triggerAutoSettlement(uint256 groupId)\r\n        external\r\n        onlyRegistered\r\n        groupExists(groupId)\r\n    {\r\n        require(autoSettlementEnabled[groupId], \"Auto-settlement not enabled\");\r\n        require(block.timestamp >= autoSettlementTime[groupId], \"Too early\");\r\n\r\n        Group storage g = groups[groupId];\r\n        for (uint i = 0; i < g.members.length; i++) {\r\n            address debtor = g.members[i];\r\n            for (uint j = 0; j < g.members.length; j++) {\r\n                address creditor = g.members[j];\r\n                if (debtor == creditor) continue;\r\n                if (!debtSettled[groupId][debtor][creditor]) {\r\n                    uint256 amount = 0.01 ether; // Placeholder\r\n                    if (groupEscrow[groupId][debtor] >= amount) {\r\n                        groupEscrow[groupId][debtor] -= amount;\r\n                        payable(creditor).transfer(amount);\r\n                        debtSettled[groupId][debtor][creditor] = true;\r\n                        emit DebtSettled(groupId, debtor, creditor, amount);\r\n                        emit EscrowUsedForSettlement(groupId, debtor, creditor, amount);\r\n                    }\r\n                }\r\n            }\r\n        }\r\n        autoSettlementEnabled[groupId] = false;\r\n        emit AutoSettlementExecuted(groupId);\r\n    }\r\n\r\n    // Event-only split functions (off-chain indexing)\r\n    function createSplit(\r\n        uint256 groupId,\r\n        string calldata name,\r\n        address[] calldata debtors,\r\n        uint256[] calldata amounts\r\n    ) external onlyRegistered groupExists(groupId) {\r\n        require(debtors.length == amounts.length, \"Mismatched arrays\");\r\n        emit SplitCreated(groupId, msg.sender, name, debtors, amounts, block.timestamp);\r\n    }\r\n\r\n    function editSplit(\r\n        uint256 groupId,\r\n        uint256 originalIdx,\r\n        string calldata name,\r\n        address[] calldata debtors,\r\n        uint256[] calldata amounts\r\n    ) external onlyRegistered groupExists(groupId) {\r\n        require(debtors.length == amounts.length, \"Mismatched arrays\");\r\n        emit SplitEdited(groupId, msg.sender, originalIdx, name, debtors, amounts, block.timestamp);\r\n    }\r\n\r\n    function deleteSplit(uint256 groupId, uint256 originalIdx)\r\n        external\r\n        onlyRegistered\r\n        groupExists(groupId)\r\n    {\r\n        emit SplitDeleted(groupId, msg.sender, originalIdx, block.timestamp);\r\n    }\r\n\r\n    function getGroupMembers(uint256 groupId)\r\n        external\r\n        view\r\n        groupExists(groupId)\r\n        returns (address[] memory)\r\n    {\r\n        return groups[groupId].members;\r\n    }\r\n\r\n    function isSettled(uint256 groupId, address debtor, address creditor)\r\n        external\r\n        view\r\n        returns (bool)\r\n    {\r\n        return debtSettled[groupId][debtor][creditor];\r\n    }\r\n\r\n    function getGroupInfo(uint256 groupId)\r\n        external\r\n        view\r\n        groupExists(groupId)\r\n        returns (uint256 id, string memory name, address owner, bool exists)\r\n    {\r\n        Group storage g = groups[groupId];\r\n        return (g.id, g.name, g.owner, g.exists);\r\n    }\r\n}\r\n",
  "sourcePath": "D:\\CCBC 24-25\\Sem2\\Proj-611\\Project_code\\truffle\\contracts\\Tabx.sol",
  "compiler": {
    "name": "solc",
    "version": "0.8.0+commit.c7dfd78e.Emscripten.clang"
  },
  "schemaVersion": "3.4.16",
  "updatedAt": "2025-04-24T06:15:26.820Z",
  "networkType": "ethereum",
  "devdoc": {
    "kind": "dev",
    "methods": {},
    "version": 1
  },
  "userdoc": {
    "kind": "user",
    "methods": {},
    "version": 1
  }
}