{
  "contractName": "TabX",
  "abi": [
    {
      "anonymous": false,
      "inputs": [
        {
          "indexed": true,
          "internalType": "uint256",
          "name": "groupId",
          "type": "uint256"
        }
      ],
      "name": "AutoSettlementExecuted",
      "type": "event"
    },
    {
      "anonymous": false,
      "inputs": [
        {
          "indexed": true,
          "internalType": "uint256",
          "name": "groupId",
          "type": "uint256"
        },
        {
          "indexed": false,
          "internalType": "uint256",
          "name": "timestamp",
          "type": "uint256"
        }
      ],
      "name": "AutoSettlementScheduled",
      "type": "event"
    },
    {
      "anonymous": false,
      "inputs": [
        {
          "indexed": true,
          "internalType": "uint256",
          "name": "groupId",
          "type": "uint256"
        },
        {
          "indexed": false,
          "internalType": "address",
          "name": "debtor",
          "type": "address"
        },
        {
          "indexed": false,
          "internalType": "address",
          "name": "creditor",
          "type": "address"
        },
        {
          "indexed": false,
          "internalType": "uint256",
          "name": "amount",
          "type": "uint256"
        }
      ],
      "name": "DebtAdded",
      "type": "event"
    },
    {
      "anonymous": false,
      "inputs": [
        {
          "indexed": true,
          "internalType": "uint256",
          "name": "groupId",
          "type": "uint256"
        },
        {
          "indexed": true,
          "internalType": "address",
          "name": "debtor",
          "type": "address"
        },
        {
          "indexed": true,
          "internalType": "address",
          "name": "creditor",
          "type": "address"
        },
        {
          "indexed": false,
          "internalType": "uint256",
          "name": "amount",
          "type": "uint256"
        }
      ],
      "name": "DebtSettled",
      "type": "event"
    },
    {
      "anonymous": false,
      "inputs": [
        {
          "indexed": true,
          "internalType": "uint256",
          "name": "groupId",
          "type": "uint256"
        },
        {
          "indexed": true,
          "internalType": "address",
          "name": "debtor",
          "type": "address"
        },
        {
          "indexed": true,
          "internalType": "address",
          "name": "creditor",
          "type": "address"
        },
        {
          "indexed": false,
          "internalType": "uint256",
          "name": "amount",
          "type": "uint256"
        }
      ],
      "name": "EscrowUsedForSettlement",
      "type": "event"
    },
    {
      "anonymous": false,
      "inputs": [
        {
          "indexed": true,
          "internalType": "uint256",
          "name": "groupId",
          "type": "uint256"
        },
        {
          "indexed": true,
          "internalType": "address",
          "name": "owner",
          "type": "address"
        },
        {
          "indexed": false,
          "internalType": "string",
          "name": "name",
          "type": "string"
        }
      ],
      "name": "GroupCreated",
      "type": "event"
    },
    {
      "anonymous": false,
      "inputs": [
        {
          "indexed": true,
          "internalType": "uint256",
          "name": "groupId",
          "type": "uint256"
        }
      ],
      "name": "GroupDeleted",
      "type": "event"
    },
    {
      "anonymous": false,
      "inputs": [
        {
          "indexed": true,
          "internalType": "uint256",
          "name": "groupId",
          "type": "uint256"
        },
        {
          "indexed": false,
          "internalType": "address",
          "name": "member",
          "type": "address"
        }
      ],
      "name": "MemberAdded",
      "type": "event"
    },
    {
      "anonymous": false,
      "inputs": [
        {
          "indexed": true,
          "internalType": "uint256",
          "name": "groupId",
          "type": "uint256"
        },
        {
          "indexed": false,
          "internalType": "address",
          "name": "member",
          "type": "address"
        }
      ],
      "name": "MemberRemoved",
      "type": "event"
    },
    {
      "anonymous": false,
      "inputs": [
        {
          "indexed": true,
          "internalType": "uint256",
          "name": "groupId",
          "type": "uint256"
        },
        {
          "indexed": true,
          "internalType": "address",
          "name": "user",
          "type": "address"
        },
        {
          "indexed": false,
          "internalType": "uint256",
          "name": "amount",
          "type": "uint256"
        }
      ],
      "name": "SecurityDeposited",
      "type": "event"
    },
    {
      "anonymous": false,
      "inputs": [
        {
          "indexed": true,
          "internalType": "address",
          "name": "user",
          "type": "address"
        },
        {
          "indexed": false,
          "internalType": "string",
          "name": "username",
          "type": "string"
        }
      ],
      "name": "UserRegistered",
      "type": "event"
    },
    {
      "inputs": [
        {
          "internalType": "uint256",
          "name": "",
          "type": "uint256"
        }
      ],
      "name": "autoSettlementEnabled",
      "outputs": [
        {
          "internalType": "bool",
          "name": "",
          "type": "bool"
        }
      ],
      "stateMutability": "view",
      "type": "function",
      "constant": true
    },
    {
      "inputs": [
        {
          "internalType": "uint256",
          "name": "",
          "type": "uint256"
        }
      ],
      "name": "autoSettlementTime",
      "outputs": [
        {
          "internalType": "uint256",
          "name": "",
          "type": "uint256"
        }
      ],
      "stateMutability": "view",
      "type": "function",
      "constant": true
    },
    {
      "inputs": [],
      "name": "groupCount",
      "outputs": [
        {
          "internalType": "uint256",
          "name": "",
          "type": "uint256"
        }
      ],
      "stateMutability": "view",
      "type": "function",
      "constant": true
    },
    {
      "inputs": [
        {
          "internalType": "uint256",
          "name": "",
          "type": "uint256"
        },
        {
          "internalType": "uint256",
          "name": "",
          "type": "uint256"
        }
      ],
      "name": "groupDebts",
      "outputs": [
        {
          "internalType": "address",
          "name": "debtor",
          "type": "address"
        },
        {
          "internalType": "address",
          "name": "creditor",
          "type": "address"
        },
        {
          "internalType": "uint256",
          "name": "amount",
          "type": "uint256"
        },
        {
          "internalType": "bool",
          "name": "settled",
          "type": "bool"
        }
      ],
      "stateMutability": "view",
      "type": "function",
      "constant": true
    },
    {
      "inputs": [
        {
          "internalType": "uint256",
          "name": "",
          "type": "uint256"
        },
        {
          "internalType": "address",
          "name": "",
          "type": "address"
        }
      ],
      "name": "groupEscrow",
      "outputs": [
        {
          "internalType": "uint256",
          "name": "",
          "type": "uint256"
        }
      ],
      "stateMutability": "view",
      "type": "function",
      "constant": true
    },
    {
      "inputs": [
        {
          "internalType": "address",
          "name": "",
          "type": "address"
        }
      ],
      "name": "registered",
      "outputs": [
        {
          "internalType": "bool",
          "name": "",
          "type": "bool"
        }
      ],
      "stateMutability": "view",
      "type": "function",
      "constant": true
    },
    {
      "inputs": [
        {
          "internalType": "address",
          "name": "",
          "type": "address"
        }
      ],
      "name": "usernameOf",
      "outputs": [
        {
          "internalType": "string",
          "name": "",
          "type": "string"
        }
      ],
      "stateMutability": "view",
      "type": "function",
      "constant": true
    },
    {
      "inputs": [
        {
          "internalType": "string",
          "name": "username",
          "type": "string"
        }
      ],
      "name": "registerUser",
      "outputs": [],
      "stateMutability": "nonpayable",
      "type": "function"
    },
    {
      "inputs": [
        {
          "internalType": "string",
          "name": "name",
          "type": "string"
        }
      ],
      "name": "createGroup",
      "outputs": [],
      "stateMutability": "nonpayable",
      "type": "function"
    },
    {
      "inputs": [
        {
          "internalType": "uint256",
          "name": "groupId",
          "type": "uint256"
        },
        {
          "internalType": "address",
          "name": "member",
          "type": "address"
        }
      ],
      "name": "addMember",
      "outputs": [],
      "stateMutability": "nonpayable",
      "type": "function"
    },
    {
      "inputs": [
        {
          "internalType": "uint256",
          "name": "groupId",
          "type": "uint256"
        },
        {
          "internalType": "address",
          "name": "member",
          "type": "address"
        }
      ],
      "name": "removeMember",
      "outputs": [],
      "stateMutability": "nonpayable",
      "type": "function"
    },
    {
      "inputs": [
        {
          "internalType": "uint256",
          "name": "groupId",
          "type": "uint256"
        }
      ],
      "name": "depositSecurity",
      "outputs": [],
      "stateMutability": "payable",
      "type": "function",
      "payable": true
    },
    {
      "inputs": [
        {
          "internalType": "uint256",
          "name": "groupId",
          "type": "uint256"
        },
        {
          "internalType": "address",
          "name": "creditor",
          "type": "address"
        },
        {
          "internalType": "uint256",
          "name": "amount",
          "type": "uint256"
        }
      ],
      "name": "addDebt",
      "outputs": [],
      "stateMutability": "nonpayable",
      "type": "function"
    },
    {
      "inputs": [
        {
          "internalType": "uint256",
          "name": "groupId",
          "type": "uint256"
        },
        {
          "internalType": "uint256",
          "name": "index",
          "type": "uint256"
        }
      ],
      "name": "settleFromEscrow",
      "outputs": [],
      "stateMutability": "nonpayable",
      "type": "function"
    },
    {
      "inputs": [
        {
          "internalType": "uint256",
          "name": "groupId",
          "type": "uint256"
        }
      ],
      "name": "triggerAutoSettlement",
      "outputs": [],
      "stateMutability": "nonpayable",
      "type": "function"
    },
    {
      "inputs": [
        {
          "internalType": "uint256",
          "name": "groupId",
          "type": "uint256"
        },
        {
          "internalType": "uint256",
          "name": "delayInSeconds",
          "type": "uint256"
        }
      ],
      "name": "scheduleAutoSettlement",
      "outputs": [],
      "stateMutability": "nonpayable",
      "type": "function"
    },
    {
      "inputs": [
        {
          "internalType": "uint256",
          "name": "groupId",
          "type": "uint256"
        }
      ],
      "name": "getGroupMembers",
      "outputs": [
        {
          "internalType": "address[]",
          "name": "",
          "type": "address[]"
        }
      ],
      "stateMutability": "view",
      "type": "function",
      "constant": true
    },
    {
      "inputs": [
        {
          "internalType": "uint256",
          "name": "groupId",
          "type": "uint256"
        }
      ],
      "name": "getGroupInfo",
      "outputs": [
        {
          "internalType": "uint256",
          "name": "id",
          "type": "uint256"
        },
        {
          "internalType": "string",
          "name": "name",
          "type": "string"
        },
        {
          "internalType": "address",
          "name": "owner",
          "type": "address"
        },
        {
          "internalType": "bool",
          "name": "exists",
          "type": "bool"
        }
      ],
      "stateMutability": "view",
      "type": "function",
      "constant": true
    },
    {
      "inputs": [
        {
          "internalType": "uint256",
          "name": "groupId",
          "type": "uint256"
        },
        {
          "internalType": "uint256",
          "name": "index",
          "type": "uint256"
        }
      ],
      "name": "getDebt",
      "outputs": [
        {
          "internalType": "address",
          "name": "debtor",
          "type": "address"
        },
        {
          "internalType": "address",
          "name": "creditor",
          "type": "address"
        },
        {
          "internalType": "uint256",
          "name": "amount",
          "type": "uint256"
        },
        {
          "internalType": "bool",
          "name": "settled",
          "type": "bool"
        }
      ],
      "stateMutability": "view",
      "type": "function",
      "constant": true
    },
    {
      "inputs": [
        {
          "internalType": "uint256",
          "name": "groupId",
          "type": "uint256"
        }
      ],
      "name": "getDebtCount",
      "outputs": [
        {
          "internalType": "uint256",
          "name": "",
          "type": "uint256"
        }
      ],
      "stateMutability": "view",
      "type": "function",
      "constant": true
    }
  ],
  "bytecode": "0x608060405234801561001057600080fd5b50613b6e806100206000396000f3fe60806040526004361061011f5760003560e01c806399d4360f116100a0578063da89434711610064578063da894347146103fe578063dc2ddcae1461043e578063e374867f14610467578063f9041a7d146104a4578063feff2d64146104e15761011f565b806399d4360f146102ef578063aaef289b1461032f578063b2dd5c0714610358578063c250024214610395578063c97e055e146103d55761011f565b8063704f1b94116100e7578063704f1b941461020c57806374d0a676146102355780637898acef1461025e5780638119ec1f1461029b5780638f23b326146102c45761011f565b8063226ba2541461012457806322aeddfd1461016157806336cc81301461017d578063460ff0b3146101ba5780636be7658b146101e3575b600080fd5b34801561013057600080fd5b5061014b60048036038101906101469190612e37565b61051e565b6040516101589190613850565b60405180910390f35b61017b60048036038101906101769190612e0e565b610543565b005b34801561018957600080fd5b506101a4600480360381019061019f9190612e0e565b6107cf565b6040516101b1919061356d565b60405180910390f35b3480156101c657600080fd5b506101e160048036038101906101dc9190612ec2565b6108d8565b005b3480156101ef57600080fd5b5061020a60048036038101906102059190612e37565b610b0c565b005b34801561021857600080fd5b50610233600480360381019061022e9190612dc9565b6110a3565b005b34801561024157600080fd5b5061025c60048036038101906102579190612e37565b61126f565b005b34801561026a57600080fd5b5061028560048036038101906102809190612da0565b611632565b60405161029291906135ce565b60405180910390f35b3480156102a757600080fd5b506102c260048036038101906102bd9190612e73565b6116d2565b005b3480156102d057600080fd5b506102d9611a89565b6040516102e69190613850565b60405180910390f35b3480156102fb57600080fd5b5061031660048036038101906103119190612e0e565b611a8f565b604051610326949392919061386b565b60405180910390f35b34801561033b57600080fd5b5061035660048036038101906103519190612e0e565b611bee565b005b34801561036457600080fd5b5061037f600480360381019061037a9190612da0565b612397565b60405161038c919061358f565b60405180910390f35b3480156103a157600080fd5b506103bc60048036038101906103b79190612ec2565b6123b7565b6040516103cc9493929190613528565b60405180910390f35b3480156103e157600080fd5b506103fc60048036038101906103f79190612ec2565b61248d565b005b34801561040a57600080fd5b5061042560048036038101906104209190612ec2565b612903565b6040516104359493929190613528565b60405180910390f35b34801561044a57600080fd5b5061046560048036038101906104609190612dc9565b61299d565b005b34801561047357600080fd5b5061048e60048036038101906104899190612e0e565b612c31565b60405161049b9190613850565b60405180910390f35b3480156104b057600080fd5b506104cb60048036038101906104c69190612e0e565b612c49565b6040516104d89190613850565b60405180910390f35b3480156104ed57600080fd5b5061050860048036038101906105039190612e0e565b612c69565b604051610515919061358f565b60405180910390f35b6007602052816000526040600020602052806000526040600020600091509150505481565b806002600082815260200190815260200160002060050160009054906101000a900460ff166105a7576040517f08c379a000000000000000000000000000000000000000000000000000000000815260040161059e90613750565b60405180910390fd5b6000803373ffffffffffffffffffffffffffffffffffffffff1673ffffffffffffffffffffffffffffffffffffffff16815260200190815260200160002060009054906101000a900460ff16610632576040517f08c379a000000000000000000000000000000000000000000000000000000000815260040161062990613610565b60405180910390fd5b6002600083815260200190815260200160002060040160003373ffffffffffffffffffffffffffffffffffffffff1673ffffffffffffffffffffffffffffffffffffffff16815260200190815260200160002060009054906101000a900460ff166106d2576040517f08c379a00000000000000000000000000000000000000000000000000000000081526004016106c990613650565b60405180910390fd5b60003411610715576040517f08c379a000000000000000000000000000000000000000000000000000000000815260040161070c90613690565b60405180910390fd5b346007600084815260200190815260200160002060003373ffffffffffffffffffffffffffffffffffffffff1673ffffffffffffffffffffffffffffffffffffffff1681526020019081526020016000206000828254610775919061390c565b925050819055503373ffffffffffffffffffffffffffffffffffffffff16827f727e8f9e2fbd8ac7a580d0bdf7a9970f75e0ca84c2abc9affb47c35f6a3434f1346040516107c39190613850565b60405180910390a35050565b6060816002600082815260200190815260200160002060050160009054906101000a900460ff16610835576040517f08c379a000000000000000000000000000000000000000000000000000000000815260040161082c90613750565b60405180910390fd5b600260008481526020019081526020016000206003018054806020026020016040519081016040528092919081815260200182805480156108cb57602002820191906000526020600020905b8160009054906101000a900473ffffffffffffffffffffffffffffffffffffffff1673ffffffffffffffffffffffffffffffffffffffff1681526020019060010190808311610881575b5050505050915050919050565b6000803373ffffffffffffffffffffffffffffffffffffffff1673ffffffffffffffffffffffffffffffffffffffff16815260200190815260200160002060009054906101000a900460ff16610963576040517f08c379a000000000000000000000000000000000000000000000000000000000815260040161095a90613610565b60405180910390fd5b816002600082815260200190815260200160002060050160009054906101000a900460ff166109c7576040517f08c379a00000000000000000000000000000000000000000000000000000000081526004016109be90613750565b60405180910390fd5b823373ffffffffffffffffffffffffffffffffffffffff166002600083815260200190815260200160002060020160009054906101000a900473ffffffffffffffffffffffffffffffffffffffff1673ffffffffffffffffffffffffffffffffffffffff1614610a6c576040517f08c379a0000000000000000000000000000000000000000000000000000000008152600401610a63906137f0565b60405180910390fd5b8242610a78919061390c565b600560008681526020019081526020016000208190555060016006600086815260200190815260200160002060006101000a81548160ff021916908315150217905550837f04d2adfd4cded3956948671c960401bf0110c3f2204e000f9d9342ff62d24ee76005600087815260200190815260200160002054604051610afe9190613850565b60405180910390a250505050565b6000803373ffffffffffffffffffffffffffffffffffffffff1673ffffffffffffffffffffffffffffffffffffffff16815260200190815260200160002060009054906101000a900460ff16610b97576040517f08c379a0000000000000000000000000000000000000000000000000000000008152600401610b8e90613610565b60405180910390fd5b816002600082815260200190815260200160002060050160009054906101000a900460ff16610bfb576040517f08c379a0000000000000000000000000000000000000000000000000000000008152600401610bf290613750565b60405180910390fd5b823373ffffffffffffffffffffffffffffffffffffffff166002600083815260200190815260200160002060020160009054906101000a900473ffffffffffffffffffffffffffffffffffffffff1673ffffffffffffffffffffffffffffffffffffffff1614610ca0576040517f08c379a0000000000000000000000000000000000000000000000000000000008152600401610c97906137f0565b60405180910390fd5b60006002600086815260200190815260200160002090508060040160008573ffffffffffffffffffffffffffffffffffffffff1673ffffffffffffffffffffffffffffffffffffffff16815260200190815260200160002060009054906101000a900460ff16610d45576040517f08c379a0000000000000000000000000000000000000000000000000000000008152600401610d3c90613730565b60405180910390fd5b8060020160009054906101000a900473ffffffffffffffffffffffffffffffffffffffff1673ffffffffffffffffffffffffffffffffffffffff168473ffffffffffffffffffffffffffffffffffffffff161415610dd8576040517f08c379a0000000000000000000000000000000000000000000000000000000008152600401610dcf906136d0565b60405180910390fd5b60008160040160008673ffffffffffffffffffffffffffffffffffffffff1673ffffffffffffffffffffffffffffffffffffffff16815260200190815260200160002060006101000a81548160ff02191690831515021790555060005b8160030180549050811015611063578473ffffffffffffffffffffffffffffffffffffffff16826003018281548110610e97577f4e487b7100000000000000000000000000000000000000000000000000000000600052603260045260246000fd5b9060005260206000200160009054906101000a900473ffffffffffffffffffffffffffffffffffffffff1673ffffffffffffffffffffffffffffffffffffffff161415611050578160030160018360030180549050610ef69190613962565b81548110610f2d577f4e487b7100000000000000000000000000000000000000000000000000000000600052603260045260246000fd5b9060005260206000200160009054906101000a900473ffffffffffffffffffffffffffffffffffffffff16826003018281548110610f94577f4e487b7100000000000000000000000000000000000000000000000000000000600052603260045260246000fd5b9060005260206000200160006101000a81548173ffffffffffffffffffffffffffffffffffffffff021916908373ffffffffffffffffffffffffffffffffffffffff16021790555081600301805480611016577f4e487b7100000000000000000000000000000000000000000000000000000000600052603160045260246000fd5b6001900381819060005260206000200160006101000a81549073ffffffffffffffffffffffffffffffffffffffff02191690559055611063565b808061105b90613a52565b915050610e35565b50847f1c4c9d2e56d0635d11bc47c997c6909a0d7061f55cbb8f4b27386db37553191c8560405161109491906134d6565b60405180910390a25050505050565b6000803373ffffffffffffffffffffffffffffffffffffffff1673ffffffffffffffffffffffffffffffffffffffff16815260200190815260200160002060009054906101000a900460ff161561112f576040517f08c379a0000000000000000000000000000000000000000000000000000000008152600401611126906136b0565b60405180910390fd5b60008282905011611175576040517f08c379a000000000000000000000000000000000000000000000000000000000815260040161116c906135f0565b60405180910390fd5b60016000803373ffffffffffffffffffffffffffffffffffffffff1673ffffffffffffffffffffffffffffffffffffffff16815260200190815260200160002060006101000a81548160ff0219169083151502179055508181600160003373ffffffffffffffffffffffffffffffffffffffff1673ffffffffffffffffffffffffffffffffffffffff168152602001908152602001600020919061121a929190612c89565b503373ffffffffffffffffffffffffffffffffffffffff167f48cac28ad4dc618e15f4c2dd5e97751182f166de97b25618318b2112aa951a2f83836040516112639291906135aa565b60405180910390a25050565b6000803373ffffffffffffffffffffffffffffffffffffffff1673ffffffffffffffffffffffffffffffffffffffff16815260200190815260200160002060009054906101000a900460ff166112fa576040517f08c379a00000000000000000000000000000000000000000000000000000000081526004016112f190613610565b60405180910390fd5b816002600082815260200190815260200160002060050160009054906101000a900460ff1661135e576040517f08c379a000000000000000000000000000000000000000000000000000000000815260040161135590613750565b60405180910390fd5b823373ffffffffffffffffffffffffffffffffffffffff166002600083815260200190815260200160002060020160009054906101000a900473ffffffffffffffffffffffffffffffffffffffff1673ffffffffffffffffffffffffffffffffffffffff1614611403576040517f08c379a00000000000000000000000000000000000000000000000000000000081526004016113fa906137f0565b60405180910390fd5b6000808473ffffffffffffffffffffffffffffffffffffffff1673ffffffffffffffffffffffffffffffffffffffff16815260200190815260200160002060009054906101000a900460ff1661148e576040517f08c379a0000000000000000000000000000000000000000000000000000000008152600401611485906137b0565b60405180910390fd5b60006002600086815260200190815260200160002090508060040160008573ffffffffffffffffffffffffffffffffffffffff1673ffffffffffffffffffffffffffffffffffffffff16815260200190815260200160002060009054906101000a900460ff1615611534576040517f08c379a000000000000000000000000000000000000000000000000000000000815260040161152b90613810565b60405180910390fd5b60018160040160008673ffffffffffffffffffffffffffffffffffffffff1673ffffffffffffffffffffffffffffffffffffffff16815260200190815260200160002060006101000a81548160ff02191690831515021790555080600301849080600181540180825580915050600190039060005260206000200160009091909190916101000a81548173ffffffffffffffffffffffffffffffffffffffff021916908373ffffffffffffffffffffffffffffffffffffffff160217905550847ff328ac0f8bcae00933fe87ba0aa2d0d505c1df94bc9c1aa05b8441c28b74032c8560405161162391906134d6565b60405180910390a25050505050565b6001602052806000526040600020600091509050805461165190613a20565b80601f016020809104026020016040519081016040528092919081815260200182805461167d90613a20565b80156116ca5780601f1061169f576101008083540402835291602001916116ca565b820191906000526020600020905b8154815290600101906020018083116116ad57829003601f168201915b505050505081565b6000803373ffffffffffffffffffffffffffffffffffffffff1673ffffffffffffffffffffffffffffffffffffffff16815260200190815260200160002060009054906101000a900460ff1661175d576040517f08c379a000000000000000000000000000000000000000000000000000000000815260040161175490613610565b60405180910390fd5b826002600082815260200190815260200160002060050160009054906101000a900460ff166117c1576040517f08c379a00000000000000000000000000000000000000000000000000000000081526004016117b890613750565b60405180910390fd5b6002600085815260200190815260200160002060040160003373ffffffffffffffffffffffffffffffffffffffff1673ffffffffffffffffffffffffffffffffffffffff16815260200190815260200160002060009054906101000a900460ff16611861576040517f08c379a0000000000000000000000000000000000000000000000000000000008152600401611858906136f0565b60405180910390fd5b6002600085815260200190815260200160002060040160008473ffffffffffffffffffffffffffffffffffffffff1673ffffffffffffffffffffffffffffffffffffffff16815260200190815260200160002060009054906101000a900460ff16611901576040517f08c379a00000000000000000000000000000000000000000000000000000000081526004016118f890613790565b60405180910390fd5b6004600085815260200190815260200160002060405180608001604052803373ffffffffffffffffffffffffffffffffffffffff1681526020018573ffffffffffffffffffffffffffffffffffffffff16815260200184815260200160001515815250908060018154018082558091505060019003906000526020600020906004020160009091909190915060008201518160000160006101000a81548173ffffffffffffffffffffffffffffffffffffffff021916908373ffffffffffffffffffffffffffffffffffffffff16021790555060208201518160010160006101000a81548173ffffffffffffffffffffffffffffffffffffffff021916908373ffffffffffffffffffffffffffffffffffffffff1602179055506040820151816002015560608201518160030160006101000a81548160ff0219169083151502179055505050837fefcd8aec2d097cba7793dc3387bd8c8b57bc7cc3e5a82db26ee15978849eadc9338585604051611a7b939291906134f1565b60405180910390a250505050565b60035481565b60006060600080846002600082815260200190815260200160002060050160009054906101000a900460ff16611afa576040517f08c379a0000000000000000000000000000000000000000000000000000000008152600401611af190613750565b60405180910390fd5b60006002600088815260200190815260200160002090508060000154816001018260020160009054906101000a900473ffffffffffffffffffffffffffffffffffffffff168360050160009054906101000a900460ff16828054611b5d90613a20565b80601f0160208091040260200160405190810160405280929190818152602001828054611b8990613a20565b8015611bd65780601f10611bab57610100808354040283529160200191611bd6565b820191906000526020600020905b815481529060010190602001808311611bb957829003601f168201915b50505050509250955095509550955050509193509193565b6000803373ffffffffffffffffffffffffffffffffffffffff1673ffffffffffffffffffffffffffffffffffffffff16815260200190815260200160002060009054906101000a900460ff16611c79576040517f08c379a0000000000000000000000000000000000000000000000000000000008152600401611c7090613610565b60405180910390fd5b806002600082815260200190815260200160002060050160009054906101000a900460ff16611cdd576040517f08c379a0000000000000000000000000000000000000000000000000000000008152600401611cd490613750565b60405180910390fd5b6006600083815260200190815260200160002060009054906101000a900460ff16611d3d576040517f08c379a0000000000000000000000000000000000000000000000000000000008152600401611d3490613710565b60405180910390fd5b6005600083815260200190815260200160002054421015611d93576040517f08c379a0000000000000000000000000000000000000000000000000000000008152600401611d8a90613770565b60405180910390fd5b600060046000848152602001908152602001600020905060005b818054905081101561233857818181548110611df2577f4e487b7100000000000000000000000000000000000000000000000000000000600052603260045260246000fd5b906000526020600020906004020160030160009054906101000a900460ff16158015611f225750818181548110611e52577f4e487b7100000000000000000000000000000000000000000000000000000000600052603260045260246000fd5b906000526020600020906004020160020154600760008681526020019081526020016000206000848481548110611eb2577f4e487b7100000000000000000000000000000000000000000000000000000000600052603260045260246000fd5b906000526020600020906004020160000160009054906101000a900473ffffffffffffffffffffffffffffffffffffffff1673ffffffffffffffffffffffffffffffffffffffff1673ffffffffffffffffffffffffffffffffffffffff1681526020019081526020016000205410155b1561232557818181548110611f60577f4e487b7100000000000000000000000000000000000000000000000000000000600052603260045260246000fd5b906000526020600020906004020160020154600760008681526020019081526020016000206000848481548110611fc0577f4e487b7100000000000000000000000000000000000000000000000000000000600052603260045260246000fd5b906000526020600020906004020160000160009054906101000a900473ffffffffffffffffffffffffffffffffffffffff1673ffffffffffffffffffffffffffffffffffffffff1673ffffffffffffffffffffffffffffffffffffffff168152602001908152602001600020600082825461203b9190613962565b9250508190555081818154811061207b577f4e487b7100000000000000000000000000000000000000000000000000000000600052603260045260246000fd5b906000526020600020906004020160010160009054906101000a900473ffffffffffffffffffffffffffffffffffffffff1673ffffffffffffffffffffffffffffffffffffffff166108fc8383815481106120ff577f4e487b7100000000000000000000000000000000000000000000000000000000600052603260045260246000fd5b9060005260206000209060040201600201549081150290604051600060405180830381858888f1935050505015801561213c573d6000803e3d6000fd5b506001828281548110612178577f4e487b7100000000000000000000000000000000000000000000000000000000600052603260045260246000fd5b906000526020600020906004020160030160006101000a81548160ff0219169083151502179055508181815481106121d9577f4e487b7100000000000000000000000000000000000000000000000000000000600052603260045260246000fd5b906000526020600020906004020160010160009054906101000a900473ffffffffffffffffffffffffffffffffffffffff1673ffffffffffffffffffffffffffffffffffffffff1682828154811061225a577f4e487b7100000000000000000000000000000000000000000000000000000000600052603260045260246000fd5b906000526020600020906004020160000160009054906101000a900473ffffffffffffffffffffffffffffffffffffffff1673ffffffffffffffffffffffffffffffffffffffff16857f16c014bb6d1c6cc25e4d9c2ffff2d5052bc083462038999100ead76edf97bee08585815481106122fd577f4e487b7100000000000000000000000000000000000000000000000000000000600052603260045260246000fd5b90600052602060002090600402016002015460405161231c9190613850565b60405180910390a45b808061233090613a52565b915050611dad565b5060006006600085815260200190815260200160002060006101000a81548160ff021916908315150217905550827f3bf04475b665123438783b19e204bdd2bbd5421ffb6b90034a5ab03f664c539860405160405180910390a2505050565b60006020528060005260406000206000915054906101000a900460ff1681565b600080600080600060046000888152602001908152602001600020868154811061240a577f4e487b7100000000000000000000000000000000000000000000000000000000600052603260045260246000fd5b906000526020600020906004020190508060000160009054906101000a900473ffffffffffffffffffffffffffffffffffffffff168160010160009054906101000a900473ffffffffffffffffffffffffffffffffffffffff1682600201548360030160009054906101000a900460ff1694509450945094505092959194509250565b6000803373ffffffffffffffffffffffffffffffffffffffff1673ffffffffffffffffffffffffffffffffffffffff16815260200190815260200160002060009054906101000a900460ff16612518576040517f08c379a000000000000000000000000000000000000000000000000000000000815260040161250f90613610565b60405180910390fd5b816002600082815260200190815260200160002060050160009054906101000a900460ff1661257c576040517f08c379a000000000000000000000000000000000000000000000000000000000815260040161257390613750565b60405180910390fd5b60006004600085815260200190815260200160002083815481106125c9577f4e487b7100000000000000000000000000000000000000000000000000000000600052603260045260246000fd5b906000526020600020906004020190508060000160009054906101000a900473ffffffffffffffffffffffffffffffffffffffff1673ffffffffffffffffffffffffffffffffffffffff163373ffffffffffffffffffffffffffffffffffffffff161461266b576040517f08c379a000000000000000000000000000000000000000000000000000000000815260040161266290613830565b60405180910390fd5b8060030160009054906101000a900460ff16156126bd576040517f08c379a00000000000000000000000000000000000000000000000000000000081526004016126b4906137d0565b60405180910390fd5b80600201546007600086815260200190815260200160002060003373ffffffffffffffffffffffffffffffffffffffff1673ffffffffffffffffffffffffffffffffffffffff168152602001908152602001600020541015612754576040517f08c379a000000000000000000000000000000000000000000000000000000000815260040161274b90613670565b60405180910390fd5b80600201546007600086815260200190815260200160002060003373ffffffffffffffffffffffffffffffffffffffff1673ffffffffffffffffffffffffffffffffffffffff16815260200190815260200160002060008282546127b89190613962565b925050819055508060010160009054906101000a900473ffffffffffffffffffffffffffffffffffffffff1673ffffffffffffffffffffffffffffffffffffffff166108fc82600201549081150290604051600060405180830381858888f1935050505015801561282d573d6000803e3d6000fd5b5060018160030160006101000a81548160ff0219169083151502179055508060010160009054906101000a900473ffffffffffffffffffffffffffffffffffffffff1673ffffffffffffffffffffffffffffffffffffffff168160000160009054906101000a900473ffffffffffffffffffffffffffffffffffffffff1673ffffffffffffffffffffffffffffffffffffffff16857f16c014bb6d1c6cc25e4d9c2ffff2d5052bc083462038999100ead76edf97bee084600201546040516128f59190613850565b60405180910390a450505050565b6004602052816000526040600020818154811061291f57600080fd5b9060005260206000209060040201600091509150508060000160009054906101000a900473ffffffffffffffffffffffffffffffffffffffff16908060010160009054906101000a900473ffffffffffffffffffffffffffffffffffffffff16908060020154908060030160009054906101000a900460ff16905084565b6000803373ffffffffffffffffffffffffffffffffffffffff1673ffffffffffffffffffffffffffffffffffffffff16815260200190815260200160002060009054906101000a900460ff16612a28576040517f08c379a0000000000000000000000000000000000000000000000000000000008152600401612a1f90613610565b60405180910390fd5b60008282905011612a6e576040517f08c379a0000000000000000000000000000000000000000000000000000000008152600401612a6590613630565b60405180910390fd5b6000600360008154612a7f90613a52565b919050819055905060006002600083815260200190815260200160002090508181600001819055508383826001019190612aba929190612c89565b50338160020160006101000a81548173ffffffffffffffffffffffffffffffffffffffff021916908373ffffffffffffffffffffffffffffffffffffffff16021790555060018160050160006101000a81548160ff02191690831515021790555060018160040160003373ffffffffffffffffffffffffffffffffffffffff1673ffffffffffffffffffffffffffffffffffffffff16815260200190815260200160002060006101000a81548160ff02191690831515021790555080600301339080600181540180825580915050600190039060005260206000200160009091909190916101000a81548173ffffffffffffffffffffffffffffffffffffffff021916908373ffffffffffffffffffffffffffffffffffffffff1602179055503373ffffffffffffffffffffffffffffffffffffffff16827f4354295f5d98820e66a770bd58cf23606ab255dd9dc2daf870fab38ecbc3e7e08686604051612c239291906135aa565b60405180910390a350505050565b60056020528060005260406000206000915090505481565b600060046000838152602001908152602001600020805490509050919050565b60066020528060005260406000206000915054906101000a900460ff1681565b828054612c9590613a20565b90600052602060002090601f016020900481019282612cb75760008555612cfe565b82601f10612cd057803560ff1916838001178555612cfe565b82800160010185558215612cfe579182015b82811115612cfd578235825591602001919060010190612ce2565b5b509050612d0b9190612d0f565b5090565b5b80821115612d28576000816000905550600101612d10565b5090565b600081359050612d3b81613b0a565b92915050565b60008083601f840112612d5357600080fd5b8235905067ffffffffffffffff811115612d6c57600080fd5b602083019150836001820283011115612d8457600080fd5b9250929050565b600081359050612d9a81613b21565b92915050565b600060208284031215612db257600080fd5b6000612dc084828501612d2c565b91505092915050565b60008060208385031215612ddc57600080fd5b600083013567ffffffffffffffff811115612df657600080fd5b612e0285828601612d41565b92509250509250929050565b600060208284031215612e2057600080fd5b6000612e2e84828501612d8b565b91505092915050565b60008060408385031215612e4a57600080fd5b6000612e5885828601612d8b565b9250506020612e6985828601612d2c565b9150509250929050565b600080600060608486031215612e8857600080fd5b6000612e9686828701612d8b565b9350506020612ea786828701612d2c565b9250506040612eb886828701612d8b565b9150509250925092565b60008060408385031215612ed557600080fd5b6000612ee385828601612d8b565b9250506020612ef485828601612d8b565b9150509250929050565b6000612f0a8383612f16565b60208301905092915050565b612f1f81613996565b82525050565b612f2e81613996565b82525050565b6000612f3f826138c7565b612f4981856138ea565b9350612f54836138b7565b8060005b83811015612f85578151612f6c8882612efe565b9750612f77836138dd565b925050600181019050612f58565b5085935050505092915050565b612f9b816139a8565b82525050565b6000612fad83856138fb565b9350612fba8385846139de565b612fc383613af9565b840190509392505050565b6000612fd9826138d2565b612fe381856138fb565b9350612ff38185602086016139ed565b612ffc81613af9565b840191505092915050565b60006130146018836138fb565b91507f557365726e616d652063616e6e6f7420626520656d70747900000000000000006000830152602082019050919050565b6000613054600e836138fb565b91507f4e6f7420726567697374657265640000000000000000000000000000000000006000830152602082019050919050565b6000613094601a836138fb565b91507f47726f7570206e616d652063616e6e6f7420626520656d7074790000000000006000830152602082019050919050565b60006130d46012836138fb565b91507f4e6f7420612067726f7570206d656d62657200000000000000000000000000006000830152602082019050919050565b60006131146013836138fb565b91507f496e73756666696369656e7420657363726f77000000000000000000000000006000830152602082019050919050565b6000613154601e836138fb565b91507f4d757374206465706f736974206120706f73697469766520616d6f756e7400006000830152602082019050919050565b60006131946012836138fb565b91507f416c7265616479207265676973746572656400000000000000000000000000006000830152602082019050919050565b60006131d46013836138fb565b91507f43616e6e6f742072656d6f7665206f776e6572000000000000000000000000006000830152602082019050919050565b60006132146013836138fb565b91507f446562746f72206e6f7420696e2067726f7570000000000000000000000000006000830152602082019050919050565b6000613254601b836138fb565b91507f4175746f2d736574746c656d656e74206e6f7420656e61626c656400000000006000830152602082019050919050565b6000613294600c836138fb565b91507f4e6f742061206d656d62657200000000000000000000000000000000000000006000830152602082019050919050565b60006132d46014836138fb565b91507f47726f757020646f6573206e6f742065786973740000000000000000000000006000830152602082019050919050565b60006133146009836138fb565b91507f546f6f206561726c7900000000000000000000000000000000000000000000006000830152602082019050919050565b60006133546015836138fb565b91507f4372656469746f72206e6f7420696e2067726f757000000000000000000000006000830152602082019050919050565b60006133946015836138fb565b91507f4d656d626572206e6f74207265676973746572656400000000000000000000006000830152602082019050919050565b60006133d4600f836138fb565b91507f416c726561647920736574746c656400000000000000000000000000000000006000830152602082019050919050565b6000613414600f836138fb565b91507f4e6f742067726f7570206f776e657200000000000000000000000000000000006000830152602082019050919050565b60006134546010836138fb565b91507f416c72656164792061206d656d626572000000000000000000000000000000006000830152602082019050919050565b60006134946016836138fb565b91507f4f6e6c7920646562746f722063616e20736574746c65000000000000000000006000830152602082019050919050565b6134d0816139d4565b82525050565b60006020820190506134eb6000830184612f25565b92915050565b60006060820190506135066000830186612f25565b6135136020830185612f25565b61352060408301846134c7565b949350505050565b600060808201905061353d6000830187612f25565b61354a6020830186612f25565b61355760408301856134c7565b6135646060830184612f92565b95945050505050565b600060208201905081810360008301526135878184612f34565b905092915050565b60006020820190506135a46000830184612f92565b92915050565b600060208201905081810360008301526135c5818486612fa1565b90509392505050565b600060208201905081810360008301526135e88184612fce565b905092915050565b6000602082019050818103600083015261360981613007565b9050919050565b6000602082019050818103600083015261362981613047565b9050919050565b6000602082019050818103600083015261364981613087565b9050919050565b60006020820190508181036000830152613669816130c7565b9050919050565b6000602082019050818103600083015261368981613107565b9050919050565b600060208201905081810360008301526136a981613147565b9050919050565b600060208201905081810360008301526136c981613187565b9050919050565b600060208201905081810360008301526136e9816131c7565b9050919050565b6000602082019050818103600083015261370981613207565b9050919050565b6000602082019050818103600083015261372981613247565b9050919050565b6000602082019050818103600083015261374981613287565b9050919050565b60006020820190508181036000830152613769816132c7565b9050919050565b6000602082019050818103600083015261378981613307565b9050919050565b600060208201905081810360008301526137a981613347565b9050919050565b600060208201905081810360008301526137c981613387565b9050919050565b600060208201905081810360008301526137e9816133c7565b9050919050565b6000602082019050818103600083015261380981613407565b9050919050565b6000602082019050818103600083015261382981613447565b9050919050565b6000602082019050818103600083015261384981613487565b9050919050565b600060208201905061386560008301846134c7565b92915050565b600060808201905061388060008301876134c7565b81810360208301526138928186612fce565b90506138a16040830185612f25565b6138ae6060830184612f92565b95945050505050565b6000819050602082019050919050565b600081519050919050565b600081519050919050565b6000602082019050919050565b600082825260208201905092915050565b600082825260208201905092915050565b6000613917826139d4565b9150613922836139d4565b9250827fffffffffffffffffffffffffffffffffffffffffffffffffffffffffffffffff0382111561395757613956613a9b565b5b828201905092915050565b600061396d826139d4565b9150613978836139d4565b92508282101561398b5761398a613a9b565b5b828203905092915050565b60006139a1826139b4565b9050919050565b60008115159050919050565b600073ffffffffffffffffffffffffffffffffffffffff82169050919050565b6000819050919050565b82818337600083830152505050565b60005b83811015613a0b5780820151818401526020810190506139f0565b83811115613a1a576000848401525b50505050565b60006002820490506001821680613a3857607f821691505b60208210811415613a4c57613a4b613aca565b5b50919050565b6000613a5d826139d4565b91507fffffffffffffffffffffffffffffffffffffffffffffffffffffffffffffffff821415613a9057613a8f613a9b565b5b600182019050919050565b7f4e487b7100000000000000000000000000000000000000000000000000000000600052601160045260246000fd5b7f4e487b7100000000000000000000000000000000000000000000000000000000600052602260045260246000fd5b6000601f19601f8301169050919050565b613b1381613996565b8114613b1e57600080fd5b50565b613b2a816139d4565b8114613b3557600080fd5b5056fea2646970667358221220850f7f47e0c7cab9d524816a7d276200e2ac1a8042bf79710be8771d72f5dac864736f6c63430008000033",
  "immutableReferences": {},
  "source": "// SPDX-License-Identifier: MIT\r\npragma solidity ^0.8.0;\r\n\r\ncontract TabX {\r\n    struct Group {\r\n        uint256 id;\r\n        string name;\r\n        address owner;\r\n        address[] members;\r\n        mapping(address => bool) isMember;\r\n        bool exists;\r\n    }\r\n\r\n    struct Debt {\r\n        address debtor;\r\n        address creditor;\r\n        uint256 amount;\r\n        bool settled;\r\n    }\r\n\r\n    mapping(address => bool) public registered;\r\n    mapping(address => string) public usernameOf;\r\n    mapping(uint256 => Group) private groups;\r\n    uint256 public groupCount;\r\n    mapping(uint256 => Debt[]) public groupDebts;\r\n\r\n    mapping(uint256 => uint256) public autoSettlementTime;\r\n    mapping(uint256 => bool) public autoSettlementEnabled;\r\n    mapping(uint256 => mapping(address => uint256)) public groupEscrow;\r\n\r\n    event UserRegistered(address indexed user, string username);\r\n    event GroupCreated(uint256 indexed groupId, address indexed owner, string name);\r\n    event GroupDeleted(uint256 indexed groupId);\r\n    event MemberAdded(uint256 indexed groupId, address member);\r\n    event MemberRemoved(uint256 indexed groupId, address member);\r\n    event DebtAdded(uint256 indexed groupId, address debtor, address creditor, uint256 amount);\r\n    event DebtSettled(uint256 indexed groupId, address indexed debtor, address indexed creditor, uint256 amount);\r\n    event AutoSettlementScheduled(uint256 indexed groupId, uint256 timestamp);\r\n    event AutoSettlementExecuted(uint256 indexed groupId);\r\n    event SecurityDeposited(uint256 indexed groupId, address indexed user, uint256 amount);\r\n    event EscrowUsedForSettlement(uint256 indexed groupId, address indexed debtor, address indexed creditor, uint256 amount);\r\n\r\n    modifier onlyRegistered() {\r\n        require(registered[msg.sender], \"Not registered\");\r\n        _;\r\n    }\r\n\r\n    modifier groupExists(uint256 groupId) {\r\n        require(groups[groupId].exists, \"Group does not exist\");\r\n        _;\r\n    }\r\n\r\n    modifier onlyGroupOwner(uint256 groupId) {\r\n        require(groups[groupId].owner == msg.sender, \"Not group owner\");\r\n        _;\r\n    }\r\n\r\n    function registerUser(string calldata username) external {\r\n        require(!registered[msg.sender], \"Already registered\");\r\n        require(bytes(username).length > 0, \"Username cannot be empty\");\r\n        registered[msg.sender] = true;\r\n        usernameOf[msg.sender] = username;\r\n        emit UserRegistered(msg.sender, username);\r\n    }\r\n\r\n    function createGroup(string calldata name) external onlyRegistered {\r\n        require(bytes(name).length > 0, \"Group name cannot be empty\");\r\n        uint256 gid = ++groupCount;\r\n        Group storage g = groups[gid];\r\n        g.id = gid;\r\n        g.name = name;\r\n        g.owner = msg.sender;\r\n        g.exists = true;\r\n        g.isMember[msg.sender] = true;\r\n        g.members.push(msg.sender);\r\n        emit GroupCreated(gid, msg.sender, name);\r\n    }\r\n\r\n    function addMember(uint256 groupId, address member)\r\n        external\r\n        onlyRegistered\r\n        groupExists(groupId)\r\n        onlyGroupOwner(groupId)\r\n    {\r\n        require(registered[member], \"Member not registered\");\r\n        Group storage g = groups[groupId];\r\n        require(!g.isMember[member], \"Already a member\");\r\n        g.isMember[member] = true;\r\n        g.members.push(member);\r\n        emit MemberAdded(groupId, member);\r\n    }\r\n\r\n    function removeMember(uint256 groupId, address member)\r\n        external\r\n        onlyRegistered\r\n        groupExists(groupId)\r\n        onlyGroupOwner(groupId)\r\n    {\r\n        Group storage g = groups[groupId];\r\n        require(g.isMember[member], \"Not a member\");\r\n        require(member != g.owner, \"Cannot remove owner\");\r\n        g.isMember[member] = false;\r\n        for (uint256 i = 0; i < g.members.length; i++) {\r\n            if (g.members[i] == member) {\r\n                g.members[i] = g.members[g.members.length - 1];\r\n                g.members.pop();\r\n                break;\r\n            }\r\n        }\r\n        emit MemberRemoved(groupId, member);\r\n    }\r\n\r\n    function depositSecurity(uint256 groupId) external payable groupExists(groupId) onlyRegistered {\r\n        require(groups[groupId].isMember[msg.sender], \"Not a group member\");\r\n        require(msg.value > 0, \"Must deposit a positive amount\");\r\n        groupEscrow[groupId][msg.sender] += msg.value;\r\n        emit SecurityDeposited(groupId, msg.sender, msg.value);\r\n    }\r\n\r\n    function addDebt(uint256 groupId, address creditor, uint256 amount)\r\n        external\r\n        onlyRegistered\r\n        groupExists(groupId)\r\n    {\r\n        require(groups[groupId].isMember[msg.sender], \"Debtor not in group\");\r\n        require(groups[groupId].isMember[creditor], \"Creditor not in group\");\r\n        groupDebts[groupId].push(Debt({\r\n            debtor: msg.sender,\r\n            creditor: creditor,\r\n            amount: amount,\r\n            settled: false\r\n        }));\r\n        emit DebtAdded(groupId, msg.sender, creditor, amount);\r\n    }\r\n\r\n    function settleFromEscrow(uint256 groupId, uint256 index)\r\n        external\r\n        onlyRegistered\r\n        groupExists(groupId)\r\n    {\r\n        Debt storage d = groupDebts[groupId][index];\r\n        require(msg.sender == d.debtor, \"Only debtor can settle\");\r\n        require(!d.settled, \"Already settled\");\r\n        require(groupEscrow[groupId][msg.sender] >= d.amount, \"Insufficient escrow\");\r\n        groupEscrow[groupId][msg.sender] -= d.amount;\r\n        payable(d.creditor).transfer(d.amount);\r\n        d.settled = true;\r\n        emit DebtSettled(groupId, d.debtor, d.creditor, d.amount);\r\n    }\r\n\r\n    function triggerAutoSettlement(uint256 groupId)\r\n        external\r\n        onlyRegistered\r\n        groupExists(groupId)\r\n    {\r\n        require(autoSettlementEnabled[groupId], \"Auto-settlement not enabled\");\r\n        require(block.timestamp >= autoSettlementTime[groupId], \"Too early\");\r\n        Debt[] storage debts = groupDebts[groupId];\r\n        for (uint i = 0; i < debts.length; i++) {\r\n            if (!debts[i].settled && groupEscrow[groupId][debts[i].debtor] >= debts[i].amount) {\r\n                groupEscrow[groupId][debts[i].debtor] -= debts[i].amount;\r\n                payable(debts[i].creditor).transfer(debts[i].amount);\r\n                debts[i].settled = true;\r\n                emit DebtSettled(groupId, debts[i].debtor, debts[i].creditor, debts[i].amount);\r\n            }\r\n        }\r\n        autoSettlementEnabled[groupId] = false;\r\n        emit AutoSettlementExecuted(groupId);\r\n    }\r\n\r\n    function scheduleAutoSettlement(uint256 groupId, uint256 delayInSeconds)\r\n        external\r\n        onlyRegistered\r\n        groupExists(groupId)\r\n        onlyGroupOwner(groupId)\r\n    {\r\n        autoSettlementTime[groupId] = block.timestamp + delayInSeconds;\r\n        autoSettlementEnabled[groupId] = true;\r\n        emit AutoSettlementScheduled(groupId, autoSettlementTime[groupId]);\r\n    }\r\n\r\n    function getGroupMembers(uint256 groupId)\r\n        external\r\n        view\r\n        groupExists(groupId)\r\n        returns (address[] memory)\r\n    {\r\n        return groups[groupId].members;\r\n    }\r\n\r\n    function getGroupInfo(uint256 groupId)\r\n        external\r\n        view\r\n        groupExists(groupId)\r\n        returns (uint256 id, string memory name, address owner, bool exists)\r\n    {\r\n        Group storage g = groups[groupId];\r\n        return (g.id, g.name, g.owner, g.exists);\r\n    }\r\n\r\n    function getDebt(uint256 groupId, uint256 index)\r\n        external\r\n        view\r\n        returns (address debtor, address creditor, uint256 amount, bool settled)\r\n    {\r\n        Debt storage d = groupDebts[groupId][index];\r\n        return (d.debtor, d.creditor, d.amount, d.settled);\r\n    }\r\n\r\n    function getDebtCount(uint256 groupId)\r\n        external\r\n        view\r\n        returns (uint256)\r\n    {\r\n        return groupDebts[groupId].length;\r\n    }\r\n}\r\n",
  "sourcePath": "C:\\Users\\Aryan Gupta\\Desktop\\TabX\\Tabx\\truffle\\contracts\\Tabx.sol",
  "compiler": {
    "name": "solc",
    "version": "0.8.0+commit.c7dfd78e.Emscripten.clang"
  },
  "schemaVersion": "3.4.16",
  "updatedAt": "2025-04-23T19:26:29.260Z",
  "networkType": "ethereum",
  "devdoc": {
    "kind": "dev",
    "methods": {},
    "version": 1
  },
  "userdoc": {
    "kind": "user",
    "methods": {},
    "version": 1
  }
}